{
  "_format": "hh-sol-artifact-1",
  "contractName": "ExternalFunctionMock",
  "sourceName": "contracts/mocks/ExternalFunctionMock.sol",
  "abi": [
    {
      "anonymous": false,
      "inputs": [
        {
          "indexed": false,
          "internalType": "uint256",
          "name": "output",
          "type": "uint256"
        }
      ],
      "name": "Result",
      "type": "event"
    },
    {
      "inputs": [
        {
          "internalType": "uint256",
          "name": "a",
          "type": "uint256"
        },
        {
          "internalType": "uint256",
          "name": "b",
          "type": "uint256"
        }
      ],
      "name": "sum",
      "outputs": [
        {
          "internalType": "uint256",
          "name": "c",
          "type": "uint256"
        }
      ],
      "stateMutability": "nonpayable",
      "type": "function"
    }
  ],
  "bytecode": "0x608060405234801561001057600080fd5b50610142806100206000396000f3fe608060405234801561001057600080fd5b506004361061002b5760003560e01c8063cad0899b14610030575b600080fd5b6100536004803603604081101561004657600080fd5b5080359060200135610065565b60408051918252519081900360200190f35b600061007183836100ae565b6040805182815290519192507fa9bb0fa194e939eadb11be8d62dd4a16e0f5e89f37fb73fa7f0f8446f1abba61919081900360200190a192915050565b81810181811015610106576040805162461bcd60e51b815260206004820152601860248201527f426f72696e674d6174683a20416464204f766572666c6f770000000000000000604482015290519081900360640190fd5b9291505056fea2646970667358221220988721d44191826f644c6d91fd0a32eb82969285bcb662fe85d1e76da8c8d44364736f6c634300060c0033",
  "linkReferences": {},
  "deployedLinkReferences": {}
}