{
  "address": "0xCaAbdD9Cf4b61813D4a52f980d6BC1B713FE66F5",
  "abi": [
    {
      "inputs": [
        {
          "internalType": "address",
          "name": "_bentoBox",
          "type": "address"
        }
      ],
      "stateMutability": "nonpayable",
      "type": "constructor"
    },
    {
      "inputs": [],
      "name": "bentoBox",
      "outputs": [
        {
          "internalType": "contract IBentoBoxMinimal",
          "name": "",
          "type": "address"
        }
      ],
      "stateMutability": "view",
      "type": "function"
    },
    {
      "inputs": [
        {
          "internalType": "address",
          "name": "tokenIn",
          "type": "address"
        },
        {
          "internalType": "uint256",
          "name": "amountIn",
          "type": "uint256"
        },
        {
          "internalType": "address",
          "name": "tokenOut",
          "type": "address"
        },
        {
          "internalType": "uint256",
          "name": "amountOutMin",
          "type": "uint256"
        },
        {
          "internalType": "address",
          "name": "to",
          "type": "address"
        },
        {
          "internalType": "bytes",
          "name": "route",
          "type": "bytes"
        }
      ],
      "name": "processRoute",
      "outputs": [
        {
          "internalType": "uint256",
          "name": "amountOut",
          "type": "uint256"
        }
      ],
      "stateMutability": "payable",
      "type": "function"
    },
    {
      "inputs": [
        {
          "internalType": "address payable",
          "name": "transferValueTo",
          "type": "address"
        },
        {
          "internalType": "uint256",
          "name": "amountValueTransfer",
          "type": "uint256"
        },
        {
          "internalType": "address",
          "name": "tokenIn",
          "type": "address"
        },
        {
          "internalType": "uint256",
          "name": "amountIn",
          "type": "uint256"
        },
        {
          "internalType": "address",
          "name": "tokenOut",
          "type": "address"
        },
        {
          "internalType": "uint256",
          "name": "amountOutMin",
          "type": "uint256"
        },
        {
          "internalType": "address",
          "name": "to",
          "type": "address"
        },
        {
          "internalType": "bytes",
          "name": "route",
          "type": "bytes"
        }
      ],
      "name": "transferValueAndprocessRoute",
      "outputs": [
        {
          "internalType": "uint256",
          "name": "amountOut",
          "type": "uint256"
        }
      ],
      "stateMutability": "payable",
      "type": "function"
    },
    {
      "stateMutability": "payable",
      "type": "receive"
    }
  ],
  "transactionHash": "0xb3b6c3311721c555916f7c9073317740ce9af41e97baf9c75fc3496126a417e7",
  "args": [
    "0x0711B6026068f736bae6B213031fCE978D48E026"
  ],
  "numDeployments": 2,
  "solcInputHash": "3dc018b0d43198812e227dd88d4d691b",
  "bytecode": "0x60a0604052600160005534801561001557600080fd5b50604051620024e3380380620024e383398101604081905261003691610047565b6001600160a01b0316608052610077565b60006020828403121561005957600080fd5b81516001600160a01b038116811461007057600080fd5b9392505050565b608051612404620000df60003960008181607c01528181610fcc015281816111a50152818161128c015281816113770152818161148f0152818161156a0152818161162f015281816116dc015281816117bd01528181611883015261195201526124046000f3fe6080604052600436106100385760003560e01c80632646478b146100445780636b2ace871461006a57806393b3774c146100c357600080fd5b3661003f57005b600080fd5b610057610052366004611ed1565b6100d6565b6040519081526020015b60405180910390f35b34801561007657600080fd5b5061009e7f000000000000000000000000000000000000000000000000000000000000000081565b60405173ffffffffffffffffffffffffffffffffffffffff9091168152602001610061565b6100576100d1366004611f58565b61016b565b60008054600114610148576040517f08c379a000000000000000000000000000000000000000000000000000000000815260206004820152601860248201527f526f75746550726f636573736f72206973206c6f636b6564000000000000000060448201526064015b60405180910390fd5b600260005561015b878787878787610241565b6001600055979650505050505050565b600080546001146101d8576040517f08c379a000000000000000000000000000000000000000000000000000000000815260206004820152601860248201527f526f75746550726f636573736f72206973206c6f636b65640000000000000000604482015260640161013f565b6002600090815560405173ffffffffffffffffffffffffffffffffffffffff8b16918a156108fc02918b91818181858888f19350505050158015610220573d6000803e3d6000fd5b5061022f878787878787610241565b60016000559998505050505050505050565b6000808073ffffffffffffffffffffffffffffffffffffffff871673eeeeeeeeeeeeeeeeeeeeeeeeeeeeeeeeeeeeeeee1461030b576040517f70a0823100000000000000000000000000000000000000000000000000000000815273ffffffffffffffffffffffffffffffffffffffff86811660048301528816906370a0823190602401602060405180830381865afa1580156102e2573d6000803e3d6000fd5b505050506040513d601f19601f820116820180604052508101906103069190611ffd565b610324565b8473ffffffffffffffffffffffffffffffffffffffff16315b604080518082019091528581528551860160208201529091505b80516020820151111561051257600061035d8280516001018051915290565b905060148160ff16101561046a578060ff16600a141561038657610380826106ea565b5061050c565b8060ff16600414156103a05761039b82610a0c565b61050c565b8060ff16600314156103c7576103b6828c610b50565b6103c09085612045565b935061050c565b8060ff16600514156103dc576103b682610be8565b8060ff16600614156103f25761039b8783610d81565b8060ff1660071415610408576103b6828c610ed2565b6040517f08c379a000000000000000000000000000000000000000000000000000000000815260206004820152601460248201527f556e6b6e6f776e20636f6d6d616e6420636f6465000000000000000000000000604482015260640161013f565b60188160ff1610156104b7578060ff166014141561048c5761039b828c610f61565b8060ff16601514156104a15761039b82611061565b8060ff16601714156104085761039b828c61111b565b8060ff16601814156104cd576103b6828c6111d6565b8060ff16601914156104e25761039b826112fd565b8060ff16601a14156104f75761039b826114f9565b8060ff16601b14156104085761039b8261180c565b5061033e565b88831461057b576040517f08c379a000000000000000000000000000000000000000000000000000000000815260206004820152601460248201527f57726f6e6720616d6f756e74496e2076616c7565000000000000000000000000604482015260640161013f565b600073ffffffffffffffffffffffffffffffffffffffff891673eeeeeeeeeeeeeeeeeeeeeeeeeeeeeeeeeeeeeeee14610643576040517f70a0823100000000000000000000000000000000000000000000000000000000815273ffffffffffffffffffffffffffffffffffffffff88811660048301528a16906370a0823190602401602060405180830381865afa15801561061a573d6000803e3d6000fd5b505050506040513d601f19601f8201168201806040525081019061063e9190611ffd565b61065c565b8673ffffffffffffffffffffffffffffffffffffffff16315b90506106688884612045565b8110156106d1576040517f08c379a000000000000000000000000000000000000000000000000000000000815260206004820152601f60248201527f4d696e696d616c206f757075742062616c616e63652076696f6c6174696f6e00604482015260640161013f565b6106db838261205d565b9b9a5050505050505050505050565b6000806106fd8380516014018051915290565b905060006107118480516014018051915290565b905060006107258580516001018051915290565b905060006107398680516014018051915290565b90506000808573ffffffffffffffffffffffffffffffffffffffff16630902f1ac6040518163ffffffff1660e01b8152600401606060405180830381865afa158015610789573d6000803e3d6000fd5b505050506040513d601f19601f820116820180604052508101906107ad9190612097565b506dffffffffffffffffffffffffffff1691506dffffffffffffffffffffffffffff1691506000821180156107e25750600081115b610848576040517f08c379a000000000000000000000000000000000000000000000000000000000815260206004820152601360248201527f57726f6e6720706f6f6c20726573657276657300000000000000000000000000604482015260640161013f565b6000808560ff1660011461085d578284610860565b83835b6040517f70a0823100000000000000000000000000000000000000000000000000000000815273ffffffffffffffffffffffffffffffffffffffff8b811660048301529294509092506000918491908a16906370a0823190602401602060405180830381865afa1580156108d8573d6000803e3d6000fd5b505050506040513d601f19601f820116820180604052508101906108fc9190611ffd565b610906919061205d565b90506000610916826103e56120e7565b905080610925856103e86120e7565b61092f9190612045565b61093984836120e7565b6109439190612124565b9a506000808960ff1660011461095b578c600061095f565b60008d5b604080516000815260208101918290527f022c0d9f00000000000000000000000000000000000000000000000000000000909152919350915073ffffffffffffffffffffffffffffffffffffffff8d169063022c0d9f906109c990859085908e90602481016121d5565b600060405180830381600087803b1580156109e357600080fd5b505af11580156109f7573d6000803e3d6000fd5b50505050505050505050505050505050919050565b6000610a1e8280516014018051915290565b90506000610a328380516001018051915290565b6040517f70a0823100000000000000000000000000000000000000000000000000000000815230600482015290915060009060019073ffffffffffffffffffffffffffffffffffffffff8516906370a0823190602401602060405180830381865afa158015610aa5573d6000803e3d6000fd5b505050506040513d601f19601f82011682018060405250810190610ac99190611ffd565b610ad3919061205d565b905060005b8260ff16811015610b49576000610af58680516014018051915290565b90506000610b098780516002018051915290565b61ffff8082168602049485900394909150610b3b73ffffffffffffffffffffffffffffffffffffffff88168483611983565b505050806001019050610ad8565b5050505050565b600080610b638480516001018051915290565b90506000915060005b8160ff16811015610be0576000610b898680516014018051915290565b90506000610b9d8780516020018051915290565b9050610ba98186612045565b9450610bcd73ffffffffffffffffffffffffffffffffffffffff8716338484611a5c565b505080610bd99061221a565b9050610b6c565b505092915050565b600080610bfb8380516014018051915290565b90508073ffffffffffffffffffffffffffffffffffffffff1663d0e30db0476040518263ffffffff1660e01b81526004016000604051808303818588803b158015610c4557600080fd5b505af1158015610c59573d6000803e3d6000fd5b50505050506000610c708480516001018051915290565b90506000925060005b8160ff16811015610cec576000610c968680516014018051915290565b90506000610caa8780516020018051915290565b9050610cb68187612045565b9550610cd973ffffffffffffffffffffffffffffffffffffffff86168383611983565b505080610ce59061221a565b9050610c79565b504715610d7a576040517f08c379a0000000000000000000000000000000000000000000000000000000008152602060048201526024808201527f526f75746550726f636573736f723a20696e76616c696420696e70757420616d60448201527f6f756e7400000000000000000000000000000000000000000000000000000000606482015260840161013f565b5050919050565b6000610d938280516014018051915290565b6040517f70a0823100000000000000000000000000000000000000000000000000000000815230600482015290915073ffffffffffffffffffffffffffffffffffffffff821690632e1a7d4d9060019083906370a0823190602401602060405180830381865afa158015610e0b573d6000803e3d6000fd5b505050506040513d601f19601f82011682018060405250810190610e2f9190611ffd565b610e39919061205d565b6040518263ffffffff1660e01b8152600401610e5791815260200190565b600060405180830381600087803b158015610e7157600080fd5b505af1158015610e85573d6000803e3d6000fd5b505060405173ffffffffffffffffffffffffffffffffffffffff861692504780156108fc029250906000818181858888f19350505050158015610ecc573d6000803e3d6000fd5b50505050565b600080610ee58480516001018051915290565b90506000915060005b8160ff16811015610be0576000610f0b8680516014018051915290565b90506000610f1f8780516020018051915290565b9050610f2b8186612045565b9450610f4e73ffffffffffffffffffffffffffffffffffffffff87168383611983565b505080610f5a9061221a565b9050610eee565b6000610f738380516014018051915290565b90506000610f878480516020018051915290565b6040517f02b9446c00000000000000000000000000000000000000000000000000000000815273ffffffffffffffffffffffffffffffffffffffff85811660048301527f0000000000000000000000000000000000000000000000000000000000000000811660248301819052908516604483015260648201839052600060848301529192506302b9446c9060a4015b60408051808303816000875af1158015611035573d6000803e3d6000fd5b505050506040513d601f19601f820116820180604052508101906110599190612253565b505050505050565b60006110738280516014018051915290565b8251602080820180519092010184526040517f627dd56a0000000000000000000000000000000000000000000000000000000081529192509073ffffffffffffffffffffffffffffffffffffffff83169063627dd56a906110d8908490600401612277565b6020604051808303816000875af11580156110f7573d6000803e3d6000fd5b505050506040513d601f19601f82011682018060405250810190610ecc9190611ffd565b600061112d8380516014018051915290565b905060006111418480516020018051915290565b6040517f97da6d3000000000000000000000000000000000000000000000000000000000815273ffffffffffffffffffffffffffffffffffffffff8581166004830152306024830152848116604483015260648201839052600060848301529192507f0000000000000000000000000000000000000000000000000000000000000000909116906397da6d309060a401611017565b6000806111e98480516001018051915290565b90506000915060005b8160ff16811015610be057600061120f8680516014018051915290565b905060006112238780516020018051915290565b905061122f8186612045565b6040517ff18d03cc00000000000000000000000000000000000000000000000000000000815273ffffffffffffffffffffffffffffffffffffffff88811660048301523360248301528481166044830152606482018490529196507f00000000000000000000000000000000000000000000000000000000000000009091169063f18d03cc90608401600060405180830381600087803b1580156112d257600080fd5b505af11580156112e6573d6000803e3d6000fd5b505050505050806112f69061221a565b90506111f2565b600061130f8280516014018051915290565b905060006113238380516001018051915290565b6040517ff7888aec00000000000000000000000000000000000000000000000000000000815273ffffffffffffffffffffffffffffffffffffffff84811660048301523060248301529192506000916001917f00000000000000000000000000000000000000000000000000000000000000009091169063f7888aec90604401602060405180830381865afa1580156113c0573d6000803e3d6000fd5b505050506040513d601f19601f820116820180604052508101906113e49190611ffd565b6113ee919061205d565b905060005b8260ff16811015610b495760006114108680516014018051915290565b905060006114248780516002018051915290565b6040517ff18d03cc00000000000000000000000000000000000000000000000000000000815273ffffffffffffffffffffffffffffffffffffffff8881166004830152306024830152848116604483015261ffff8084168802046064830181905296879003969293507f0000000000000000000000000000000000000000000000000000000000000000169063f18d03cc90608401600060405180830381600087803b1580156114d357600080fd5b505af11580156114e7573d6000803e3d6000fd5b505050505050508060010190506113f3565b600061150b8280516014018051915290565b9050600061151f8380516014018051915290565b6040517f4ffe34db00000000000000000000000000000000000000000000000000000000815273ffffffffffffffffffffffffffffffffffffffff80831660048301529192506000917f00000000000000000000000000000000000000000000000000000000000000001690634ffe34db906024016040805180830381865afa1580156115b0573d6000803e3d6000fd5b505050506040513d601f19601f820116820180604052508101906115d491906122b1565b516040517fdf23b45b00000000000000000000000000000000000000000000000000000000815273ffffffffffffffffffffffffffffffffffffffff84811660048301526fffffffffffffffffffffffffffffffff909216917f0000000000000000000000000000000000000000000000000000000000000000169063df23b45b90602401606060405180830381865afa158015611676573d6000803e3d6000fd5b505050506040513d601f19601f8201168201806040525081019061169a9190612324565b60409081015190517f70a0823100000000000000000000000000000000000000000000000000000000815273ffffffffffffffffffffffffffffffffffffffff7f0000000000000000000000000000000000000000000000000000000000000000811660048301526fffffffffffffffffffffffffffffffff909216918516906370a0823190602401602060405180830381865afa158015611740573d6000803e3d6000fd5b505050506040513d601f19601f820116820180604052508101906117649190611ffd565b61176e9190612045565b611778919061205d565b6040517f02b9446c00000000000000000000000000000000000000000000000000000000815273ffffffffffffffffffffffffffffffffffffffff84811660048301527f0000000000000000000000000000000000000000000000000000000000000000811660248301819052908616604483015260648201839052600060848301529192506302b9446c9060a401611017565b600061181e8280516014018051915290565b905060006118328380516014018051915290565b6040517ff7888aec00000000000000000000000000000000000000000000000000000000815273ffffffffffffffffffffffffffffffffffffffff84811660048301523060248301529192506000917f0000000000000000000000000000000000000000000000000000000000000000169063f7888aec90604401602060405180830381865afa1580156118ca573d6000803e3d6000fd5b505050506040513d601f19601f820116820180604052508101906118ee9190611ffd565b6040517f97da6d3000000000000000000000000000000000000000000000000000000000815273ffffffffffffffffffffffffffffffffffffffff8581166004830152306024830152848116604483015260006064830152608482018390529192507f0000000000000000000000000000000000000000000000000000000000000000909116906397da6d309060a401611017565b60405173ffffffffffffffffffffffffffffffffffffffff8316602482015260448101829052611a579084907fa9059cbb00000000000000000000000000000000000000000000000000000000906064015b604080517fffffffffffffffffffffffffffffffffffffffffffffffffffffffffffffffe08184030181529190526020810180517bffffffffffffffffffffffffffffffffffffffffffffffffffffffff167fffffffff0000000000000000000000000000000000000000000000000000000090931692909217909152611aba565b505050565b60405173ffffffffffffffffffffffffffffffffffffffff80851660248301528316604482015260648101829052610ecc9085907f23b872dd00000000000000000000000000000000000000000000000000000000906084016119d5565b6000611b1c826040518060400160405280602081526020017f5361666545524332303a206c6f772d6c6576656c2063616c6c206661696c65648152508573ffffffffffffffffffffffffffffffffffffffff16611bc69092919063ffffffff16565b805190915015611a575780806020019051810190611b3a9190612390565b611a57576040517f08c379a000000000000000000000000000000000000000000000000000000000815260206004820152602a60248201527f5361666545524332303a204552433230206f7065726174696f6e20646964206e60448201527f6f74207375636365656400000000000000000000000000000000000000000000606482015260840161013f565b6060611bd58484600085611bdd565b949350505050565b606082471015611c6f576040517f08c379a000000000000000000000000000000000000000000000000000000000815260206004820152602660248201527f416464726573733a20696e73756666696369656e742062616c616e636520666f60448201527f722063616c6c0000000000000000000000000000000000000000000000000000606482015260840161013f565b6000808673ffffffffffffffffffffffffffffffffffffffff168587604051611c9891906123b2565b60006040518083038185875af1925050503d8060008114611cd5576040519150601f19603f3d011682016040523d82523d6000602084013e611cda565b606091505b5091509150611ceb87838387611cf6565b979650505050505050565b60608315611d89578251611d825773ffffffffffffffffffffffffffffffffffffffff85163b611d82576040517f08c379a000000000000000000000000000000000000000000000000000000000815260206004820152601d60248201527f416464726573733a2063616c6c20746f206e6f6e2d636f6e7472616374000000604482015260640161013f565b5081611bd5565b611bd58383815115611d9e5781518083602001fd5b806040517f08c379a000000000000000000000000000000000000000000000000000000000815260040161013f9190612277565b73ffffffffffffffffffffffffffffffffffffffff81168114611df457600080fd5b50565b7f4e487b7100000000000000000000000000000000000000000000000000000000600052604160045260246000fd5b600082601f830112611e3757600080fd5b813567ffffffffffffffff80821115611e5257611e52611df7565b604051601f83017fffffffffffffffffffffffffffffffffffffffffffffffffffffffffffffffe0908116603f01168101908282118183101715611e9857611e98611df7565b81604052838152866020858801011115611eb157600080fd5b836020870160208301376000602085830101528094505050505092915050565b60008060008060008060c08789031215611eea57600080fd5b8635611ef581611dd2565b9550602087013594506040870135611f0c81611dd2565b9350606087013592506080870135611f2381611dd2565b915060a087013567ffffffffffffffff811115611f3f57600080fd5b611f4b89828a01611e26565b9150509295509295509295565b600080600080600080600080610100898b031215611f7557600080fd5b8835611f8081611dd2565b9750602089013596506040890135611f9781611dd2565b9550606089013594506080890135611fae81611dd2565b935060a0890135925060c0890135611fc581611dd2565b915060e089013567ffffffffffffffff811115611fe157600080fd5b611fed8b828c01611e26565b9150509295985092959890939650565b60006020828403121561200f57600080fd5b5051919050565b7f4e487b7100000000000000000000000000000000000000000000000000000000600052601160045260246000fd5b6000821982111561205857612058612016565b500190565b60008282101561206f5761206f612016565b500390565b80516dffffffffffffffffffffffffffff8116811461209257600080fd5b919050565b6000806000606084860312156120ac57600080fd5b6120b584612074565b92506120c360208501612074565b9150604084015163ffffffff811681146120dc57600080fd5b809150509250925092565b6000817fffffffffffffffffffffffffffffffffffffffffffffffffffffffffffffffff048311821515161561211f5761211f612016565b500290565b60008261215a577f4e487b7100000000000000000000000000000000000000000000000000000000600052601260045260246000fd5b500490565b60005b8381101561217a578181015183820152602001612162565b83811115610ecc5750506000910152565b600081518084526121a381602086016020860161215f565b601f017fffffffffffffffffffffffffffffffffffffffffffffffffffffffffffffffe0169290920160200192915050565b84815283602082015273ffffffffffffffffffffffffffffffffffffffff83166040820152608060608201526000612210608083018461218b565b9695505050505050565b60007fffffffffffffffffffffffffffffffffffffffffffffffffffffffffffffffff82141561224c5761224c612016565b5060010190565b6000806040838503121561226657600080fd5b505080516020909101519092909150565b60208152600061228a602083018461218b565b9392505050565b80516fffffffffffffffffffffffffffffffff8116811461209257600080fd5b6000604082840312156122c357600080fd5b6040516040810181811067ffffffffffffffff821117156122e6576122e6611df7565b6040526122f283612291565b815261230060208401612291565b60208201529392505050565b805167ffffffffffffffff8116811461209257600080fd5b60006060828403121561233657600080fd5b6040516060810181811067ffffffffffffffff8211171561235957612359611df7565b6040526123658361230c565b81526123736020840161230c565b602082015261238460408401612291565b60408201529392505050565b6000602082840312156123a257600080fd5b8151801515811461228a57600080fd5b600082516123c481846020870161215f565b919091019291505056fea2646970667358221220e76ba65f5c1f5aefa633502239cc7a4a88b4bc322211677c0ca6c2b6c8e766e564736f6c634300080a0033",
  "devdoc": {
    "author": "Okavango",
    "kind": "dev",
    "methods": {
      "processRoute(address,uint256,address,uint256,address,bytes)": {
        "params": {
          "amountIn": "Amount of the input token",
          "amountOutMin": "Minimum amount of the output token",
          "tokenIn": "Address of the input token",
          "tokenOut": "Address of the output token"
        },
        "returns": {
          "amountOut": "Actual amount of the output token"
        }
      },
      "transferValueAndprocessRoute(address,uint256,address,uint256,address,uint256,address,bytes)": {
        "params": {
          "amountIn": "Amount of the input token",
          "amountOutMin": "Minimum amount of the output token",
          "amountValueTransfer": "How much value to transfer",
          "tokenIn": "Address of the input token",
          "tokenOut": "Address of the output token",
          "transferValueTo": "Address where the value should be transferred"
        },
        "returns": {
          "amountOut": "Actual amount of the output token"
        }
      }
    },
    "title": "A route processor for the Sushi Aggregator",
    "version": 1
  },
  "userdoc": {
    "kind": "user",
    "methods": {
      "processRoute(address,uint256,address,uint256,address,bytes)": {
        "notice": "Processes the route generated off-chain. Has a lock"
      },
      "transferValueAndprocessRoute(address,uint256,address,uint256,address,uint256,address,bytes)": {
        "notice": "Transfers some value to <transferValueTo> and then processes the route"
      }
    },
    "version": 1
  },
  "storageLayout": {
    "storage": [
      {
        "astId": 834,
        "contract": "contracts/RouteProcessor.sol:RouteProcessor",
        "label": "unlocked",
        "offset": 0,
        "slot": "0",
        "type": "t_uint256"
      }
    ],
    "types": {
      "t_uint256": {
        "encoding": "inplace",
        "label": "uint256",
        "numberOfBytes": "32"
      }
    }
  }
}