{
  "_format": "hh-sol-artifact-1",
  "contractName": "RouteProcessor4",
  "sourceName": "contracts/RouteProcessor4.sol",
  "abi": [
    {
      "inputs": [
        {
          "internalType": "address",
          "name": "_bentoBox",
          "type": "address"
        },
        {
          "internalType": "address[]",
          "name": "priviledgedUserList",
          "type": "address[]"
        }
      ],
      "stateMutability": "nonpayable",
      "type": "constructor"
    },
    {
      "inputs": [
        {
          "internalType": "uint256",
          "name": "amountOut",
          "type": "uint256"
        }
      ],
      "name": "MinimalOutputBalanceViolation",
      "type": "error"
    },
    {
      "anonymous": false,
      "inputs": [
        {
          "indexed": true,
          "internalType": "address",
          "name": "previousOwner",
          "type": "address"
        },
        {
          "indexed": true,
          "internalType": "address",
          "name": "newOwner",
          "type": "address"
        }
      ],
      "name": "OwnershipTransferred",
      "type": "event"
    },
    {
      "anonymous": false,
      "inputs": [
        {
          "indexed": true,
          "internalType": "address",
          "name": "from",
          "type": "address"
        },
        {
          "indexed": false,
          "internalType": "address",
          "name": "to",
          "type": "address"
        },
        {
          "indexed": true,
          "internalType": "address",
          "name": "tokenIn",
          "type": "address"
        },
        {
          "indexed": true,
          "internalType": "address",
          "name": "tokenOut",
          "type": "address"
        },
        {
          "indexed": false,
          "internalType": "uint256",
          "name": "amountIn",
          "type": "uint256"
        },
        {
          "indexed": false,
          "internalType": "uint256",
          "name": "amountOutMin",
          "type": "uint256"
        },
        {
          "indexed": false,
          "internalType": "uint256",
          "name": "amountOut",
          "type": "uint256"
        }
      ],
      "name": "Route",
      "type": "event"
    },
    {
      "inputs": [
        {
          "internalType": "int256",
          "name": "amount0Delta",
          "type": "int256"
        },
        {
          "internalType": "int256",
          "name": "amount1Delta",
          "type": "int256"
        },
        {
          "internalType": "bytes",
          "name": "data",
          "type": "bytes"
        }
      ],
      "name": "algebraSwapCallback",
      "outputs": [],
      "stateMutability": "nonpayable",
      "type": "function"
    },
    {
      "inputs": [],
      "name": "bentoBox",
      "outputs": [
        {
          "internalType": "contract IBentoBoxMinimal",
          "name": "",
          "type": "address"
        }
      ],
      "stateMutability": "view",
      "type": "function"
    },
    {
      "inputs": [],
      "name": "owner",
      "outputs": [
        {
          "internalType": "address",
          "name": "",
          "type": "address"
        }
      ],
      "stateMutability": "view",
      "type": "function"
    },
    {
      "inputs": [
        {
          "internalType": "int256",
          "name": "amount0Delta",
          "type": "int256"
        },
        {
          "internalType": "int256",
          "name": "amount1Delta",
          "type": "int256"
        },
        {
          "internalType": "bytes",
          "name": "data",
          "type": "bytes"
        }
      ],
      "name": "pancakeV3SwapCallback",
      "outputs": [],
      "stateMutability": "nonpayable",
      "type": "function"
    },
    {
      "inputs": [],
      "name": "pause",
      "outputs": [],
      "stateMutability": "nonpayable",
      "type": "function"
    },
    {
      "inputs": [
        {
          "internalType": "address",
          "name": "tokenIn",
          "type": "address"
        },
        {
          "internalType": "uint256",
          "name": "amountIn",
          "type": "uint256"
        },
        {
          "internalType": "address",
          "name": "tokenOut",
          "type": "address"
        },
        {
          "internalType": "uint256",
          "name": "amountOutMin",
          "type": "uint256"
        },
        {
          "internalType": "address",
          "name": "to",
          "type": "address"
        },
        {
          "internalType": "bytes",
          "name": "route",
          "type": "bytes"
        }
      ],
      "name": "processRoute",
      "outputs": [
        {
          "internalType": "uint256",
          "name": "amountOut",
          "type": "uint256"
        }
      ],
      "stateMutability": "payable",
      "type": "function"
    },
    {
      "inputs": [],
      "name": "renounceOwnership",
      "outputs": [],
      "stateMutability": "nonpayable",
      "type": "function"
    },
    {
      "inputs": [],
      "name": "resume",
      "outputs": [],
      "stateMutability": "nonpayable",
      "type": "function"
    },
    {
      "inputs": [
        {
          "internalType": "address",
          "name": "user",
          "type": "address"
        },
        {
          "internalType": "bool",
          "name": "priviledge",
          "type": "bool"
        }
      ],
      "name": "setPriviledge",
      "outputs": [],
      "stateMutability": "nonpayable",
      "type": "function"
    },
    {
      "inputs": [
        {
          "internalType": "address",
          "name": "newOwner",
          "type": "address"
        }
      ],
      "name": "transferOwnership",
      "outputs": [],
      "stateMutability": "nonpayable",
      "type": "function"
    },
    {
      "inputs": [
        {
          "internalType": "address payable",
          "name": "transferValueTo",
          "type": "address"
        },
        {
          "internalType": "uint256",
          "name": "amountValueTransfer",
          "type": "uint256"
        },
        {
          "internalType": "address",
          "name": "tokenIn",
          "type": "address"
        },
        {
          "internalType": "uint256",
          "name": "amountIn",
          "type": "uint256"
        },
        {
          "internalType": "address",
          "name": "tokenOut",
          "type": "address"
        },
        {
          "internalType": "uint256",
          "name": "amountOutMin",
          "type": "uint256"
        },
        {
          "internalType": "address",
          "name": "to",
          "type": "address"
        },
        {
          "internalType": "bytes",
          "name": "route",
          "type": "bytes"
        }
      ],
      "name": "transferValueAndprocessRoute",
      "outputs": [
        {
          "internalType": "uint256",
          "name": "amountOut",
          "type": "uint256"
        }
      ],
      "stateMutability": "payable",
      "type": "function"
    },
    {
      "inputs": [
        {
          "internalType": "int256",
          "name": "amount0Delta",
          "type": "int256"
        },
        {
          "internalType": "int256",
          "name": "amount1Delta",
          "type": "int256"
        },
        {
          "internalType": "bytes",
          "name": "data",
          "type": "bytes"
        }
      ],
      "name": "uniswapV3SwapCallback",
      "outputs": [],
      "stateMutability": "nonpayable",
      "type": "function"
    },
    {
      "stateMutability": "payable",
      "type": "receive"
    }
  ],
  "bytecode": "0x60a06040526002805461ffff60a01b191661010160a01b1790553480156200002657600080fd5b5060405162003ed638038062003ed683398101604081905262000049916200016e565b6200005433620000eb565b6001600160a01b038216608052600280546001600160a01b031916600117905560005b8151811015620000e25760018060008484815181106200009b576200009b62000257565b6020908102919091018101516001600160a01b03168252810191909152604001600020805460ff191691151591909117905580620000d9816200026d565b91505062000077565b50505062000297565b600080546001600160a01b038381166001600160a01b0319831681178455604051919092169283917f8be0079c531659141344cd1fd0a4f28419497f9722a3daafe3b4186f6b6457e09190a35050565b80516001600160a01b03811681146200015357600080fd5b919050565b634e487b7160e01b600052604160045260246000fd5b600080604083850312156200018257600080fd5b6200018d836200013b565b602084810151919350906001600160401b0380821115620001ad57600080fd5b818601915086601f830112620001c257600080fd5b815181811115620001d757620001d762000158565b8060051b604051601f19603f83011681018181108582111715620001ff57620001ff62000158565b6040529182528482019250838101850191898311156200021e57600080fd5b938501935b82851015620002475762000237856200013b565b8452938501939285019262000223565b8096505050505050509250929050565b634e487b7160e01b600052603260045260246000fd5b60006000198214156200029057634e487b7160e01b600052601160045260246000fd5b5060010190565b608051613bd6620003006000396000818161014601528181611525015281816124c30152818161250a0152818161257401528181612639015281816126e6015281816127ca015281816128bb0152818161296701528181612a360152612b320152613bd66000f3fe6080604052600436106100cb5760003560e01c80638456cb59116100745780639a1f34061161004e5780639a1f3406146101f5578063f2fde38b14610215578063fa461e331461023557600080fd5b80638456cb59146101a25780638da5cb5b146101b757806393b3774c146101e257600080fd5b80632c8958f6116100a55780632c8958f6146100ee5780636b2ace8714610134578063715018a61461018d57600080fd5b8063046f7da2146100d757806323a69e75146100ee5780632646478b1461010e57600080fd5b366100d257005b600080fd5b3480156100e357600080fd5b506100ec610255565b005b3480156100fa57600080fd5b506100ec6101093660046133fd565b610363565b61012161011c366004613579565b610375565b6040519081526020015b60405180910390f35b34801561014057600080fd5b506101687f000000000000000000000000000000000000000000000000000000000000000081565b60405173ffffffffffffffffffffffffffffffffffffffff909116815260200161012b565b34801561019957600080fd5b506100ec61051f565b3480156101ae57600080fd5b506100ec610533565b3480156101c357600080fd5b5060005473ffffffffffffffffffffffffffffffffffffffff16610168565b6101216101f0366004613600565b61063c565b34801561020157600080fd5b506100ec6102103660046136b3565b6108a8565b34801561022157600080fd5b506100ec6102303660046136ec565b610906565b34801561024157600080fd5b506100ec6102503660046133fd565b6109bd565b60005473ffffffffffffffffffffffffffffffffffffffff1633148061029057503360009081526001602081905260409091205460ff161515145b610321576040517f08c379a000000000000000000000000000000000000000000000000000000000815260206004820152603160248201527f52503a2063616c6c6572206973206e6f7420746865206f776e6572206f72206160448201527f2070726976696c6564676564207573657200000000000000000000000000000060648201526084015b60405180910390fd5b600280547fffffffffffffffffffff00ffffffffffffffffffffffffffffffffffffffffff167501000000000000000000000000000000000000000000179055565b61036f848484846109bd565b50505050565b60025460009074010000000000000000000000000000000000000000900460ff166001146103ff576040517f08c379a000000000000000000000000000000000000000000000000000000000815260206004820152601860248201527f526f75746550726f636573736f72206973206c6f636b656400000000000000006044820152606401610318565b6002547501000000000000000000000000000000000000000000900460ff16600114610487576040517f08c379a000000000000000000000000000000000000000000000000000000000815260206004820152601860248201527f526f75746550726f636573736f722069732070617573656400000000000000006044820152606401610318565b600280547fffffffffffffffffffffff00ffffffffffffffffffffffffffffffffffffffff16740200000000000000000000000000000000000000001790556104d4878787878787610b6b565b9050600280547fffffffffffffffffffffff00ffffffffffffffffffffffffffffffffffffffff16740100000000000000000000000000000000000000001790559695505050505050565b6105276111af565b6105316000611230565b565b60005473ffffffffffffffffffffffffffffffffffffffff1633148061056e57503360009081526001602081905260409091205460ff161515145b6105fa576040517f08c379a000000000000000000000000000000000000000000000000000000000815260206004820152603160248201527f52503a2063616c6c6572206973206e6f7420746865206f776e6572206f72206160448201527f2070726976696c656467656420757365720000000000000000000000000000006064820152608401610318565b600280547fffffffffffffffffffff00ffffffffffffffffffffffffffffffffffffffffff167502000000000000000000000000000000000000000000179055565b60025460009074010000000000000000000000000000000000000000900460ff166001146106c6576040517f08c379a000000000000000000000000000000000000000000000000000000000815260206004820152601860248201527f526f75746550726f636573736f72206973206c6f636b656400000000000000006044820152606401610318565b6002547501000000000000000000000000000000000000000000900460ff1660011461074e576040517f08c379a000000000000000000000000000000000000000000000000000000000815260206004820152601860248201527f526f75746550726f636573736f722069732070617573656400000000000000006044820152606401610318565b600280547fffffffffffffffffffffff00ffffffffffffffffffffffffffffffffffffffff1674020000000000000000000000000000000000000000179055604051600090819073ffffffffffffffffffffffffffffffffffffffff8c16908b908381818185875af1925050503d80600081146107e7576040519150601f19603f3d011682016040523d82523d6000602084013e6107ec565b606091505b50915091508181604051602001610803919061373c565b6040516020818303038152906040529061084a576040517f08c379a000000000000000000000000000000000000000000000000000000000815260040161031891906137a2565b50610859898989898989610b6b565b92505050600280547fffffffffffffffffffffff00ffffffffffffffffffffffffffffffffffffffff167401000000000000000000000000000000000000000017905598975050505050505050565b6108b06111af565b73ffffffffffffffffffffffffffffffffffffffff91909116600090815260016020526040902080547fffffffffffffffffffffffffffffffffffffffffffffffffffffffffffffff0016911515919091179055565b61090e6111af565b73ffffffffffffffffffffffffffffffffffffffff81166109b1576040517f08c379a000000000000000000000000000000000000000000000000000000000815260206004820152602660248201527f4f776e61626c653a206e6577206f776e657220697320746865207a65726f206160448201527f64647265737300000000000000000000000000000000000000000000000000006064820152608401610318565b6109ba81611230565b50565b60025473ffffffffffffffffffffffffffffffffffffffff163314610a64576040517f08c379a000000000000000000000000000000000000000000000000000000000815260206004820152603e60248201527f526f75746550726f636573736f722e756e697377617056335377617043616c6c60448201527f6261636b3a2063616c6c2066726f6d20756e6b6e6f776e20736f7572636500006064820152608401610318565b600280547fffffffffffffffffffffffff00000000000000000000000000000000000000001660011790556000610a9d828401846136ec565b90506000808613610aae5784610ab0565b855b905060008113610b42576040517f08c379a000000000000000000000000000000000000000000000000000000000815260206004820152603960248201527f526f75746550726f636573736f722e756e697377617056335377617043616c6c60448201527f6261636b3a206e6f7420706f73697469766520616d6f756e74000000000000006064820152608401610318565b610b6373ffffffffffffffffffffffffffffffffffffffff831633836112a5565b505050505050565b60008073ffffffffffffffffffffffffffffffffffffffff881673eeeeeeeeeeeeeeeeeeeeeeeeeeeeeeeeeeeeeeee14610c32576040517f70a0823100000000000000000000000000000000000000000000000000000000815233600482015273ffffffffffffffffffffffffffffffffffffffff8916906370a0823190602401602060405180830381865afa158015610c09573d6000803e3d6000fd5b505050506040513d601f19601f82011682018060405250810190610c2d91906137b5565b610c34565b475b9050600073ffffffffffffffffffffffffffffffffffffffff871673eeeeeeeeeeeeeeeeeeeeeeeeeeeeeeeeeeeeeeee14610cfe576040517f70a0823100000000000000000000000000000000000000000000000000000000815273ffffffffffffffffffffffffffffffffffffffff86811660048301528816906370a0823190602401602060405180830381865afa158015610cd5573d6000803e3d6000fd5b505050506040513d601f19601f82011682018060405250810190610cf991906137b5565b610d17565b8473ffffffffffffffffffffffffffffffffffffffff16315b905087600080610d3b87604080518082019091528181528151909101602082015290565b90505b805160208201511115610e91576000610d5d8280516001018051915290565b90508060ff1660011415610d87576000610d768361137e565b905083610d81578094505b50610e80565b8060ff1660021415610da257610d9d828d611443565b610e80565b8060ff1660031415610db9576000610d7683611463565b8060ff1660041415610dce57610d9d82611489565b8060ff1660051415610de357610d9d826114ae565b8060ff1660061415610df957610d9d8d83611609565b6040517f08c379a0000000000000000000000000000000000000000000000000000000008152602060048201526024808201527f526f75746550726f636573736f723a20556e6b6e6f776e20636f6d6d616e642060448201527f636f6465000000000000000000000000000000000000000000000000000000006064820152608401610318565b610e89836137fd565b925050610d3e565b506000905073ffffffffffffffffffffffffffffffffffffffff8b1673eeeeeeeeeeeeeeeeeeeeeeeeeeeeeeeeeeeeeeee14610f5a576040517f70a0823100000000000000000000000000000000000000000000000000000000815233600482015273ffffffffffffffffffffffffffffffffffffffff8c16906370a0823190602401602060405180830381865afa158015610f31573d6000803e3d6000fd5b505050506040513d601f19601f82011682018060405250810190610f5591906137b5565b610f5c565b475b905083610f698b83613836565b1015610ff7576040517f08c379a000000000000000000000000000000000000000000000000000000000815260206004820152602f60248201527f526f75746550726f636573736f723a204d696e696d616c20696e70757420626160448201527f6c616e63652076696f6c6174696f6e00000000000000000000000000000000006064820152608401610318565b600073ffffffffffffffffffffffffffffffffffffffff8a1673eeeeeeeeeeeeeeeeeeeeeeeeeeeeeeeeeeeeeeee146110bf576040517f70a0823100000000000000000000000000000000000000000000000000000000815273ffffffffffffffffffffffffffffffffffffffff89811660048301528b16906370a0823190602401602060405180830381865afa158015611096573d6000803e3d6000fd5b505050506040513d601f19601f820116820180604052508101906110ba91906137b5565b6110d8565b8773ffffffffffffffffffffffffffffffffffffffff16315b90506110e48985613836565b81101561112a576110f5848261384e565b6040517f963b34a500000000000000000000000000000000000000000000000000000000815260040161031891815260200190565b611134848261384e565b6040805173ffffffffffffffffffffffffffffffffffffffff8b81168252602082018790529181018c905260608101839052919750808c1691908e169033907f2db5ddd0b42bdbca0d69ea16f234a870a485854ae0d91f16643d6f317d8b89949060800160405180910390a450505050509695505050505050565b60005473ffffffffffffffffffffffffffffffffffffffff163314610531576040517f08c379a000000000000000000000000000000000000000000000000000000000815260206004820181905260248201527f4f776e61626c653a2063616c6c6572206973206e6f7420746865206f776e65726044820152606401610318565b6000805473ffffffffffffffffffffffffffffffffffffffff8381167fffffffffffffffffffffffff0000000000000000000000000000000000000000831681178455604051919092169283917f8be0079c531659141344cd1fd0a4f28419497f9722a3daafe3b4186f6b6457e09190a35050565b60405173ffffffffffffffffffffffffffffffffffffffff83166024820152604481018290526113799084907fa9059cbb00000000000000000000000000000000000000000000000000000000906064015b604080517fffffffffffffffffffffffffffffffffffffffffffffffffffffffffffffffe08184030181529190526020810180517bffffffffffffffffffffffffffffffffffffffffffffffffffffffff167fffffffff000000000000000000000000000000000000000000000000000000009093169290921790915261169c565b505050565b6000806113918380516014018051915290565b6040517f70a0823100000000000000000000000000000000000000000000000000000000815230600482015290915073ffffffffffffffffffffffffffffffffffffffff8216906370a0823190602401602060405180830381865afa1580156113fe573d6000803e3d6000fd5b505050506040513d601f19601f8201168201806040525081019061142291906137b5565b91508115611431576001820391505b61143d833083856117a8565b50919050565b60006114558380516014018051915290565b9050611379833383856117a8565b47611484823073eeeeeeeeeeeeeeeeeeeeeeeeeeeeeeeeeeeeeeee846117a8565b919050565b600061149b8280516014018051915290565b90506114aa8230836000611803565b5050565b60006114c08280516014018051915290565b905060006114d48380516001018051915290565b6040517ff7888aec00000000000000000000000000000000000000000000000000000000815273ffffffffffffffffffffffffffffffffffffffff84811660048301523060248301529192506000917f0000000000000000000000000000000000000000000000000000000000000000169063f7888aec90604401602060405180830381865afa15801561156c573d6000803e3d6000fd5b505050506040513d601f19601f8201168201806040525081019061159091906137b5565b905080156115bb577fffffffffffffffffffffffffffffffffffffffffffffffffffffffffffffffff015b60005b8260ff168110156116025760006115db8680516002018051915290565b61ffff80821685020493849003939091506115f887308884611803565b50506001016115be565b5050505050565b600061161b8280516020018051915290565b9050600061162f8380516020018051915290565b905060006116438480516001018051915290565b905060006116578580516020018051915290565b9050600061166b8680516020018051915290565b905061169373ffffffffffffffffffffffffffffffffffffffff881633308888888888611930565b50505050505050565b60006116fe826040518060400160405280602081526020017f5361666545524332303a206c6f772d6c6576656c2063616c6c206661696c65648152508573ffffffffffffffffffffffffffffffffffffffff16611bb09092919063ffffffff16565b805190915015611379578080602001905181019061171c9190613865565b611379576040517f08c379a000000000000000000000000000000000000000000000000000000000815260206004820152602a60248201527f5361666545524332303a204552433230206f7065726174696f6e20646964206e60448201527f6f742073756363656564000000000000000000000000000000000000000000006064820152608401610318565b60006117ba8580516001018051915290565b905060005b8160ff16811015610b635760006117dc8780516002018051915290565b61ffff80821686020494859003949091506117f988888884611803565b50506001016117bf565b60006118158580516001018051915290565b905060ff81166118305761182b85858585611bc7565b611602565b8060ff16600114156118485761182b85858585611f64565b8060ff16600214156118605761182b858585856121a4565b8060ff16600314156118785761182b85858585612452565b8060ff16600414156118905761182b85858585612aac565b8060ff16600514156118a85761182b85858585612c24565b6040517f08c379a000000000000000000000000000000000000000000000000000000000815260206004820152602160248201527f526f75746550726f636573736f723a20556e6b6e6f776e20706f6f6c2074797060448201527f65000000000000000000000000000000000000000000000000000000000000006064820152608401610318565b6040517f7ecebe0000000000000000000000000000000000000000000000000000000000815273ffffffffffffffffffffffffffffffffffffffff8881166004830152600091908a1690637ecebe0090602401602060405180830381865afa1580156119a0573d6000803e3d6000fd5b505050506040513d601f19601f820116820180604052508101906119c491906137b5565b6040517fd505accf00000000000000000000000000000000000000000000000000000000815273ffffffffffffffffffffffffffffffffffffffff8a811660048301528981166024830152604482018990526064820188905260ff8716608483015260a4820186905260c48201859052919250908a169063d505accf9060e401600060405180830381600087803b158015611a5e57600080fd5b505af1158015611a72573d6000803e3d6000fd5b50506040517f7ecebe0000000000000000000000000000000000000000000000000000000000815273ffffffffffffffffffffffffffffffffffffffff8b81166004830152600093508c169150637ecebe0090602401602060405180830381865afa158015611ae5573d6000803e3d6000fd5b505050506040513d601f19601f82011682018060405250810190611b0991906137b5565b9050611b16826001613836565b8114611ba4576040517f08c379a000000000000000000000000000000000000000000000000000000000815260206004820152602160248201527f5361666545524332303a207065726d697420646964206e6f742073756363656560448201527f64000000000000000000000000000000000000000000000000000000000000006064820152608401610318565b50505050505050505050565b6060611bbf84846000856131aa565b949350505050565b6000611bd98580516014018051915290565b90506000611bed8680516001018051915290565b90506000611c018780516014018051915290565b90506000611c158880516003018051915290565b90508415611c835773ffffffffffffffffffffffffffffffffffffffff8716301415611c6157611c5c73ffffffffffffffffffffffffffffffffffffffff871685876112a5565b611c83565b611c8373ffffffffffffffffffffffffffffffffffffffff87163386886132c3565b6000808573ffffffffffffffffffffffffffffffffffffffff16630902f1ac6040518163ffffffff1660e01b8152600401606060405180830381865afa158015611cd1573d6000803e3d6000fd5b505050506040513d601f19601f82011682018060405250810190611cf591906138a0565b506dffffffffffffffffffffffffffff1691506dffffffffffffffffffffffffffff169150600082118015611d2a5750600081115b611d90576040517f08c379a000000000000000000000000000000000000000000000000000000000815260206004820152601360248201527f57726f6e6720706f6f6c207265736572766573000000000000000000000000006044820152606401610318565b6000808660ff16600114611da5578284611da8565b83835b6040517f70a0823100000000000000000000000000000000000000000000000000000000815273ffffffffffffffffffffffffffffffffffffffff8b8116600483015292945090925083918c16906370a0823190602401602060405180830381865afa158015611e1c573d6000803e3d6000fd5b505050506040513d601f19601f82011682018060405250810190611e4091906137b5565b611e4a919061384e565b98506000611e5b86620f42406138f0565b611e6a9062ffffff168b613914565b9050600081611e7c85620f4240613914565b611e869190613836565b611e908484613914565b611e9a9190613951565b90506000808a60ff16600114611eb257826000611eb6565b6000835b604080516000815260208101918290527f022c0d9f00000000000000000000000000000000000000000000000000000000909152919350915073ffffffffffffffffffffffffffffffffffffffff8d169063022c0d9f90611f2090859085908f906024810161398c565b600060405180830381600087803b158015611f3a57600080fd5b505af1158015611f4e573d6000803e3d6000fd5b5050505050505050505050505050505050505050565b6000611f768580516014018051915290565b9050600080611f8b8780516001018051915290565b60ff161190506000611fa38780516014018051915290565b905073ffffffffffffffffffffffffffffffffffffffff8616331415611fe557611fe573ffffffffffffffffffffffffffffffffffffffff86163330876132c3565b600280547fffffffffffffffffffffffff00000000000000000000000000000000000000001673ffffffffffffffffffffffffffffffffffffffff851690811790915563128acb088284878161205957612054600173fffd8963efd1fc6a506488495d951d5263988d266139d1565b612069565b6120696401000276a360016139fe565b6040805173ffffffffffffffffffffffffffffffffffffffff8d166020820152016040516020818303038152906040526040518663ffffffff1660e01b81526004016120b9959493929190613a36565b60408051808303816000875af11580156120d7573d6000803e3d6000fd5b505050506040513d601f19601f820116820180604052508101906120fb9190613a7d565b505060025473ffffffffffffffffffffffffffffffffffffffff16600114611693576040517f08c379a0000000000000000000000000000000000000000000000000000000008152602060048201526024808201527f526f75746550726f636573736f722e73776170556e6956333a20756e6578706560448201527f63746564000000000000000000000000000000000000000000000000000000006064820152608401610318565b60006121b68580516001018051915290565b905060006121ca8680516014018051915290565b9050600180831614156122995760006121e98780516014018051915290565b905060028316612255578073ffffffffffffffffffffffffffffffffffffffff1663d0e30db0856040518263ffffffff1660e01b81526004016000604051808303818588803b15801561223b57600080fd5b505af115801561224f573d6000803e3d6000fd5b50505050505b73ffffffffffffffffffffffffffffffffffffffff821630146122935761229373ffffffffffffffffffffffffffffffffffffffff821683866112a5565b50610b63565b600282166123625773ffffffffffffffffffffffffffffffffffffffff85163314156122e1576122e173ffffffffffffffffffffffffffffffffffffffff85163330866132c3565b6040517f2e1a7d4d0000000000000000000000000000000000000000000000000000000081526004810184905273ffffffffffffffffffffffffffffffffffffffff851690632e1a7d4d90602401600060405180830381600087803b15801561234957600080fd5b505af115801561235d573d6000803e3d6000fd5b505050505b60008173ffffffffffffffffffffffffffffffffffffffff164760405160006040518083038185875af1925050503d80600081146123bc576040519150601f19603f3d011682016040523d82523d6000602084013e6123c1565b606091505b5050905080611693576040517f08c379a000000000000000000000000000000000000000000000000000000000815260206004820152602c60248201527f526f75746550726f636573736f723a204e617469766520746f6b656e2074726160448201527f6e73666572206661696c656400000000000000000000000000000000000000006064820152608401610318565b60006124648580516001018051915290565b905060006124788680516014018051915290565b905060ff82161561285b57821561252f5773ffffffffffffffffffffffffffffffffffffffff85163014156124ed576124e873ffffffffffffffffffffffffffffffffffffffff85167f0000000000000000000000000000000000000000000000000000000000000000856112a5565b612785565b6124e873ffffffffffffffffffffffffffffffffffffffff8516337f0000000000000000000000000000000000000000000000000000000000000000866132c3565b6040517f4ffe34db00000000000000000000000000000000000000000000000000000000815273ffffffffffffffffffffffffffffffffffffffff85811660048301527f00000000000000000000000000000000000000000000000000000000000000001690634ffe34db906024016040805180830381865afa1580156125ba573d6000803e3d6000fd5b505050506040513d601f19601f820116820180604052508101906125de9190613ac1565b516040517fdf23b45b00000000000000000000000000000000000000000000000000000000815273ffffffffffffffffffffffffffffffffffffffff86811660048301526fffffffffffffffffffffffffffffffff909216917f0000000000000000000000000000000000000000000000000000000000000000169063df23b45b90602401606060405180830381865afa158015612680573d6000803e3d6000fd5b505050506040513d601f19601f820116820180604052508101906126a49190613b34565b60409081015190517f70a0823100000000000000000000000000000000000000000000000000000000815273ffffffffffffffffffffffffffffffffffffffff7f0000000000000000000000000000000000000000000000000000000000000000811660048301526fffffffffffffffffffffffffffffffff909216918716906370a0823190602401602060405180830381865afa15801561274a573d6000803e3d6000fd5b505050506040513d601f19601f8201168201806040525081019061276e91906137b5565b6127789190613836565b612782919061384e565b92505b6040517f02b9446c00000000000000000000000000000000000000000000000000000000815273ffffffffffffffffffffffffffffffffffffffff85811660048301527f000000000000000000000000000000000000000000000000000000000000000081166024830181905290831660448301526064820185905260006084830152906302b9446c9060a40160408051808303816000875af1158015612830573d6000803e3d6000fd5b505050506040513d601f19601f820116820180604052508101906128549190613a7d565b5050610b63565b821561291c576040517ff18d03cc00000000000000000000000000000000000000000000000000000000815273ffffffffffffffffffffffffffffffffffffffff85811660048301528681166024830152306044830152606482018590527f0000000000000000000000000000000000000000000000000000000000000000169063f18d03cc90608401600060405180830381600087803b1580156128ff57600080fd5b505af1158015612913573d6000803e3d6000fd5b505050506129d5565b6040517ff7888aec00000000000000000000000000000000000000000000000000000000815273ffffffffffffffffffffffffffffffffffffffff85811660048301523060248301527f0000000000000000000000000000000000000000000000000000000000000000169063f7888aec90604401602060405180830381865afa1580156129ae573d6000803e3d6000fd5b505050506040513d601f19601f820116820180604052508101906129d291906137b5565b92505b6040517f97da6d3000000000000000000000000000000000000000000000000000000000815273ffffffffffffffffffffffffffffffffffffffff8581166004830152306024830152828116604483015260006064830152608482018590527f000000000000000000000000000000000000000000000000000000000000000016906397da6d309060a40160408051808303816000875af1158015612a7e573d6000803e3d6000fd5b505050506040513d601f19601f82011682018060405250810190612aa29190613a7d565b5050505050505050565b6000612abe8580516014018051915290565b8551602080820180519092010187529091508215612b8f576040517ff18d03cc00000000000000000000000000000000000000000000000000000000815273ffffffffffffffffffffffffffffffffffffffff858116600483015286811660248301528381166044830152606482018590527f0000000000000000000000000000000000000000000000000000000000000000169063f18d03cc90608401600060405180830381600087803b158015612b7657600080fd5b505af1158015612b8a573d6000803e3d6000fd5b505050505b6040517f627dd56a00000000000000000000000000000000000000000000000000000000815273ffffffffffffffffffffffffffffffffffffffff83169063627dd56a90612be19084906004016137a2565b6020604051808303816000875af1158015612c00573d6000803e3d6000fd5b505050506040513d601f19601f8201168201806040525081019061169391906137b5565b6000612c368580516014018051915290565b90506000612c4a8680516001018051915290565b90506000612c5e8780516001018051915290565b60000b90506000612c758880516001018051915290565b60000b90506000612c8c8980516014018051915290565b90506000612ca08a80516014018051915290565b9050600073ffffffffffffffffffffffffffffffffffffffff891673eeeeeeeeeeeeeeeeeeeeeeeeeeeeeeeeeeeeeeee1415612d89576040517f3df02124000000000000000000000000000000000000000000000000000000008152600f86810b600483015285900b6024820152604481018990526000606482015273ffffffffffffffffffffffffffffffffffffffff881690633df02124908a9060840160206040518083038185885af1158015612d5d573d6000803e3d6000fd5b50505050506040513d601f19601f82011682018060405250810190612d8291906137b5565b90506130e4565b73ffffffffffffffffffffffffffffffffffffffff8a16331415612dc957612dc973ffffffffffffffffffffffffffffffffffffffff8a1633308b6132c3565b6040517f095ea7b300000000000000000000000000000000000000000000000000000000815273ffffffffffffffffffffffffffffffffffffffff8881166004830152602482018a90528a169063095ea7b3906044016020604051808303816000875af1158015612e3e573d6000803e3d6000fd5b505050506040513d601f19601f82011682018060405250810190612e629190613865565b5060ff8616612f15576040517f3df02124000000000000000000000000000000000000000000000000000000008152600f86810b600483015285900b6024820152604481018990526000606482015273ffffffffffffffffffffffffffffffffffffffff881690633df02124906084016020604051808303816000875af1158015612ef1573d6000803e3d6000fd5b505050506040513d601f19601f82011682018060405250810190612d8291906137b5565b6040517f70a0823100000000000000000000000000000000000000000000000000000000815230600482015260009073ffffffffffffffffffffffffffffffffffffffff8416906370a0823190602401602060405180830381865afa158015612f82573d6000803e3d6000fd5b505050506040513d601f19601f82011682018060405250810190612fa691906137b5565b6040517f3df02124000000000000000000000000000000000000000000000000000000008152600f88810b600483015287900b6024820152604481018b90526000606482015290915073ffffffffffffffffffffffffffffffffffffffff891690633df0212490608401600060405180830381600087803b15801561302a57600080fd5b505af115801561303e573d6000803e3d6000fd5b50506040517f70a082310000000000000000000000000000000000000000000000000000000081523060048201526000925073ffffffffffffffffffffffffffffffffffffffff861691506370a0823190602401602060405180830381865afa1580156130af573d6000803e3d6000fd5b505050506040513d601f19601f820116820180604052508101906130d391906137b5565b90506130df828261384e565b925050505b73ffffffffffffffffffffffffffffffffffffffff8316301461319d5773ffffffffffffffffffffffffffffffffffffffff821673eeeeeeeeeeeeeeeeeeeeeeeeeeeeeeeeeeeeeeee141561317c5760405173ffffffffffffffffffffffffffffffffffffffff84169082156108fc029083906000818181858888f19350505050158015613176573d6000803e3d6000fd5b5061319d565b61319d73ffffffffffffffffffffffffffffffffffffffff831684836112a5565b5050505050505050505050565b60608247101561323c576040517f08c379a000000000000000000000000000000000000000000000000000000000815260206004820152602660248201527f416464726573733a20696e73756666696369656e742062616c616e636520666f60448201527f722063616c6c00000000000000000000000000000000000000000000000000006064820152608401610318565b6000808673ffffffffffffffffffffffffffffffffffffffff168587604051613265919061373c565b60006040518083038185875af1925050503d80600081146132a2576040519150601f19603f3d011682016040523d82523d6000602084013e6132a7565b606091505b50915091506132b887838387613321565b979650505050505050565b60405173ffffffffffffffffffffffffffffffffffffffff8085166024830152831660448201526064810182905261036f9085907f23b872dd00000000000000000000000000000000000000000000000000000000906084016112f7565b606083156133b45782516133ad5773ffffffffffffffffffffffffffffffffffffffff85163b6133ad576040517f08c379a000000000000000000000000000000000000000000000000000000000815260206004820152601d60248201527f416464726573733a2063616c6c20746f206e6f6e2d636f6e74726163740000006044820152606401610318565b5081611bbf565b611bbf83838151156133c95781518083602001fd5b806040517f08c379a000000000000000000000000000000000000000000000000000000000815260040161031891906137a2565b6000806000806060858703121561341357600080fd5b8435935060208501359250604085013567ffffffffffffffff8082111561343957600080fd5b818701915087601f83011261344d57600080fd5b81358181111561345c57600080fd5b88602082850101111561346e57600080fd5b95989497505060200194505050565b73ffffffffffffffffffffffffffffffffffffffff811681146109ba57600080fd5b7f4e487b7100000000000000000000000000000000000000000000000000000000600052604160045260246000fd5b600082601f8301126134df57600080fd5b813567ffffffffffffffff808211156134fa576134fa61349f565b604051601f83017fffffffffffffffffffffffffffffffffffffffffffffffffffffffffffffffe0908116603f011681019082821181831017156135405761354061349f565b8160405283815286602085880101111561355957600080fd5b836020870160208301376000602085830101528094505050505092915050565b60008060008060008060c0878903121561359257600080fd5b863561359d8161347d565b95506020870135945060408701356135b48161347d565b93506060870135925060808701356135cb8161347d565b915060a087013567ffffffffffffffff8111156135e757600080fd5b6135f389828a016134ce565b9150509295509295509295565b600080600080600080600080610100898b03121561361d57600080fd5b88356136288161347d565b975060208901359650604089013561363f8161347d565b95506060890135945060808901356136568161347d565b935060a0890135925060c089013561366d8161347d565b915060e089013567ffffffffffffffff81111561368957600080fd5b6136958b828c016134ce565b9150509295985092959890939650565b80151581146109ba57600080fd5b600080604083850312156136c657600080fd5b82356136d18161347d565b915060208301356136e1816136a5565b809150509250929050565b6000602082840312156136fe57600080fd5b81356137098161347d565b9392505050565b60005b8381101561372b578181015183820152602001613713565b8381111561036f5750506000910152565b6000825161374e818460208701613710565b9190910192915050565b60008151808452613770816020860160208601613710565b601f017fffffffffffffffffffffffffffffffffffffffffffffffffffffffffffffffe0169290920160200192915050565b6020815260006137096020830184613758565b6000602082840312156137c757600080fd5b5051919050565b7f4e487b7100000000000000000000000000000000000000000000000000000000600052601160045260246000fd5b60007fffffffffffffffffffffffffffffffffffffffffffffffffffffffffffffffff82141561382f5761382f6137ce565b5060010190565b60008219821115613849576138496137ce565b500190565b600082821015613860576138606137ce565b500390565b60006020828403121561387757600080fd5b8151613709816136a5565b80516dffffffffffffffffffffffffffff8116811461148457600080fd5b6000806000606084860312156138b557600080fd5b6138be84613882565b92506138cc60208501613882565b9150604084015163ffffffff811681146138e557600080fd5b809150509250925092565b600062ffffff8381169083168181101561390c5761390c6137ce565b039392505050565b6000817fffffffffffffffffffffffffffffffffffffffffffffffffffffffffffffffff048311821515161561394c5761394c6137ce565b500290565b600082613987577f4e487b7100000000000000000000000000000000000000000000000000000000600052601260045260246000fd5b500490565b84815283602082015273ffffffffffffffffffffffffffffffffffffffff831660408201526080606082015260006139c76080830184613758565b9695505050505050565b600073ffffffffffffffffffffffffffffffffffffffff8381169083168181101561390c5761390c6137ce565b600073ffffffffffffffffffffffffffffffffffffffff808316818516808303821115613a2d57613a2d6137ce565b01949350505050565b600073ffffffffffffffffffffffffffffffffffffffff8088168352861515602084015285604084015280851660608401525060a060808301526132b860a0830184613758565b60008060408385031215613a9057600080fd5b505080516020909101519092909150565b80516fffffffffffffffffffffffffffffffff8116811461148457600080fd5b600060408284031215613ad357600080fd5b6040516040810181811067ffffffffffffffff82111715613af657613af661349f565b604052613b0283613aa1565b8152613b1060208401613aa1565b60208201529392505050565b805167ffffffffffffffff8116811461148457600080fd5b600060608284031215613b4657600080fd5b6040516060810181811067ffffffffffffffff82111715613b6957613b6961349f565b604052613b7583613b1c565b8152613b8360208401613b1c565b6020820152613b9460408401613aa1565b6040820152939250505056fea2646970667358221220d6c777f65679a24036734409ac9be08ea71a0cb5aefc36bd2bfe7e644b31135b64736f6c634300080a0033",
  "linkReferences": {},
  "deployedLinkReferences": {}
}