{
  "_format": "hh-sol-artifact-1",
  "contractName": "RouteProcessor4",
  "sourceName": "contracts/RouteProcessor4.sol",
  "abi": [
    {
      "inputs": [
        {
          "internalType": "address",
          "name": "_bentoBox",
          "type": "address"
        },
        {
          "internalType": "address[]",
          "name": "priviledgedUserList",
          "type": "address[]"
        }
      ],
      "stateMutability": "nonpayable",
      "type": "constructor"
    },
    {
      "inputs": [
        {
          "internalType": "uint256",
          "name": "amountOut",
          "type": "uint256"
        }
      ],
      "name": "MinimalOutputBalanceViolation",
      "type": "error"
    },
    {
      "anonymous": false,
      "inputs": [
        {
          "indexed": true,
          "internalType": "address",
          "name": "previousOwner",
          "type": "address"
        },
        {
          "indexed": true,
          "internalType": "address",
          "name": "newOwner",
          "type": "address"
        }
      ],
      "name": "OwnershipTransferred",
      "type": "event"
    },
    {
      "anonymous": false,
      "inputs": [
        {
          "indexed": true,
          "internalType": "address",
          "name": "from",
          "type": "address"
        },
        {
          "indexed": false,
          "internalType": "address",
          "name": "to",
          "type": "address"
        },
        {
          "indexed": true,
          "internalType": "address",
          "name": "tokenIn",
          "type": "address"
        },
        {
          "indexed": true,
          "internalType": "address",
          "name": "tokenOut",
          "type": "address"
        },
        {
          "indexed": false,
          "internalType": "uint256",
          "name": "amountIn",
          "type": "uint256"
        },
        {
          "indexed": false,
          "internalType": "uint256",
          "name": "amountOutMin",
          "type": "uint256"
        },
        {
          "indexed": false,
          "internalType": "uint256",
          "name": "amountOut",
          "type": "uint256"
        }
      ],
      "name": "Route",
      "type": "event"
    },
    {
      "inputs": [
        {
          "internalType": "int256",
          "name": "amount0Delta",
          "type": "int256"
        },
        {
          "internalType": "int256",
          "name": "amount1Delta",
          "type": "int256"
        },
        {
          "internalType": "bytes",
          "name": "data",
          "type": "bytes"
        }
      ],
      "name": "algebraSwapCallback",
      "outputs": [],
      "stateMutability": "nonpayable",
      "type": "function"
    },
    {
      "inputs": [],
      "name": "bentoBox",
      "outputs": [
        {
          "internalType": "contract IBentoBoxMinimal",
          "name": "",
          "type": "address"
        }
      ],
      "stateMutability": "view",
      "type": "function"
    },
    {
      "inputs": [],
      "name": "owner",
      "outputs": [
        {
          "internalType": "address",
          "name": "",
          "type": "address"
        }
      ],
      "stateMutability": "view",
      "type": "function"
    },
    {
      "inputs": [],
      "name": "pause",
      "outputs": [],
      "stateMutability": "nonpayable",
      "type": "function"
    },
    {
      "inputs": [
        {
          "internalType": "address",
          "name": "tokenIn",
          "type": "address"
        },
        {
          "internalType": "uint256",
          "name": "amountIn",
          "type": "uint256"
        },
        {
          "internalType": "address",
          "name": "tokenOut",
          "type": "address"
        },
        {
          "internalType": "uint256",
          "name": "amountOutMin",
          "type": "uint256"
        },
        {
          "internalType": "address",
          "name": "to",
          "type": "address"
        },
        {
          "internalType": "bytes",
          "name": "route",
          "type": "bytes"
        }
      ],
      "name": "processRoute",
      "outputs": [
        {
          "internalType": "uint256",
          "name": "amountOut",
          "type": "uint256"
        }
      ],
      "stateMutability": "payable",
      "type": "function"
    },
    {
      "inputs": [],
      "name": "renounceOwnership",
      "outputs": [],
      "stateMutability": "nonpayable",
      "type": "function"
    },
    {
      "inputs": [],
      "name": "resume",
      "outputs": [],
      "stateMutability": "nonpayable",
      "type": "function"
    },
    {
      "inputs": [
        {
          "internalType": "address",
          "name": "user",
          "type": "address"
        },
        {
          "internalType": "bool",
          "name": "priviledge",
          "type": "bool"
        }
      ],
      "name": "setPriviledge",
      "outputs": [],
      "stateMutability": "nonpayable",
      "type": "function"
    },
    {
      "inputs": [
        {
          "internalType": "address",
          "name": "newOwner",
          "type": "address"
        }
      ],
      "name": "transferOwnership",
      "outputs": [],
      "stateMutability": "nonpayable",
      "type": "function"
    },
    {
      "inputs": [
        {
          "internalType": "address payable",
          "name": "transferValueTo",
          "type": "address"
        },
        {
          "internalType": "uint256",
          "name": "amountValueTransfer",
          "type": "uint256"
        },
        {
          "internalType": "address",
          "name": "tokenIn",
          "type": "address"
        },
        {
          "internalType": "uint256",
          "name": "amountIn",
          "type": "uint256"
        },
        {
          "internalType": "address",
          "name": "tokenOut",
          "type": "address"
        },
        {
          "internalType": "uint256",
          "name": "amountOutMin",
          "type": "uint256"
        },
        {
          "internalType": "address",
          "name": "to",
          "type": "address"
        },
        {
          "internalType": "bytes",
          "name": "route",
          "type": "bytes"
        }
      ],
      "name": "transferValueAndprocessRoute",
      "outputs": [
        {
          "internalType": "uint256",
          "name": "amountOut",
          "type": "uint256"
        }
      ],
      "stateMutability": "payable",
      "type": "function"
    },
    {
      "inputs": [
        {
          "internalType": "int256",
          "name": "amount0Delta",
          "type": "int256"
        },
        {
          "internalType": "int256",
          "name": "amount1Delta",
          "type": "int256"
        },
        {
          "internalType": "bytes",
          "name": "data",
          "type": "bytes"
        }
      ],
      "name": "uniswapV3SwapCallback",
      "outputs": [],
      "stateMutability": "nonpayable",
      "type": "function"
    },
    {
      "stateMutability": "payable",
      "type": "receive"
    }
  ],
  "bytecode": "0x60a06040526002805461ffff60a01b191661010160a01b1790553480156200002657600080fd5b5060405162003e7a38038062003e7a83398101604081905262000049916200016e565b6200005433620000eb565b6001600160a01b038216608052600280546001600160a01b031916600117905560005b8151811015620000e25760018060008484815181106200009b576200009b62000257565b6020908102919091018101516001600160a01b03168252810191909152604001600020805460ff191691151591909117905580620000d9816200026d565b91505062000077565b50505062000297565b600080546001600160a01b038381166001600160a01b0319831681178455604051919092169283917f8be0079c531659141344cd1fd0a4f28419497f9722a3daafe3b4186f6b6457e09190a35050565b80516001600160a01b03811681146200015357600080fd5b919050565b634e487b7160e01b600052604160045260246000fd5b600080604083850312156200018257600080fd5b6200018d836200013b565b602084810151919350906001600160401b0380821115620001ad57600080fd5b818601915086601f830112620001c257600080fd5b815181811115620001d757620001d762000158565b8060051b604051601f19603f83011681018181108582111715620001ff57620001ff62000158565b6040529182528482019250838101850191898311156200021e57600080fd5b938501935b82851015620002475762000237856200013b565b8452938501939285019262000223565b8096505050505050509250929050565b634e487b7160e01b600052603260045260246000fd5b60006000198214156200029057634e487b7160e01b600052601160045260246000fd5b5060010190565b608051613b7a620003006000396000818161013b015281816114fd0152818161249b015281816124e20152818161254c01528181612611015281816126be015281816127a2015281816128930152818161293f01528181612a0e0152612b0a0152613b7a6000f3fe6080604052600436106100c05760003560e01c80638456cb59116100745780639a1f34061161004e5780639a1f3406146101ea578063f2fde38b1461020a578063fa461e331461022a57600080fd5b80638456cb59146101975780638da5cb5b146101ac57806393b3774c146101d757600080fd5b80632c8958f6116100a55780632c8958f6146101095780636b2ace8714610129578063715018a61461018257600080fd5b8063046f7da2146100cc5780632646478b146100e357600080fd5b366100c757005b600080fd5b3480156100d857600080fd5b506100e161024a565b005b6100f66100f13660046134d1565b610358565b6040519081526020015b60405180910390f35b34801561011557600080fd5b506100e1610124366004613558565b610502565b34801561013557600080fd5b5061015d7f000000000000000000000000000000000000000000000000000000000000000081565b60405173ffffffffffffffffffffffffffffffffffffffff9091168152602001610100565b34801561018e57600080fd5b506100e1610514565b3480156101a357600080fd5b506100e1610528565b3480156101b857600080fd5b5060005473ffffffffffffffffffffffffffffffffffffffff1661015d565b6100f66101e53660046135d8565b610631565b3480156101f657600080fd5b506100e161020536600461368b565b61089d565b34801561021657600080fd5b506100e16102253660046136c4565b6108fb565b34801561023657600080fd5b506100e1610245366004613558565b6109b2565b60005473ffffffffffffffffffffffffffffffffffffffff1633148061028557503360009081526001602081905260409091205460ff161515145b610316576040517f08c379a000000000000000000000000000000000000000000000000000000000815260206004820152603160248201527f52503a2063616c6c6572206973206e6f7420746865206f776e6572206f72206160448201527f2070726976696c6564676564207573657200000000000000000000000000000060648201526084015b60405180910390fd5b600280547fffffffffffffffffffff00ffffffffffffffffffffffffffffffffffffffffff167501000000000000000000000000000000000000000000179055565b60025460009074010000000000000000000000000000000000000000900460ff166001146103e2576040517f08c379a000000000000000000000000000000000000000000000000000000000815260206004820152601860248201527f526f75746550726f636573736f72206973206c6f636b65640000000000000000604482015260640161030d565b6002547501000000000000000000000000000000000000000000900460ff1660011461046a576040517f08c379a000000000000000000000000000000000000000000000000000000000815260206004820152601860248201527f526f75746550726f636573736f72206973207061757365640000000000000000604482015260640161030d565b600280547fffffffffffffffffffffff00ffffffffffffffffffffffffffffffffffffffff16740200000000000000000000000000000000000000001790556104b7878787878787610b60565b9050600280547fffffffffffffffffffffff00ffffffffffffffffffffffffffffffffffffffff16740100000000000000000000000000000000000000001790559695505050505050565b61050e848484846109b2565b50505050565b61051c611174565b61052660006111f5565b565b60005473ffffffffffffffffffffffffffffffffffffffff1633148061056357503360009081526001602081905260409091205460ff161515145b6105ef576040517f08c379a000000000000000000000000000000000000000000000000000000000815260206004820152603160248201527f52503a2063616c6c6572206973206e6f7420746865206f776e6572206f72206160448201527f2070726976696c65646765642075736572000000000000000000000000000000606482015260840161030d565b600280547fffffffffffffffffffff00ffffffffffffffffffffffffffffffffffffffffff167502000000000000000000000000000000000000000000179055565b60025460009074010000000000000000000000000000000000000000900460ff166001146106bb576040517f08c379a000000000000000000000000000000000000000000000000000000000815260206004820152601860248201527f526f75746550726f636573736f72206973206c6f636b65640000000000000000604482015260640161030d565b6002547501000000000000000000000000000000000000000000900460ff16600114610743576040517f08c379a000000000000000000000000000000000000000000000000000000000815260206004820152601860248201527f526f75746550726f636573736f72206973207061757365640000000000000000604482015260640161030d565b600280547fffffffffffffffffffffff00ffffffffffffffffffffffffffffffffffffffff1674020000000000000000000000000000000000000000179055604051600090819073ffffffffffffffffffffffffffffffffffffffff8c16908b908381818185875af1925050503d80600081146107dc576040519150601f19603f3d011682016040523d82523d6000602084013e6107e1565b606091505b509150915081816040516020016107f89190613714565b6040516020818303038152906040529061083f576040517f08c379a000000000000000000000000000000000000000000000000000000000815260040161030d919061377a565b5061084e898989898989610b60565b92505050600280547fffffffffffffffffffffff00ffffffffffffffffffffffffffffffffffffffff167401000000000000000000000000000000000000000017905598975050505050505050565b6108a5611174565b73ffffffffffffffffffffffffffffffffffffffff91909116600090815260016020526040902080547fffffffffffffffffffffffffffffffffffffffffffffffffffffffffffffff0016911515919091179055565b610903611174565b73ffffffffffffffffffffffffffffffffffffffff81166109a6576040517f08c379a000000000000000000000000000000000000000000000000000000000815260206004820152602660248201527f4f776e61626c653a206e6577206f776e657220697320746865207a65726f206160448201527f6464726573730000000000000000000000000000000000000000000000000000606482015260840161030d565b6109af816111f5565b50565b60025473ffffffffffffffffffffffffffffffffffffffff163314610a59576040517f08c379a000000000000000000000000000000000000000000000000000000000815260206004820152603e60248201527f526f75746550726f636573736f722e756e697377617056335377617043616c6c60448201527f6261636b3a2063616c6c2066726f6d20756e6b6e6f776e20736f757263650000606482015260840161030d565b600280547fffffffffffffffffffffffff00000000000000000000000000000000000000001660011790556000610a92828401846136c4565b90506000808613610aa35784610aa5565b855b905060008113610b37576040517f08c379a000000000000000000000000000000000000000000000000000000000815260206004820152603960248201527f526f75746550726f636573736f722e756e697377617056335377617043616c6c60448201527f6261636b3a206e6f7420706f73697469766520616d6f756e7400000000000000606482015260840161030d565b610b5873ffffffffffffffffffffffffffffffffffffffff8316338361126a565b505050505050565b60008073ffffffffffffffffffffffffffffffffffffffff881673eeeeeeeeeeeeeeeeeeeeeeeeeeeeeeeeeeeeeeee14610c27576040517f70a0823100000000000000000000000000000000000000000000000000000000815233600482015273ffffffffffffffffffffffffffffffffffffffff8916906370a0823190602401602060405180830381865afa158015610bfe573d6000803e3d6000fd5b505050506040513d601f19601f82011682018060405250810190610c22919061378d565b610c29565b475b9050600073ffffffffffffffffffffffffffffffffffffffff871673eeeeeeeeeeeeeeeeeeeeeeeeeeeeeeeeeeeeeeee14610cf3576040517f70a0823100000000000000000000000000000000000000000000000000000000815273ffffffffffffffffffffffffffffffffffffffff86811660048301528816906370a0823190602401602060405180830381865afa158015610cca573d6000803e3d6000fd5b505050506040513d601f19601f82011682018060405250810190610cee919061378d565b610d0c565b8473ffffffffffffffffffffffffffffffffffffffff16315b604080518082019091528581528551860160208201529091505b805160208201511115610e59576000610d458280516001018051915290565b90508060ff1660011415610d6157610d5c82611343565b610e53565b8060ff1660021415610d7757610d5c828b611420565b8060ff1660031415610d8c57610d5c82611440565b8060ff1660041415610da157610d5c82611465565b8060ff1660051415610db657610d5c82611486565b8060ff1660061415610dcc57610d5c8b836115e1565b6040517f08c379a0000000000000000000000000000000000000000000000000000000008152602060048201526024808201527f526f75746550726f636573736f723a20556e6b6e6f776e20636f6d6d616e642060448201527f636f646500000000000000000000000000000000000000000000000000000000606482015260840161030d565b50610d26565b600073ffffffffffffffffffffffffffffffffffffffff8b1673eeeeeeeeeeeeeeeeeeeeeeeeeeeeeeeeeeeeeeee14610f1f576040517f70a0823100000000000000000000000000000000000000000000000000000000815233600482015273ffffffffffffffffffffffffffffffffffffffff8c16906370a0823190602401602060405180830381865afa158015610ef6573d6000803e3d6000fd5b505050506040513d601f19601f82011682018060405250810190610f1a919061378d565b610f21565b475b905083610f2e8b836137d5565b1015610fbc576040517f08c379a000000000000000000000000000000000000000000000000000000000815260206004820152602f60248201527f526f75746550726f636573736f723a204d696e696d616c20696e70757420626160448201527f6c616e63652076696f6c6174696f6e0000000000000000000000000000000000606482015260840161030d565b600073ffffffffffffffffffffffffffffffffffffffff8a1673eeeeeeeeeeeeeeeeeeeeeeeeeeeeeeeeeeeeeeee14611084576040517f70a0823100000000000000000000000000000000000000000000000000000000815273ffffffffffffffffffffffffffffffffffffffff89811660048301528b16906370a0823190602401602060405180830381865afa15801561105b573d6000803e3d6000fd5b505050506040513d601f19601f8201168201806040525081019061107f919061378d565b61109d565b8773ffffffffffffffffffffffffffffffffffffffff16315b90506110a989856137d5565b8110156110ef576110ba84826137ed565b6040517f963b34a500000000000000000000000000000000000000000000000000000000815260040161030d91815260200190565b6110f984826137ed565b6040805173ffffffffffffffffffffffffffffffffffffffff8b81168252602082018f90529181018c905260608101839052919750808c1691908e169033907f2db5ddd0b42bdbca0d69ea16f234a870a485854ae0d91f16643d6f317d8b89949060800160405180910390a450505050509695505050505050565b60005473ffffffffffffffffffffffffffffffffffffffff163314610526576040517f08c379a000000000000000000000000000000000000000000000000000000000815260206004820181905260248201527f4f776e61626c653a2063616c6c6572206973206e6f7420746865206f776e6572604482015260640161030d565b6000805473ffffffffffffffffffffffffffffffffffffffff8381167fffffffffffffffffffffffff0000000000000000000000000000000000000000831681178455604051919092169283917f8be0079c531659141344cd1fd0a4f28419497f9722a3daafe3b4186f6b6457e09190a35050565b60405173ffffffffffffffffffffffffffffffffffffffff831660248201526044810182905261133e9084907fa9059cbb00000000000000000000000000000000000000000000000000000000906064015b604080517fffffffffffffffffffffffffffffffffffffffffffffffffffffffffffffffe08184030181529190526020810180517bffffffffffffffffffffffffffffffffffffffffffffffffffffffff167fffffffff0000000000000000000000000000000000000000000000000000000090931692909217909152611674565b505050565b60006113558280516014018051915290565b6040517f70a0823100000000000000000000000000000000000000000000000000000000815230600482015290915060009073ffffffffffffffffffffffffffffffffffffffff8316906370a0823190602401602060405180830381865afa1580156113c5573d6000803e3d6000fd5b505050506040513d601f19601f820116820180604052508101906113e9919061378d565b90508015611414577fffffffffffffffffffffffffffffffffffffffffffffffffffffffffffffffff015b61133e83308484611780565b60006114328380516014018051915290565b905061133e83338385611780565b47611461823073eeeeeeeeeeeeeeeeeeeeeeeeeeeeeeeeeeeeeeee84611780565b5050565b60006114778280516014018051915290565b905061146182308360006117db565b60006114988280516014018051915290565b905060006114ac8380516001018051915290565b6040517ff7888aec00000000000000000000000000000000000000000000000000000000815273ffffffffffffffffffffffffffffffffffffffff84811660048301523060248301529192506000917f0000000000000000000000000000000000000000000000000000000000000000169063f7888aec90604401602060405180830381865afa158015611544573d6000803e3d6000fd5b505050506040513d601f19601f82011682018060405250810190611568919061378d565b90508015611593577fffffffffffffffffffffffffffffffffffffffffffffffffffffffffffffffff015b60005b8260ff168110156115da5760006115b38680516002018051915290565b61ffff80821685020493849003939091506115d0873088846117db565b5050600101611596565b5050505050565b60006115f38280516020018051915290565b905060006116078380516020018051915290565b9050600061161b8480516001018051915290565b9050600061162f8580516020018051915290565b905060006116438680516020018051915290565b905061166b73ffffffffffffffffffffffffffffffffffffffff881633308888888888611908565b50505050505050565b60006116d6826040518060400160405280602081526020017f5361666545524332303a206c6f772d6c6576656c2063616c6c206661696c65648152508573ffffffffffffffffffffffffffffffffffffffff16611b889092919063ffffffff16565b80519091501561133e57808060200190518101906116f49190613804565b61133e576040517f08c379a000000000000000000000000000000000000000000000000000000000815260206004820152602a60248201527f5361666545524332303a204552433230206f7065726174696f6e20646964206e60448201527f6f74207375636365656400000000000000000000000000000000000000000000606482015260840161030d565b60006117928580516001018051915290565b905060005b8160ff16811015610b585760006117b48780516002018051915290565b61ffff80821686020494859003949091506117d1888888846117db565b5050600101611797565b60006117ed8580516001018051915290565b905060ff81166118085761180385858585611b9f565b6115da565b8060ff16600114156118205761180385858585611f3c565b8060ff1660021415611838576118038585858561217c565b8060ff1660031415611850576118038585858561242a565b8060ff16600414156118685761180385858585612a84565b8060ff16600514156118805761180385858585612bfc565b6040517f08c379a000000000000000000000000000000000000000000000000000000000815260206004820152602160248201527f526f75746550726f636573736f723a20556e6b6e6f776e20706f6f6c2074797060448201527f6500000000000000000000000000000000000000000000000000000000000000606482015260840161030d565b6040517f7ecebe0000000000000000000000000000000000000000000000000000000000815273ffffffffffffffffffffffffffffffffffffffff8881166004830152600091908a1690637ecebe0090602401602060405180830381865afa158015611978573d6000803e3d6000fd5b505050506040513d601f19601f8201168201806040525081019061199c919061378d565b6040517fd505accf00000000000000000000000000000000000000000000000000000000815273ffffffffffffffffffffffffffffffffffffffff8a811660048301528981166024830152604482018990526064820188905260ff8716608483015260a4820186905260c48201859052919250908a169063d505accf9060e401600060405180830381600087803b158015611a3657600080fd5b505af1158015611a4a573d6000803e3d6000fd5b50506040517f7ecebe0000000000000000000000000000000000000000000000000000000000815273ffffffffffffffffffffffffffffffffffffffff8b81166004830152600093508c169150637ecebe0090602401602060405180830381865afa158015611abd573d6000803e3d6000fd5b505050506040513d601f19601f82011682018060405250810190611ae1919061378d565b9050611aee8260016137d5565b8114611b7c576040517f08c379a000000000000000000000000000000000000000000000000000000000815260206004820152602160248201527f5361666545524332303a207065726d697420646964206e6f742073756363656560448201527f6400000000000000000000000000000000000000000000000000000000000000606482015260840161030d565b50505050505050505050565b6060611b978484600085613182565b949350505050565b6000611bb18580516014018051915290565b90506000611bc58680516001018051915290565b90506000611bd98780516014018051915290565b90506000611bed8880516003018051915290565b90508415611c5b5773ffffffffffffffffffffffffffffffffffffffff8716301415611c3957611c3473ffffffffffffffffffffffffffffffffffffffff8716858761126a565b611c5b565b611c5b73ffffffffffffffffffffffffffffffffffffffff871633868861329b565b6000808573ffffffffffffffffffffffffffffffffffffffff16630902f1ac6040518163ffffffff1660e01b8152600401606060405180830381865afa158015611ca9573d6000803e3d6000fd5b505050506040513d601f19601f82011682018060405250810190611ccd9190613844565b506dffffffffffffffffffffffffffff1691506dffffffffffffffffffffffffffff169150600082118015611d025750600081115b611d68576040517f08c379a000000000000000000000000000000000000000000000000000000000815260206004820152601360248201527f57726f6e6720706f6f6c20726573657276657300000000000000000000000000604482015260640161030d565b6000808660ff16600114611d7d578284611d80565b83835b6040517f70a0823100000000000000000000000000000000000000000000000000000000815273ffffffffffffffffffffffffffffffffffffffff8b8116600483015292945090925083918c16906370a0823190602401602060405180830381865afa158015611df4573d6000803e3d6000fd5b505050506040513d601f19601f82011682018060405250810190611e18919061378d565b611e2291906137ed565b98506000611e3386620f4240613894565b611e429062ffffff168b6138b8565b9050600081611e5485620f42406138b8565b611e5e91906137d5565b611e6884846138b8565b611e7291906138f5565b90506000808a60ff16600114611e8a57826000611e8e565b6000835b604080516000815260208101918290527f022c0d9f00000000000000000000000000000000000000000000000000000000909152919350915073ffffffffffffffffffffffffffffffffffffffff8d169063022c0d9f90611ef890859085908f9060248101613930565b600060405180830381600087803b158015611f1257600080fd5b505af1158015611f26573d6000803e3d6000fd5b5050505050505050505050505050505050505050565b6000611f4e8580516014018051915290565b9050600080611f638780516001018051915290565b60ff161190506000611f7b8780516014018051915290565b905073ffffffffffffffffffffffffffffffffffffffff8616331415611fbd57611fbd73ffffffffffffffffffffffffffffffffffffffff861633308761329b565b600280547fffffffffffffffffffffffff00000000000000000000000000000000000000001673ffffffffffffffffffffffffffffffffffffffff851690811790915563128acb08828487816120315761202c600173fffd8963efd1fc6a506488495d951d5263988d26613975565b612041565b6120416401000276a360016139a2565b6040805173ffffffffffffffffffffffffffffffffffffffff8d166020820152016040516020818303038152906040526040518663ffffffff1660e01b81526004016120919594939291906139da565b60408051808303816000875af11580156120af573d6000803e3d6000fd5b505050506040513d601f19601f820116820180604052508101906120d39190613a21565b505060025473ffffffffffffffffffffffffffffffffffffffff1660011461166b576040517f08c379a0000000000000000000000000000000000000000000000000000000008152602060048201526024808201527f526f75746550726f636573736f722e73776170556e6956333a20756e6578706560448201527f6374656400000000000000000000000000000000000000000000000000000000606482015260840161030d565b600061218e8580516001018051915290565b905060006121a28680516014018051915290565b9050600180831614156122715760006121c18780516014018051915290565b90506002831661222d578073ffffffffffffffffffffffffffffffffffffffff1663d0e30db0856040518263ffffffff1660e01b81526004016000604051808303818588803b15801561221357600080fd5b505af1158015612227573d6000803e3d6000fd5b50505050505b73ffffffffffffffffffffffffffffffffffffffff8216301461226b5761226b73ffffffffffffffffffffffffffffffffffffffff8216838661126a565b50610b58565b6002821661233a5773ffffffffffffffffffffffffffffffffffffffff85163314156122b9576122b973ffffffffffffffffffffffffffffffffffffffff851633308661329b565b6040517f2e1a7d4d0000000000000000000000000000000000000000000000000000000081526004810184905273ffffffffffffffffffffffffffffffffffffffff851690632e1a7d4d90602401600060405180830381600087803b15801561232157600080fd5b505af1158015612335573d6000803e3d6000fd5b505050505b60008173ffffffffffffffffffffffffffffffffffffffff164760405160006040518083038185875af1925050503d8060008114612394576040519150601f19603f3d011682016040523d82523d6000602084013e612399565b606091505b505090508061166b576040517f08c379a000000000000000000000000000000000000000000000000000000000815260206004820152602c60248201527f526f75746550726f636573736f723a204e617469766520746f6b656e2074726160448201527f6e73666572206661696c65640000000000000000000000000000000000000000606482015260840161030d565b600061243c8580516001018051915290565b905060006124508680516014018051915290565b905060ff8216156128335782156125075773ffffffffffffffffffffffffffffffffffffffff85163014156124c5576124c073ffffffffffffffffffffffffffffffffffffffff85167f00000000000000000000000000000000000000000000000000000000000000008561126a565b61275d565b6124c073ffffffffffffffffffffffffffffffffffffffff8516337f00000000000000000000000000000000000000000000000000000000000000008661329b565b6040517f4ffe34db00000000000000000000000000000000000000000000000000000000815273ffffffffffffffffffffffffffffffffffffffff85811660048301527f00000000000000000000000000000000000000000000000000000000000000001690634ffe34db906024016040805180830381865afa158015612592573d6000803e3d6000fd5b505050506040513d601f19601f820116820180604052508101906125b69190613a65565b516040517fdf23b45b00000000000000000000000000000000000000000000000000000000815273ffffffffffffffffffffffffffffffffffffffff86811660048301526fffffffffffffffffffffffffffffffff909216917f0000000000000000000000000000000000000000000000000000000000000000169063df23b45b90602401606060405180830381865afa158015612658573d6000803e3d6000fd5b505050506040513d601f19601f8201168201806040525081019061267c9190613ad8565b60409081015190517f70a0823100000000000000000000000000000000000000000000000000000000815273ffffffffffffffffffffffffffffffffffffffff7f0000000000000000000000000000000000000000000000000000000000000000811660048301526fffffffffffffffffffffffffffffffff909216918716906370a0823190602401602060405180830381865afa158015612722573d6000803e3d6000fd5b505050506040513d601f19601f82011682018060405250810190612746919061378d565b61275091906137d5565b61275a91906137ed565b92505b6040517f02b9446c00000000000000000000000000000000000000000000000000000000815273ffffffffffffffffffffffffffffffffffffffff85811660048301527f000000000000000000000000000000000000000000000000000000000000000081166024830181905290831660448301526064820185905260006084830152906302b9446c9060a40160408051808303816000875af1158015612808573d6000803e3d6000fd5b505050506040513d601f19601f8201168201806040525081019061282c9190613a21565b5050610b58565b82156128f4576040517ff18d03cc00000000000000000000000000000000000000000000000000000000815273ffffffffffffffffffffffffffffffffffffffff85811660048301528681166024830152306044830152606482018590527f0000000000000000000000000000000000000000000000000000000000000000169063f18d03cc90608401600060405180830381600087803b1580156128d757600080fd5b505af11580156128eb573d6000803e3d6000fd5b505050506129ad565b6040517ff7888aec00000000000000000000000000000000000000000000000000000000815273ffffffffffffffffffffffffffffffffffffffff85811660048301523060248301527f0000000000000000000000000000000000000000000000000000000000000000169063f7888aec90604401602060405180830381865afa158015612986573d6000803e3d6000fd5b505050506040513d601f19601f820116820180604052508101906129aa919061378d565b92505b6040517f97da6d3000000000000000000000000000000000000000000000000000000000815273ffffffffffffffffffffffffffffffffffffffff8581166004830152306024830152828116604483015260006064830152608482018590527f000000000000000000000000000000000000000000000000000000000000000016906397da6d309060a40160408051808303816000875af1158015612a56573d6000803e3d6000fd5b505050506040513d601f19601f82011682018060405250810190612a7a9190613a21565b5050505050505050565b6000612a968580516014018051915290565b8551602080820180519092010187529091508215612b67576040517ff18d03cc00000000000000000000000000000000000000000000000000000000815273ffffffffffffffffffffffffffffffffffffffff858116600483015286811660248301528381166044830152606482018590527f0000000000000000000000000000000000000000000000000000000000000000169063f18d03cc90608401600060405180830381600087803b158015612b4e57600080fd5b505af1158015612b62573d6000803e3d6000fd5b505050505b6040517f627dd56a00000000000000000000000000000000000000000000000000000000815273ffffffffffffffffffffffffffffffffffffffff83169063627dd56a90612bb990849060040161377a565b6020604051808303816000875af1158015612bd8573d6000803e3d6000fd5b505050506040513d601f19601f8201168201806040525081019061166b919061378d565b6000612c0e8580516014018051915290565b90506000612c228680516001018051915290565b90506000612c368780516001018051915290565b60000b90506000612c4d8880516001018051915290565b60000b90506000612c648980516014018051915290565b90506000612c788a80516014018051915290565b9050600073ffffffffffffffffffffffffffffffffffffffff891673eeeeeeeeeeeeeeeeeeeeeeeeeeeeeeeeeeeeeeee1415612d61576040517f3df02124000000000000000000000000000000000000000000000000000000008152600f86810b600483015285900b6024820152604481018990526000606482015273ffffffffffffffffffffffffffffffffffffffff881690633df02124908a9060840160206040518083038185885af1158015612d35573d6000803e3d6000fd5b50505050506040513d601f19601f82011682018060405250810190612d5a919061378d565b90506130bc565b73ffffffffffffffffffffffffffffffffffffffff8a16331415612da157612da173ffffffffffffffffffffffffffffffffffffffff8a1633308b61329b565b6040517f095ea7b300000000000000000000000000000000000000000000000000000000815273ffffffffffffffffffffffffffffffffffffffff8881166004830152602482018a90528a169063095ea7b3906044016020604051808303816000875af1158015612e16573d6000803e3d6000fd5b505050506040513d601f19601f82011682018060405250810190612e3a9190613804565b5060ff8616612eed576040517f3df02124000000000000000000000000000000000000000000000000000000008152600f86810b600483015285900b6024820152604481018990526000606482015273ffffffffffffffffffffffffffffffffffffffff881690633df02124906084016020604051808303816000875af1158015612ec9573d6000803e3d6000fd5b505050506040513d601f19601f82011682018060405250810190612d5a919061378d565b6040517f70a0823100000000000000000000000000000000000000000000000000000000815230600482015260009073ffffffffffffffffffffffffffffffffffffffff8416906370a0823190602401602060405180830381865afa158015612f5a573d6000803e3d6000fd5b505050506040513d601f19601f82011682018060405250810190612f7e919061378d565b6040517f3df02124000000000000000000000000000000000000000000000000000000008152600f88810b600483015287900b6024820152604481018b90526000606482015290915073ffffffffffffffffffffffffffffffffffffffff891690633df0212490608401600060405180830381600087803b15801561300257600080fd5b505af1158015613016573d6000803e3d6000fd5b50506040517f70a082310000000000000000000000000000000000000000000000000000000081523060048201526000925073ffffffffffffffffffffffffffffffffffffffff861691506370a0823190602401602060405180830381865afa158015613087573d6000803e3d6000fd5b505050506040513d601f19601f820116820180604052508101906130ab919061378d565b90506130b782826137ed565b925050505b73ffffffffffffffffffffffffffffffffffffffff831630146131755773ffffffffffffffffffffffffffffffffffffffff821673eeeeeeeeeeeeeeeeeeeeeeeeeeeeeeeeeeeeeeee14156131545760405173ffffffffffffffffffffffffffffffffffffffff84169082156108fc029083906000818181858888f1935050505015801561314e573d6000803e3d6000fd5b50613175565b61317573ffffffffffffffffffffffffffffffffffffffff8316848361126a565b5050505050505050505050565b606082471015613214576040517f08c379a000000000000000000000000000000000000000000000000000000000815260206004820152602660248201527f416464726573733a20696e73756666696369656e742062616c616e636520666f60448201527f722063616c6c0000000000000000000000000000000000000000000000000000606482015260840161030d565b6000808673ffffffffffffffffffffffffffffffffffffffff16858760405161323d9190613714565b60006040518083038185875af1925050503d806000811461327a576040519150601f19603f3d011682016040523d82523d6000602084013e61327f565b606091505b5091509150613290878383876132f9565b979650505050505050565b60405173ffffffffffffffffffffffffffffffffffffffff8085166024830152831660448201526064810182905261050e9085907f23b872dd00000000000000000000000000000000000000000000000000000000906084016112bc565b6060831561338c5782516133855773ffffffffffffffffffffffffffffffffffffffff85163b613385576040517f08c379a000000000000000000000000000000000000000000000000000000000815260206004820152601d60248201527f416464726573733a2063616c6c20746f206e6f6e2d636f6e7472616374000000604482015260640161030d565b5081611b97565b611b9783838151156133a15781518083602001fd5b806040517f08c379a000000000000000000000000000000000000000000000000000000000815260040161030d919061377a565b73ffffffffffffffffffffffffffffffffffffffff811681146109af57600080fd5b7f4e487b7100000000000000000000000000000000000000000000000000000000600052604160045260246000fd5b600082601f83011261343757600080fd5b813567ffffffffffffffff80821115613452576134526133f7565b604051601f83017fffffffffffffffffffffffffffffffffffffffffffffffffffffffffffffffe0908116603f01168101908282118183101715613498576134986133f7565b816040528381528660208588010111156134b157600080fd5b836020870160208301376000602085830101528094505050505092915050565b60008060008060008060c087890312156134ea57600080fd5b86356134f5816133d5565b955060208701359450604087013561350c816133d5565b9350606087013592506080870135613523816133d5565b915060a087013567ffffffffffffffff81111561353f57600080fd5b61354b89828a01613426565b9150509295509295509295565b6000806000806060858703121561356e57600080fd5b8435935060208501359250604085013567ffffffffffffffff8082111561359457600080fd5b818701915087601f8301126135a857600080fd5b8135818111156135b757600080fd5b8860208285010111156135c957600080fd5b95989497505060200194505050565b600080600080600080600080610100898b0312156135f557600080fd5b8835613600816133d5565b9750602089013596506040890135613617816133d5565b955060608901359450608089013561362e816133d5565b935060a0890135925060c0890135613645816133d5565b915060e089013567ffffffffffffffff81111561366157600080fd5b61366d8b828c01613426565b9150509295985092959890939650565b80151581146109af57600080fd5b6000806040838503121561369e57600080fd5b82356136a9816133d5565b915060208301356136b98161367d565b809150509250929050565b6000602082840312156136d657600080fd5b81356136e1816133d5565b9392505050565b60005b838110156137035781810151838201526020016136eb565b8381111561050e5750506000910152565b600082516137268184602087016136e8565b9190910192915050565b600081518084526137488160208601602086016136e8565b601f017fffffffffffffffffffffffffffffffffffffffffffffffffffffffffffffffe0169290920160200192915050565b6020815260006136e16020830184613730565b60006020828403121561379f57600080fd5b5051919050565b7f4e487b7100000000000000000000000000000000000000000000000000000000600052601160045260246000fd5b600082198211156137e8576137e86137a6565b500190565b6000828210156137ff576137ff6137a6565b500390565b60006020828403121561381657600080fd5b81516136e18161367d565b80516dffffffffffffffffffffffffffff8116811461383f57600080fd5b919050565b60008060006060848603121561385957600080fd5b61386284613821565b925061387060208501613821565b9150604084015163ffffffff8116811461388957600080fd5b809150509250925092565b600062ffffff838116908316818110156138b0576138b06137a6565b039392505050565b6000817fffffffffffffffffffffffffffffffffffffffffffffffffffffffffffffffff04831182151516156138f0576138f06137a6565b500290565b60008261392b577f4e487b7100000000000000000000000000000000000000000000000000000000600052601260045260246000fd5b500490565b84815283602082015273ffffffffffffffffffffffffffffffffffffffff8316604082015260806060820152600061396b6080830184613730565b9695505050505050565b600073ffffffffffffffffffffffffffffffffffffffff838116908316818110156138b0576138b06137a6565b600073ffffffffffffffffffffffffffffffffffffffff8083168185168083038211156139d1576139d16137a6565b01949350505050565b600073ffffffffffffffffffffffffffffffffffffffff8088168352861515602084015285604084015280851660608401525060a0608083015261329060a0830184613730565b60008060408385031215613a3457600080fd5b505080516020909101519092909150565b80516fffffffffffffffffffffffffffffffff8116811461383f57600080fd5b600060408284031215613a7757600080fd5b6040516040810181811067ffffffffffffffff82111715613a9a57613a9a6133f7565b604052613aa683613a45565b8152613ab460208401613a45565b60208201529392505050565b805167ffffffffffffffff8116811461383f57600080fd5b600060608284031215613aea57600080fd5b6040516060810181811067ffffffffffffffff82111715613b0d57613b0d6133f7565b604052613b1983613ac0565b8152613b2760208401613ac0565b6020820152613b3860408401613a45565b6040820152939250505056fea26469706673582212201acf5cafe1cb44ac80ebb12db122a094b0e5e523db79b5b8da61890fc7c8a4ed64736f6c634300080a0033",
  "linkReferences": {},
  "deployedLinkReferences": {}
}