{
    "address": "0x2cBA6Ab6574646Badc84F0544d05059e57a5dc42",
    "abi": [
        {
            "inputs": [
                {
                    "internalType": "contract IBentoBoxV1",
                    "name": "bentoBox_",
                    "type": "address"
                }
            ],
            "stateMutability": "nonpayable",
            "type": "constructor"
        },
        {
            "anonymous": false,
            "inputs": [
                {
                    "indexed": true,
                    "internalType": "address",
                    "name": "_owner",
                    "type": "address"
                },
                {
                    "indexed": true,
                    "internalType": "address",
                    "name": "_spender",
                    "type": "address"
                },
                {
                    "indexed": false,
                    "internalType": "uint256",
                    "name": "_value",
                    "type": "uint256"
                }
            ],
            "name": "Approval",
            "type": "event"
        },
        {
            "anonymous": false,
            "inputs": [
                {
                    "indexed": false,
                    "internalType": "uint256",
                    "name": "accruedAmount",
                    "type": "uint256"
                },
                {
                    "indexed": false,
                    "internalType": "uint256",
                    "name": "feeFraction",
                    "type": "uint256"
                },
                {
                    "indexed": false,
                    "internalType": "uint64",
                    "name": "rate",
                    "type": "uint64"
                },
                {
                    "indexed": false,
                    "internalType": "uint256",
                    "name": "utilization",
                    "type": "uint256"
                }
            ],
            "name": "LogAccrue",
            "type": "event"
        },
        {
            "anonymous": false,
            "inputs": [
                {
                    "indexed": true,
                    "internalType": "address",
                    "name": "from",
                    "type": "address"
                },
                {
                    "indexed": true,
                    "internalType": "address",
                    "name": "to",
                    "type": "address"
                },
                {
                    "indexed": false,
                    "internalType": "uint256",
                    "name": "share",
                    "type": "uint256"
                },
                {
                    "indexed": false,
                    "internalType": "uint256",
                    "name": "fraction",
                    "type": "uint256"
                }
            ],
            "name": "LogAddAsset",
            "type": "event"
        },
        {
            "anonymous": false,
            "inputs": [
                {
                    "indexed": true,
                    "internalType": "address",
                    "name": "from",
                    "type": "address"
                },
                {
                    "indexed": true,
                    "internalType": "address",
                    "name": "to",
                    "type": "address"
                },
                {
                    "indexed": false,
                    "internalType": "uint256",
                    "name": "share",
                    "type": "uint256"
                }
            ],
            "name": "LogAddCollateral",
            "type": "event"
        },
        {
            "anonymous": false,
            "inputs": [
                {
                    "indexed": true,
                    "internalType": "address",
                    "name": "from",
                    "type": "address"
                },
                {
                    "indexed": true,
                    "internalType": "address",
                    "name": "to",
                    "type": "address"
                },
                {
                    "indexed": false,
                    "internalType": "uint256",
                    "name": "amount",
                    "type": "uint256"
                },
                {
                    "indexed": false,
                    "internalType": "uint256",
                    "name": "feeAmount",
                    "type": "uint256"
                },
                {
                    "indexed": false,
                    "internalType": "uint256",
                    "name": "part",
                    "type": "uint256"
                }
            ],
            "name": "LogBorrow",
            "type": "event"
        },
        {
            "anonymous": false,
            "inputs": [
                {
                    "indexed": false,
                    "internalType": "uint256",
                    "name": "rate",
                    "type": "uint256"
                }
            ],
            "name": "LogExchangeRate",
            "type": "event"
        },
        {
            "anonymous": false,
            "inputs": [
                {
                    "indexed": true,
                    "internalType": "address",
                    "name": "newFeeTo",
                    "type": "address"
                }
            ],
            "name": "LogFeeTo",
            "type": "event"
        },
        {
            "anonymous": false,
            "inputs": [
                {
                    "indexed": true,
                    "internalType": "address",
                    "name": "from",
                    "type": "address"
                },
                {
                    "indexed": true,
                    "internalType": "address",
                    "name": "to",
                    "type": "address"
                },
                {
                    "indexed": false,
                    "internalType": "uint256",
                    "name": "share",
                    "type": "uint256"
                },
                {
                    "indexed": false,
                    "internalType": "uint256",
                    "name": "fraction",
                    "type": "uint256"
                }
            ],
            "name": "LogRemoveAsset",
            "type": "event"
        },
        {
            "anonymous": false,
            "inputs": [
                {
                    "indexed": true,
                    "internalType": "address",
                    "name": "from",
                    "type": "address"
                },
                {
                    "indexed": true,
                    "internalType": "address",
                    "name": "to",
                    "type": "address"
                },
                {
                    "indexed": false,
                    "internalType": "uint256",
                    "name": "share",
                    "type": "uint256"
                }
            ],
            "name": "LogRemoveCollateral",
            "type": "event"
        },
        {
            "anonymous": false,
            "inputs": [
                {
                    "indexed": true,
                    "internalType": "address",
                    "name": "from",
                    "type": "address"
                },
                {
                    "indexed": true,
                    "internalType": "address",
                    "name": "to",
                    "type": "address"
                },
                {
                    "indexed": false,
                    "internalType": "uint256",
                    "name": "amount",
                    "type": "uint256"
                },
                {
                    "indexed": false,
                    "internalType": "uint256",
                    "name": "part",
                    "type": "uint256"
                }
            ],
            "name": "LogRepay",
            "type": "event"
        },
        {
            "anonymous": false,
            "inputs": [
                {
                    "indexed": true,
                    "internalType": "address",
                    "name": "feeTo",
                    "type": "address"
                },
                {
                    "indexed": false,
                    "internalType": "uint256",
                    "name": "feesEarnedFraction",
                    "type": "uint256"
                }
            ],
            "name": "LogWithdrawFees",
            "type": "event"
        },
        {
            "anonymous": false,
            "inputs": [
                {
                    "indexed": true,
                    "internalType": "address",
                    "name": "previousOwner",
                    "type": "address"
                },
                {
                    "indexed": true,
                    "internalType": "address",
                    "name": "newOwner",
                    "type": "address"
                }
            ],
            "name": "OwnershipTransferred",
            "type": "event"
        },
        {
            "anonymous": false,
            "inputs": [
                {
                    "indexed": true,
                    "internalType": "address",
                    "name": "_from",
                    "type": "address"
                },
                {
                    "indexed": true,
                    "internalType": "address",
                    "name": "_to",
                    "type": "address"
                },
                {
                    "indexed": false,
                    "internalType": "uint256",
                    "name": "_value",
                    "type": "uint256"
                }
            ],
            "name": "Transfer",
            "type": "event"
        },
        {
            "inputs": [],
            "name": "DOMAIN_SEPARATOR",
            "outputs": [
                {
                    "internalType": "bytes32",
                    "name": "",
                    "type": "bytes32"
                }
            ],
            "stateMutability": "view",
            "type": "function"
        },
        {
            "inputs": [],
            "name": "accrue",
            "outputs": [],
            "stateMutability": "nonpayable",
            "type": "function"
        },
        {
            "inputs": [],
            "name": "accrueInfo",
            "outputs": [
                {
                    "internalType": "uint64",
                    "name": "interestPerSecond",
                    "type": "uint64"
                },
                {
                    "internalType": "uint64",
                    "name": "lastAccrued",
                    "type": "uint64"
                },
                {
                    "internalType": "uint128",
                    "name": "feesEarnedFraction",
                    "type": "uint128"
                }
            ],
            "stateMutability": "view",
            "type": "function"
        },
        {
            "inputs": [
                {
                    "internalType": "address",
                    "name": "to",
                    "type": "address"
                },
                {
                    "internalType": "bool",
                    "name": "skim",
                    "type": "bool"
                },
                {
                    "internalType": "uint256",
                    "name": "share",
                    "type": "uint256"
                }
            ],
            "name": "addAsset",
            "outputs": [
                {
                    "internalType": "uint256",
                    "name": "fraction",
                    "type": "uint256"
                }
            ],
            "stateMutability": "nonpayable",
            "type": "function"
        },
        {
            "inputs": [
                {
                    "internalType": "address",
                    "name": "to",
                    "type": "address"
                },
                {
                    "internalType": "bool",
                    "name": "skim",
                    "type": "bool"
                },
                {
                    "internalType": "uint256",
                    "name": "share",
                    "type": "uint256"
                }
            ],
            "name": "addCollateral",
            "outputs": [],
            "stateMutability": "nonpayable",
            "type": "function"
        },
        {
            "inputs": [
                {
                    "internalType": "address",
                    "name": "",
                    "type": "address"
                },
                {
                    "internalType": "address",
                    "name": "",
                    "type": "address"
                }
            ],
            "name": "allowance",
            "outputs": [
                {
                    "internalType": "uint256",
                    "name": "",
                    "type": "uint256"
                }
            ],
            "stateMutability": "view",
            "type": "function"
        },
        {
            "inputs": [
                {
                    "internalType": "address",
                    "name": "spender",
                    "type": "address"
                },
                {
                    "internalType": "uint256",
                    "name": "amount",
                    "type": "uint256"
                }
            ],
            "name": "approve",
            "outputs": [
                {
                    "internalType": "bool",
                    "name": "",
                    "type": "bool"
                }
            ],
            "stateMutability": "nonpayable",
            "type": "function"
        },
        {
            "inputs": [],
            "name": "asset",
            "outputs": [
                {
                    "internalType": "contract IERC20",
                    "name": "",
                    "type": "address"
                }
            ],
            "stateMutability": "view",
            "type": "function"
        },
        {
            "inputs": [
                {
                    "internalType": "address",
                    "name": "",
                    "type": "address"
                }
            ],
            "name": "balanceOf",
            "outputs": [
                {
                    "internalType": "uint256",
                    "name": "",
                    "type": "uint256"
                }
            ],
            "stateMutability": "view",
            "type": "function"
        },
        {
            "inputs": [],
            "name": "bentoBox",
            "outputs": [
                {
                    "internalType": "contract IBentoBoxV1",
                    "name": "",
                    "type": "address"
                }
            ],
            "stateMutability": "view",
            "type": "function"
        },
        {
            "inputs": [
                {
                    "internalType": "address",
                    "name": "to",
                    "type": "address"
                },
                {
                    "internalType": "uint256",
                    "name": "amount",
                    "type": "uint256"
                }
            ],
            "name": "borrow",
            "outputs": [
                {
                    "internalType": "uint256",
                    "name": "part",
                    "type": "uint256"
                },
                {
                    "internalType": "uint256",
                    "name": "share",
                    "type": "uint256"
                }
            ],
            "stateMutability": "nonpayable",
            "type": "function"
        },
        {
            "inputs": [],
            "name": "claimOwnership",
            "outputs": [],
            "stateMutability": "nonpayable",
            "type": "function"
        },
        {
            "inputs": [],
            "name": "collateral",
            "outputs": [
                {
                    "internalType": "contract IERC20",
                    "name": "",
                    "type": "address"
                }
            ],
            "stateMutability": "view",
            "type": "function"
        },
        {
            "inputs": [
                {
                    "internalType": "uint8[]",
                    "name": "actions",
                    "type": "uint8[]"
                },
                {
                    "internalType": "uint256[]",
                    "name": "values",
                    "type": "uint256[]"
                },
                {
                    "internalType": "bytes[]",
                    "name": "datas",
                    "type": "bytes[]"
                }
            ],
            "name": "cook",
            "outputs": [
                {
                    "internalType": "uint256",
                    "name": "value1",
                    "type": "uint256"
                },
                {
                    "internalType": "uint256",
                    "name": "value2",
                    "type": "uint256"
                }
            ],
            "stateMutability": "payable",
            "type": "function"
        },
        {
            "inputs": [],
            "name": "decimals",
            "outputs": [
                {
                    "internalType": "uint8",
                    "name": "",
                    "type": "uint8"
                }
            ],
            "stateMutability": "view",
            "type": "function"
        },
        {
            "inputs": [],
            "name": "exchangeRate",
            "outputs": [
                {
                    "internalType": "uint256",
                    "name": "",
                    "type": "uint256"
                }
            ],
            "stateMutability": "view",
            "type": "function"
        },
        {
            "inputs": [],
            "name": "feeTo",
            "outputs": [
                {
                    "internalType": "address",
                    "name": "",
                    "type": "address"
                }
            ],
            "stateMutability": "view",
            "type": "function"
        },
        {
            "inputs": [
                {
                    "internalType": "bytes",
                    "name": "data",
                    "type": "bytes"
                }
            ],
            "name": "init",
            "outputs": [],
            "stateMutability": "payable",
            "type": "function"
        },
        {
            "inputs": [
                {
                    "internalType": "address[]",
                    "name": "users",
                    "type": "address[]"
                },
                {
                    "internalType": "uint256[]",
                    "name": "maxBorrowParts",
                    "type": "uint256[]"
                },
                {
                    "internalType": "address",
                    "name": "to",
                    "type": "address"
                },
                {
                    "internalType": "contract ISwapper",
                    "name": "swapper",
                    "type": "address"
                },
                {
                    "internalType": "bool",
                    "name": "open",
                    "type": "bool"
                }
            ],
            "name": "liquidate",
            "outputs": [],
            "stateMutability": "nonpayable",
            "type": "function"
        },
        {
            "inputs": [],
            "name": "masterContract",
            "outputs": [
                {
                    "internalType": "contract KashiPairMediumRiskV1",
                    "name": "",
                    "type": "address"
                }
            ],
            "stateMutability": "view",
            "type": "function"
        },
        {
            "inputs": [],
            "name": "name",
            "outputs": [
                {
                    "internalType": "string",
                    "name": "",
                    "type": "string"
                }
            ],
            "stateMutability": "view",
            "type": "function"
        },
        {
            "inputs": [
                {
                    "internalType": "address",
                    "name": "",
                    "type": "address"
                }
            ],
            "name": "nonces",
            "outputs": [
                {
                    "internalType": "uint256",
                    "name": "",
                    "type": "uint256"
                }
            ],
            "stateMutability": "view",
            "type": "function"
        },
        {
            "inputs": [],
            "name": "oracle",
            "outputs": [
                {
                    "internalType": "contract IOracle",
                    "name": "",
                    "type": "address"
                }
            ],
            "stateMutability": "view",
            "type": "function"
        },
        {
            "inputs": [],
            "name": "oracleData",
            "outputs": [
                {
                    "internalType": "bytes",
                    "name": "",
                    "type": "bytes"
                }
            ],
            "stateMutability": "view",
            "type": "function"
        },
        {
            "inputs": [],
            "name": "owner",
            "outputs": [
                {
                    "internalType": "address",
                    "name": "",
                    "type": "address"
                }
            ],
            "stateMutability": "view",
            "type": "function"
        },
        {
            "inputs": [],
            "name": "pendingOwner",
            "outputs": [
                {
                    "internalType": "address",
                    "name": "",
                    "type": "address"
                }
            ],
            "stateMutability": "view",
            "type": "function"
        },
        {
            "inputs": [
                {
                    "internalType": "address",
                    "name": "owner_",
                    "type": "address"
                },
                {
                    "internalType": "address",
                    "name": "spender",
                    "type": "address"
                },
                {
                    "internalType": "uint256",
                    "name": "value",
                    "type": "uint256"
                },
                {
                    "internalType": "uint256",
                    "name": "deadline",
                    "type": "uint256"
                },
                {
                    "internalType": "uint8",
                    "name": "v",
                    "type": "uint8"
                },
                {
                    "internalType": "bytes32",
                    "name": "r",
                    "type": "bytes32"
                },
                {
                    "internalType": "bytes32",
                    "name": "s",
                    "type": "bytes32"
                }
            ],
            "name": "permit",
            "outputs": [],
            "stateMutability": "nonpayable",
            "type": "function"
        },
        {
            "inputs": [
                {
                    "internalType": "address",
                    "name": "to",
                    "type": "address"
                },
                {
                    "internalType": "uint256",
                    "name": "fraction",
                    "type": "uint256"
                }
            ],
            "name": "removeAsset",
            "outputs": [
                {
                    "internalType": "uint256",
                    "name": "share",
                    "type": "uint256"
                }
            ],
            "stateMutability": "nonpayable",
            "type": "function"
        },
        {
            "inputs": [
                {
                    "internalType": "address",
                    "name": "to",
                    "type": "address"
                },
                {
                    "internalType": "uint256",
                    "name": "share",
                    "type": "uint256"
                }
            ],
            "name": "removeCollateral",
            "outputs": [],
            "stateMutability": "nonpayable",
            "type": "function"
        },
        {
            "inputs": [
                {
                    "internalType": "address",
                    "name": "to",
                    "type": "address"
                },
                {
                    "internalType": "bool",
                    "name": "skim",
                    "type": "bool"
                },
                {
                    "internalType": "uint256",
                    "name": "part",
                    "type": "uint256"
                }
            ],
            "name": "repay",
            "outputs": [
                {
                    "internalType": "uint256",
                    "name": "amount",
                    "type": "uint256"
                }
            ],
            "stateMutability": "nonpayable",
            "type": "function"
        },
        {
            "inputs": [
                {
                    "internalType": "address",
                    "name": "newFeeTo",
                    "type": "address"
                }
            ],
            "name": "setFeeTo",
            "outputs": [],
            "stateMutability": "nonpayable",
            "type": "function"
        },
        {
            "inputs": [
                {
                    "internalType": "contract ISwapper",
                    "name": "swapper",
                    "type": "address"
                },
                {
                    "internalType": "bool",
                    "name": "enable",
                    "type": "bool"
                }
            ],
            "name": "setSwapper",
            "outputs": [],
            "stateMutability": "nonpayable",
            "type": "function"
        },
        {
            "inputs": [
                {
                    "internalType": "contract ISwapper",
                    "name": "",
                    "type": "address"
                }
            ],
            "name": "swappers",
            "outputs": [
                {
                    "internalType": "bool",
                    "name": "",
                    "type": "bool"
                }
            ],
            "stateMutability": "view",
            "type": "function"
        },
        {
            "inputs": [],
            "name": "symbol",
            "outputs": [
                {
                    "internalType": "string",
                    "name": "",
                    "type": "string"
                }
            ],
            "stateMutability": "view",
            "type": "function"
        },
        {
            "inputs": [],
            "name": "totalAsset",
            "outputs": [
                {
                    "internalType": "uint128",
                    "name": "elastic",
                    "type": "uint128"
                },
                {
                    "internalType": "uint128",
                    "name": "base",
                    "type": "uint128"
                }
            ],
            "stateMutability": "view",
            "type": "function"
        },
        {
            "inputs": [],
            "name": "totalBorrow",
            "outputs": [
                {
                    "internalType": "uint128",
                    "name": "elastic",
                    "type": "uint128"
                },
                {
                    "internalType": "uint128",
                    "name": "base",
                    "type": "uint128"
                }
            ],
            "stateMutability": "view",
            "type": "function"
        },
        {
            "inputs": [],
            "name": "totalCollateralShare",
            "outputs": [
                {
                    "internalType": "uint256",
                    "name": "",
                    "type": "uint256"
                }
            ],
            "stateMutability": "view",
            "type": "function"
        },
        {
            "inputs": [],
            "name": "totalSupply",
            "outputs": [
                {
                    "internalType": "uint256",
                    "name": "",
                    "type": "uint256"
                }
            ],
            "stateMutability": "view",
            "type": "function"
        },
        {
            "inputs": [
                {
                    "internalType": "address",
                    "name": "to",
                    "type": "address"
                },
                {
                    "internalType": "uint256",
                    "name": "amount",
                    "type": "uint256"
                }
            ],
            "name": "transfer",
            "outputs": [
                {
                    "internalType": "bool",
                    "name": "",
                    "type": "bool"
                }
            ],
            "stateMutability": "nonpayable",
            "type": "function"
        },
        {
            "inputs": [
                {
                    "internalType": "address",
                    "name": "from",
                    "type": "address"
                },
                {
                    "internalType": "address",
                    "name": "to",
                    "type": "address"
                },
                {
                    "internalType": "uint256",
                    "name": "amount",
                    "type": "uint256"
                }
            ],
            "name": "transferFrom",
            "outputs": [
                {
                    "internalType": "bool",
                    "name": "",
                    "type": "bool"
                }
            ],
            "stateMutability": "nonpayable",
            "type": "function"
        },
        {
            "inputs": [
                {
                    "internalType": "address",
                    "name": "newOwner",
                    "type": "address"
                },
                {
                    "internalType": "bool",
                    "name": "direct",
                    "type": "bool"
                },
                {
                    "internalType": "bool",
                    "name": "renounce",
                    "type": "bool"
                }
            ],
            "name": "transferOwnership",
            "outputs": [],
            "stateMutability": "nonpayable",
            "type": "function"
        },
        {
            "inputs": [],
            "name": "updateExchangeRate",
            "outputs": [
                {
                    "internalType": "bool",
                    "name": "updated",
                    "type": "bool"
                },
                {
                    "internalType": "uint256",
                    "name": "rate",
                    "type": "uint256"
                }
            ],
            "stateMutability": "nonpayable",
            "type": "function"
        },
        {
            "inputs": [
                {
                    "internalType": "address",
                    "name": "",
                    "type": "address"
                }
            ],
            "name": "userBorrowPart",
            "outputs": [
                {
                    "internalType": "uint256",
                    "name": "",
                    "type": "uint256"
                }
            ],
            "stateMutability": "view",
            "type": "function"
        },
        {
            "inputs": [
                {
                    "internalType": "address",
                    "name": "",
                    "type": "address"
                }
            ],
            "name": "userCollateralShare",
            "outputs": [
                {
                    "internalType": "uint256",
                    "name": "",
                    "type": "uint256"
                }
            ],
            "stateMutability": "view",
            "type": "function"
        },
        {
            "inputs": [],
            "name": "withdrawFees",
            "outputs": [],
            "stateMutability": "nonpayable",
            "type": "function"
        }
    ],
    "transactionHash": "0x16007cfff049f1bb7e371146e3b2312386660047ddd7367a5f94cd6a6a1beb86",
    "args": [
        "0xF5BCE5077908a1b7370B9ae04AdC565EBd643966"
    ],
    "solcInputHash": "fb6a464900d7316a0917c7a46953f263",
    "bytecode": "0x6101006040523480156200001257600080fd5b50604051620061d2380380620061d28339810160408190526200003591620000fe565b4660a08190526200004681620000a8565b60805250600380546001600160a01b031916339081179091556040516000907f8be0079c531659141344cd1fd0a4f28419497f9722a3daafe3b4186f6b6457e0908290a36001600160601b0319606091821b1660c05230901b60e0526200014d565b60007f47e79534a245952e8b16893a336b85a3d9ea9fa8c573f3d803afb92a794692188230604051602001620000e1939291906200012e565b604051602081830303815290604052805190602001209050919050565b60006020828403121562000110578081fd5b81516001600160a01b038116811462000127578182fd5b9392505050565b92835260208301919091526001600160a01b0316604082015260600190565b60805160a05160c05160601c60e05160601c615fae6200022460003980610dca5280611f9052806122805280612949525080611487528061164f5280611727528061189a5280611a3f5280611b6e5280611ee7528061204b528061217b528061223a5280612414528061255d52806126c15280612dd7528061332c528061343452806134f652806136de528061379e52806139985280613c665280613db55280613ede528061406b528061412152806141fd5280614382528061467d5280614704525080610cf3525080610d285250615fae6000f3fe6080604052600436106102c25760003560e01c8063656f3d641161017f5780638da5cb5b116100e1578063d8dfeb451161008a578063f46901ed11610064578063f46901ed1461078b578063f8ba4cff146107ab578063f9557ccb146107c0576102c2565b8063d8dfeb4514610741578063dd62ed3e14610756578063e30c397814610776576102c2565b8063b27c0e74116100bb578063b27c0e74146106e8578063cd446e221461070c578063d505accf14610721576102c2565b80638da5cb5b1461069e57806395d89b41146106b3578063a9059cbb146106c8576102c2565b80637dc0d1d011610143578063860ffea11161011d578063860ffea11461063e578063876467f81461065e5780638cad7fbe1461067e576102c2565b80637dc0d1d0146105e65780637ecebe00146105fb5780638285ef401461061b576102c2565b8063656f3d64146105695780636b2ace871461057c57806370a082311461059157806374645ff3146105b157806376ee101b146105c6576102c2565b8063313ce56711610228578063473e3ce7116101ec5780634b8a3529116101c65780634b8a3529146105135780634ddf47d4146105415780634e71e0c814610554576102c2565b8063473e3ce7146104c9578063476343ee146104de57806348e4163e146104f3576102c2565b8063313ce567146104485780633644e5151461046a57806338d52e0f1461047f5780633ba0b9a9146104945780633f2617cb146104a9576102c2565b806315294c401161028a5780631c9e379b116102645780631c9e379b146103e85780632317ef671461040857806323b872dd14610428576102c2565b806315294c401461038657806318160ddd146103b35780631b51e940146103c8576102c2565b8063017e7e58146102c757806302ce728f146102f257806306fdde0314610315578063078dfbe714610337578063095ea7b314610359575b600080fd5b3480156102d357600080fd5b506102dc6107d5565b6040516102e991906155d0565b60405180910390f35b3480156102fe57600080fd5b506103076107e4565b6040516102e9929190615628565b34801561032157600080fd5b5061032a6108c1565b6040516102e991906156b2565b34801561034357600080fd5b50610357610352366004614e55565b610999565b005b34801561036557600080fd5b50610379610374366004614ece565b610a89565b6040516102e9919061561d565b34801561039257600080fd5b506103a66103a1366004614e9f565b610af4565b6040516102e99190615638565b3480156103bf57600080fd5b506103a6610b11565b3480156103d457600080fd5b506103a66103e3366004614e9f565b610b27565b3480156103f457600080fd5b506103a6610403366004614c3e565b610b3c565b34801561041457600080fd5b506103a6610423366004614ece565b610b4e565b34801561043457600080fd5b50610379610443366004614da5565b610b69565b34801561045457600080fd5b5061045d610cd1565b6040516102e99190615e1c565b34801561047657600080fd5b506103a6610cee565b34801561048b57600080fd5b506102dc610d4e565b3480156104a057600080fd5b506103a6610d5d565b3480156104b557600080fd5b506103576104c43660046152df565b610d63565b3480156104d557600080fd5b506103a6610db8565b3480156104ea57600080fd5b50610357610dbe565b3480156104ff57600080fd5b506103a661050e366004614c3e565b610f2e565b34801561051f57600080fd5b5061053361052e366004614ece565b610f40565b6040516102e9929190615dcc565b61035761054f3660046150b0565b610f8e565b34801561056057600080fd5b50610357611071565b610533610577366004614f9e565b6110ff565b34801561058857600080fd5b506102dc611a3d565b34801561059d57600080fd5b506103a66105ac366004614c3e565b611a61565b3480156105bd57600080fd5b5061032a611a73565b3480156105d257600080fd5b506103576105e1366004614ef9565b611b01565b3480156105f257600080fd5b506102dc61260b565b34801561060757600080fd5b506103a6610616366004614c3e565b61261a565b34801561062757600080fd5b5061063061262c565b6040516102e9929190615db2565b34801561064a57600080fd5b50610357610659366004614e9f565b612646565b34801561066a57600080fd5b50610357610679366004614ece565b612727565b34801561068a57600080fd5b50610379610699366004614c3e565b612767565b3480156106aa57600080fd5b506102dc61277c565b3480156106bf57600080fd5b5061032a61278b565b3480156106d457600080fd5b506103796106e3366004614ece565b61284f565b3480156106f457600080fd5b506106fd61291a565b6040516102e993929190615df0565b34801561071857600080fd5b506102dc612947565b34801561072d57600080fd5b5061035761073c366004614de5565b61296b565b34801561074d57600080fd5b506102dc612b0c565b34801561076257600080fd5b506103a6610771366004614d6d565b612b1b565b34801561078257600080fd5b506102dc612b38565b34801561079757600080fd5b506103576107a6366004614c3e565b612b47565b3480156107b757600080fd5b50610357612bbb565b3480156107cc57600080fd5b50610630613187565b6005546001600160a01b031681565b60095460405163d6d7d52560e01b815260009182916001600160a01b039091169063d6d7d5259061081a90600a906004016156c5565b6040805180830381600087803b15801561083357600080fd5b505af1158015610847573d6000803e3d6000fd5b505050506040513d601f19601f8201168201806040525081019061086b919061504f565b909250905081156108b85760108190556040517f9f9192b5edb17356c524e08d9e025c8e2f6307e6ea52fb7968faa3081f51c3c8906108ab908390615638565b60405180910390a16108bd565b506010545b9091565b6007546060906108d9906001600160a01b03166131a1565b6008546108ee906001600160a01b03166131a1565b60095460405163355a219b60e21b81526001600160a01b039091169063d568866c9061091f90600a906004016156c5565b60006040518083038186803b15801561093757600080fd5b505afa15801561094b573d6000803e3d6000fd5b505050506040513d6000823e601f3d908101601f19168201604052610973919081019061536e565b604051602001610985939291906154e6565b604051602081830303815290604052905090565b6003546001600160a01b031633146109cc5760405162461bcd60e51b81526004016109c390615b90565b60405180910390fd5b8115610a68576001600160a01b0383161515806109e65750805b610a025760405162461bcd60e51b81526004016109c3906159b0565b6003546040516001600160a01b038086169216907f8be0079c531659141344cd1fd0a4f28419497f9722a3daafe3b4186f6b6457e090600090a3600380546001600160a01b0385166001600160a01b031991821617909155600480549091169055610a84565b600480546001600160a01b0319166001600160a01b0385161790555b505050565b3360008181526001602090815260408083206001600160a01b038716808552925280832085905551919290917f8c5be1e5ebec7d5bd14f71427d1e84f3dd0314c0f7b2291e5b200ac8c7c3b92590610ae2908690615638565b60405180910390a35060015b92915050565b6000610afe612bbb565b610b09848484613266565b949350505050565b600c54600160801b90046001600160801b031690565b6000610b31612bbb565b610b0984848461349f565b600e6020526000908152604090205481565b6000610b58612bbb565b610b62838361374a565b9392505050565b60008115610c8e576001600160a01b03841660009081526020819052604090205482811015610baa5760405162461bcd60e51b81526004016109c390615c68565b836001600160a01b0316856001600160a01b031614610c8c576001600160a01b03851660009081526001602090815260408083203384529091529020546000198114610c395783811015610c105760405162461bcd60e51b81526004016109c390615ac3565b6001600160a01b0386166000908152600160209081526040808320338452909152902084820390555b6001600160a01b038516610c5f5760405162461bcd60e51b81526004016109c390615942565b506001600160a01b0380861660009081526020819052604080822086850390559186168152208054840190555b505b826001600160a01b0316846001600160a01b0316600080516020615f5983398151915284604051610cbf9190615638565b60405180910390a35060019392505050565b600854600090610ce9906001600160a01b0316613a11565b905090565b6000467f00000000000000000000000000000000000000000000000000000000000000008114610d2657610d2181613aca565b610d48565b7f00000000000000000000000000000000000000000000000000000000000000005b91505090565b6008546001600160a01b031681565b60105481565b6003546001600160a01b03163314610d8d5760405162461bcd60e51b81526004016109c390615b90565b6001600160a01b03919091166000908152600660205260409020805460ff1916911515919091179055565b600b5481565b610dc6612bbb565b60007f00000000000000000000000000000000000000000000000000000000000000006001600160a01b031663017e7e586040518163ffffffff1660e01b815260040160206040518083038186803b158015610e2157600080fd5b505afa158015610e35573d6000803e3d6000fd5b505050506040513d601f19601f82011682018060405250810190610e599190614c5a565b6011546001600160a01b038216600090815260208190526040902054919250600160801b90046001600160801b031690610e939082613b1e565b6001600160a01b038316600081815260208190526040808220939093559151909190600080516020615f5983398151915290610ed0908590615638565b60405180910390a3601180546001600160801b031690556040516001600160a01b038316907fbe641c3ffc44b2d6c184f023fa4ed7bda4b6ffa71e03b3c98ae0c776da1f17e790610f22908490615638565b60405180910390a25050565b600f6020526000908152604090205481565b600080610f4b612bbb565b610f558484613b41565b8092508193505050610f6b336000601054613e2f565b610f875760405162461bcd60e51b81526004016109c390615b59565b9250929050565b6007546001600160a01b031615610fb75760405162461bcd60e51b81526004016109c39061590b565b610fc381830183615235565b805160079060009060089082906009908290610fe690600a9060208a0190614a71565b5081546001600160a01b0398891661010092830a908102908a021990911617909155825497871691810a918202918702199097161790558154958416940a938402938302199094169290921790925550600754166110565760405162461bcd60e51b81526004016109c390615a8c565b50506011805467ffffffffffffffff19166312e687c0179055565b6004546001600160a01b031633811461109c5760405162461bcd60e51b81526004016109c390615bc5565b6003546040516001600160a01b038084169216907f8be0079c531659141344cd1fd0a4f28419497f9722a3daafe3b4186f6b6457e090600090a3600380546001600160a01b039092166001600160a01b0319928316179055600480549091169055565b60008061110a614aeb565b60005b888110156119ff5760008a8a8381811061112357fe5b9050602002016020810190611138919061541d565b9050826020015115801561114f5750600a8160ff16105b156111645761115c612bbb565b600160208401525b60ff8116600a14156111be57600080600089898681811061118157fe5b90506020028101906111939190615e2a565b8101906111a09190615348565b9250925092506111b68282610659868c8c613faa565b5050506119f6565b60ff81166001141561121f5760008060008989868181106111db57fe5b90506020028101906111ed9190615e2a565b8101906111fa9190615348565b9250925092506112158282611210868c8c613faa565b61349f565b97505050506119f6565b60ff81166002141561127f57600080600089898681811061123c57fe5b905060200281019061124e9190615e2a565b81019061125b9190615348565b9250925092506112768282611271868c8c613faa565b613266565b505050506119f6565b60ff8116600314156112da5760008088888581811061129a57fe5b90506020028101906112ac9190615e2a565b8101906112b99190615324565b915091506112d1816112cc848a8a613faa565b61374a565b965050506119f6565b60ff811660041415611337576000808888858181106112f557fe5b90506020028101906113079190615e2a565b8101906113149190615324565b9150915061132c81611327848a8a613faa565b613fd2565b5050600183526119f6565b60ff81166005141561139a5760008088888581811061135257fe5b90506020028101906113649190615e2a565b8101906113719190615324565b9150915061138981611384848a8a613faa565b613b41565b6001875290975095506119f6915050565b60ff8116600b14156114395760008060008989868181106113b757fe5b90506020028101906113c99190615e2a565b8101906113d6919061507c565b9250925092506000806113e76107e4565b915091508415806113f55750815b801561140057508381115b8015611413575082158061141357508281115b61142f5760405162461bcd60e51b81526004016109c390615d44565b50505050506119f6565b60ff811660181415611518576000806000806000808c8c8981811061145a57fe5b905060200281019061146c9190615e2a565b8101906114799190614c76565b9550955095509550955095507f00000000000000000000000000000000000000000000000000000000000000006001600160a01b031663c0a47c938787878787876040518763ffffffff1660e01b81526004016114db969594939291906155e4565b600060405180830381600087803b1580156114f557600080fd5b505af1158015611509573d6000803e3d6000fd5b505050505050505050506119f6565b60ff8116601414156115a05761159687878481811061153357fe5b90506020028101906115459190615e2a565b8080601f0160208091040260200160405190810160405280939291908181526020018383808284376000920191909152508d92508c915086905081811061158857fe5b9050602002013587876140e0565b90955093506119f6565b60ff81166015141561160b576115968787848181106115bb57fe5b90506020028101906115cd9190615e2a565b8080601f0160208091040260200160405190810160405280939291908181526020018383808284376000920191909152508992508891506141d69050565b60ff8116601614156116e357600080600089898681811061162857fe5b905060200281019061163a9190615e2a565b8101906116479190614da5565b9250925092507f00000000000000000000000000000000000000000000000000000000000000006001600160a01b031663f18d03cc84338561168a868e8e613faa565b6040518563ffffffff1660e01b81526004016116a99493929190615769565b600060405180830381600087803b1580156116c357600080fd5b505af11580156116d7573d6000803e3d6000fd5b505050505050506119f6565b60ff81166017141561177757600060608089898681811061170057fe5b90506020028101906117129190615e2a565b81019061171f9190615163565b9250925092507f00000000000000000000000000000000000000000000000000000000000000006001600160a01b0316630fca8843843385856040518563ffffffff1660e01b81526004016116a994939291906157c7565b60ff8116601e141561185157606060006117f98b8b8681811061179657fe5b905060200201358a8a878181106117a957fe5b90506020028101906117bb9190615e2a565b8080601f0160208091040260200160405190810160405280939291908181526020018383808284376000920191909152508c92508b91506142c49050565b915091508060ff1660011415611824578180602001905181019061181d91906153e2565b965061184a565b8060ff166002141561184a578180602001905181019061184491906153fa565b90975095505b50506119f6565b60ff81166006141561197957600087878481811061186b57fe5b905060200281019061187d9190615e2a565b81019061188a919061530c565b6008549091506001600160a01b037f000000000000000000000000000000000000000000000000000000000000000081169163da5139ca91166119016118d1858b8b613faa565b60408051808201909152600d546001600160801b038082168352600160801b90910416602082015290600161447a565b60016040518463ffffffff1660e01b81526004016119219392919061588d565b60206040518083038186803b15801561193957600080fd5b505afa15801561194d573d6000803e3d6000fd5b505050506040513d601f19601f8201168201806040525081019061197191906153e2565b9550506119f6565b60ff8116600714156119f657600087878481811061199357fe5b90506020028101906119a59190615e2a565b8101906119b2919061530c565b90506119f26119c2828888613faa565b60408051808201909152600d546001600160801b038082168352600160801b909104166020820152906000614513565b9550505b5060010161110d565b50805115611a3157611a15336000601054613e2f565b611a315760405162461bcd60e51b81526004016109c390615b59565b50965096945050505050565b7f000000000000000000000000000000000000000000000000000000000000000081565b60006020819052908152604090205481565b600a805460408051602060026001851615610100026000190190941693909304601f81018490048402820184019092528181529291830182828015611af95780601f10611ace57610100808354040283529160200191611af9565b820191906000526020600020905b815481529060010190602001808311611adc57829003601f168201915b505050505081565b6000611b0b6107e4565b915050611b16612bbb565b6000806000611b23614aeb565b5060408051808201909152600d546001600160801b038082168352600160801b909104166020820152611b54614aeb565b600754604051634ffe34db60e01b81526001600160a01b037f0000000000000000000000000000000000000000000000000000000000000000811692634ffe34db92611ba79291909116906004016155d0565b604080518083038186803b158015611bbe57600080fd5b505afa158015611bd2573d6000803e3d6000fd5b505050506040513d601f19601f82011682018060405250810190611bf691906153a0565b905060005b8c811015611e1d5760008e8e83818110611c1157fe5b9050602002016020810190611c269190614c3e565b9050611c33818a8a613e2f565b611e14576001600160a01b0381166000908152600f6020526040812054808f8f86818110611c5d57fe5b9050602002013511611c81578e8e85818110611c7557fe5b90506020020135611c83565b805b9150611c8f818361458c565b6001600160a01b0384166000908152600f60205260408120919091559050611cb886838361447a565b90506000611cf369152d02c7e14af6800000611ce18d611cdb866201b5806145af565b906145af565b81611ce857fe5b889190046000614513565b6001600160a01b0385166000908152600e6020526040902054909150611d19908261458c565b6001600160a01b038086166000908152600e60205260409020919091558d1615611d43578c611d45565b8d5b6001600160a01b0316846001600160a01b03167f8ad4d3ff00da092c7ad9a573ea4f5f6a3dffc6712dc06d3f78f49b862297c40283604051611d879190615638565b60405180910390a36001600160a01b03808516908e1615611da8578d611daa565b335b6001600160a01b03167fc8e512d8f188ca059984b5853d2bf653da902696b8512785b182b2c813789a6e8486604051611de4929190615dcc565b60405180910390a3611df68a82613b1e565b9950611e028983613b1e565b9850611e0e8884613b1e565b97505050505b50600101611bfb565b5083611e3b5760405162461bcd60e51b81526004016109c390615979565b611e58611e47856145e6565b83516001600160801b031690614613565b6001600160801b03168252611e83611e6f846145e6565b60208401516001600160801b031690614613565b6001600160801b03908116602084018190528351600d80546001600160801b03191691841691909117909216600160801b909102179055600b54611ec7908661458c565b600b55600854604051636d289ce560e11b81526000916001600160a01b037f000000000000000000000000000000000000000000000000000000000000000081169263da5139ca92611f22921690899060019060040161588d565b60206040518083038186803b158015611f3a57600080fd5b505afa158015611f4e573d6000803e3d6000fd5b505050506040513d601f19601f82011682018060405250810190611f7291906153e2565b90508761240757604051634656bfdf60e11b81526001600160a01b037f00000000000000000000000000000000000000000000000000000000000000001690638cad7fbe90611fc5908c906004016155d0565b60206040518083038186803b158015611fdd57600080fd5b505afa158015611ff1573d6000803e3d6000fd5b505050506040513d601f19601f820116820180604052508101906120159190615033565b6120315760405162461bcd60e51b81526004016109c390615cd6565b600754604051633c6340f360e21b81526001600160a01b037f000000000000000000000000000000000000000000000000000000000000000081169263f18d03cc9261208a92919091169030908e908c90600401615769565b600060405180830381600087803b1580156120a457600080fd5b505af11580156120b8573d6000803e3d6000fd5b50506007546008546040516371a1ff0960e11b81526001600160a01b03808f16955063e343fe1294506120f8938116921690309087908d90600401615793565b6040805180830381600087803b15801561211157600080fd5b505af1158015612125573d6000803e3d6000fd5b505050506040513d601f19601f8201168201806040525081019061214991906153fa565b5050600c54600854604051633de222bb60e21b815260009261220c926001600160801b03909116916001600160a01b037f000000000000000000000000000000000000000000000000000000000000000081169263f7888aec926121b6929190911690309060040161574f565b60206040518083038186803b1580156121ce57600080fd5b505afa1580156121e2573d6000803e3d6000fd5b505050506040513d601f19601f8201168201806040525081019061220691906153e2565b9061458c565b9050600061221a828461458c565b90506000620186a061222e836127106145af565b8161223557fe5b0490507f00000000000000000000000000000000000000000000000000000000000000006001600160a01b031663f18d03cc600860009054906101000a90046001600160a01b0316307f00000000000000000000000000000000000000000000000000000000000000006001600160a01b031663017e7e586040518163ffffffff1660e01b815260040160206040518083038186803b1580156122d757600080fd5b505afa1580156122eb573d6000803e3d6000fd5b505050506040513d601f19601f8201168201806040525081019061230f9190614c5a565b856040518563ffffffff1660e01b815260040161232f9493929190615769565b600060405180830381600087803b15801561234957600080fd5b505af115801561235d573d6000803e3d6000fd5b5050505061239161237f61237a838661458c90919063ffffffff16565b6145e6565b600c546001600160801b031690614642565b600c80546001600160801b0319166001600160801b0392909216919091179055306001600160a01b038d167f30a8c4f9ab5af7e1309ca87c32377d1a83366c5990472dbf9d262450eae14e386123e7858561458c565b60006040516123f7929190615dcc565b60405180910390a35050506125fb565b6007546001600160a01b037f000000000000000000000000000000000000000000000000000000000000000081169163f18d03cc919081169030908d161561244f578c612451565b8d5b8a6040518563ffffffff1660e01b81526004016124719493929190615769565b600060405180830381600087803b15801561248b57600080fd5b505af115801561249f573d6000803e3d6000fd5b505050506001600160a01b03891615612543576007546008546040516371a1ff0960e11b81526001600160a01b03808d169363e343fe12936124ef93918316921690339087908d90600401615793565b6040805180830381600087803b15801561250857600080fd5b505af115801561251c573d6000803e3d6000fd5b505050506040513d601f19601f8201168201806040525081019061254091906153fa565b50505b600854604051633c6340f360e21b81526001600160a01b037f000000000000000000000000000000000000000000000000000000000000000081169263f18d03cc9261259c929190911690339030908790600401615769565b600060405180830381600087803b1580156125b657600080fd5b505af11580156125ca573d6000803e3d6000fd5b505050506125da61237f826145e6565b600c80546001600160801b0319166001600160801b03929092169190911790555b5050505050505050505050505050565b6009546001600160a01b031681565b60026020526000908152604090205481565b600d546001600160801b0380821691600160801b90041682565b6001600160a01b0383166000908152600e60205260409020546126699082613b1e565b6001600160a01b0384166000908152600e6020526040902055600b5461268f8183613b1e565b600b556007546126aa906001600160a01b0316838386614671565b836001600160a01b0316836126bf57336126e1565b7f00000000000000000000000000000000000000000000000000000000000000005b6001600160a01b03167f9ed03113de523cebfe5e49d5f8e12894b1c0d42ce805990461726444c90eab87846040516127199190615638565b60405180910390a350505050565b61272f612bbb565b6127398282613fd2565b612747336000601054613e2f565b6127635760405162461bcd60e51b81526004016109c390615b59565b5050565b60066020526000908152604090205460ff1681565b6003546001600160a01b031681565b6007546060906127a3906001600160a01b0316614778565b6008546127b8906001600160a01b0316614778565b60095460405163634ce26b60e11b81526001600160a01b039091169063c699c4d6906127e990600a906004016156c5565b60006040518083038186803b15801561280157600080fd5b505afa158015612815573d6000803e3d6000fd5b505050506040513d6000823e601f3d908101601f1916820160405261283d919081019061536e565b60405160200161098593929190615563565b600081156128e95733600090815260208190526040902054828110156128875760405162461bcd60e51b81526004016109c390615c68565b336001600160a01b038516146128e7576001600160a01b0384166128bd5760405162461bcd60e51b81526004016109c390615942565b3360009081526020819052604080822085840390556001600160a01b038616825290208054840190555b505b826001600160a01b0316336001600160a01b0316600080516020615f5983398151915284604051610ae29190615638565b6011546001600160401b0380821691600160401b810490911690600160801b90046001600160801b031683565b7f000000000000000000000000000000000000000000000000000000000000000081565b6001600160a01b0387166129915760405162461bcd60e51b81526004016109c390615bfa565b8342106129b05760405162461bcd60e51b81526004016109c390615b31565b6001600160a01b0387166000818152600260209081526040918290208054600181810190925592519092612a2e92612a13927f6e71edae12b1b97f4d1f60370fef10105fa2faae0126114a169c64845d6126c9928e928e928e92918e9101615641565b604051602081830303815290604052805190602001206147bf565b85858560405160008152602001604052604051612a4e9493929190615694565b6020604051602081039080840390855afa158015612a70573d6000803e3d6000fd5b505050602060405103516001600160a01b031614612aa05760405162461bcd60e51b81526004016109c390615d7b565b6001600160a01b038088166000818152600160209081526040808320948b168084529490915290819020889055517f8c5be1e5ebec7d5bd14f71427d1e84f3dd0314c0f7b2291e5b200ac8c7c3b92590612afb908990615638565b60405180910390a350505050505050565b6007546001600160a01b031681565b600160209081526000928352604080842090915290825290205481565b6004546001600160a01b031681565b6003546001600160a01b03163314612b715760405162461bcd60e51b81526004016109c390615b90565b600580546001600160a01b0319166001600160a01b0383169081179091556040517fcf1d3f17e521c635e0d20b8acba94ba170afc041d0546d46dafa09d3c9c19eb390600090a250565b612bc3614b02565b50604080516060810182526011546001600160401b038082168352600160401b82041660208301819052600160801b9091046001600160801b03169282019290925290420380612c14575050613185565b6001600160401b0342166020830152612c2b614aeb565b5060408051808201909152600d546001600160801b038082168352600160801b9091041660208201819052612d225782516001600160401b03166312e687c014612cb5576312e687c08084526040517f33af5ce86e8438eff54589f85332916444457dfa8685493fbd579b809097026b91612cac91600091829182906158b0565b60405180910390a15b5050805160118054602084015160409094015167ffffffffffffffff199091166001600160401b03938416176fffffffffffffffff00000000000000001916600160401b9390941692909202929092176001600160801b03908116600160801b9190921602179055613185565b600080612d2d614aeb565b5060408051808201909152600c546001600160801b038082168352600160801b9091048116602083015286518551670de0b6b3a764000092612d7f928992611cdb9216906001600160401b03166145af565b81612d8657fe5b049250612da6612d95846145e6565b85516001600160801b031690614642565b6001600160801b03168085526008548251604051630acc462360e31b8152600093612e679390926001600160a01b037f0000000000000000000000000000000000000000000000000000000000000000811693635662311893612e1193921691908890600401615861565b60206040518083038186803b158015612e2957600080fd5b505afa158015612e3d573d6000803e3d6000fd5b505050506040513d601f19601f82011682018060405250810190612e6191906153e2565b90613b1e565b90506000620186a0612e7b866127106145af565b81612e8257fe5b04905081612ea684602001516001600160801b0316836145af90919063ffffffff16565b81612ead57fe5b049350612ed0612ebc856145e6565b60408a01516001600160801b031690614642565b6001600160801b03166040890152612efe612eea856145e6565b60208501516001600160801b031690614642565b600c80546001600160801b03908116600160801b9382168402179091558751600d805460208b01516001600160801b031990911692841692831784169316909302919091179091556000908390612f5d90670de0b6b3a76400006145af565b81612f6457fe5b0490506709b6e64a8ec600008110156130265760006709b6e64a8ec60000612f98670de0b6b3a7640000611cdb838661458c565b81612f9f57fe5b0490506000612fcd612fb58b611cdb85806145af565b7054a2b63d65d79d094abb6688000000000090613b1e565b8b519091508190612ff8906001600160401b03167054a2b63d65d79d094abb668800000000006145af565b81612fff57fe5b046001600160401b0316808c526304b9a1f0111561301f576304b9a1f08b525b50506130d7565b670b1a2bc2ec5000008111156130d75760006702c68af0bb14000061305f670de0b6b3a7640000611cdb85670b1a2bc2ec50000061458c565b8161306657fe5b049050600061307c612fb58b611cdb85806145af565b8b519091506000907054a2b63d65d79d094abb66880000000000906130aa906001600160401b0316846145af565b816130b157fe5b0490506449d48246008111156130c957506449d48246005b6001600160401b03168b5250505b88516040517f33af5ce86e8438eff54589f85332916444457dfa8685493fbd579b809097026b9161310d918991899186906158b0565b60405180910390a1505086516011805460208a01516040909a015167ffffffffffffffff199091166001600160401b03938416176fffffffffffffffff00000000000000001916600160401b93909a1692909202989098176001600160801b03908116600160801b9190921602179096555050505050505b565b600c546001600160801b0380821691600160801b90041682565b60408051600481526024810182526020810180516001600160e01b03166306fdde0360e01b179052905160609160009183916001600160a01b038616916131e89190615481565b600060405180830381855afa9150503d8060008114613223576040519150601f19603f3d011682016040523d82523d6000602084013e613228565b606091505b50915091508161325357604051806040016040528060038152602001623f3f3f60e81b81525061325c565b61325c816147f7565b925050505b919050565b60408051808201909152600d546001600160801b038082168352600160801b90910416602082015260009061329d9083600161495c565b8151600d80546020948501516001600160801b03908116600160801b029381166001600160801b031990921691909117169190911790556001600160a01b0386166000908152600f9092526040909120549091506132fb908361458c565b6001600160a01b038086166000908152600f6020526040808220939093556008549251636d289ce560e11b815290927f000000000000000000000000000000000000000000000000000000000000000083169263da5139ca926133699290911690869060019060040161588d565b60206040518083038186803b15801561338157600080fd5b505afa158015613395573d6000803e3d6000fd5b505050506040513d601f19601f820116820180604052508101906133b991906153e2565b600c546008549192506001600160801b0316906133e1906001600160a01b0316838388614671565b6133fd6133ed836145e6565b6001600160801b03831690614642565b600c80546001600160801b0319166001600160801b03929092169190911790556001600160a01b038616856134325733613454565b7f00000000000000000000000000000000000000000000000000000000000000005b6001600160a01b03167fc8e512d8f188ca059984b5853d2bf653da902696b8512785b182b2c813789a6e858760405161348e929190615dcc565b60405180910390a350509392505050565b60006134a9614aeb565b50604080518082018252600c546001600160801b03808216808452600160801b90920481166020840152600854600d549451636d289ce560e11b8152939492936000936001600160a01b037f000000000000000000000000000000000000000000000000000000000000000081169463da5139ca94613532949216921690600190600401615861565b60206040518083038186803b15801561354a57600080fd5b505afa15801561355e573d6000803e3d6000fd5b505050506040513d601f19601f8201168201806040525081019061358291906153e2565b83516001600160801b031601905080156135c457806135b784602001516001600160801b0316876145af90919063ffffffff16565b816135be57fe5b046135c6565b845b93506103e86135eb6135d7866145e6565b60208601516001600160801b031690614642565b6001600160801b031610156136065760009350505050610b62565b6136118386866149d1565b8051600c80546020938401516001600160801b03908116600160801b029381166001600160801b031990921691909117169190911790556001600160a01b038816600090815290819052604090205461366a9085613b1e565b6001600160a01b038816600081815260208190526040808220939093559151909190600080516020615f59833981519152906136a7908890615638565b60405180910390a36008546136c7906001600160a01b0316868489614671565b866001600160a01b0316866136dc57336136fe565b7f00000000000000000000000000000000000000000000000000000000000000005b6001600160a01b03167f30a8c4f9ab5af7e1309ca87c32377d1a83366c5990472dbf9d262450eae14e388787604051613738929190615dcc565b60405180910390a35050509392505050565b6000613754614aeb565b50604080518082018252600c546001600160801b038082168352600160801b90910481166020830152600854600d549351636d289ce560e11b815292936000936001600160a01b037f000000000000000000000000000000000000000000000000000000000000000081169463da5139ca946137db94921692911690600190600401615861565b60206040518083038186803b1580156137f357600080fd5b505afa158015613807573d6000803e3d6000fd5b505050506040513d601f19601f8201168201806040525081019061382b91906153e2565b825160208401516001600160801b039182169290920192501661384e85836145af565b8161385557fe5b336000908152602081905260409020549190049350613874908561458c565b33600081815260208190526040808220939093559151600080516020615f59833981519152906138a5908890615638565b60405180910390a36138b9611e47846145e6565b6001600160801b031682526138d0611e6f856145e6565b6001600160801b0316602083018190526103e811156139015760405162461bcd60e51b81526004016109c390615c31565b8151600c805460208501516001600160801b03908116600160801b029381166001600160801b031990921691909117169190911790556040516001600160a01b0386169033907f6e853a5fd6b51d773691f542ebac8513c9992a51380d4c342031056a64114228906139769087908990615dcc565b60405180910390a3600854604051633c6340f360e21b81526001600160a01b037f000000000000000000000000000000000000000000000000000000000000000081169263f18d03cc926139d792919091169030908a908990600401615769565b600060405180830381600087803b1580156139f157600080fd5b505af1158015613a05573d6000803e3d6000fd5b50505050505092915050565b60408051600481526024810182526020810180516001600160e01b031663313ce56760e01b179052905160009182916060916001600160a01b03861691613a589190615481565b600060405180830381855afa9150503d8060008114613a93576040519150601f19603f3d011682016040523d82523d6000602084013e613a98565b606091505b5091509150818015613aab575080516020145b613ab657601261325c565b8080602001905181019061325c9190615439565b60007f47e79534a245952e8b16893a336b85a3d9ea9fa8c573f3d803afb92a794692188230604051602001613b0193929190615675565b604051602081830303815290604052805190602001209050919050565b81810181811015610aee5760405162461bcd60e51b81526004016109c390615a55565b60008080620186a0613b548560326145af565b81613b5b57fe5b049050613b9b613b6b8583613b1e565b60408051808201909152600d546001600160801b038082168352600160801b909104166020820152906001614a12565b8151600d80546020948501516001600160801b03908116600160801b029381166001600160801b03199092169190911716919091179055336000908152600f909252604090912054909350613bf09084613b1e565b336000818152600f6020526040908190209290925590516001600160a01b03871691907f3a5151e57d3bc9798e7853034ac52293d1a0e12a2b44725e75b03b21f86477a690613c4490889086908990615dda565b60405180910390a3600854604051636d289ce560e11b81526001600160a01b037f000000000000000000000000000000000000000000000000000000000000000081169263da5139ca92613ca4929190911690889060009060040161588d565b60206040518083038186803b158015613cbc57600080fd5b505afa158015613cd0573d6000803e3d6000fd5b505050506040513d601f19601f82011682018060405250810190613cf491906153e2565b9150613cfe614aeb565b5060408051808201909152600c546001600160801b038082168352600160801b90910416602082018190526103e81115613d4a5760405162461bcd60e51b81526004016109c390615c31565b613d67613d56846145e6565b82516001600160801b031690614613565b6001600160801b03908116808352600c805460208501518416600160801b026001600160801b0319909116909217909216179055600854604051633c6340f360e21b81526001600160a01b037f000000000000000000000000000000000000000000000000000000000000000081169263f18d03cc92613df492919091169030908b908990600401615769565b600060405180830381600087803b158015613e0e57600080fd5b505af1158015613e22573d6000803e3d6000fd5b5050505050509250929050565b6001600160a01b0383166000908152600f602052604081205480613e57576001915050610b62565b6001600160a01b0385166000908152600e602052604090205480613e8057600092505050610b62565b613e88614aeb565b5060408051808201909152600d546001600160801b03808216808452600160801b909204166020830181905290613ec6908790611cdb9087906145af565b81613ecd57fe5b600754919004906001600160a01b037f000000000000000000000000000000000000000000000000000000000000000081169163566231189116613f2d8a613f1857620124f8613f1d565b62012cc85b611cdb886509184e72a0006145af565b60006040518463ffffffff1660e01b8152600401613f4d9392919061588d565b60206040518083038186803b158015613f6557600080fd5b505afa158015613f79573d6000803e3d6000fd5b505050506040513d601f19601f82011682018060405250810190613f9d91906153e2565b1015979650505050505050565b600080841215613fca576000198414613fc35781613fc5565b825b610b09565b509192915050565b336000908152600e6020526040902054613fec908261458c565b336000908152600e6020526040902055600b54614009908261458c565b600b556040516001600160a01b0383169033907f8ad4d3ff00da092c7ad9a573ea4f5f6a3dffc6712dc06d3f78f49b862297c40290614049908590615638565b60405180910390a3600754604051633c6340f360e21b81526001600160a01b037f000000000000000000000000000000000000000000000000000000000000000081169263f18d03cc926140aa929190911690309087908790600401615769565b600060405180830381600087803b1580156140c457600080fd5b505af11580156140d8573d6000803e3d6000fd5b505050505050565b600080600080600080898060200190518101906140fd919061511c565b9350935093509350614110828989613faa565b915061411d818989613faa565b90507f00000000000000000000000000000000000000000000000000000000000000006001600160a01b03166302b9446c8a86338787876040518763ffffffff1660e01b8152600401614174959493929190615793565b60408051808303818588803b15801561418c57600080fd5b505af11580156141a0573d6000803e3d6000fd5b50505050506040513d601f19601f820116820180604052508101906141c591906153fa565b955095505050505094509492505050565b600080600080600080888060200190518101906141f3919061511c565b93509350935093507f00000000000000000000000000000000000000000000000000000000000000006001600160a01b03166397da6d30853386614238878e8e613faa565b614243878f8f613faa565b6040518663ffffffff1660e01b8152600401614263959493929190615793565b6040805180830381600087803b15801561427c57600080fd5b505af1158015614290573d6000803e3d6000fd5b505050506040513d601f19601f820116820180604052508101906142b491906153fa565b9550955050505050935093915050565b606060008060606000806000898060200190518101906142e49190614ce3565b945094509450945094508280156142f9575081155b1561432757838960405160200161431192919061549d565b6040516020818303038152906040529350614380565b821580156143325750815b1561434a57838860405160200161431192919061549d565b8280156143545750815b156143805783898960405160200161436e939291906154bf565b60405160208183030381529060405293505b7f00000000000000000000000000000000000000000000000000000000000000006001600160a01b0316856001600160a01b0316141580156143cb57506001600160a01b0385163014155b6143e75760405162461bcd60e51b81526004016109c390615afa565b60006060866001600160a01b03168d876040516144049190615481565b60006040518083038185875af1925050503d8060008114614441576040519150601f19603f3d011682016040523d82523d6000602084013e614446565b606091505b5091509150816144685760405162461bcd60e51b81526004016109c3906159e7565b9c919b50909950505050505050505050565b600083602001516001600160801b031660001415614499575081610b62565b602084015184516001600160801b03918216916144b8918691166145af565b816144bf57fe5b04905081801561450357508284600001516001600160801b03166144f986602001516001600160801b0316846145af90919063ffffffff16565b8161450057fe5b04105b15610b6257610b09816001613b1e565b82516000906001600160801b031661452c575081610b62565b835160208501516001600160801b039182169161454b918691166145af565b8161455257fe5b04905081801561450357508284602001516001600160801b03166144f986600001516001600160801b0316846145af90919063ffffffff16565b80820382811115610aee5760405162461bcd60e51b81526004016109c3906158d4565b60008115806145ca575050808202828282816145c757fe5b04145b610aee5760405162461bcd60e51b81526004016109c390615d0d565b60006001600160801b0382111561460f5760405162461bcd60e51b81526004016109c390615a1e565b5090565b8082036001600160801b038084169082161115610aee5760405162461bcd60e51b81526004016109c3906158d4565b8181016001600160801b038083169082161015610aee5760405162461bcd60e51b81526004016109c390615a55565b80156146ed576146c9827f00000000000000000000000000000000000000000000000000000000000000006001600160a01b031663f7888aec87306040518363ffffffff1660e01b81526004016121b692919061574f565b8311156146e85760405162461bcd60e51b81526004016109c390615c9f565b614772565b604051633c6340f360e21b81526001600160a01b037f0000000000000000000000000000000000000000000000000000000000000000169063f18d03cc9061473f908790339030908990600401615769565b600060405180830381600087803b15801561475957600080fd5b505af115801561476d573d6000803e3d6000fd5b505050505b50505050565b60408051600481526024810182526020810180516001600160e01b03166395d89b4160e01b179052905160609160009183916001600160a01b038616916131e89190615481565b600060405180604001604052806002815260200161190160f01b8152506147e4610cee565b83604051602001613b01939291906154bf565b6060604082511061481d5781806020019051810190614816919061536e565b9050613261565b81516020141561493c5760005b60208160ff161080156148595750828160ff168151811061484757fe5b01602001516001600160f81b03191615155b156148665760010161482a565b60608160ff166001600160401b038111801561488157600080fd5b506040519080825280601f01601f1916602001820160405280156148ac576020820181803683370190505b509050600091505b60208260ff161080156148e35750838260ff16815181106148d157fe5b01602001516001600160f81b03191615155b1561493357838260ff16815181106148f757fe5b602001015160f81c60f81b818360ff168151811061491157fe5b60200101906001600160f81b031916908160001a9053506001909101906148b4565b91506132619050565b506040805180820190915260038152623f3f3f60e81b6020820152613261565b614964614aeb565b600061497185858561447a565b905061499061497f826145e6565b86516001600160801b031690614613565b6001600160801b031685526149bb6149a7856145e6565b60208701516001600160801b031690614613565b6001600160801b03166020860152939492505050565b6149d9614aeb565b6149e5612d95846145e6565b6001600160801b031684526149fc6135d7836145e6565b6001600160801b03166020850152509192915050565b614a1a614aeb565b6000614a27858585614513565b9050614a46614a35856145e6565b86516001600160801b031690614642565b6001600160801b031685526149bb614a5d826145e6565b60208701516001600160801b031690614642565b828054600181600116156101000203166002900490600052602060002090601f016020900481019282601f10614ab257805160ff1916838001178555614adf565b82800160010185558215614adf579182015b82811115614adf578251825591602001919060010190614ac4565b5061460f929150614b22565b604080518082019091526000808252602082015290565b604080516060810182526000808252602082018190529181019190915290565b5b8082111561460f5760008155600101614b23565b8035610aee81615f0e565b60008083601f840112614b53578182fd5b5081356001600160401b03811115614b69578182fd5b6020830191508360208083028501011115610f8757600080fd5b600082601f830112614b93578081fd5b8135614ba6614ba182615e94565b615e6e565b818152915060208083019084810181840286018201871015614bc757600080fd5b60005b84811015614be657813584529282019290820190600101614bca565b505050505092915050565b600082601f830112614c01578081fd5b8151614c0f614ba182615eb3565b9150808252836020828501011115614c2657600080fd5b614c37816020840160208601615ee2565b5092915050565b600060208284031215614c4f578081fd5b8135610b6281615f0e565b600060208284031215614c6b578081fd5b8151610b6281615f0e565b60008060008060008060c08789031215614c8e578182fd5b8635614c9981615f0e565b95506020870135614ca981615f0e565b94506040870135614cb981615f26565b93506060870135614cc981615f49565b9598949750929560808101359460a0909101359350915050565b600080600080600060a08688031215614cfa578283fd5b8551614d0581615f0e565b60208701519095506001600160401b03811115614d20578384fd5b614d2c88828901614bf1565b9450506040860151614d3d81615f26565b6060870151909350614d4e81615f26565b6080870151909250614d5f81615f49565b809150509295509295909350565b60008060408385031215614d7f578182fd5b8235614d8a81615f0e565b91506020830135614d9a81615f0e565b809150509250929050565b600080600060608486031215614db9578081fd5b8335614dc481615f0e565b92506020840135614dd481615f0e565b929592945050506040919091013590565b600080600080600080600060e0888a031215614dff578485fd5b8735614e0a81615f0e565b96506020880135614e1a81615f0e565b955060408801359450606088013593506080880135614e3881615f49565b9699959850939692959460a0840135945060c09093013592915050565b600080600060608486031215614e69578081fd5b8335614e7481615f0e565b92506020840135614e8481615f26565b91506040840135614e9481615f26565b809150509250925092565b600080600060608486031215614eb3578081fd5b8335614ebe81615f0e565b92506020840135614dd481615f26565b60008060408385031215614ee0578182fd5b8235614eeb81615f0e565b946020939093013593505050565b600080600080600080600060a0888a031215614f13578081fd5b87356001600160401b0380821115614f29578283fd5b614f358b838c01614b42565b909950975060208a0135915080821115614f4d578283fd5b50614f5a8a828b01614b42565b9096509450506040880135614f6e81615f0e565b92506060880135614f7e81615f0e565b91506080880135614f8e81615f26565b8091505092959891949750929550565b60008060008060008060608789031215614fb6578384fd5b86356001600160401b0380821115614fcc578586fd5b614fd88a838b01614b42565b90985096506020890135915080821115614ff0578586fd5b614ffc8a838b01614b42565b90965094506040890135915080821115615014578384fd5b5061502189828a01614b42565b979a9699509497509295939492505050565b600060208284031215615044578081fd5b8151610b6281615f26565b60008060408385031215615061578182fd5b825161506c81615f26565b6020939093015192949293505050565b600080600060608486031215615090578081fd5b833561509b81615f26565b95602085013595506040909401359392505050565b600080602083850312156150c2578182fd5b82356001600160401b03808211156150d8578384fd5b818501915085601f8301126150eb578384fd5b8135818111156150f9578485fd5b86602082850101111561510a578485fd5b60209290920196919550909350505050565b60008060008060808587031215615131578182fd5b845161513c81615f0e565b602086015190945061514d81615f0e565b6040860151606090960151949790965092505050565b600080600060608486031215615177578081fd5b833561518281615f0e565b92506020848101356001600160401b038082111561519e578384fd5b818701915087601f8301126151b1578384fd5b81356151bf614ba182615e94565b81815284810190848601868402860187018c10156151db578788fd5b8795505b83861015615205576151f18c82614b37565b8352600195909501949186019186016151df565b5096505050604087013592508083111561521d578384fd5b505061522b86828701614b83565b9150509250925092565b6000806000806080858703121561524a578182fd5b843561525581615f0e565b9350602085013561526581615f0e565b9250604085013561527581615f0e565b915060608501356001600160401b0381111561528f578182fd5b8501601f8101871361529f578182fd5b80356152ad614ba182615eb3565b8181528860208385010111156152c1578384fd5b81602084016020830137908101602001929092525092959194509250565b600080604083850312156152f1578182fd5b82356152fc81615f0e565b91506020830135614d9a81615f26565b60006020828403121561531d578081fd5b5035919050565b60008060408385031215615336578182fd5b823591506020830135614d9a81615f0e565b60008060006060848603121561535c578081fd5b833592506020840135614e8481615f0e565b60006020828403121561537f578081fd5b81516001600160401b03811115615394578182fd5b610b0984828501614bf1565b6000604082840312156153b1578081fd5b6153bb6040615e6e565b82516153c681615f34565b815260208301516153d681615f34565b60208201529392505050565b6000602082840312156153f3578081fd5b5051919050565b6000806040838503121561540c578182fd5b505080516020909101519092909150565b60006020828403121561542e578081fd5b8135610b6281615f49565b60006020828403121561544a578081fd5b8151610b6281615f49565b6000815180845261546d816020860160208601615ee2565b601f01601f19169290920160200192915050565b60008251615493818460208701615ee2565b9190910192915050565b600083516154af818460208801615ee2565b9190910191825250602001919050565b600084516154d1818460208901615ee2565b91909101928352506020820152604001919050565b600071025b0b9b4349026b2b234bab6902934b9b5960751b82528451615513816012850160208901615ee2565b602f60f81b6012918401918201528451615534816013840160208901615ee2565b602d60f81b601392909101918201528351615556816014840160208801615ee2565b0160140195945050505050565b6000616b6d60f01b82528451615580816002850160208901615ee2565b602f60f81b60029184019182015284516155a1816003840160208901615ee2565b602d60f81b6003929091019182015283516155c3816004840160208801615ee2565b0160040195945050505050565b6001600160a01b0391909116815260200190565b6001600160a01b039687168152949095166020850152911515604084015260ff166060830152608082015260a081019190915260c00190565b901515815260200190565b9115158252602082015260400190565b90815260200190565b9586526001600160a01b0394851660208701529290931660408501526060840152608083019190915260a082015260c00190565b92835260208301919091526001600160a01b0316604082015260600190565b93845260ff9290921660208401526040830152606082015260800190565b600060208252610b626020830184615455565b600060208083018184528285546001808216600081146156ec576001811461570a57615742565b60028304607f16855260ff1983166040890152606088019350615742565b6002830480865261571a8a615ed6565b885b828110156157385781548b82016040015290840190880161571c565b8a01604001955050505b5091979650505050505050565b6001600160a01b0392831681529116602082015260400190565b6001600160a01b039485168152928416602084015292166040820152606081019190915260800190565b6001600160a01b03958616815293851660208501529190931660408301526060820192909252608081019190915260a00190565b6000608082016001600160a01b0380881684526020818816818601526080604086015282875180855260a0870191508289019450855b8181101561581b5785518516835294830194918301916001016157fd565b50508581036060870152865180825290820193509150808601845b8381101561585257815185529382019390820190600101615836565b50929998505050505050505050565b6001600160a01b039390931683526001600160801b039190911660208301521515604082015260600190565b6001600160a01b0393909316835260208301919091521515604082015260600190565b93845260208401929092526001600160401b03166040830152606082015260800190565b60208082526015908201527f426f72696e674d6174683a20556e646572666c6f770000000000000000000000604082015260600190565b6020808252601e908201527f4b61736869506169723a20616c726561647920696e697469616c697a65640000604082015260600190565b60208082526016908201527f45524332303a206e6f207a65726f206164647265737300000000000000000000604082015260600190565b6020808252601a908201527f4b61736869506169723a20616c6c2061726520736f6c76656e74000000000000604082015260600190565b60208082526015908201527f4f776e61626c653a207a65726f20616464726573730000000000000000000000604082015260600190565b60208082526016908201527f4b61736869506169723a2063616c6c206661696c656400000000000000000000604082015260600190565b6020808252601c908201527f426f72696e674d6174683a2075696e74313238204f766572666c6f7700000000604082015260600190565b60208082526018908201527f426f72696e674d6174683a20416464204f766572666c6f770000000000000000604082015260600190565b60208082526013908201527f4b61736869506169723a20626164207061697200000000000000000000000000604082015260600190565b60208082526018908201527f45524332303a20616c6c6f77616e636520746f6f206c6f770000000000000000604082015260600190565b60208082526015908201527f4b61736869506169723a2063616e27742063616c6c0000000000000000000000604082015260600190565b6020808252600e908201526d115490cc8c0e88115e1c1a5c995960921b604082015260600190565b60208082526019908201527f4b61736869506169723a207573657220696e736f6c76656e7400000000000000604082015260600190565b6020808252818101527f4f776e61626c653a2063616c6c6572206973206e6f7420746865206f776e6572604082015260600190565b6020808252818101527f4f776e61626c653a2063616c6c657220213d2070656e64696e67206f776e6572604082015260600190565b60208082526018908201527f45524332303a204f776e65722063616e6e6f7420626520300000000000000000604082015260600190565b60208082526014908201527f4b617368693a2062656c6f77206d696e696d756d000000000000000000000000604082015260600190565b60208082526016908201527f45524332303a2062616c616e636520746f6f206c6f7700000000000000000000604082015260600190565b60208082526018908201527f4b61736869506169723a20536b696d20746f6f206d7563680000000000000000604082015260600190565b6020808252601a908201527f4b61736869506169723a20496e76616c69642073776170706572000000000000604082015260600190565b60208082526018908201527f426f72696e674d6174683a204d756c204f766572666c6f770000000000000000604082015260600190565b60208082526016908201527f4b61736869506169723a2072617465206e6f74206f6b00000000000000000000604082015260600190565b60208082526018908201527f45524332303a20496e76616c6964205369676e61747572650000000000000000604082015260600190565b6001600160801b0392831681529116602082015260400190565b918252602082015260400190565b9283526020830191909152604082015260600190565b6001600160401b0393841681529190921660208201526001600160801b03909116604082015260600190565b60ff91909116815260200190565b6000808335601e19843603018112615e40578283fd5b8301803591506001600160401b03821115615e59578283fd5b602001915036819003821315610f8757600080fd5b6040518181016001600160401b0381118282101715615e8c57600080fd5b604052919050565b60006001600160401b03821115615ea9578081fd5b5060209081020190565b60006001600160401b03821115615ec8578081fd5b50601f01601f191660200190565b60009081526020902090565b60005b83811015615efd578181015183820152602001615ee5565b838111156147725750506000910152565b6001600160a01b0381168114615f2357600080fd5b50565b8015158114615f2357600080fd5b6001600160801b0381168114615f2357600080fd5b60ff81168114615f2357600080fdfeddf252ad1be2c89b69c2b068fc378daa952ba7f163c4a11628f55a4df523b3efa26469706673582212207b83c3046d5b5cdea841391fbf5b44a623b5ba55a1561e673aabd513203b99ab64736f6c634300060c0033"
}