{
  "address": "0x7A4af156379f512DE147ed3b96393047226d923F",
  "abi": [
    {
      "inputs": [
        {
          "internalType": "contract IBentoBoxMinimal",
          "name": "_bentoBox",
          "type": "address"
        },
        {
          "internalType": "contract IStargateRouter",
          "name": "_stargateRouter",
          "type": "address"
        },
        {
          "internalType": "address",
          "name": "_factory",
          "type": "address"
        },
        {
          "internalType": "bytes32",
          "name": "_pairCodeHash",
          "type": "bytes32"
        }
      ],
      "stateMutability": "nonpayable",
      "type": "constructor"
    },
    {
      "inputs": [],
      "name": "TooLittleReceived",
      "type": "error"
    },
    {
      "inputs": [
        {
          "internalType": "contract IERC20",
          "name": "token",
          "type": "address"
        }
      ],
      "name": "approveToStargateRouter",
      "outputs": [],
      "stateMutability": "nonpayable",
      "type": "function"
    },
    {
      "inputs": [],
      "name": "bentoBox",
      "outputs": [
        {
          "internalType": "contract IBentoBoxMinimal",
          "name": "",
          "type": "address"
        }
      ],
      "stateMutability": "view",
      "type": "function"
    },
    {
      "inputs": [
        {
          "internalType": "uint8[]",
          "name": "actions",
          "type": "uint8[]"
        },
        {
          "internalType": "uint256[]",
          "name": "values",
          "type": "uint256[]"
        },
        {
          "internalType": "bytes[]",
          "name": "datas",
          "type": "bytes[]"
        }
      ],
      "name": "cook",
      "outputs": [],
      "stateMutability": "payable",
      "type": "function"
    },
    {
      "inputs": [],
      "name": "factory",
      "outputs": [
        {
          "internalType": "address",
          "name": "",
          "type": "address"
        }
      ],
      "stateMutability": "view",
      "type": "function"
    },
    {
      "inputs": [],
      "name": "pairCodeHash",
      "outputs": [
        {
          "internalType": "bytes32",
          "name": "",
          "type": "bytes32"
        }
      ],
      "stateMutability": "view",
      "type": "function"
    },
    {
      "inputs": [
        {
          "internalType": "uint16",
          "name": "",
          "type": "uint16"
        },
        {
          "internalType": "bytes",
          "name": "",
          "type": "bytes"
        },
        {
          "internalType": "uint256",
          "name": "",
          "type": "uint256"
        },
        {
          "internalType": "address",
          "name": "_token",
          "type": "address"
        },
        {
          "internalType": "uint256",
          "name": "amountLD",
          "type": "uint256"
        },
        {
          "internalType": "bytes",
          "name": "payload",
          "type": "bytes"
        }
      ],
      "name": "sgReceive",
      "outputs": [],
      "stateMutability": "nonpayable",
      "type": "function"
    },
    {
      "inputs": [],
      "name": "stargateRouter",
      "outputs": [
        {
          "internalType": "contract IStargateRouter",
          "name": "",
          "type": "address"
        }
      ],
      "stateMutability": "view",
      "type": "function"
    }
  ],
  "transactionHash": "0x58c6594235d3a295c73c924eff91ee39a82a5a568490c587db136f1a2f5a2d07",
  "args": [
    "0x74c764D41B77DBbb4fe771daB1939B00b146894A",
    "0x53Bf833A5d6c4ddA888F69c22C88C9f356a41614",
    "0xc35DADB65012eC5796536bD9864eD8773aBc74C4",
    "0xe18a34eb0e04b04f7a0ac29a6e80748dca96319b42c54d679cb821dca90c6303"
  ],
  "numDeployments": 2,
  "solcInputHash": "ac25f8d333bea94a97556309e3402169",
  "bytecode": "0x6101006040523480156200001257600080fd5b5060405162004690380380620046908339810160408190526200003591620000ca565b6001600160a01b03808516608081905281851660a05290831660c05260e08290526040805163577268d960e11b8152905163aee4d1b29160048082019260009290919082900301818387803b1580156200008e57600080fd5b505af1158015620000a3573d6000803e3d6000fd5b505050505050505062000124565b6001600160a01b0381168114620000c757600080fd5b50565b60008060008060808587031215620000e157600080fd5b8451620000ee81620000b1565b60208601519094506200010181620000b1565b60408601519093506200011481620000b1565b6060959095015193969295505050565b60805160a05160c05160e05161449a620001f66000396000818160fa0152818161108e015281816111ac01526126300152600081816101900152818161106b01528181611155015281816125ca015261260d01526000818161013c015281816109d001528181610c2d0152611dbb015260008181609c015281816102b7015281816104e00152818161050b01528181610cd801528181610db901528181610e88015281816112e3015281816115b8015281816117cf0152818161191301528181611b130152611c61015261449a6000f3fe6080604052600436106100705760003560e01c8063a9e56f3c1161004e578063a9e56f3c1461012a578063ab8236f31461015e578063c45a01551461017e578063d1ac3535146101b257600080fd5b8063656f3d64146100755780636b2ace871461008a5780639aab9248146100e8575b600080fd5b6100886100833660046131f9565b6101d2565b005b34801561009657600080fd5b506100be7f000000000000000000000000000000000000000000000000000000000000000081565b60405173ffffffffffffffffffffffffffffffffffffffff90911681526020015b60405180910390f35b3480156100f457600080fd5b5061011c7f000000000000000000000000000000000000000000000000000000000000000081565b6040519081526020016100df565b34801561013657600080fd5b506100be7f000000000000000000000000000000000000000000000000000000000000000081565b34801561016a57600080fd5b50610088610179366004613311565b6109b8565b34801561018a57600080fd5b506100be7f000000000000000000000000000000000000000000000000000000000000000081565b3480156101be57600080fd5b506100886101cd3660046133ae565b610c11565b60005b83518110156109b25760008482815181106101f2576101f26133cb565b60200260200101519050600060ff168160ff16141561031f576000806000806000878781518110610225576102256133cb565b6020026020010151806020019051810190610240919061341a565b6040517fc0a47c9300000000000000000000000000000000000000000000000000000000815273ffffffffffffffffffffffffffffffffffffffff8681166004830152306024830152851515604483015260ff851660648301526084820184905260a48201839052959a50939850919650945092507f00000000000000000000000000000000000000000000000000000000000000009091169063c0a47c939060c401600060405180830381600087803b1580156102fd57600080fd5b505af1158015610311573d6000803e3d6000fd5b50505050505050505061099f565b60ff81166001141561039657600080600080868681518110610343576103436133cb565b602002602001015180602001905181019061035e9190613474565b935093509350935061038d84338585858d8c81518110610380576103806133cb565b6020026020010151610c75565b5050505061099f565b60ff8116600214156103f95760008060008060008787815181106103bc576103bc6133cb565b60200260200101518060200190518101906103d791906134bc565b945094509450945094506103ef853386868686610d50565b505050505061099f565b60ff81166003141561053f5760008060008086868151811061041d5761041d6133cb565b60200260200101518060200190518101906104389190613474565b935093509350935081600014156104da576040517f70a0823100000000000000000000000000000000000000000000000000000000815230600482015273ffffffffffffffffffffffffffffffffffffffff8516906370a0823190602401602060405180830381865afa1580156104b3573d6000803e3d6000fd5b505050506040513d601f19601f820116820180604052508101906104d79190613519565b91505b610505847f000000000000000000000000000000000000000000000000000000000000000084610ee8565b61038d847f00000000000000000000000000000000000000000000000000000000000000008585858d8c81518110610380576103806133cb565b60ff811660041415610653576000806000858581518110610562576105626133cb565b602002602001015180602001905181019061057d9190613532565b92509250925080600014156106405773ffffffffffffffffffffffffffffffffffffffff83161561063d576040517f70a0823100000000000000000000000000000000000000000000000000000000815230600482015273ffffffffffffffffffffffffffffffffffffffff8416906370a0823190602401602060405180830381865afa158015610612573d6000803e3d6000fd5b505050506040513d601f19601f820116820180604052508101906106369190613519565b9050610640565b50475b61064b838383610ee8565b50505061099f565b60ff811660051415610746576000806000806000878781518110610679576106796133cb565b602002602001015180602001905181019061069491906134bc565b945094509450945094508260001415610738576040517f70a0823100000000000000000000000000000000000000000000000000000000815230600482015273ffffffffffffffffffffffffffffffffffffffff8616906370a0823190602401602060405180830381865afa158015610711573d6000803e3d6000fd5b505050506040513d601f19601f820116820180604052508101906107359190613519565b92505b6103ef853086868686610d50565b60ff81166006141561079757600080848481518110610767576107676133cb565b60200260200101518060200190518101906107829190613575565b915091506107908282610f6d565b505061099f565b60ff8116600714156108b5576000806000808686815181106107bb576107bb6133cb565b60200260200101518060200190518101906107d691906135af565b93509350935093506000846000141561089d57826000815181106107fc576107fc6133cb565b60209081029190910101516040517f70a0823100000000000000000000000000000000000000000000000000000000815230600482015273ffffffffffffffffffffffffffffffffffffffff909116906370a0823190602401602060405180830381865afa158015610872573d6000803e3d6000fd5b505050506040513d601f19601f820116820180604052508101906108969190613519565b9450600190505b6108aa8585858585611063565b50505050505061099f565b60ff8116600814156108fb5760008383815181106108d5576108d56133cb565b60200260200101518060200190518101906108f091906136e8565b9050610790816112d2565b60ff81166009141561094757600083838151811061091b5761091b6133cb565b60200260200101518060200190518101906109369190613a15565b9050610941816115a8565b5061099f565b60ff8116600a141561099f5760008060008086868151811061096b5761096b6133cb565b60200260200101518060200190518101906109869190613d12565b935093509350935061099a84848484611d8a565b505050505b50806109aa81613e6a565b9150506101d5565b50505050565b3373ffffffffffffffffffffffffffffffffffffffff7f00000000000000000000000000000000000000000000000000000000000000001614610a5c576040517f08c379a000000000000000000000000000000000000000000000000000000000815260206004820152601a60248201527f43616c6c6572206e6f7420537461726761746520526f7574657200000000000060448201526064015b60405180910390fd5b60008060008084806020019051810190610a769190613ea3565b6040517f656f3d6400000000000000000000000000000000000000000000000000000000815293975091955093509150309063656f3d6490610ac090869086908690600401614033565b600060405180830381600087803b158015610ada57600080fd5b505af1925050508015610aeb575060015b610bbb573d808015610b19576040519150601f19603f3d011682016040523d82523d6000602084013e610b1e565b606091505b506040517fa9059cbb00000000000000000000000000000000000000000000000000000000815273ffffffffffffffffffffffffffffffffffffffff86811660048301526024820189905289169063a9059cbb906044016020604051808303816000875af1158015610b94573d6000803e3d6000fd5b505050506040513d601f19601f82011682018060405250810190610bb89190614076565b50505b4715610c055760405173ffffffffffffffffffffffffffffffffffffffff8516904780156108fc02916000818181858888f19350505050158015610c03573d6000803e3d6000fd5b505b50505050505050505050565b610c7273ffffffffffffffffffffffffffffffffffffffff82167f00000000000000000000000000000000000000000000000000000000000000007fffffffffffffffffffffffffffffffffffffffffffffffffffffffffffffffff611fb6565b50565b6040517f02b9446c00000000000000000000000000000000000000000000000000000000815273ffffffffffffffffffffffffffffffffffffffff87811660048301528681166024830152858116604483015260648201859052608482018490527f000000000000000000000000000000000000000000000000000000000000000016906302b9446c90839060a401604080518083038185885af1158015610d21573d6000803e3d6000fd5b50505050506040513d601f19601f82011682018060405250810190610d469190614091565b5050505050505050565b8015610e2c576040517f97da6d3000000000000000000000000000000000000000000000000000000000815273ffffffffffffffffffffffffffffffffffffffff87811660048301528681166024830152858116604483015260648201859052608482018490527f000000000000000000000000000000000000000000000000000000000000000016906397da6d309060a40160408051808303816000875af1158015610e01573d6000803e3d6000fd5b505050506040513d601f19601f82011682018060405250810190610e259190614091565b5050610ee0565b6040517ff18d03cc00000000000000000000000000000000000000000000000000000000815273ffffffffffffffffffffffffffffffffffffffff878116600483015286811660248301528581166044830152606482018490527f0000000000000000000000000000000000000000000000000000000000000000169063f18d03cc90608401600060405180830381600087803b158015610ecc57600080fd5b505af1158015610c05573d6000803e3d6000fd5b505050505050565b73ffffffffffffffffffffffffffffffffffffffff831615610f2a57610f2573ffffffffffffffffffffffffffffffffffffffff841683836121b6565b505050565b60405173ffffffffffffffffffffffffffffffffffffffff83169082156108fc029083906000818181858888f193505050501580156109b2573d6000803e3d6000fd5b6040517f70a0823100000000000000000000000000000000000000000000000000000000815230600482015273ffffffffffffffffffffffffffffffffffffffff831690632e1a7d4d9082906370a0823190602401602060405180830381865afa158015610fdf573d6000803e3d6000fd5b505050506040513d601f19601f820116820180604052508101906110039190613519565b6040518263ffffffff1660e01b815260040161102191815260200190565b600060405180830381600087803b15801561103b57600080fd5b505af115801561104f573d6000803e3d6000fd5b5050505061105f60008247610ee8565b5050565b6000806110b27f000000000000000000000000000000000000000000000000000000000000000088877f000000000000000000000000000000000000000000000000000000000000000061220c565b905080600182516110c391906140b5565b815181106110d3576110d36133cb565b6020026020010151915085821015611147576040517f08c379a000000000000000000000000000000000000000000000000000000000815260206004820152601760248201527f696e73756666696369656e742d616d6f756e742d6f75740000000000000000006044820152606401610a53565b82156112bd576112bd6111d07f000000000000000000000000000000000000000000000000000000000000000087600081518110611187576111876133cb565b6020026020010151886001815181106111a2576111a26133cb565b60200260200101517f00000000000000000000000000000000000000000000000000000000000000006123b3565b866000815181106111e3576111e36133cb565b60209081029190910101516040517f70a0823100000000000000000000000000000000000000000000000000000000815230600482015273ffffffffffffffffffffffffffffffffffffffff909116906370a0823190602401602060405180830381865afa158015611259573d6000803e3d6000fd5b505050506040513d601f19601f8201168201806040525081019061127d9190613519565b87600081518110611290576112906133cb565b602002602001015173ffffffffffffffffffffffffffffffffffffffff166121b69092919063ffffffff16565b6112c88186866124cd565b5095945050505050565b600081602001516000141561148a577f000000000000000000000000000000000000000000000000000000000000000073ffffffffffffffffffffffffffffffffffffffff166302b9446c836000015130856060015160008151811061133a5761133a6133cb565b60209081029190910101515186516040517f70a0823100000000000000000000000000000000000000000000000000000000815230600482015273ffffffffffffffffffffffffffffffffffffffff909116906370a0823190602401602060405180830381865afa1580156113b3573d6000803e3d6000fd5b505050506040513d601f19601f820116820180604052508101906113d79190613519565b6040517fffffffff0000000000000000000000000000000000000000000000000000000060e087901b16815273ffffffffffffffffffffffffffffffffffffffff948516600482015292841660248401529216604482015260648101919091526000608482015260a40160408051808303816000875af115801561145f573d6000803e3d6000fd5b505050506040513d601f19601f820116820180604052508101906114839190614091565b6020840152505b60608201515160005b8181101561156357836060015181815181106114b1576114b16133cb565b60200260200101516000015173ffffffffffffffffffffffffffffffffffffffff1663627dd56a856060015183815181106114ee576114ee6133cb565b6020026020010151602001516040518263ffffffff1660e01b815260040161151691906140cc565b6020604051808303816000875af1158015611535573d6000803e3d6000fd5b505050506040513d601f19601f820116820180604052508101906115599190613519565b9250600101611493565b5082604001518210156115a2576040517fc9f52c7100000000000000000000000000000000000000000000000000000000815260040160405180910390fd5b50919050565b80515160005b818110156117b8577f000000000000000000000000000000000000000000000000000000000000000073ffffffffffffffffffffffffffffffffffffffff1663f18d03cc84600001518381518110611608576116086133cb565b602002602001015160000151308660000151858151811061162b5761162b6133cb565b6020026020010151602001518760000151868151811061164d5761164d6133cb565b6020908102919091010151606001516040517fffffffff0000000000000000000000000000000000000000000000000000000060e087901b16815273ffffffffffffffffffffffffffffffffffffffff94851660048201529284166024840152921660448201526064810191909152608401600060405180830381600087803b1580156116d957600080fd5b505af11580156116ed573d6000803e3d6000fd5b5050505082600001518181518110611707576117076133cb565b60200260200101516020015173ffffffffffffffffffffffffffffffffffffffff1663627dd56a84600001518381518110611744576117446133cb565b6020026020010151608001516040518263ffffffff1660e01b815260040161176c91906140cc565b6020604051808303816000875af115801561178b573d6000803e3d6000fd5b505050506040513d601f19601f820116820180604052508101906117af9190613519565b506001016115ae565b505060208101515160005b81811015611afc5760007f000000000000000000000000000000000000000000000000000000000000000073ffffffffffffffffffffffffffffffffffffffff1663f7888aec8560200151848151811061181f5761181f6133cb565b6020908102919091010151516040517fffffffff0000000000000000000000000000000000000000000000000000000060e084901b16815273ffffffffffffffffffffffffffffffffffffffff9091166004820152306024820152604401602060405180830381865afa15801561189a573d6000803e3d6000fd5b505050506040513d601f19601f820116820180604052508101906118be9190613519565b905060006118ce6008600a6141ff565b856020015184815181106118e4576118e46133cb565b60200260200101516040015167ffffffffffffffff1683611905919061420e565b61190f919061424b565b90507f000000000000000000000000000000000000000000000000000000000000000073ffffffffffffffffffffffffffffffffffffffff1663f18d03cc86602001518581518110611963576119636133cb565b6020026020010151600001513088602001518781518110611986576119866133cb565b60209081029190910181015101516040517fffffffff0000000000000000000000000000000000000000000000000000000060e086901b16815273ffffffffffffffffffffffffffffffffffffffff9384166004820152918316602483015291909116604482015260648101849052608401600060405180830381600087803b158015611a1257600080fd5b505af1158015611a26573d6000803e3d6000fd5b5050505084602001518381518110611a4057611a406133cb565b60200260200101516020015173ffffffffffffffffffffffffffffffffffffffff1663627dd56a86602001518581518110611a7d57611a7d6133cb565b6020026020010151606001516040518263ffffffff1660e01b8152600401611aa591906140cc565b6020604051808303816000875af1158015611ac4573d6000803e3d6000fd5b505050506040513d601f19601f82011682018060405250810190611ae89190613519565b505050611af58160010190565b90506117c3565b505060408101515160005b81811015610f255760007f000000000000000000000000000000000000000000000000000000000000000073ffffffffffffffffffffffffffffffffffffffff1663f7888aec85604001518481518110611b6357611b636133cb565b6020908102919091010151516040517fffffffff0000000000000000000000000000000000000000000000000000000060e084901b16815273ffffffffffffffffffffffffffffffffffffffff9091166004820152306024820152604401602060405180830381865afa158015611bde573d6000803e3d6000fd5b505050506040513d601f19601f82011682018060405250810190611c029190613519565b905083604001518281518110611c1a57611c1a6133cb565b602002602001015160600151811015611c5f576040517fc9f52c7100000000000000000000000000000000000000000000000000000000815260040160405180910390fd5b7f000000000000000000000000000000000000000000000000000000000000000073ffffffffffffffffffffffffffffffffffffffff1663f18d03cc85604001518481518110611cb157611cb16133cb565b6020026020010151600001513087604001518681518110611cd457611cd46133cb565b60209081029190910181015101516040517fffffffff0000000000000000000000000000000000000000000000000000000060e086901b16815273ffffffffffffffffffffffffffffffffffffffff9384166004820152918316602483015291909116604482015260648101849052608401600060405180830381600087803b158015611d6057600080fd5b505af1158015611d74573d6000803e3d6000fd5b5050505050611d838160010190565b9050611b07565b6000846101000151848484604051602001611da89493929190614286565b60405160208183030381529060405290507f000000000000000000000000000000000000000000000000000000000000000073ffffffffffffffffffffffffffffffffffffffff16639fbf10fc47876000015188604001518960600151338b6080015160001415611eac5760208c01516040517f70a0823100000000000000000000000000000000000000000000000000000000815230600482015273ffffffffffffffffffffffffffffffffffffffff909116906370a0823190602401602060405180830381865afa158015611e83573d6000803e3d6000fd5b505050506040513d601f19601f82011682018060405250810190611ea79190613519565b611eb2565b8b608001515b8c60a0015160405180606001604052808f610120015181526020018f60c0015181526020018f60e00151604051602001611f17919060609190911b7fffffffffffffffffffffffffffffffffffffffff00000000000000000000000016815260140190565b6040516020818303038152906040528152508e60e00151604051602001611f69919060609190911b7fffffffffffffffffffffffffffffffffffffffff00000000000000000000000016815260140190565b6040516020818303038152906040528b6040518b63ffffffff1660e01b8152600401611f9d999897969594939291906142db565b6000604051808303818588803b158015610ecc57600080fd5b80158061205657506040517fdd62ed3e00000000000000000000000000000000000000000000000000000000815230600482015273ffffffffffffffffffffffffffffffffffffffff838116602483015284169063dd62ed3e90604401602060405180830381865afa158015612030573d6000803e3d6000fd5b505050506040513d601f19601f820116820180604052508101906120549190613519565b155b6120e2576040517f08c379a000000000000000000000000000000000000000000000000000000000815260206004820152603660248201527f5361666545524332303a20617070726f76652066726f6d206e6f6e2d7a65726f60448201527f20746f206e6f6e2d7a65726f20616c6c6f77616e6365000000000000000000006064820152608401610a53565b60405173ffffffffffffffffffffffffffffffffffffffff8316602482015260448101829052610f259084907f095ea7b300000000000000000000000000000000000000000000000000000000906064015b604080517fffffffffffffffffffffffffffffffffffffffffffffffffffffffffffffffe08184030181529190526020810180517bffffffffffffffffffffffffffffffffffffffffffffffffffffffff167fffffffff000000000000000000000000000000000000000000000000000000009093169290921790915261270a565b60405173ffffffffffffffffffffffffffffffffffffffff8316602482015260448101829052610f259084907fa9059cbb0000000000000000000000000000000000000000000000000000000090606401612134565b606060028351101561227a576040517f08c379a000000000000000000000000000000000000000000000000000000000815260206004820152601e60248201527f556e697377617056324c6962726172793a20494e56414c49445f5041544800006044820152606401610a53565b825167ffffffffffffffff81111561229457612294612f10565b6040519080825280602002602001820160405280156122bd578160200160208202803683370190505b50905083816000815181106122d4576122d46133cb565b60200260200101818152505060005b600184516122f191906140b5565b8110156123aa5760008061234588878581518110612311576123116133cb565b6020026020010151888660016123279190614387565b81518110612337576123376133cb565b602002602001015188612816565b9150915061236d84848151811061235e5761235e6133cb565b60200260200101518383612917565b84612379856001614387565b81518110612389576123896133cb565b602002602001018181525050505080806123a290613e6a565b9150506122e3565b50949350505050565b60008060006123c28686612a91565b6040517fffffffffffffffffffffffffffffffffffffffff000000000000000000000000606084811b8216602084015283901b16603482015291935091508790604801604051602081830303815290604052805190602001208560405160200161248c939291907fff00000000000000000000000000000000000000000000000000000000000000815260609390931b7fffffffffffffffffffffffffffffffffffffffff0000000000000000000000001660018401526015830191909152603582015260550190565b604080517fffffffffffffffffffffffffffffffffffffffffffffffffffffffffffffffe08184030181529190528051602090910120979650505050505050565b60005b600183516124de91906140b5565b8110156109b2576000808483815181106124fa576124fa6133cb565b6020026020010151858460016125109190614387565b81518110612520576125206133cb565b60200260200101519150915060006125388383612a91565b509050600087612549866001614387565b81518110612559576125596133cb565b602002602001015190506000808373ffffffffffffffffffffffffffffffffffffffff168673ffffffffffffffffffffffffffffffffffffffff16146125a1578260006125a5565b6000835b91509150600060028a516125b991906140b5565b88106125c55788612606565b6126067f0000000000000000000000000000000000000000000000000000000000000000878c6125f68c6002614387565b815181106111a2576111a26133cb565b90506126547f000000000000000000000000000000000000000000000000000000000000000088887f00000000000000000000000000000000000000000000000000000000000000006123b3565b73ffffffffffffffffffffffffffffffffffffffff1663022c0d9f84848460006040519080825280601f01601f19166020018201604052801561269e576020820181803683370190505b506040518563ffffffff1660e01b81526004016126be949392919061439f565b600060405180830381600087803b1580156126d857600080fd5b505af11580156126ec573d6000803e3d6000fd5b5050505050505050505050808061270290613e6a565b9150506124d0565b600061276c826040518060400160405280602081526020017f5361666545524332303a206c6f772d6c6576656c2063616c6c206661696c65648152508573ffffffffffffffffffffffffffffffffffffffff16612c169092919063ffffffff16565b805190915015610f25578080602001905181019061278a9190614076565b610f25576040517f08c379a000000000000000000000000000000000000000000000000000000000815260206004820152602a60248201527f5361666545524332303a204552433230206f7065726174696f6e20646964206e60448201527f6f742073756363656564000000000000000000000000000000000000000000006064820152608401610a53565b60008060006128258686612a91565b509050600080612837898989896123b3565b73ffffffffffffffffffffffffffffffffffffffff16630902f1ac6040518163ffffffff1660e01b8152600401606060405180830381865afa158015612881573d6000803e3d6000fd5b505050506040513d601f19601f820116820180604052508101906128a591906143f8565b506dffffffffffffffffffffffffffff1691506dffffffffffffffffffffffffffff1691508273ffffffffffffffffffffffffffffffffffffffff168873ffffffffffffffffffffffffffffffffffffffff1614612904578082612907565b81815b909a909950975050505050505050565b60008084116129a8576040517f08c379a000000000000000000000000000000000000000000000000000000000815260206004820152602b60248201527f556e697377617056324c6962726172793a20494e53554646494349454e545f4960448201527f4e5055545f414d4f554e540000000000000000000000000000000000000000006064820152608401610a53565b6000831180156129b85750600082115b612a44576040517f08c379a000000000000000000000000000000000000000000000000000000000815260206004820152602860248201527f556e697377617056324c6962726172793a20494e53554646494349454e545f4c60448201527f49515549444954590000000000000000000000000000000000000000000000006064820152608401610a53565b6000612a52856103e5612c2f565b90506000612a608285612c2f565b90506000612a7a83612a74886103e8612c2f565b90612cbf565b9050612a86818361424b565b979650505050505050565b6000808273ffffffffffffffffffffffffffffffffffffffff168473ffffffffffffffffffffffffffffffffffffffff161415612b50576040517f08c379a000000000000000000000000000000000000000000000000000000000815260206004820152602560248201527f556e697377617056324c6962726172793a204944454e544943414c5f4144445260448201527f45535345530000000000000000000000000000000000000000000000000000006064820152608401610a53565b8273ffffffffffffffffffffffffffffffffffffffff168473ffffffffffffffffffffffffffffffffffffffff1610612b8a578284612b8d565b83835b909250905073ffffffffffffffffffffffffffffffffffffffff8216612c0f576040517f08c379a000000000000000000000000000000000000000000000000000000000815260206004820152601e60248201527f556e697377617056324c6962726172793a205a45524f5f4144445245535300006044820152606401610a53565b9250929050565b6060612c258484600085612d37565b90505b9392505050565b6000811580612c5357508282612c45818361420e565b9250612c51908361424b565b145b612cb9576040517f08c379a000000000000000000000000000000000000000000000000000000000815260206004820152601460248201527f64732d6d6174682d6d756c2d6f766572666c6f770000000000000000000000006044820152606401610a53565b92915050565b600082612ccc8382614387565b9150811015612cb9576040517f08c379a000000000000000000000000000000000000000000000000000000000815260206004820152601460248201527f64732d6d6174682d6164642d6f766572666c6f770000000000000000000000006044820152606401610a53565b606082471015612dc9576040517f08c379a000000000000000000000000000000000000000000000000000000000815260206004820152602660248201527f416464726573733a20696e73756666696369656e742062616c616e636520666f60448201527f722063616c6c00000000000000000000000000000000000000000000000000006064820152608401610a53565b73ffffffffffffffffffffffffffffffffffffffff85163b612e47576040517f08c379a000000000000000000000000000000000000000000000000000000000815260206004820152601d60248201527f416464726573733a2063616c6c20746f206e6f6e2d636f6e74726163740000006044820152606401610a53565b6000808673ffffffffffffffffffffffffffffffffffffffff168587604051612e709190614448565b60006040518083038185875af1925050503d8060008114612ead576040519150601f19603f3d011682016040523d82523d6000602084013e612eb2565b606091505b5091509150612a8682828660608315612ecc575081612c28565b825115612edc5782518084602001fd5b816040517f08c379a0000000000000000000000000000000000000000000000000000000008152600401610a5391906140cc565b7f4e487b7100000000000000000000000000000000000000000000000000000000600052604160045260246000fd5b6040516080810167ffffffffffffffff81118282101715612f6257612f62612f10565b60405290565b6040805190810167ffffffffffffffff81118282101715612f6257612f62612f10565b6040516060810167ffffffffffffffff81118282101715612f6257612f62612f10565b60405160a0810167ffffffffffffffff81118282101715612f6257612f62612f10565b604051610140810167ffffffffffffffff81118282101715612f6257612f62612f10565b604051601f82017fffffffffffffffffffffffffffffffffffffffffffffffffffffffffffffffe016810167ffffffffffffffff8111828210171561303c5761303c612f10565b604052919050565b600067ffffffffffffffff82111561305e5761305e612f10565b5060051b60200190565b60ff81168114610c7257600080fd5b600082601f83011261308857600080fd5b8135602061309d61309883613044565b612ff5565b82815260059290921b840181019181810190868411156130bc57600080fd5b8286015b848110156130d757803583529183019183016130c0565b509695505050505050565b600067ffffffffffffffff8211156130fc576130fc612f10565b50601f017fffffffffffffffffffffffffffffffffffffffffffffffffffffffffffffffe01660200190565b600082601f83011261313957600080fd5b8135613147613098826130e2565b81815284602083860101111561315c57600080fd5b816020850160208301376000918101602001919091529392505050565b600082601f83011261318a57600080fd5b8135602061319a61309883613044565b82815260059290921b840181019181810190868411156131b957600080fd5b8286015b848110156130d757803567ffffffffffffffff8111156131dd5760008081fd5b6131eb8986838b0101613128565b8452509183019183016131bd565b60008060006060848603121561320e57600080fd5b833567ffffffffffffffff8082111561322657600080fd5b818601915086601f83011261323a57600080fd5b8135602061324a61309883613044565b82815260059290921b8401810191818101908a84111561326957600080fd5b948201945b8386101561329057853561328181613068565b8252948201949082019061326e565b975050870135925050808211156132a657600080fd5b6132b287838801613077565b935060408601359150808211156132c857600080fd5b506132d586828701613179565b9150509250925092565b61ffff81168114610c7257600080fd5b73ffffffffffffffffffffffffffffffffffffffff81168114610c7257600080fd5b60008060008060008060c0878903121561332a57600080fd5b8635613335816132df565b9550602087013567ffffffffffffffff8082111561335257600080fd5b61335e8a838b01613128565b96506040890135955060608901359150613377826132ef565b9093506080880135925060a0880135908082111561339457600080fd5b506133a189828a01613128565b9150509295509295509295565b6000602082840312156133c057600080fd5b8135612c28816132ef565b7f4e487b7100000000000000000000000000000000000000000000000000000000600052603260045260246000fd5b8051613405816132ef565b919050565b8051801515811461340557600080fd5b600080600080600060a0868803121561343257600080fd5b855161343d816132ef565b945061344b6020870161340a565b9350604086015161345b81613068565b6060870151608090970151959894975095949392505050565b6000806000806080858703121561348a57600080fd5b8451613495816132ef565b60208601519094506134a6816132ef565b6040860151606090960151949790965092505050565b600080600080600060a086880312156134d457600080fd5b85516134df816132ef565b60208701519095506134f0816132ef565b604087015160608801519195509350915061350d6080870161340a565b90509295509295909350565b60006020828403121561352b57600080fd5b5051919050565b60008060006060848603121561354757600080fd5b8351613552816132ef565b6020850151909350613563816132ef565b80925050604084015190509250925092565b6000806040838503121561358857600080fd5b8251613593816132ef565b60208401519092506135a4816132ef565b809150509250929050565b600080600080608085870312156135c557600080fd5b845193506020808601519350604086015167ffffffffffffffff8111156135eb57600080fd5b8601601f810188136135fc57600080fd5b805161360a61309882613044565b81815260059190911b8201830190838101908a83111561362957600080fd5b928401925b82841015613650578351613641816132ef565b8252928401929084019061362e565b8096505050505050613664606086016133fa565b905092959194509250565b60005b8381101561368a578181015183820152602001613672565b838111156109b25750506000910152565b600082601f8301126136ac57600080fd5b81516136ba613098826130e2565b8181528460208386010111156136cf57600080fd5b6136e082602083016020870161366f565b949350505050565b600060208083850312156136fb57600080fd5b825167ffffffffffffffff8082111561371357600080fd5b908401906080828703121561372757600080fd5b61372f612f3f565b825161373a816132ef565b815282840151848201526040808401518183015260608401518381111561376057600080fd5b80850194505087601f85011261377557600080fd5b835161378361309882613044565b81815260059190911b8501860190868101908a8311156137a257600080fd5b8787015b8381101561383c578051878111156137be5760008081fd5b8801808d037fffffffffffffffffffffffffffffffffffffffffffffffffffffffffffffffe0018613156137f25760008081fd5b6137fa612f68565b8a820151613807816132ef565b8152818701518981111561381b5760008081fd5b6138298f8d8386010161369b565b828d0152508452509188019188016137a6565b506060850152509198975050505050505050565b600082601f83011261386157600080fd5b8151602061387161309883613044565b82815260059290921b8401810191818101908684111561389057600080fd5b8286015b848110156130d757805167ffffffffffffffff808211156138b55760008081fd5b81890191506080807fffffffffffffffffffffffffffffffffffffffffffffffffffffffffffffffe0848d030112156138ee5760008081fd5b6138f6612f3f565b87840151613903816132ef565b8152604084810151613914816132ef565b828a0152606085810151858116811461392d5760008081fd5b8383015292850151928484111561394657600091508182fd5b6139548e8b8689010161369b565b90830152508652505050918301918301613894565b600082601f83011261397a57600080fd5b8151602061398a61309883613044565b82815260079290921b840181019181810190868411156139a957600080fd5b8286015b848110156130d757608081890312156139c65760008081fd5b6139ce612f3f565b81516139d9816132ef565b8152818501516139e8816132ef565b8186015260406139f983820161340a565b90820152606082810151908201528352918301916080016139ad565b60006020808385031215613a2857600080fd5b825167ffffffffffffffff80821115613a4057600080fd5b9084019060608287031215613a5457600080fd5b613a5c612f8b565b825182811115613a6b57600080fd5b8301601f81018813613a7c57600080fd5b8051613a8a61309882613044565b81815260059190911b8201860190868101908a831115613aa957600080fd5b8784015b83811015613b7157805187811115613ac457600080fd5b850160a0818e037fffffffffffffffffffffffffffffffffffffffffffffffffffffffffffffffe0011215613af857600080fd5b613b00612fae565b8a820151613b0d816132ef565b81526040820151613b1d816132ef565b818c0152613b2d6060830161340a565b60408201526080820151606082015260a082015189811115613b4f5760008081fd5b613b5d8f8d8386010161369b565b608083015250845250918801918801613aad565b5084525050508284015182811115613b8857600080fd5b613b9488828601613850565b85830152506040830151935081841115613bad57600080fd5b613bb987858501613969565b60408201529695505050505050565b8051613405816132df565b600082601f830112613be457600080fd5b81516020613bf461309883613044565b82815260059290921b84018101918181019086841115613c1357600080fd5b8286015b848110156130d7578051613c2a81613068565b8352918301918301613c17565b600082601f830112613c4857600080fd5b81516020613c5861309883613044565b82815260059290921b84018101918181019086841115613c7757600080fd5b8286015b848110156130d75780518352918301918301613c7b565b600082601f830112613ca357600080fd5b81516020613cb361309883613044565b82815260059290921b84018101918181019086841115613cd257600080fd5b8286015b848110156130d757805167ffffffffffffffff811115613cf65760008081fd5b613d048986838b010161369b565b845250918301918301613cd6565b6000806000808486036101a0811215613d2a57600080fd5b61014080821215613d3a57600080fd5b613d42612fd1565b9150613d4d87613bc8565b8252613d5b602088016133fa565b602083015260408701516040830152606087015160608301526080870151608083015260a087015160a083015260c087015160c0830152613d9e60e088016133fa565b60e0830152610100613db18189016133fa565b90830152610120878101519083015286015190945067ffffffffffffffff80821115613ddc57600080fd5b613de888838901613bd3565b9450610160870151915080821115613dff57600080fd5b613e0b88838901613c37565b9350610180870151915080821115613e2257600080fd5b50613e2f87828801613c92565b91505092959194509250565b7f4e487b7100000000000000000000000000000000000000000000000000000000600052601160045260246000fd5b60007fffffffffffffffffffffffffffffffffffffffffffffffffffffffffffffffff821415613e9c57613e9c613e3b565b5060010190565b60008060008060808587031215613eb957600080fd5b8451613ec4816132ef565b602086015190945067ffffffffffffffff80821115613ee257600080fd5b613eee88838901613bd3565b94506040870151915080821115613f0457600080fd5b613f1088838901613c37565b93506060870151915080821115613e2257600080fd5b600081518084526020808501945080840160005b83811015613f5957815160ff1687529582019590820190600101613f3a565b509495945050505050565b600081518084526020808501945080840160005b83811015613f5957815187529582019590820190600101613f78565b60008151808452613fac81602086016020860161366f565b601f017fffffffffffffffffffffffffffffffffffffffffffffffffffffffffffffffe0169290920160200192915050565b600081518084526020808501808196508360051b8101915082860160005b85811015614026578284038952614014848351613f94565b98850198935090840190600101613ffc565b5091979650505050505050565b6060815260006140466060830186613f26565b82810360208401526140588186613f64565b9050828103604084015261406c8185613fde565b9695505050505050565b60006020828403121561408857600080fd5b612c288261340a565b600080604083850312156140a457600080fd5b505080516020909101519092909150565b6000828210156140c7576140c7613e3b565b500390565b602081526000612c286020830184613f94565b600181815b8085111561413857817fffffffffffffffffffffffffffffffffffffffffffffffffffffffffffffffff0482111561411e5761411e613e3b565b8085161561412b57918102915b93841c93908002906140e4565b509250929050565b60008261414f57506001612cb9565b8161415c57506000612cb9565b8160018114614172576002811461417c57614198565b6001915050612cb9565b60ff84111561418d5761418d613e3b565b50506001821b612cb9565b5060208310610133831016604e8410600b84101617156141bb575081810a612cb9565b6141c583836140df565b807fffffffffffffffffffffffffffffffffffffffffffffffffffffffffffffffff048211156141f7576141f7613e3b565b029392505050565b6000612c2860ff841683614140565b6000817fffffffffffffffffffffffffffffffffffffffffffffffffffffffffffffffff048311821515161561424657614246613e3b565b500290565b600082614281577f4e487b7100000000000000000000000000000000000000000000000000000000600052601260045260246000fd5b500490565b73ffffffffffffffffffffffffffffffffffffffff851681526080602082015260006142b56080830186613f26565b82810360408401526142c78186613f64565b90508281036060840152612a868185613fde565b600061012061ffff8c1683528a602084015289604084015273ffffffffffffffffffffffffffffffffffffffff891660608401528760808401528660a08401528060c08401528551818401525060208501516101408301526040850151606061016084015261434e610180840182613f94565b905082810360e08401526143628186613f94565b90508281036101008401526143778185613f94565b9c9b505050505050505050505050565b6000821982111561439a5761439a613e3b565b500190565b84815283602082015273ffffffffffffffffffffffffffffffffffffffff8316604082015260806060820152600061406c6080830184613f94565b80516dffffffffffffffffffffffffffff8116811461340557600080fd5b60008060006060848603121561440d57600080fd5b614416846143da565b9250614424602085016143da565b9150604084015163ffffffff8116811461443d57600080fd5b809150509250925092565b6000825161445a81846020870161366f565b919091019291505056fea264697066735822122076437f8c0170a088ea621a407c9ddcdacb4ea4435b971c8f5db8bf45ffa4eb8764736f6c634300080b0033",
  "devdoc": {
    "kind": "dev",
    "methods": {},
    "version": 1
  },
  "userdoc": {
    "kind": "user",
    "methods": {},
    "version": 1
  },
  "storageLayout": {
    "storage": [],
    "types": null
  }
}