{
  "address": "0x593453768Ba2163eaE6d0FA1f3d292C02672A2Ba",
  "abi": [
    {
      "inputs": [
        {
          "internalType": "contract IBentoBoxMinimal",
          "name": "_bentoBox",
          "type": "address"
        },
        {
          "internalType": "address",
          "name": "_wETH",
          "type": "address"
        }
      ],
      "stateMutability": "nonpayable",
      "type": "constructor"
    },
    {
      "inputs": [
        {
          "internalType": "bytes",
          "name": "innerError",
          "type": "bytes"
        }
      ],
      "name": "BatchError",
      "type": "error"
    },
    {
      "inputs": [],
      "name": "InvalidStart",
      "type": "error"
    },
    {
      "inputs": [],
      "name": "InvalidStepSetting",
      "type": "error"
    },
    {
      "inputs": [],
      "name": "NotOwner",
      "type": "error"
    },
    {
      "inputs": [],
      "name": "NotVestReceiver",
      "type": "error"
    },
    {
      "anonymous": false,
      "inputs": [
        {
          "indexed": true,
          "internalType": "address",
          "name": "owner",
          "type": "address"
        },
        {
          "indexed": true,
          "internalType": "address",
          "name": "spender",
          "type": "address"
        },
        {
          "indexed": true,
          "internalType": "uint256",
          "name": "id",
          "type": "uint256"
        }
      ],
      "name": "Approval",
      "type": "event"
    },
    {
      "anonymous": false,
      "inputs": [
        {
          "indexed": true,
          "internalType": "address",
          "name": "owner",
          "type": "address"
        },
        {
          "indexed": true,
          "internalType": "address",
          "name": "operator",
          "type": "address"
        },
        {
          "indexed": false,
          "internalType": "bool",
          "name": "approved",
          "type": "bool"
        }
      ],
      "name": "ApprovalForAll",
      "type": "event"
    },
    {
      "anonymous": false,
      "inputs": [
        {
          "indexed": true,
          "internalType": "uint256",
          "name": "vestId",
          "type": "uint256"
        },
        {
          "indexed": true,
          "internalType": "uint256",
          "name": "ownerAmount",
          "type": "uint256"
        },
        {
          "indexed": true,
          "internalType": "uint256",
          "name": "recipientAmount",
          "type": "uint256"
        },
        {
          "indexed": false,
          "internalType": "contract IERC20",
          "name": "token",
          "type": "address"
        },
        {
          "indexed": false,
          "internalType": "bool",
          "name": "toBentoBox",
          "type": "bool"
        }
      ],
      "name": "CancelVesting",
      "type": "event"
    },
    {
      "anonymous": false,
      "inputs": [
        {
          "indexed": true,
          "internalType": "uint256",
          "name": "vestId",
          "type": "uint256"
        },
        {
          "indexed": false,
          "internalType": "contract IERC20",
          "name": "token",
          "type": "address"
        },
        {
          "indexed": true,
          "internalType": "address",
          "name": "owner",
          "type": "address"
        },
        {
          "indexed": true,
          "internalType": "address",
          "name": "recipient",
          "type": "address"
        },
        {
          "indexed": false,
          "internalType": "uint32",
          "name": "start",
          "type": "uint32"
        },
        {
          "indexed": false,
          "internalType": "uint32",
          "name": "cliffDuration",
          "type": "uint32"
        },
        {
          "indexed": false,
          "internalType": "uint32",
          "name": "stepDuration",
          "type": "uint32"
        },
        {
          "indexed": false,
          "internalType": "uint32",
          "name": "steps",
          "type": "uint32"
        },
        {
          "indexed": false,
          "internalType": "uint128",
          "name": "cliffShares",
          "type": "uint128"
        },
        {
          "indexed": false,
          "internalType": "uint128",
          "name": "stepShares",
          "type": "uint128"
        },
        {
          "indexed": false,
          "internalType": "bool",
          "name": "fromBentoBox",
          "type": "bool"
        }
      ],
      "name": "CreateVesting",
      "type": "event"
    },
    {
      "anonymous": false,
      "inputs": [
        {
          "indexed": true,
          "internalType": "uint256",
          "name": "vestId",
          "type": "uint256"
        },
        {
          "indexed": true,
          "internalType": "address",
          "name": "newOwner",
          "type": "address"
        }
      ],
      "name": "LogUpdateOwner",
      "type": "event"
    },
    {
      "anonymous": false,
      "inputs": [
        {
          "indexed": true,
          "internalType": "address",
          "name": "previousOwner",
          "type": "address"
        },
        {
          "indexed": true,
          "internalType": "address",
          "name": "newOwner",
          "type": "address"
        }
      ],
      "name": "OwnershipTransferred",
      "type": "event"
    },
    {
      "anonymous": false,
      "inputs": [
        {
          "indexed": true,
          "internalType": "address",
          "name": "from",
          "type": "address"
        },
        {
          "indexed": true,
          "internalType": "address",
          "name": "to",
          "type": "address"
        },
        {
          "indexed": true,
          "internalType": "uint256",
          "name": "id",
          "type": "uint256"
        }
      ],
      "name": "Transfer",
      "type": "event"
    },
    {
      "anonymous": false,
      "inputs": [
        {
          "indexed": true,
          "internalType": "uint256",
          "name": "vestId",
          "type": "uint256"
        },
        {
          "indexed": true,
          "internalType": "contract IERC20",
          "name": "token",
          "type": "address"
        },
        {
          "indexed": true,
          "internalType": "uint256",
          "name": "amount",
          "type": "uint256"
        },
        {
          "indexed": false,
          "internalType": "bool",
          "name": "toBentoBox",
          "type": "bool"
        }
      ],
      "name": "Withdraw",
      "type": "event"
    },
    {
      "inputs": [],
      "name": "PERCENTAGE_PRECISION",
      "outputs": [
        {
          "internalType": "uint256",
          "name": "",
          "type": "uint256"
        }
      ],
      "stateMutability": "view",
      "type": "function"
    },
    {
      "inputs": [
        {
          "internalType": "address",
          "name": "spender",
          "type": "address"
        },
        {
          "internalType": "uint256",
          "name": "id",
          "type": "uint256"
        }
      ],
      "name": "approve",
      "outputs": [],
      "stateMutability": "nonpayable",
      "type": "function"
    },
    {
      "inputs": [
        {
          "internalType": "address",
          "name": "",
          "type": "address"
        }
      ],
      "name": "balanceOf",
      "outputs": [
        {
          "internalType": "uint256",
          "name": "",
          "type": "uint256"
        }
      ],
      "stateMutability": "view",
      "type": "function"
    },
    {
      "inputs": [
        {
          "internalType": "bytes[]",
          "name": "calls",
          "type": "bytes[]"
        },
        {
          "internalType": "bool",
          "name": "revertOnFail",
          "type": "bool"
        }
      ],
      "name": "batch",
      "outputs": [],
      "stateMutability": "payable",
      "type": "function"
    },
    {
      "inputs": [],
      "name": "bentoBox",
      "outputs": [
        {
          "internalType": "contract IBentoBoxMinimal",
          "name": "",
          "type": "address"
        }
      ],
      "stateMutability": "view",
      "type": "function"
    },
    {
      "inputs": [],
      "name": "claimOwnership",
      "outputs": [],
      "stateMutability": "nonpayable",
      "type": "function"
    },
    {
      "inputs": [
        {
          "components": [
            {
              "internalType": "contract IERC20",
              "name": "token",
              "type": "address"
            },
            {
              "internalType": "address",
              "name": "recipient",
              "type": "address"
            },
            {
              "internalType": "uint32",
              "name": "start",
              "type": "uint32"
            },
            {
              "internalType": "uint32",
              "name": "cliffDuration",
              "type": "uint32"
            },
            {
              "internalType": "uint32",
              "name": "stepDuration",
              "type": "uint32"
            },
            {
              "internalType": "uint32",
              "name": "steps",
              "type": "uint32"
            },
            {
              "internalType": "uint128",
              "name": "stepPercentage",
              "type": "uint128"
            },
            {
              "internalType": "uint128",
              "name": "amount",
              "type": "uint128"
            },
            {
              "internalType": "bool",
              "name": "fromBentoBox",
              "type": "bool"
            }
          ],
          "internalType": "struct IFuroVesting.VestParams",
          "name": "vestParams",
          "type": "tuple"
        }
      ],
      "name": "createVesting",
      "outputs": [
        {
          "internalType": "uint256",
          "name": "depositedShares",
          "type": "uint256"
        },
        {
          "internalType": "uint256",
          "name": "vestId",
          "type": "uint256"
        },
        {
          "internalType": "uint128",
          "name": "stepShares",
          "type": "uint128"
        },
        {
          "internalType": "uint128",
          "name": "cliffShares",
          "type": "uint128"
        }
      ],
      "stateMutability": "payable",
      "type": "function"
    },
    {
      "inputs": [
        {
          "internalType": "uint256",
          "name": "",
          "type": "uint256"
        }
      ],
      "name": "getApproved",
      "outputs": [
        {
          "internalType": "address",
          "name": "",
          "type": "address"
        }
      ],
      "stateMutability": "view",
      "type": "function"
    },
    {
      "inputs": [
        {
          "internalType": "address",
          "name": "",
          "type": "address"
        },
        {
          "internalType": "address",
          "name": "",
          "type": "address"
        }
      ],
      "name": "isApprovedForAll",
      "outputs": [
        {
          "internalType": "bool",
          "name": "",
          "type": "bool"
        }
      ],
      "stateMutability": "view",
      "type": "function"
    },
    {
      "inputs": [],
      "name": "name",
      "outputs": [
        {
          "internalType": "string",
          "name": "",
          "type": "string"
        }
      ],
      "stateMutability": "view",
      "type": "function"
    },
    {
      "inputs": [],
      "name": "owner",
      "outputs": [
        {
          "internalType": "address",
          "name": "",
          "type": "address"
        }
      ],
      "stateMutability": "view",
      "type": "function"
    },
    {
      "inputs": [
        {
          "internalType": "uint256",
          "name": "",
          "type": "uint256"
        }
      ],
      "name": "ownerOf",
      "outputs": [
        {
          "internalType": "address",
          "name": "",
          "type": "address"
        }
      ],
      "stateMutability": "view",
      "type": "function"
    },
    {
      "inputs": [],
      "name": "pendingOwner",
      "outputs": [
        {
          "internalType": "address",
          "name": "",
          "type": "address"
        }
      ],
      "stateMutability": "view",
      "type": "function"
    },
    {
      "inputs": [
        {
          "internalType": "contract IERC20",
          "name": "token",
          "type": "address"
        },
        {
          "internalType": "address",
          "name": "from",
          "type": "address"
        },
        {
          "internalType": "address",
          "name": "to",
          "type": "address"
        },
        {
          "internalType": "uint256",
          "name": "amount",
          "type": "uint256"
        },
        {
          "internalType": "uint256",
          "name": "deadline",
          "type": "uint256"
        },
        {
          "internalType": "uint8",
          "name": "v",
          "type": "uint8"
        },
        {
          "internalType": "bytes32",
          "name": "r",
          "type": "bytes32"
        },
        {
          "internalType": "bytes32",
          "name": "s",
          "type": "bytes32"
        }
      ],
      "name": "permitToken",
      "outputs": [],
      "stateMutability": "nonpayable",
      "type": "function"
    },
    {
      "inputs": [
        {
          "internalType": "address",
          "name": "from",
          "type": "address"
        },
        {
          "internalType": "address",
          "name": "to",
          "type": "address"
        },
        {
          "internalType": "uint256",
          "name": "id",
          "type": "uint256"
        }
      ],
      "name": "safeTransferFrom",
      "outputs": [],
      "stateMutability": "nonpayable",
      "type": "function"
    },
    {
      "inputs": [
        {
          "internalType": "address",
          "name": "from",
          "type": "address"
        },
        {
          "internalType": "address",
          "name": "to",
          "type": "address"
        },
        {
          "internalType": "uint256",
          "name": "id",
          "type": "uint256"
        },
        {
          "internalType": "bytes",
          "name": "data",
          "type": "bytes"
        }
      ],
      "name": "safeTransferFrom",
      "outputs": [],
      "stateMutability": "nonpayable",
      "type": "function"
    },
    {
      "inputs": [
        {
          "internalType": "address",
          "name": "operator",
          "type": "address"
        },
        {
          "internalType": "bool",
          "name": "approved",
          "type": "bool"
        }
      ],
      "name": "setApprovalForAll",
      "outputs": [],
      "stateMutability": "nonpayable",
      "type": "function"
    },
    {
      "inputs": [
        {
          "internalType": "address",
          "name": "user",
          "type": "address"
        },
        {
          "internalType": "bool",
          "name": "approved",
          "type": "bool"
        },
        {
          "internalType": "uint8",
          "name": "v",
          "type": "uint8"
        },
        {
          "internalType": "bytes32",
          "name": "r",
          "type": "bytes32"
        },
        {
          "internalType": "bytes32",
          "name": "s",
          "type": "bytes32"
        }
      ],
      "name": "setBentoBoxApproval",
      "outputs": [],
      "stateMutability": "nonpayable",
      "type": "function"
    },
    {
      "inputs": [
        {
          "internalType": "address",
          "name": "_fetcher",
          "type": "address"
        }
      ],
      "name": "setTokenURIFetcher",
      "outputs": [],
      "stateMutability": "nonpayable",
      "type": "function"
    },
    {
      "inputs": [
        {
          "internalType": "uint256",
          "name": "vestId",
          "type": "uint256"
        },
        {
          "internalType": "bool",
          "name": "toBentoBox",
          "type": "bool"
        }
      ],
      "name": "stopVesting",
      "outputs": [],
      "stateMutability": "nonpayable",
      "type": "function"
    },
    {
      "inputs": [
        {
          "internalType": "bytes4",
          "name": "interfaceId",
          "type": "bytes4"
        }
      ],
      "name": "supportsInterface",
      "outputs": [
        {
          "internalType": "bool",
          "name": "",
          "type": "bool"
        }
      ],
      "stateMutability": "pure",
      "type": "function"
    },
    {
      "inputs": [],
      "name": "symbol",
      "outputs": [
        {
          "internalType": "string",
          "name": "",
          "type": "string"
        }
      ],
      "stateMutability": "view",
      "type": "function"
    },
    {
      "inputs": [
        {
          "internalType": "uint256",
          "name": "id",
          "type": "uint256"
        }
      ],
      "name": "tokenURI",
      "outputs": [
        {
          "internalType": "string",
          "name": "",
          "type": "string"
        }
      ],
      "stateMutability": "view",
      "type": "function"
    },
    {
      "inputs": [],
      "name": "tokenURIFetcher",
      "outputs": [
        {
          "internalType": "address",
          "name": "",
          "type": "address"
        }
      ],
      "stateMutability": "view",
      "type": "function"
    },
    {
      "inputs": [
        {
          "internalType": "address",
          "name": "from",
          "type": "address"
        },
        {
          "internalType": "address",
          "name": "to",
          "type": "address"
        },
        {
          "internalType": "uint256",
          "name": "id",
          "type": "uint256"
        }
      ],
      "name": "transferFrom",
      "outputs": [],
      "stateMutability": "nonpayable",
      "type": "function"
    },
    {
      "inputs": [
        {
          "internalType": "address",
          "name": "newOwner",
          "type": "address"
        },
        {
          "internalType": "bool",
          "name": "direct",
          "type": "bool"
        },
        {
          "internalType": "bool",
          "name": "renounce",
          "type": "bool"
        }
      ],
      "name": "transferOwnership",
      "outputs": [],
      "stateMutability": "nonpayable",
      "type": "function"
    },
    {
      "inputs": [
        {
          "internalType": "uint256",
          "name": "vestId",
          "type": "uint256"
        },
        {
          "internalType": "address",
          "name": "newOwner",
          "type": "address"
        }
      ],
      "name": "updateOwner",
      "outputs": [],
      "stateMutability": "nonpayable",
      "type": "function"
    },
    {
      "inputs": [
        {
          "internalType": "uint256",
          "name": "vestId",
          "type": "uint256"
        }
      ],
      "name": "vestBalance",
      "outputs": [
        {
          "internalType": "uint256",
          "name": "",
          "type": "uint256"
        }
      ],
      "stateMutability": "view",
      "type": "function"
    },
    {
      "inputs": [],
      "name": "vestIds",
      "outputs": [
        {
          "internalType": "uint256",
          "name": "",
          "type": "uint256"
        }
      ],
      "stateMutability": "view",
      "type": "function"
    },
    {
      "inputs": [
        {
          "internalType": "uint256",
          "name": "",
          "type": "uint256"
        }
      ],
      "name": "vests",
      "outputs": [
        {
          "internalType": "address",
          "name": "owner",
          "type": "address"
        },
        {
          "internalType": "contract IERC20",
          "name": "token",
          "type": "address"
        },
        {
          "internalType": "uint32",
          "name": "start",
          "type": "uint32"
        },
        {
          "internalType": "uint32",
          "name": "cliffDuration",
          "type": "uint32"
        },
        {
          "internalType": "uint32",
          "name": "stepDuration",
          "type": "uint32"
        },
        {
          "internalType": "uint32",
          "name": "steps",
          "type": "uint32"
        },
        {
          "internalType": "uint128",
          "name": "cliffShares",
          "type": "uint128"
        },
        {
          "internalType": "uint128",
          "name": "stepShares",
          "type": "uint128"
        },
        {
          "internalType": "uint128",
          "name": "claimed",
          "type": "uint128"
        }
      ],
      "stateMutability": "view",
      "type": "function"
    },
    {
      "inputs": [],
      "name": "wETH",
      "outputs": [
        {
          "internalType": "address",
          "name": "",
          "type": "address"
        }
      ],
      "stateMutability": "view",
      "type": "function"
    },
    {
      "inputs": [
        {
          "internalType": "uint256",
          "name": "vestId",
          "type": "uint256"
        },
        {
          "internalType": "bytes",
          "name": "taskData",
          "type": "bytes"
        },
        {
          "internalType": "bool",
          "name": "toBentoBox",
          "type": "bool"
        }
      ],
      "name": "withdraw",
      "outputs": [],
      "stateMutability": "nonpayable",
      "type": "function"
    }
  ],
  "transactionHash": "0xaf073280de2a11fed5ef2d5b7929c2a3785966fccbca89d2924f5c43c4805c67",
  "args": [
    "0xF5BCE5077908a1b7370B9ae04AdC565EBd643966",
    "0xC02aaA39b223FE8D0A0e5C4F27eAD9083C756Cc2"
  ],
  "numDeployments": 1,
  "solcInputHash": "2efc62e85a191d327b765183cf40c83f",
  "bytecode": "0x60c06040523480156200001157600080fd5b5060405162003a6c38038062003a6c833981016040819052620000349162000216565b604080518082018252600c81526b4675726f2056657374696e6760a01b60208083019182528351808501909452600884526711955493d59154d560c21b908401528151919291620000889160009162000157565b5080516200009e90600190602084019062000157565b5050600680546001600160a01b031916339081179091556040519091506000907f8be0079c531659141344cd1fd0a4f28419497f9722a3daafe3b4186f6b6457e0908290a36001600160a01b03808316608081905290821660a0526001600a556040805163577268d960e11b8152905163aee4d1b29160048082019260009290919082900301818387803b1580156200013657600080fd5b505af11580156200014b573d6000803e3d6000fd5b50505050505062000292565b828054620001659062000255565b90600052602060002090601f016020900481019282620001895760008555620001d4565b82601f10620001a457805160ff1916838001178555620001d4565b82800160010185558215620001d4579182015b82811115620001d4578251825591602001919060010190620001b7565b50620001e2929150620001e6565b5090565b5b80821115620001e25760008155600101620001e7565b6001600160a01b03811681146200021357600080fd5b50565b600080604083850312156200022a57600080fd5b82516200023781620001fd565b60208401519092506200024a81620001fd565b809150509250929050565b600181811c908216806200026a57607f821691505b602082108114156200028c57634e487b7160e01b600052602260045260246000fd5b50919050565b60805160a051613783620002e96000396000818161082101526122190152600081816105bc015281816115bc015281816126bf01528181612783015281816128df015281816129a90152612a2301526137836000f3fe6080604052600436106101e35760003560e01c806370a0823111610102578063b88d4fde11610095578063e30c397811610064578063e30c39781461075c578063e985e9c514610789578063e9d163c9146107c4578063f24286211461080f57600080fd5b8063b88d4fde146106ed578063c87b56dd1461070d578063d2423b511461072d578063e256888f1461074057600080fd5b806395d89b41116100d157806395d89b4114610678578063a203db8e1461068d578063a22cb465146106ad578063b3a2b2cf146106cd57600080fd5b806370a08231146105de5780637192711f1461060b5780637c516e941461062b5780638da5cb5b1461064b57600080fd5b80632bcea7361161017a5780634e71e0c8116101495780634e71e0c8146103da57806351def556146103ef5780636352211e146105675780636b2ace87146105aa57600080fd5b80632bcea7361461036457806340e76eff1461037a57806342842e0e1461039a578063489bb0b2146103ba57600080fd5b8063081812fc116101b6578063081812fc146102b3578063095ea7b3146102f657806319f771711461031657806323b872dd1461034457600080fd5b806301ffc9a7146101e857806306fdde031461021d578063078dfbe71461023f57806307d88aad14610261575b600080fd5b3480156101f457600080fd5b50610208610203366004612cf1565b610843565b60405190151581526020015b60405180910390f35b34801561022957600080fd5b50610232610928565b6040516102149190612d84565b34801561024b57600080fd5b5061025f61025a366004612dce565b6109b6565b005b34801561026d57600080fd5b5060085461028e9073ffffffffffffffffffffffffffffffffffffffff1681565b60405173ffffffffffffffffffffffffffffffffffffffff9091168152602001610214565b3480156102bf57600080fd5b5061028e6102ce366004612e13565b60046020526000908152604090205473ffffffffffffffffffffffffffffffffffffffff1681565b34801561030257600080fd5b5061025f610311366004612e2c565b610ba7565b34801561032257600080fd5b50610336610331366004612e13565b610cf1565b604051908152602001610214565b34801561035057600080fd5b5061025f61035f366004612e58565b610e18565b34801561037057600080fd5b50610336600a5481565b34801561038657600080fd5b5061025f610395366004612e99565b6110df565b3480156103a657600080fd5b5061025f6103b5366004612e58565b6113ed565b3480156103c657600080fd5b5061025f6103d5366004612f37565b611552565b3480156103e657600080fd5b5061025f61161f565b3480156103fb57600080fd5b506104e861040a366004612e13565b600960205260009081526040902080546001820154600283015460039093015473ffffffffffffffffffffffffffffffffffffffff928316939282169263ffffffff740100000000000000000000000000000000000000008404811693780100000000000000000000000000000000000000000000000081048216937c0100000000000000000000000000000000000000000000000000000000909104821692918216916fffffffffffffffffffffffffffffffff640100000000909104811691808216917001000000000000000000000000000000009091041689565b6040805173ffffffffffffffffffffffffffffffffffffffff9a8b1681529990981660208a015263ffffffff96871697890197909752938516606088015291841660808701529290921660a08501526fffffffffffffffffffffffffffffffff91821660c0850152811660e08401521661010082015261012001610214565b34801561057357600080fd5b5061028e610582366004612e13565b60036020526000908152604090205473ffffffffffffffffffffffffffffffffffffffff1681565b3480156105b657600080fd5b5061028e7f000000000000000000000000000000000000000000000000000000000000000081565b3480156105ea57600080fd5b506103366105f9366004612f8e565b60026020526000908152604090205481565b34801561061757600080fd5b5061025f610626366004612fab565b611736565b34801561063757600080fd5b5061025f610646366004612fdb565b611804565b34801561065757600080fd5b5060065461028e9073ffffffffffffffffffffffffffffffffffffffff1681565b34801561068457600080fd5b506102326118bc565b34801561069957600080fd5b5061025f6106a836600461305c565b6118c9565b3480156106b957600080fd5b5061025f6106c8366004613088565b611b8c565b3480156106d957600080fd5b5061025f6106e8366004612f8e565b611c23565b3480156106f957600080fd5b5061025f610708366004613178565b611ceb565b34801561071957600080fd5b50610232610728366004612e13565b611e3c565b61025f61073b366004613227565b611ef2565b34801561074c57600080fd5b50610336670de0b6b3a764000081565b34801561076857600080fd5b5060075461028e9073ffffffffffffffffffffffffffffffffffffffff1681565b34801561079557600080fd5b506102086107a43660046132a2565b600560209081526000928352604080842090915290825290205460ff1681565b6107d76107d23660046132d0565b611fa6565b6040805194855260208501939093526fffffffffffffffffffffffffffffffff91821692840192909252166060820152608001610214565b34801561081b57600080fd5b5061028e7f000000000000000000000000000000000000000000000000000000000000000081565b60007f01ffc9a7000000000000000000000000000000000000000000000000000000007fffffffff00000000000000000000000000000000000000000000000000000000831614806108d657507f80ac58cd000000000000000000000000000000000000000000000000000000007fffffffff000000000000000000000000000000000000000000000000000000008316145b8061092257507f5b5e139f000000000000000000000000000000000000000000000000000000007fffffffff000000000000000000000000000000000000000000000000000000008316145b92915050565b60008054610935906132e9565b80601f0160208091040260200160405190810160405280929190818152602001828054610961906132e9565b80156109ae5780601f10610983576101008083540402835291602001916109ae565b820191906000526020600020905b81548152906001019060200180831161099157829003601f168201915b505050505081565b60065473ffffffffffffffffffffffffffffffffffffffff163314610a3c576040517f08c379a000000000000000000000000000000000000000000000000000000000815260206004820181905260248201527f4f776e61626c653a2063616c6c6572206973206e6f7420746865206f776e657260448201526064015b60405180910390fd5b8115610b615773ffffffffffffffffffffffffffffffffffffffff8316151580610a635750805b610ac9576040517f08c379a000000000000000000000000000000000000000000000000000000000815260206004820152601560248201527f4f776e61626c653a207a65726f206164647265737300000000000000000000006044820152606401610a33565b60065460405173ffffffffffffffffffffffffffffffffffffffff8086169216907f8be0079c531659141344cd1fd0a4f28419497f9722a3daafe3b4186f6b6457e090600090a36006805473ffffffffffffffffffffffffffffffffffffffff85167fffffffffffffffffffffffff000000000000000000000000000000000000000091821617909155600780549091169055505050565b600780547fffffffffffffffffffffffff00000000000000000000000000000000000000001673ffffffffffffffffffffffffffffffffffffffff85161790555b505050565b60008181526003602052604090205473ffffffffffffffffffffffffffffffffffffffff1633811480610c0a575073ffffffffffffffffffffffffffffffffffffffff8116600090815260056020908152604080832033845290915290205460ff165b610c70576040517f08c379a000000000000000000000000000000000000000000000000000000000815260206004820152600e60248201527f4e4f545f415554484f52495a45440000000000000000000000000000000000006044820152606401610a33565b60008281526004602052604080822080547fffffffffffffffffffffffff00000000000000000000000000000000000000001673ffffffffffffffffffffffffffffffffffffffff87811691821790925591518593918516917f8c5be1e5ebec7d5bd14f71427d1e84f3dd0314c0f7b2291e5b200ac8c7c3b92591a4505050565b6000818152600960209081526040808320815161012081018352815473ffffffffffffffffffffffffffffffffffffffff908116825260018301549081169482019490945263ffffffff74010000000000000000000000000000000000000000850481169382019390935278010000000000000000000000000000000000000000000000008404831660608201527c010000000000000000000000000000000000000000000000000000000090930482166080840152600281015491821660a08401526fffffffffffffffffffffffffffffffff640100000000909204821660c08401526003015480821660e08401527001000000000000000000000000000000009004166101008201819052610e07826125a9565b610e119190613366565b9392505050565b60008181526003602052604090205473ffffffffffffffffffffffffffffffffffffffff848116911614610ea8576040517f08c379a000000000000000000000000000000000000000000000000000000000815260206004820152600a60248201527f57524f4e475f46524f4d000000000000000000000000000000000000000000006044820152606401610a33565b73ffffffffffffffffffffffffffffffffffffffff8216610f25576040517f08c379a000000000000000000000000000000000000000000000000000000000815260206004820152601160248201527f494e56414c49445f524543495049454e540000000000000000000000000000006044820152606401610a33565b3373ffffffffffffffffffffffffffffffffffffffff84161480610f6c575060008181526004602052604090205473ffffffffffffffffffffffffffffffffffffffff1633145b80610fa7575073ffffffffffffffffffffffffffffffffffffffff8316600090815260056020908152604080832033845290915290205460ff165b61100d576040517f08c379a000000000000000000000000000000000000000000000000000000000815260206004820152600e60248201527f4e4f545f415554484f52495a45440000000000000000000000000000000000006044820152606401610a33565b73ffffffffffffffffffffffffffffffffffffffff808416600081815260026020908152604080832080547fffffffffffffffffffffffffffffffffffffffffffffffffffffffffffffffff019055938616808352848320805460010190558583526003825284832080547fffffffffffffffffffffffff00000000000000000000000000000000000000009081168317909155600490925284832080549092169091559251849392917fddf252ad1be2c89b69c2b068fc378daa952ba7f163c4a11628f55a4df523b3ef91a4505050565b600084815260096020908152604080832060039092529091205473ffffffffffffffffffffffffffffffffffffffff16338114611148576040517fe1c6117100000000000000000000000000000000000000000000000000000000815260040160405180910390fd5b60038201546040805161012081018252845473ffffffffffffffffffffffffffffffffffffffff90811682526001860154908116602083015274010000000000000000000000000000000000000000810463ffffffff9081169383019390935278010000000000000000000000000000000000000000000000008104831660608301527c0100000000000000000000000000000000000000000000000000000000900482166080820152600285015491821660a08201526fffffffffffffffffffffffffffffffff640100000000909204821660c082015281831660e0820152700100000000000000000000000000000000909204166101008201819052600091611252906125a9565b61125c9190613366565b90508061126b575050506113e7565b808360030160108282829054906101000a90046fffffffffffffffffffffffffffffffff1661129a919061337d565b92506101000a8154816fffffffffffffffffffffffffffffffff02191690836fffffffffffffffffffffffffffffffff1602179055506113018360010160009054906101000a900473ffffffffffffffffffffffffffffffffffffffff163084848861265d565b841561138e576040517f330df28200000000000000000000000000000000000000000000000000000000815273ffffffffffffffffffffffffffffffffffffffff83169063330df2829061135b90899089906004016133b1565b600060405180830381600087803b15801561137557600080fd5b505af1158015611389573d6000803e3d6000fd5b505050505b60018301546040518515158152829173ffffffffffffffffffffffffffffffffffffffff169089907fff942d249898505febb2a9a00118e27567c084b9497d0aa3ba5e332c235b4f389060200160405180910390a45050505b50505050565b6113f8838383610e18565b73ffffffffffffffffffffffffffffffffffffffff82163b15806114ec57506040517f150b7a020000000000000000000000000000000000000000000000000000000080825233600483015273ffffffffffffffffffffffffffffffffffffffff858116602484015260448301849052608060648401526000608484015290919084169063150b7a029060a4016020604051808303816000875af11580156114a4573d6000803e3d6000fd5b505050506040513d601f19601f820116820180604052508101906114c891906133fe565b7fffffffff0000000000000000000000000000000000000000000000000000000016145b610ba2576040517f08c379a000000000000000000000000000000000000000000000000000000000815260206004820152601060248201527f554e534146455f524543495049454e54000000000000000000000000000000006044820152606401610a33565b6040517fc0a47c9300000000000000000000000000000000000000000000000000000000815273ffffffffffffffffffffffffffffffffffffffff8681166004830152306024830152851515604483015260ff851660648301526084820184905260a482018390527f0000000000000000000000000000000000000000000000000000000000000000169063c0a47c939060c401600060405180830381600087803b15801561160057600080fd5b505af1158015611614573d6000803e3d6000fd5b505050505050505050565b60075473ffffffffffffffffffffffffffffffffffffffff163381146116a1576040517f08c379a000000000000000000000000000000000000000000000000000000000815260206004820181905260248201527f4f776e61626c653a2063616c6c657220213d2070656e64696e67206f776e65726044820152606401610a33565b60065460405173ffffffffffffffffffffffffffffffffffffffff8084169216907f8be0079c531659141344cd1fd0a4f28419497f9722a3daafe3b4186f6b6457e090600090a36006805473ffffffffffffffffffffffffffffffffffffffff9092167fffffffffffffffffffffffff0000000000000000000000000000000000000000928316179055600780549091169055565b6000828152600960205260409020805473ffffffffffffffffffffffffffffffffffffffff163314611794576040517f30cd747100000000000000000000000000000000000000000000000000000000815260040160405180910390fd5b80547fffffffffffffffffffffffff00000000000000000000000000000000000000001673ffffffffffffffffffffffffffffffffffffffff8316908117825560405184907fca0251ba80971adc7e92434b097ca40450b2a317013c51c5c5cb6ae74500bb0090600090a3505050565b6040517fd505accf00000000000000000000000000000000000000000000000000000000815273ffffffffffffffffffffffffffffffffffffffff88811660048301528781166024830152604482018790526064820186905260ff8516608483015260a4820184905260c4820183905289169063d505accf9060e401600060405180830381600087803b15801561189a57600080fd5b505af11580156118ae573d6000803e3d6000fd5b505050505050505050505050565b60018054610935906132e9565b600082815260096020908152604091829020825161012081018452815473ffffffffffffffffffffffffffffffffffffffff90811680835260018401549182169483019490945263ffffffff74010000000000000000000000000000000000000000820481169583019590955278010000000000000000000000000000000000000000000000008104851660608301527c0100000000000000000000000000000000000000000000000000000000900484166080820152600282015493841660a08201526fffffffffffffffffffffffffffffffff640100000000909404841660c082015260039091015480841660e083015270010000000000000000000000000000000090049092166101008301523314611a11576040517f30cd747100000000000000000000000000000000000000000000000000000000815260040160405180910390fd5b6000611a1c826125a9565b905060008261010001516fffffffffffffffffffffffffffffffff1682611a439190613366565b90506000828460e001518560a0015163ffffffff16611a62919061341b565b8560c00151611a71919061337d565b6fffffffffffffffffffffffffffffffff16611a8d9190613366565b600087815260096020908152604080832080547fffffffffffffffffffffffff00000000000000000000000000000000000000009081168255600182018590556002820180549091169055600390810184905588830151925290912054919250611b1091309073ffffffffffffffffffffffffffffffffffffffff16858961265d565b611b2184602001513033848961265d565b8181877f061c75052be1ee7232bc654d7f489af163c983bb99c5affe5e8fc2e5225cb577876020015189604051611b7c92919073ffffffffffffffffffffffffffffffffffffffff9290921682521515602082015260400190565b60405180910390a4505050505050565b33600081815260056020908152604080832073ffffffffffffffffffffffffffffffffffffffff87168085529083529281902080547fffffffffffffffffffffffffffffffffffffffffffffffffffffffffffffff001686151590811790915590519081529192917f17307eab39ab6107e8899845ad3d59bd9653f200f220920489ca2b5937696c31910160405180910390a35050565b60065473ffffffffffffffffffffffffffffffffffffffff163314611ca4576040517f08c379a000000000000000000000000000000000000000000000000000000000815260206004820181905260248201527f4f776e61626c653a2063616c6c6572206973206e6f7420746865206f776e65726044820152606401610a33565b600880547fffffffffffffffffffffffff00000000000000000000000000000000000000001673ffffffffffffffffffffffffffffffffffffffff92909216919091179055565b611cf6848484610e18565b73ffffffffffffffffffffffffffffffffffffffff83163b1580611dd657506040517f150b7a02000000000000000000000000000000000000000000000000000000008082529073ffffffffffffffffffffffffffffffffffffffff85169063150b7a0290611d6f903390899088908890600401613453565b6020604051808303816000875af1158015611d8e573d6000803e3d6000fd5b505050506040513d601f19601f82011682018060405250810190611db291906133fe565b7fffffffff0000000000000000000000000000000000000000000000000000000016145b6113e7576040517f08c379a000000000000000000000000000000000000000000000000000000000815260206004820152601060248201527f554e534146455f524543495049454e54000000000000000000000000000000006044820152606401610a33565b6008546040517fc981fac40000000000000000000000000000000000000000000000000000000081526004810183905260609173ffffffffffffffffffffffffffffffffffffffff169063c981fac490602401600060405180830381865afa158015611eac573d6000803e3d6000fd5b505050506040513d6000823e601f3d9081017fffffffffffffffffffffffffffffffffffffffffffffffffffffffffffffffe0168201604052610922919081019061349c565b60005b828110156113e75760008030868685818110611f1357611f1361350a565b9050602002810190611f259190613539565b604051611f339291906135a5565b600060405180830381855af49150503d8060008114611f6e576040519150601f19603f3d011682016040523d82523d6000602084013e611f73565b606091505b509150915081158015611f835750835b15611f9157611f91816127f9565b50508080611f9e906135b5565b915050611ef5565b600080808042611fbc60608701604088016135ee565b63ffffffff161015611ffa576040517f38356e4c00000000000000000000000000000000000000000000000000000000815260040160405180910390fd5b670de0b6b3a764000061201360e0870160c08801613614565b6fffffffffffffffffffffffffffffffff16111561205d576040517fd276d51400000000000000000000000000000000000000000000000000000000815260040160405180910390fd5b61206d60a08601608087016135ee565b63ffffffff161580612092575061208a60c0860160a087016135ee565b63ffffffff16155b156120c9576040517fd276d51400000000000000000000000000000000000000000000000000000000815260040160405180910390fd5b6121156120d96020870187612f8e565b33306120ec6101008a0160e08b01613614565b6fffffffffffffffffffffffffffffffff166121106101208b016101008c01613646565b612884565b9350670de0b6b3a76400008461213160e0880160c08901613614565b6fffffffffffffffffffffffffffffffff1661214d9190613661565b612157919061369e565b915061216960c0860160a087016135ee565b6121799063ffffffff168361341b565b612195906fffffffffffffffffffffffffffffffff1685613366565b600a805491925060006121a7836135b5565b9091555092506121c66121c06040870160208801612f8e565b84612b11565b6040805161012081019091523381526020808201906000906121ea90890189612f8e565b73ffffffffffffffffffffffffffffffffffffffff1614612217576122126020880188612f8e565b612239565b7f00000000000000000000000000000000000000000000000000000000000000005b73ffffffffffffffffffffffffffffffffffffffff16815260200161226460608801604089016135ee565b63ffffffff16815260200161227f60808801606089016135ee565b63ffffffff16815260200161229a60a08801608089016135ee565b63ffffffff1681526020016122b560c0880160a089016135ee565b63ffffffff90811682526fffffffffffffffffffffffffffffffff80851660208085019190915286821660408086019190915260006060958601819052898152600983528190208651815473ffffffffffffffffffffffffffffffffffffffff9182167fffffffffffffffffffffffff0000000000000000000000000000000000000000918216178355888501516001840180548b8701519a8c015160808d01518b167c0100000000000000000000000000000000000000000000000000000000027bffffffffffffffffffffffffffffffffffffffffffffffffffffffff918c167801000000000000000000000000000000000000000000000000029190911677ffffffffffffffffffffffffffffffffffffffffffffffff9c8c1674010000000000000000000000000000000000000000027fffffffffffffffff00000000000000000000000000000000000000000000000090931694909616939093171799909916929092179190911790965560a087015160028201805460c08a0151871664010000000002981691909616179590951790935560e085015161010090950151821670010000000000000000000000000000000002949091169390931760039092019190915561248d91908701908701612f8e565b73ffffffffffffffffffffffffffffffffffffffff1633847f603bb53f65550199ed7346ba18d49bcb7ec77162b3167b272f8cd19b20d9510b6124d360208a018a612f8e565b6124e360608b0160408c016135ee565b6124f360808c0160608d016135ee565b61250360a08d0160808e016135ee565b61251360c08e0160a08f016135ee565b898b8f6101000160208101906125299190613646565b6040805173ffffffffffffffffffffffffffffffffffffffff909916895263ffffffff97881660208a0152958716958801959095529285166060870152931660808501526fffffffffffffffffffffffffffffffff92831660a08501529190911660c0830152151560e08201526101000160405180910390a49193509193565b600080826060015183604001516125c091906136d9565b63ffffffff169050804210156125d65750919050565b60006125e28242613366565b9050600061260f8560a0015163ffffffff16866080015163ffffffff168461260a919061369e565b612caa565b9050808560e001516fffffffffffffffffffffffffffffffff166126339190613661565b8560c001516fffffffffffffffffffffffffffffffff1661265491906136f8565b95945050505050565b8015612720576040517ff18d03cc00000000000000000000000000000000000000000000000000000000815273ffffffffffffffffffffffffffffffffffffffff868116600483015285811660248301528481166044830152606482018490527f0000000000000000000000000000000000000000000000000000000000000000169063f18d03cc90608401600060405180830381600087803b15801561270357600080fd5b505af1158015612717573d6000803e3d6000fd5b505050506127f2565b6040517f97da6d3000000000000000000000000000000000000000000000000000000000815273ffffffffffffffffffffffffffffffffffffffff86811660048301528581166024830152848116604483015260006064830152608482018490527f000000000000000000000000000000000000000000000000000000000000000016906397da6d309060a40160408051808303816000875af11580156127cb573d6000803e3d6000fd5b505050506040513d601f19601f820116820180604052508101906127ef9190613710565b50505b5050505050565b60448151101561283757806040517fd9354485000000000000000000000000000000000000000000000000000000008152600401610a339190612d84565b60048101905080806020019051810190612851919061349c565b6040517f08c379a0000000000000000000000000000000000000000000000000000000008152600401610a339190612d84565b60008115612a0c576040517fda5139ca00000000000000000000000000000000000000000000000000000000815273ffffffffffffffffffffffffffffffffffffffff878116600483015260248201859052600060448301527f0000000000000000000000000000000000000000000000000000000000000000169063da5139ca90606401602060405180830381865afa158015612926573d6000803e3d6000fd5b505050506040513d601f19601f8201168201806040525081019061294a9190613734565b6040517ff18d03cc00000000000000000000000000000000000000000000000000000000815273ffffffffffffffffffffffffffffffffffffffff888116600483015287811660248301528681166044830152606482018390529192507f00000000000000000000000000000000000000000000000000000000000000009091169063f18d03cc90608401600060405180830381600087803b1580156129ef57600080fd5b505af1158015612a03573d6000803e3d6000fd5b50505050612654565b73ffffffffffffffffffffffffffffffffffffffff7f00000000000000000000000000000000000000000000000000000000000000008116906302b9446c90881615612a59576000612a5b565b845b6040517fffffffff0000000000000000000000000000000000000000000000000000000060e084901b16815273ffffffffffffffffffffffffffffffffffffffff808b166004830152808a16602483015288166044820152606481018790526000608482015260a401604080518083038185885af1158015612ae1573d6000803e3d6000fd5b50505050506040513d601f19601f82011682018060405250810190612b069190613710565b979650505050505050565b73ffffffffffffffffffffffffffffffffffffffff8216612b8e576040517f08c379a000000000000000000000000000000000000000000000000000000000815260206004820152601160248201527f494e56414c49445f524543495049454e540000000000000000000000000000006044820152606401610a33565b60008181526003602052604090205473ffffffffffffffffffffffffffffffffffffffff1615612c1a576040517f08c379a000000000000000000000000000000000000000000000000000000000815260206004820152600e60248201527f414c52454144595f4d494e5445440000000000000000000000000000000000006044820152606401610a33565b73ffffffffffffffffffffffffffffffffffffffff8216600081815260026020908152604080832080546001019055848352600390915280822080547fffffffffffffffffffffffff0000000000000000000000000000000000000000168417905551839291907fddf252ad1be2c89b69c2b068fc378daa952ba7f163c4a11628f55a4df523b3ef908290a45050565b6000818310612cb95781610e11565b5090919050565b7fffffffff0000000000000000000000000000000000000000000000000000000081168114612cee57600080fd5b50565b600060208284031215612d0357600080fd5b8135610e1181612cc0565b60005b83811015612d29578181015183820152602001612d11565b838111156113e75750506000910152565b60008151808452612d52816020860160208601612d0e565b601f017fffffffffffffffffffffffffffffffffffffffffffffffffffffffffffffffe0169290920160200192915050565b602081526000610e116020830184612d3a565b73ffffffffffffffffffffffffffffffffffffffff81168114612cee57600080fd5b80358015158114612dc957600080fd5b919050565b600080600060608486031215612de357600080fd5b8335612dee81612d97565b9250612dfc60208501612db9565b9150612e0a60408501612db9565b90509250925092565b600060208284031215612e2557600080fd5b5035919050565b60008060408385031215612e3f57600080fd5b8235612e4a81612d97565b946020939093013593505050565b600080600060608486031215612e6d57600080fd5b8335612e7881612d97565b92506020840135612e8881612d97565b929592945050506040919091013590565b60008060008060608587031215612eaf57600080fd5b84359350602085013567ffffffffffffffff80821115612ece57600080fd5b818701915087601f830112612ee257600080fd5b813581811115612ef157600080fd5b886020828501011115612f0357600080fd5b602083019550809450505050612f1b60408601612db9565b905092959194509250565b803560ff81168114612dc957600080fd5b600080600080600060a08688031215612f4f57600080fd5b8535612f5a81612d97565b9450612f6860208701612db9565b9350612f7660408701612f26565b94979396509394606081013594506080013592915050565b600060208284031215612fa057600080fd5b8135610e1181612d97565b60008060408385031215612fbe57600080fd5b823591506020830135612fd081612d97565b809150509250929050565b600080600080600080600080610100898b031215612ff857600080fd5b883561300381612d97565b9750602089013561301381612d97565b9650604089013561302381612d97565b9550606089013594506080890135935061303f60a08a01612f26565b925060c0890135915060e089013590509295985092959890939650565b6000806040838503121561306f57600080fd5b8235915061307f60208401612db9565b90509250929050565b6000806040838503121561309b57600080fd5b82356130a681612d97565b915061307f60208401612db9565b7f4e487b7100000000000000000000000000000000000000000000000000000000600052604160045260246000fd5b604051601f82017fffffffffffffffffffffffffffffffffffffffffffffffffffffffffffffffe016810167ffffffffffffffff8111828210171561312a5761312a6130b4565b604052919050565b600067ffffffffffffffff82111561314c5761314c6130b4565b50601f017fffffffffffffffffffffffffffffffffffffffffffffffffffffffffffffffe01660200190565b6000806000806080858703121561318e57600080fd5b843561319981612d97565b935060208501356131a981612d97565b925060408501359150606085013567ffffffffffffffff8111156131cc57600080fd5b8501601f810187136131dd57600080fd5b80356131f06131eb82613132565b6130e3565b81815288602083850101111561320557600080fd5b8160208401602083013760006020838301015280935050505092959194509250565b60008060006040848603121561323c57600080fd5b833567ffffffffffffffff8082111561325457600080fd5b818601915086601f83011261326857600080fd5b81358181111561327757600080fd5b8760208260051b850101111561328c57600080fd5b602092830195509350612e0a9186019050612db9565b600080604083850312156132b557600080fd5b82356132c081612d97565b91506020830135612fd081612d97565b600061012082840312156132e357600080fd5b50919050565b600181811c908216806132fd57607f821691505b602082108114156132e3577f4e487b7100000000000000000000000000000000000000000000000000000000600052602260045260246000fd5b7f4e487b7100000000000000000000000000000000000000000000000000000000600052601160045260246000fd5b60008282101561337857613378613337565b500390565b60006fffffffffffffffffffffffffffffffff8083168185168083038211156133a8576133a8613337565b01949350505050565b60208152816020820152818360408301376000818301604090810191909152601f9092017fffffffffffffffffffffffffffffffffffffffffffffffffffffffffffffffe0160101919050565b60006020828403121561341057600080fd5b8151610e1181612cc0565b60006fffffffffffffffffffffffffffffffff8083168185168183048111821515161561344a5761344a613337565b02949350505050565b600073ffffffffffffffffffffffffffffffffffffffff8087168352808616602084015250836040830152608060608301526134926080830184612d3a565b9695505050505050565b6000602082840312156134ae57600080fd5b815167ffffffffffffffff8111156134c557600080fd5b8201601f810184136134d657600080fd5b80516134e46131eb82613132565b8181528560208385010111156134f957600080fd5b612654826020830160208601612d0e565b7f4e487b7100000000000000000000000000000000000000000000000000000000600052603260045260246000fd5b60008083357fffffffffffffffffffffffffffffffffffffffffffffffffffffffffffffffe184360301811261356e57600080fd5b83018035915067ffffffffffffffff82111561358957600080fd5b60200191503681900382131561359e57600080fd5b9250929050565b8183823760009101908152919050565b60007fffffffffffffffffffffffffffffffffffffffffffffffffffffffffffffffff8214156135e7576135e7613337565b5060010190565b60006020828403121561360057600080fd5b813563ffffffff81168114610e1157600080fd5b60006020828403121561362657600080fd5b81356fffffffffffffffffffffffffffffffff81168114610e1157600080fd5b60006020828403121561365857600080fd5b610e1182612db9565b6000817fffffffffffffffffffffffffffffffffffffffffffffffffffffffffffffffff048311821515161561369957613699613337565b500290565b6000826136d4577f4e487b7100000000000000000000000000000000000000000000000000000000600052601260045260246000fd5b500490565b600063ffffffff8083168185168083038211156133a8576133a8613337565b6000821982111561370b5761370b613337565b500190565b6000806040838503121561372357600080fd5b505080516020909101519092909150565b60006020828403121561374657600080fd5b505191905056fea2646970667358221220f296247971e2dfc6eac46c10883fe02ee4b8892a9c543cf4407ace85ca48934b64736f6c634300080a0033",
  "devdoc": {
    "kind": "dev",
    "methods": {
      "batch(bytes[],bool)": {
        "params": {
          "calls": "An array of inputs for each call.",
          "revertOnFail": "If True then reverts after a failed call and stops doing further calls."
        }
      },
      "transferOwnership(address,bool,bool)": {
        "params": {
          "direct": "True if `newOwner` should be set immediately. False if `newOwner` needs to use `claimOwnership`.",
          "newOwner": "Address of the new owner.",
          "renounce": "Allows the `newOwner` to be `address(0)` if `direct` and `renounce` is True. Has no effect otherwise."
        }
      }
    },
    "version": 1
  },
  "userdoc": {
    "kind": "user",
    "methods": {
      "batch(bytes[],bool)": {
        "notice": "Allows batched call to self (this contract)."
      },
      "claimOwnership()": {
        "notice": "Needs to be called by `pendingOwner` to claim ownership."
      },
      "permitToken(address,address,address,uint256,uint256,uint8,bytes32,bytes32)": {
        "notice": "Call wrapper that performs `ERC20.permit` on `token`. Lookup `IERC20.permit`."
      },
      "transferOwnership(address,bool,bool)": {
        "notice": "Transfers ownership to `newOwner`. Either directly or claimable by the new pending owner. Can only be invoked by the current `owner`."
      }
    },
    "version": 1
  },
  "storageLayout": {
    "storage": [
      {
        "astId": 116,
        "contract": "contracts/base/FuroVesting.sol:FuroVesting",
        "label": "name",
        "offset": 0,
        "slot": "0",
        "type": "t_string_storage"
      },
      {
        "astId": 118,
        "contract": "contracts/base/FuroVesting.sol:FuroVesting",
        "label": "symbol",
        "offset": 0,
        "slot": "1",
        "type": "t_string_storage"
      },
      {
        "astId": 129,
        "contract": "contracts/base/FuroVesting.sol:FuroVesting",
        "label": "balanceOf",
        "offset": 0,
        "slot": "2",
        "type": "t_mapping(t_address,t_uint256)"
      },
      {
        "astId": 133,
        "contract": "contracts/base/FuroVesting.sol:FuroVesting",
        "label": "ownerOf",
        "offset": 0,
        "slot": "3",
        "type": "t_mapping(t_uint256,t_address)"
      },
      {
        "astId": 137,
        "contract": "contracts/base/FuroVesting.sol:FuroVesting",
        "label": "getApproved",
        "offset": 0,
        "slot": "4",
        "type": "t_mapping(t_uint256,t_address)"
      },
      {
        "astId": 143,
        "contract": "contracts/base/FuroVesting.sol:FuroVesting",
        "label": "isApprovedForAll",
        "offset": 0,
        "slot": "5",
        "type": "t_mapping(t_address,t_mapping(t_address,t_bool))"
      },
      {
        "astId": 2986,
        "contract": "contracts/base/FuroVesting.sol:FuroVesting",
        "label": "owner",
        "offset": 0,
        "slot": "6",
        "type": "t_address"
      },
      {
        "astId": 2988,
        "contract": "contracts/base/FuroVesting.sol:FuroVesting",
        "label": "pendingOwner",
        "offset": 0,
        "slot": "7",
        "type": "t_address"
      },
      {
        "astId": 1440,
        "contract": "contracts/base/FuroVesting.sol:FuroVesting",
        "label": "tokenURIFetcher",
        "offset": 0,
        "slot": "8",
        "type": "t_address"
      },
      {
        "astId": 1445,
        "contract": "contracts/base/FuroVesting.sol:FuroVesting",
        "label": "vests",
        "offset": 0,
        "slot": "9",
        "type": "t_mapping(t_uint256,t_struct(Vest)2554_storage)"
      },
      {
        "astId": 1447,
        "contract": "contracts/base/FuroVesting.sol:FuroVesting",
        "label": "vestIds",
        "offset": 0,
        "slot": "10",
        "type": "t_uint256"
      }
    ],
    "types": {
      "t_address": {
        "encoding": "inplace",
        "label": "address",
        "numberOfBytes": "20"
      },
      "t_bool": {
        "encoding": "inplace",
        "label": "bool",
        "numberOfBytes": "1"
      },
      "t_contract(IERC20)2276": {
        "encoding": "inplace",
        "label": "contract IERC20",
        "numberOfBytes": "20"
      },
      "t_mapping(t_address,t_bool)": {
        "encoding": "mapping",
        "key": "t_address",
        "label": "mapping(address => bool)",
        "numberOfBytes": "32",
        "value": "t_bool"
      },
      "t_mapping(t_address,t_mapping(t_address,t_bool))": {
        "encoding": "mapping",
        "key": "t_address",
        "label": "mapping(address => mapping(address => bool))",
        "numberOfBytes": "32",
        "value": "t_mapping(t_address,t_bool)"
      },
      "t_mapping(t_address,t_uint256)": {
        "encoding": "mapping",
        "key": "t_address",
        "label": "mapping(address => uint256)",
        "numberOfBytes": "32",
        "value": "t_uint256"
      },
      "t_mapping(t_uint256,t_address)": {
        "encoding": "mapping",
        "key": "t_uint256",
        "label": "mapping(uint256 => address)",
        "numberOfBytes": "32",
        "value": "t_address"
      },
      "t_mapping(t_uint256,t_struct(Vest)2554_storage)": {
        "encoding": "mapping",
        "key": "t_uint256",
        "label": "mapping(uint256 => struct IFuroVesting.Vest)",
        "numberOfBytes": "32",
        "value": "t_struct(Vest)2554_storage"
      },
      "t_string_storage": {
        "encoding": "bytes",
        "label": "string",
        "numberOfBytes": "32"
      },
      "t_struct(Vest)2554_storage": {
        "encoding": "inplace",
        "label": "struct IFuroVesting.Vest",
        "members": [
          {
            "astId": 2536,
            "contract": "contracts/base/FuroVesting.sol:FuroVesting",
            "label": "owner",
            "offset": 0,
            "slot": "0",
            "type": "t_address"
          },
          {
            "astId": 2539,
            "contract": "contracts/base/FuroVesting.sol:FuroVesting",
            "label": "token",
            "offset": 0,
            "slot": "1",
            "type": "t_contract(IERC20)2276"
          },
          {
            "astId": 2541,
            "contract": "contracts/base/FuroVesting.sol:FuroVesting",
            "label": "start",
            "offset": 20,
            "slot": "1",
            "type": "t_uint32"
          },
          {
            "astId": 2543,
            "contract": "contracts/base/FuroVesting.sol:FuroVesting",
            "label": "cliffDuration",
            "offset": 24,
            "slot": "1",
            "type": "t_uint32"
          },
          {
            "astId": 2545,
            "contract": "contracts/base/FuroVesting.sol:FuroVesting",
            "label": "stepDuration",
            "offset": 28,
            "slot": "1",
            "type": "t_uint32"
          },
          {
            "astId": 2547,
            "contract": "contracts/base/FuroVesting.sol:FuroVesting",
            "label": "steps",
            "offset": 0,
            "slot": "2",
            "type": "t_uint32"
          },
          {
            "astId": 2549,
            "contract": "contracts/base/FuroVesting.sol:FuroVesting",
            "label": "cliffShares",
            "offset": 4,
            "slot": "2",
            "type": "t_uint128"
          },
          {
            "astId": 2551,
            "contract": "contracts/base/FuroVesting.sol:FuroVesting",
            "label": "stepShares",
            "offset": 0,
            "slot": "3",
            "type": "t_uint128"
          },
          {
            "astId": 2553,
            "contract": "contracts/base/FuroVesting.sol:FuroVesting",
            "label": "claimed",
            "offset": 16,
            "slot": "3",
            "type": "t_uint128"
          }
        ],
        "numberOfBytes": "128"
      },
      "t_uint128": {
        "encoding": "inplace",
        "label": "uint128",
        "numberOfBytes": "16"
      },
      "t_uint256": {
        "encoding": "inplace",
        "label": "uint256",
        "numberOfBytes": "32"
      },
      "t_uint32": {
        "encoding": "inplace",
        "label": "uint32",
        "numberOfBytes": "4"
      }
    }
  }
}