{
  "address": "0x6b8A569B1bA6a172d2e8Dd244282a4b16b14CaEA",
  "abi": [
    {
      "inputs": [
        {
          "internalType": "address",
          "name": "_factory",
          "type": "address"
        },
        {
          "internalType": "address",
          "name": "_bar",
          "type": "address"
        },
        {
          "internalType": "address",
          "name": "_sushi",
          "type": "address"
        },
        {
          "internalType": "address",
          "name": "_weth",
          "type": "address"
        }
      ],
      "stateMutability": "nonpayable",
      "type": "constructor"
    },
    {
      "anonymous": false,
      "inputs": [
        {
          "indexed": true,
          "internalType": "address",
          "name": "token",
          "type": "address"
        },
        {
          "indexed": true,
          "internalType": "address",
          "name": "bridge",
          "type": "address"
        }
      ],
      "name": "LogBridgeSet",
      "type": "event"
    },
    {
      "anonymous": false,
      "inputs": [
        {
          "indexed": true,
          "internalType": "address",
          "name": "server",
          "type": "address"
        },
        {
          "indexed": true,
          "internalType": "address",
          "name": "token0",
          "type": "address"
        },
        {
          "indexed": true,
          "internalType": "address",
          "name": "token1",
          "type": "address"
        },
        {
          "indexed": false,
          "internalType": "uint256",
          "name": "amount0",
          "type": "uint256"
        },
        {
          "indexed": false,
          "internalType": "uint256",
          "name": "amount1",
          "type": "uint256"
        },
        {
          "indexed": false,
          "internalType": "uint256",
          "name": "amountSUSHI",
          "type": "uint256"
        }
      ],
      "name": "LogConvert",
      "type": "event"
    },
    {
      "anonymous": false,
      "inputs": [
        {
          "indexed": true,
          "internalType": "address",
          "name": "previousOwner",
          "type": "address"
        },
        {
          "indexed": true,
          "internalType": "address",
          "name": "newOwner",
          "type": "address"
        }
      ],
      "name": "OwnershipTransferred",
      "type": "event"
    },
    {
      "inputs": [],
      "name": "bar",
      "outputs": [
        {
          "internalType": "address",
          "name": "",
          "type": "address"
        }
      ],
      "stateMutability": "view",
      "type": "function"
    },
    {
      "inputs": [
        {
          "internalType": "address",
          "name": "token",
          "type": "address"
        }
      ],
      "name": "bridgeFor",
      "outputs": [
        {
          "internalType": "address",
          "name": "bridge",
          "type": "address"
        }
      ],
      "stateMutability": "view",
      "type": "function"
    },
    {
      "inputs": [],
      "name": "claimOwnership",
      "outputs": [],
      "stateMutability": "nonpayable",
      "type": "function"
    },
    {
      "inputs": [
        {
          "internalType": "address",
          "name": "token0",
          "type": "address"
        },
        {
          "internalType": "address",
          "name": "token1",
          "type": "address"
        }
      ],
      "name": "convert",
      "outputs": [],
      "stateMutability": "nonpayable",
      "type": "function"
    },
    {
      "inputs": [
        {
          "internalType": "address[]",
          "name": "token0",
          "type": "address[]"
        },
        {
          "internalType": "address[]",
          "name": "token1",
          "type": "address[]"
        }
      ],
      "name": "convertMultiple",
      "outputs": [],
      "stateMutability": "nonpayable",
      "type": "function"
    },
    {
      "inputs": [],
      "name": "factory",
      "outputs": [
        {
          "internalType": "contract IUniswapV2Factory",
          "name": "",
          "type": "address"
        }
      ],
      "stateMutability": "view",
      "type": "function"
    },
    {
      "inputs": [],
      "name": "owner",
      "outputs": [
        {
          "internalType": "address",
          "name": "",
          "type": "address"
        }
      ],
      "stateMutability": "view",
      "type": "function"
    },
    {
      "inputs": [],
      "name": "pendingOwner",
      "outputs": [
        {
          "internalType": "address",
          "name": "",
          "type": "address"
        }
      ],
      "stateMutability": "view",
      "type": "function"
    },
    {
      "inputs": [
        {
          "internalType": "address",
          "name": "token",
          "type": "address"
        },
        {
          "internalType": "address",
          "name": "bridge",
          "type": "address"
        }
      ],
      "name": "setBridge",
      "outputs": [],
      "stateMutability": "nonpayable",
      "type": "function"
    },
    {
      "inputs": [],
      "name": "sushi",
      "outputs": [
        {
          "internalType": "address",
          "name": "",
          "type": "address"
        }
      ],
      "stateMutability": "view",
      "type": "function"
    },
    {
      "inputs": [
        {
          "internalType": "address",
          "name": "newOwner",
          "type": "address"
        },
        {
          "internalType": "bool",
          "name": "direct",
          "type": "bool"
        },
        {
          "internalType": "bool",
          "name": "renounce",
          "type": "bool"
        }
      ],
      "name": "transferOwnership",
      "outputs": [],
      "stateMutability": "nonpayable",
      "type": "function"
    },
    {
      "inputs": [],
      "name": "weth",
      "outputs": [
        {
          "internalType": "address",
          "name": "",
          "type": "address"
        }
      ],
      "stateMutability": "view",
      "type": "function"
    }
  ],
  "transactionHash": "0x736f22b0a5b383d2726be15290b3ba610521f6095126c4333553a290aaabd470",
  "args": [
    "0xaa094cA3FBd19dCCcE91C79d1FffA28293B05f28",
    "0xceb95423B86c1823deC2Cc6F877997DC9349C2F1",
    "0x3d2cd929D1fC1dA68D2557AB85336C2740b1Ae81",
    "0x17F4FCF5b6E0A95D4eE331c8529041896A073F9b"
  ],
  "solcInputHash": "ec4071d10c7e7bbedc283633f381c999",
  "bytecode": "0x61010060405234801561001157600080fd5b506040516118183803806118188339818101604052608081101561003457600080fd5b5080516020820151604080840151606090940151600080546001600160a01b0319163390811782559251949593949192917f8be0079c531659141344cd1fd0a4f28419497f9722a3daafe3b4186f6b6457e0908290a36001600160601b0319606094851b811660805292841b831660a05290831b821660c05290911b1660e05260805160601c60a05160601c60c05160601c60e05160601c6116ab61016d60003980610496528061062752806107455280610d485280610d855280610f2a5280610f675280610f905280610fbd5280610ffa52806110235250806103c752806105ea5280610cb25280610cf75280610de55280610e2a5280610e8e5280610ed352806111565250806107fc5280610d195280610e4c5280610ef552806111785250806107c9528061082252806111a852506116ab6000f3fe608060405234801561001057600080fd5b50600436106100b45760003560e01c80639d22ae8c116100715780639d22ae8c146101ef578063a761a9391461021d578063bd1b820c14610243578063c45a015514610271578063e30c397814610279578063febb0f7e14610281576100b4565b8063078dfbe7146100b95780630a087903146100f1578063303e6aa4146101155780633fc8cef3146101d75780634e71e0c8146101df5780638da5cb5b146101e7575b600080fd5b6100ef600480360360608110156100cf57600080fd5b506001600160a01b03813516906020810135151590604001351515610289565b005b6100f96103c5565b604080516001600160a01b039092168252519081900360200190f35b6100ef6004803603604081101561012b57600080fd5b81019060208101813564010000000081111561014657600080fd5b82018360208201111561015857600080fd5b8035906020019184602083028401116401000000008311171561017a57600080fd5b91939092909160208101903564010000000081111561019857600080fd5b8201836020820111156101aa57600080fd5b803590602001918460208302840111640100000000831117156101cc57600080fd5b5090925090506103e9565b6100f9610494565b6100ef6104b8565b6100f961057a565b6100ef6004803603604081101561020557600080fd5b506001600160a01b0381358116916020013516610589565b6100f96004803603602081101561023357600080fd5b50356001600160a01b0316610722565b6100ef6004803603604081101561025957600080fd5b506001600160a01b038135811691602001351661076a565b6100f96107c7565b6100f96107eb565b6100f96107fa565b6000546001600160a01b031633146102e8576040805162461bcd60e51b815260206004820181905260248201527f4f776e61626c653a2063616c6c6572206973206e6f7420746865206f776e6572604482015290519081900360640190fd5b81156103a4576001600160a01b0383161515806103025750805b61034b576040805162461bcd60e51b81526020600482015260156024820152744f776e61626c653a207a65726f206164647265737360581b604482015290519081900360640190fd5b600080546040516001600160a01b03808716939216917f8be0079c531659141344cd1fd0a4f28419497f9722a3daafe3b4186f6b6457e091a3600080546001600160a01b0319166001600160a01b0385161790556103c0565b600180546001600160a01b0319166001600160a01b0385161790555b505050565b7f000000000000000000000000000000000000000000000000000000000000000081565b333214610438576040805162461bcd60e51b815260206004820152601860248201527753757368694d616b65723a206d7573742075736520454f4160401b604482015290519081900360640190fd5b8260005b8181101561048c5761048486868381811061045357fe5b905060200201356001600160a01b031685858481811061046f57fe5b905060200201356001600160a01b031661081e565b60010161043c565b505050505050565b7f000000000000000000000000000000000000000000000000000000000000000081565b6001546001600160a01b0316338114610518576040805162461bcd60e51b815260206004820181905260248201527f4f776e61626c653a2063616c6c657220213d2070656e64696e67206f776e6572604482015290519081900360640190fd5b600080546040516001600160a01b03808516939216917f8be0079c531659141344cd1fd0a4f28419497f9722a3daafe3b4186f6b6457e091a3600080546001600160a01b039092166001600160a01b0319928316179055600180549091169055565b6000546001600160a01b031681565b6000546001600160a01b031633146105e8576040805162461bcd60e51b815260206004820181905260248201527f4f776e61626c653a2063616c6c6572206973206e6f7420746865206f776e6572604482015290519081900360640190fd5b7f00000000000000000000000000000000000000000000000000000000000000006001600160a01b0316826001600160a01b03161415801561065c57507f00000000000000000000000000000000000000000000000000000000000000006001600160a01b0316826001600160a01b031614155b801561067a5750806001600160a01b0316826001600160a01b031614155b6106cb576040805162461bcd60e51b815260206004820152601a60248201527f53757368694d616b65723a20496e76616c696420627269646765000000000000604482015290519081900360640190fd5b6001600160a01b0382811660008181526002602052604080822080546001600160a01b0319169486169485179055517f2e103aa707acc565f9a1547341914802b2bfe977fd79c595209f248ae4b006139190a35050565b6001600160a01b03808216600090815260026020526040902054168061076557507f00000000000000000000000000000000000000000000000000000000000000005b919050565b3332146107b9576040805162461bcd60e51b815260206004820152601860248201527753757368694d616b65723a206d7573742075736520454f4160401b604482015290519081900360640190fd5b6107c3828261081e565b5050565b7f000000000000000000000000000000000000000000000000000000000000000081565b6001546001600160a01b031681565b7f000000000000000000000000000000000000000000000000000000000000000081565b60007f00000000000000000000000000000000000000000000000000000000000000006001600160a01b031663e6a4390584846040518363ffffffff1660e01b815260040180836001600160a01b03168152602001826001600160a01b031681526020019250505060206040518083038186803b15801561089e57600080fd5b505afa1580156108b2573d6000803e3d6000fd5b505050506040513d60208110156108c857600080fd5b505190506001600160a01b038116610927576040805162461bcd60e51b815260206004820152601860248201527f53757368694d616b65723a20496e76616c696420706169720000000000000000604482015290519081900360640190fd5b6109b581826001600160a01b03166370a08231306040518263ffffffff1660e01b815260040180826001600160a01b0316815260200191505060206040518083038186803b15801561097857600080fd5b505afa15801561098c573d6000803e3d6000fd5b505050506040513d60208110156109a257600080fd5b50516001600160a01b0384169190610b1c565b600080826001600160a01b03166389afcb44306040518263ffffffff1660e01b815260040180826001600160a01b031681526020019150506040805180830381600087803b158015610a0657600080fd5b505af1158015610a1a573d6000803e3d6000fd5b505050506040513d6040811015610a3057600080fd5b50805160209182015160408051630dfe168160e01b815290519295509093506001600160a01b03861692630dfe168192600480840193829003018186803b158015610a7a57600080fd5b505afa158015610a8e573d6000803e3d6000fd5b505050506040513d6020811015610aa457600080fd5b50516001600160a01b03868116911614610aba57905b6001600160a01b03808516908616337fd06b1d7ed79b664d17472c6f6997b929f1abe463ccccb4e5b6a0038f2f730c158585610af88b8b8484610c86565b60408051938452602084019290925282820152519081900360600190a45050505050565b604080516001600160a01b038481166024830152604480830185905283518084039091018152606490920183526020820180516001600160e01b031663a9059cbb60e01b178152925182516000946060949389169392918291908083835b60208310610b995780518252601f199092019160209182019101610b7a565b6001836020036101000a0380198251168184511680821785525050505050509050019150506000604051808303816000865af19150503d8060008114610bfb576040519150601f19603f3d011682016040523d82523d6000602084013e610c00565b606091505b5091509150818015610c2e575080511580610c2e5750808060200190516020811015610c2b57600080fd5b50515b610c7f576040805162461bcd60e51b815260206004820152601a60248201527f5361666545524332303a205472616e73666572206661696c6564000000000000604482015290519081900360640190fd5b5050505050565b6000836001600160a01b0316856001600160a01b03161415610de3576000610cae84846110f7565b90507f00000000000000000000000000000000000000000000000000000000000000006001600160a01b0316866001600160a01b03161415610d4657610d3e6001600160a01b037f0000000000000000000000000000000000000000000000000000000000000000167f000000000000000000000000000000000000000000000000000000000000000083610b1c565b809150610ddd565b7f00000000000000000000000000000000000000000000000000000000000000006001600160a01b0316866001600160a01b03161415610db157610daa7f00000000000000000000000000000000000000000000000000000000000000008261114e565b9150610ddd565b6000610dbc87610722565b9050610dca878284306111a3565b9150610dd98182846000610c86565b9250505b506110ef565b7f00000000000000000000000000000000000000000000000000000000000000006001600160a01b0316856001600160a01b03161415610e8c57610e716001600160a01b037f0000000000000000000000000000000000000000000000000000000000000000167f000000000000000000000000000000000000000000000000000000000000000085610b1c565b610e8583610e7f868561114e565b906110f7565b90506110ef565b7f00000000000000000000000000000000000000000000000000000000000000006001600160a01b0316846001600160a01b03161415610f2857610f1a6001600160a01b037f0000000000000000000000000000000000000000000000000000000000000000167f000000000000000000000000000000000000000000000000000000000000000084610b1c565b610e8582610e7f878661114e565b7f00000000000000000000000000000000000000000000000000000000000000006001600160a01b0316856001600160a01b03161415610fbb57610e857f0000000000000000000000000000000000000000000000000000000000000000610fb685610e7f887f000000000000000000000000000000000000000000000000000000000000000088306111a3565b61114e565b7f00000000000000000000000000000000000000000000000000000000000000006001600160a01b0316846001600160a01b0316141561104957610e857f0000000000000000000000000000000000000000000000000000000000000000610fb684610e7f897f000000000000000000000000000000000000000000000000000000000000000089306111a3565b600061105486610722565b9050600061106186610722565b9050856001600160a01b0316826001600160a01b0316141561109b57611094828761108e8a868a306111a3565b87610c86565b92506110ec565b866001600160a01b0316816001600160a01b031614156110cc576110948782876110c78a868a306111a3565b610c86565b6110e982826110dd8a868a306111a3565b6110c78a868a306111a3565b92505b50505b949350505050565b81810181811015611148576040805162461bcd60e51b8152602060048201526016602482015275536166654d6174683a20416464204f766572666c6f7760501b604482015290519081900360640190fd5b92915050565b600061119c837f0000000000000000000000000000000000000000000000000000000000000000847f00000000000000000000000000000000000000000000000000000000000000006111a3565b9392505050565b6000807f00000000000000000000000000000000000000000000000000000000000000006001600160a01b031663e6a4390587876040518363ffffffff1660e01b815260040180836001600160a01b03168152602001826001600160a01b031681526020019250505060206040518083038186803b15801561122457600080fd5b505afa158015611238573d6000803e3d6000fd5b505050506040513d602081101561124e57600080fd5b505190506001600160a01b0381166112ad576040805162461bcd60e51b815260206004820152601a60248201527f53757368694d616b65723a2043616e6e6f7420636f6e76657274000000000000604482015290519081900360640190fd5b600080826001600160a01b0316630902f1ac6040518163ffffffff1660e01b815260040160606040518083038186803b1580156112e957600080fd5b505afa1580156112fd573d6000803e3d6000fd5b505050506040513d606081101561131357600080fd5b5080516020909101516dffffffffffffffffffffffffffff91821693501690506000611341876103e5611610565b9050836001600160a01b0316630dfe16816040518163ffffffff1660e01b815260040160206040518083038186803b15801561137c57600080fd5b505afa158015611390573d6000803e3d6000fd5b505050506040513d60208110156113a657600080fd5b50516001600160a01b038a8116911614156114e1576113cb81610e7f856103e8611610565b6113d58284611610565b816113dc57fe5b0494506113f36001600160a01b038a168589610b1c565b604080516000808252602082019283905263022c0d9f60e01b835260248201818152604483018990526001600160a01b038a81166064850152608060848501908152845160a48601819052918a169563022c0d9f958c948e9491939092909160c4850191908083838b5b8381101561147557818101518382015260200161145d565b50505050905090810190601f1680156114a25780820380516001836020036101000a031916815260200191505b5095505050505050600060405180830381600087803b1580156114c457600080fd5b505af11580156114d8573d6000803e3d6000fd5b50505050611604565b6114f181610e7f846103e8611610565b6114fb8285611610565b8161150257fe5b0494506115196001600160a01b038a168589610b1c565b604080516000808252602082019283905263022c0d9f60e01b835260248201888152604483018290526001600160a01b038a81166064850152608060848501908152845160a48601819052918a169563022c0d9f958c95948e9491939092909160c4850191908083838a5b8381101561159c578181015183820152602001611584565b50505050905090810190601f1680156115c95780820380516001836020036101000a031916815260200191505b5095505050505050600060405180830381600087803b1580156115eb57600080fd5b505af11580156115ff573d6000803e3d6000fd5b505050505b50505050949350505050565b600081158061162b5750508082028282828161162857fe5b04145b611148576040805162461bcd60e51b8152602060048201526016602482015275536166654d6174683a204d756c204f766572666c6f7760501b604482015290519081900360640190fdfea2646970667358221220232a4a3f936af03ba1c6f9a1e6811978ce497c4304d794e0eb60cb1025ecf7d964736f6c634300060c0033",
  "devdoc": {
    "kind": "dev",
    "methods": {},
    "version": 1
  },
  "userdoc": {
    "kind": "user",
    "methods": {},
    "version": 1
  },
  "storageLayout": {
    "storage": [
      {
        "astId": 3156,
        "contract": "contracts/SushiMaker.sol:SushiMaker",
        "label": "owner",
        "offset": 0,
        "slot": "0",
        "type": "t_address"
      },
      {
        "astId": 3158,
        "contract": "contracts/SushiMaker.sol:SushiMaker",
        "label": "pendingOwner",
        "offset": 0,
        "slot": "1",
        "type": "t_address"
      },
      {
        "astId": 3430,
        "contract": "contracts/SushiMaker.sol:SushiMaker",
        "label": "_bridges",
        "offset": 0,
        "slot": "2",
        "type": "t_mapping(t_address,t_address)"
      }
    ],
    "types": {
      "t_address": {
        "encoding": "inplace",
        "label": "address",
        "numberOfBytes": "20"
      },
      "t_mapping(t_address,t_address)": {
        "encoding": "mapping",
        "key": "t_address",
        "label": "mapping(address => address)",
        "numberOfBytes": "32",
        "value": "t_address"
      }
    }
  }
}