{
  "address": "0xaB235da7f52d35fb4551AfBa11BFB56e18774A65",
  "abi": [
    {
      "inputs": [
        {
          "internalType": "contract IBentoBoxMinimal",
          "name": "_bento",
          "type": "address"
        },
        {
          "internalType": "contract IMasterDeployer",
          "name": "_masterDeployer",
          "type": "address"
        },
        {
          "internalType": "address",
          "name": "_wETH",
          "type": "address"
        }
      ],
      "stateMutability": "nonpayable",
      "type": "constructor"
    },
    {
      "inputs": [],
      "name": "IncorrectSlippageParams",
      "type": "error"
    },
    {
      "inputs": [],
      "name": "NotEnoughLiquidityMinted",
      "type": "error"
    },
    {
      "inputs": [],
      "name": "NotWethSender",
      "type": "error"
    },
    {
      "inputs": [],
      "name": "TooLittleReceived",
      "type": "error"
    },
    {
      "inputs": [
        {
          "components": [
            {
              "internalType": "address",
              "name": "token",
              "type": "address"
            },
            {
              "internalType": "bool",
              "name": "native",
              "type": "bool"
            },
            {
              "internalType": "uint256",
              "name": "amount",
              "type": "uint256"
            }
          ],
          "internalType": "struct ITridentRouter.TokenInput[]",
          "name": "tokenInput",
          "type": "tuple[]"
        },
        {
          "internalType": "address",
          "name": "pool",
          "type": "address"
        },
        {
          "internalType": "uint256",
          "name": "minLiquidity",
          "type": "uint256"
        },
        {
          "internalType": "bytes",
          "name": "data",
          "type": "bytes"
        }
      ],
      "name": "addLiquidity",
      "outputs": [
        {
          "internalType": "uint256",
          "name": "liquidity",
          "type": "uint256"
        }
      ],
      "stateMutability": "payable",
      "type": "function"
    },
    {
      "inputs": [
        {
          "internalType": "uint8",
          "name": "v",
          "type": "uint8"
        },
        {
          "internalType": "bytes32",
          "name": "r",
          "type": "bytes32"
        },
        {
          "internalType": "bytes32",
          "name": "s",
          "type": "bytes32"
        }
      ],
      "name": "approveMasterContract",
      "outputs": [],
      "stateMutability": "payable",
      "type": "function"
    },
    {
      "inputs": [],
      "name": "bento",
      "outputs": [
        {
          "internalType": "contract IBentoBoxMinimal",
          "name": "",
          "type": "address"
        }
      ],
      "stateMutability": "view",
      "type": "function"
    },
    {
      "inputs": [
        {
          "internalType": "address",
          "name": "pool",
          "type": "address"
        },
        {
          "internalType": "uint256",
          "name": "liquidity",
          "type": "uint256"
        },
        {
          "internalType": "bytes",
          "name": "data",
          "type": "bytes"
        },
        {
          "components": [
            {
              "internalType": "address",
              "name": "token",
              "type": "address"
            },
            {
              "internalType": "uint256",
              "name": "amount",
              "type": "uint256"
            }
          ],
          "internalType": "struct IPool.TokenAmount[]",
          "name": "minWithdrawals",
          "type": "tuple[]"
        }
      ],
      "name": "burnLiquidity",
      "outputs": [],
      "stateMutability": "payable",
      "type": "function"
    },
    {
      "inputs": [
        {
          "internalType": "address",
          "name": "pool",
          "type": "address"
        },
        {
          "internalType": "uint256",
          "name": "liquidity",
          "type": "uint256"
        },
        {
          "internalType": "bytes",
          "name": "data",
          "type": "bytes"
        },
        {
          "internalType": "uint256",
          "name": "minWithdrawal",
          "type": "uint256"
        }
      ],
      "name": "burnLiquiditySingle",
      "outputs": [],
      "stateMutability": "payable",
      "type": "function"
    },
    {
      "inputs": [
        {
          "components": [
            {
              "components": [
                {
                  "internalType": "address",
                  "name": "tokenIn",
                  "type": "address"
                },
                {
                  "internalType": "address",
                  "name": "pool",
                  "type": "address"
                },
                {
                  "internalType": "bool",
                  "name": "native",
                  "type": "bool"
                },
                {
                  "internalType": "uint256",
                  "name": "amount",
                  "type": "uint256"
                },
                {
                  "internalType": "bytes",
                  "name": "data",
                  "type": "bytes"
                }
              ],
              "internalType": "struct ITridentRouter.InitialPath[]",
              "name": "initialPath",
              "type": "tuple[]"
            },
            {
              "components": [
                {
                  "internalType": "address",
                  "name": "tokenIn",
                  "type": "address"
                },
                {
                  "internalType": "address",
                  "name": "pool",
                  "type": "address"
                },
                {
                  "internalType": "uint64",
                  "name": "balancePercentage",
                  "type": "uint64"
                },
                {
                  "internalType": "bytes",
                  "name": "data",
                  "type": "bytes"
                }
              ],
              "internalType": "struct ITridentRouter.PercentagePath[]",
              "name": "percentagePath",
              "type": "tuple[]"
            },
            {
              "components": [
                {
                  "internalType": "address",
                  "name": "token",
                  "type": "address"
                },
                {
                  "internalType": "address",
                  "name": "to",
                  "type": "address"
                },
                {
                  "internalType": "bool",
                  "name": "unwrapBento",
                  "type": "bool"
                },
                {
                  "internalType": "uint256",
                  "name": "minAmount",
                  "type": "uint256"
                }
              ],
              "internalType": "struct ITridentRouter.Output[]",
              "name": "output",
              "type": "tuple[]"
            }
          ],
          "internalType": "struct ITridentRouter.ComplexPathParams",
          "name": "params",
          "type": "tuple"
        }
      ],
      "name": "complexPath",
      "outputs": [],
      "stateMutability": "payable",
      "type": "function"
    },
    {
      "inputs": [
        {
          "internalType": "address",
          "name": "factory",
          "type": "address"
        },
        {
          "internalType": "bytes",
          "name": "deployData",
          "type": "bytes"
        }
      ],
      "name": "deployPool",
      "outputs": [
        {
          "internalType": "address",
          "name": "",
          "type": "address"
        }
      ],
      "stateMutability": "payable",
      "type": "function"
    },
    {
      "inputs": [
        {
          "components": [
            {
              "internalType": "address",
              "name": "tokenIn",
              "type": "address"
            },
            {
              "internalType": "uint256",
              "name": "amountIn",
              "type": "uint256"
            },
            {
              "internalType": "uint256",
              "name": "amountOutMinimum",
              "type": "uint256"
            },
            {
              "components": [
                {
                  "internalType": "address",
                  "name": "pool",
                  "type": "address"
                },
                {
                  "internalType": "bytes",
                  "name": "data",
                  "type": "bytes"
                }
              ],
              "internalType": "struct ITridentRouter.Path[]",
              "name": "path",
              "type": "tuple[]"
            }
          ],
          "internalType": "struct ITridentRouter.ExactInputParams",
          "name": "params",
          "type": "tuple"
        }
      ],
      "name": "exactInput",
      "outputs": [
        {
          "internalType": "uint256",
          "name": "amountOut",
          "type": "uint256"
        }
      ],
      "stateMutability": "payable",
      "type": "function"
    },
    {
      "inputs": [
        {
          "components": [
            {
              "internalType": "uint256",
              "name": "amountIn",
              "type": "uint256"
            },
            {
              "internalType": "uint256",
              "name": "amountOutMinimum",
              "type": "uint256"
            },
            {
              "internalType": "address",
              "name": "pool",
              "type": "address"
            },
            {
              "internalType": "address",
              "name": "tokenIn",
              "type": "address"
            },
            {
              "internalType": "bytes",
              "name": "data",
              "type": "bytes"
            }
          ],
          "internalType": "struct ITridentRouter.ExactInputSingleParams",
          "name": "params",
          "type": "tuple"
        }
      ],
      "name": "exactInputSingle",
      "outputs": [
        {
          "internalType": "uint256",
          "name": "amountOut",
          "type": "uint256"
        }
      ],
      "stateMutability": "payable",
      "type": "function"
    },
    {
      "inputs": [
        {
          "components": [
            {
              "internalType": "uint256",
              "name": "amountIn",
              "type": "uint256"
            },
            {
              "internalType": "uint256",
              "name": "amountOutMinimum",
              "type": "uint256"
            },
            {
              "internalType": "address",
              "name": "pool",
              "type": "address"
            },
            {
              "internalType": "address",
              "name": "tokenIn",
              "type": "address"
            },
            {
              "internalType": "bytes",
              "name": "data",
              "type": "bytes"
            }
          ],
          "internalType": "struct ITridentRouter.ExactInputSingleParams",
          "name": "params",
          "type": "tuple"
        }
      ],
      "name": "exactInputSingleWithNativeToken",
      "outputs": [
        {
          "internalType": "uint256",
          "name": "amountOut",
          "type": "uint256"
        }
      ],
      "stateMutability": "payable",
      "type": "function"
    },
    {
      "inputs": [
        {
          "components": [
            {
              "internalType": "address",
              "name": "tokenIn",
              "type": "address"
            },
            {
              "internalType": "uint256",
              "name": "amountIn",
              "type": "uint256"
            },
            {
              "internalType": "uint256",
              "name": "amountOutMinimum",
              "type": "uint256"
            },
            {
              "components": [
                {
                  "internalType": "address",
                  "name": "pool",
                  "type": "address"
                },
                {
                  "internalType": "bytes",
                  "name": "data",
                  "type": "bytes"
                }
              ],
              "internalType": "struct ITridentRouter.Path[]",
              "name": "path",
              "type": "tuple[]"
            }
          ],
          "internalType": "struct ITridentRouter.ExactInputParams",
          "name": "params",
          "type": "tuple"
        }
      ],
      "name": "exactInputWithNativeToken",
      "outputs": [
        {
          "internalType": "uint256",
          "name": "amountOut",
          "type": "uint256"
        }
      ],
      "stateMutability": "payable",
      "type": "function"
    },
    {
      "inputs": [
        {
          "internalType": "address",
          "name": "token",
          "type": "address"
        },
        {
          "internalType": "uint256",
          "name": "maxChangeAmount",
          "type": "uint256"
        }
      ],
      "name": "harvest",
      "outputs": [],
      "stateMutability": "payable",
      "type": "function"
    },
    {
      "inputs": [],
      "name": "masterDeployer",
      "outputs": [
        {
          "internalType": "contract IMasterDeployer",
          "name": "",
          "type": "address"
        }
      ],
      "stateMutability": "view",
      "type": "function"
    },
    {
      "inputs": [
        {
          "internalType": "bytes[]",
          "name": "data",
          "type": "bytes[]"
        }
      ],
      "name": "multicall",
      "outputs": [
        {
          "internalType": "bytes[]",
          "name": "results",
          "type": "bytes[]"
        }
      ],
      "stateMutability": "payable",
      "type": "function"
    },
    {
      "inputs": [
        {
          "internalType": "address",
          "name": "token",
          "type": "address"
        },
        {
          "internalType": "uint256",
          "name": "value",
          "type": "uint256"
        },
        {
          "internalType": "uint256",
          "name": "deadline",
          "type": "uint256"
        },
        {
          "internalType": "uint8",
          "name": "v",
          "type": "uint8"
        },
        {
          "internalType": "bytes32",
          "name": "r",
          "type": "bytes32"
        },
        {
          "internalType": "bytes32",
          "name": "s",
          "type": "bytes32"
        }
      ],
      "name": "selfPermit",
      "outputs": [],
      "stateMutability": "payable",
      "type": "function"
    },
    {
      "inputs": [
        {
          "internalType": "address",
          "name": "token",
          "type": "address"
        },
        {
          "internalType": "uint256",
          "name": "nonce",
          "type": "uint256"
        },
        {
          "internalType": "uint256",
          "name": "expiry",
          "type": "uint256"
        },
        {
          "internalType": "uint8",
          "name": "v",
          "type": "uint8"
        },
        {
          "internalType": "bytes32",
          "name": "r",
          "type": "bytes32"
        },
        {
          "internalType": "bytes32",
          "name": "s",
          "type": "bytes32"
        }
      ],
      "name": "selfPermitAllowed",
      "outputs": [],
      "stateMutability": "payable",
      "type": "function"
    },
    {
      "inputs": [
        {
          "internalType": "address",
          "name": "token",
          "type": "address"
        },
        {
          "internalType": "uint256",
          "name": "nonce",
          "type": "uint256"
        },
        {
          "internalType": "uint256",
          "name": "expiry",
          "type": "uint256"
        },
        {
          "internalType": "uint8",
          "name": "v",
          "type": "uint8"
        },
        {
          "internalType": "bytes32",
          "name": "r",
          "type": "bytes32"
        },
        {
          "internalType": "bytes32",
          "name": "s",
          "type": "bytes32"
        }
      ],
      "name": "selfPermitAllowedIfNecessary",
      "outputs": [],
      "stateMutability": "payable",
      "type": "function"
    },
    {
      "inputs": [
        {
          "internalType": "address",
          "name": "token",
          "type": "address"
        },
        {
          "internalType": "uint256",
          "name": "value",
          "type": "uint256"
        },
        {
          "internalType": "uint256",
          "name": "deadline",
          "type": "uint256"
        },
        {
          "internalType": "uint8",
          "name": "v",
          "type": "uint8"
        },
        {
          "internalType": "bytes32",
          "name": "r",
          "type": "bytes32"
        },
        {
          "internalType": "bytes32",
          "name": "s",
          "type": "bytes32"
        }
      ],
      "name": "selfPermitIfNecessary",
      "outputs": [],
      "stateMutability": "payable",
      "type": "function"
    },
    {
      "inputs": [
        {
          "internalType": "address",
          "name": "token",
          "type": "address"
        },
        {
          "internalType": "uint256",
          "name": "amount",
          "type": "uint256"
        },
        {
          "internalType": "address",
          "name": "recipient",
          "type": "address"
        },
        {
          "internalType": "bool",
          "name": "fromBento",
          "type": "bool"
        }
      ],
      "name": "sweep",
      "outputs": [],
      "stateMutability": "payable",
      "type": "function"
    },
    {
      "inputs": [
        {
          "internalType": "address",
          "name": "recipient",
          "type": "address"
        }
      ],
      "name": "unwrapWETH",
      "outputs": [],
      "stateMutability": "payable",
      "type": "function"
    },
    {
      "stateMutability": "payable",
      "type": "receive"
    }
  ],
  "transactionHash": "0x1be7df4b91e7f8c536fcefa1353b30f406bb4a404296a9aac9a1fc89f8685123",
  "args": [
    "0xF5BCE5077908a1b7370B9ae04AdC565EBd643966",
    "0x93395129bd3fcf49d95730d3c2737c17990ff328",
    "0xB4FBF271143F4FBf7B91A5ded31805e42b2208d6"
  ],
  "numDeployments": 1,
  "solcInputHash": "76e6dc96ea94c96e1c2463853d56dcaa",
  "bytecode": "0x60e06040523480156200001157600080fd5b50604051620038b7380380620038b78339810160408190526200003491620000c3565b6001600160a01b03808416608081905283821660a05290821660c0526040805163577268d960e11b8152905163aee4d1b29160048082019260009290919082900301818387803b1580156200008857600080fd5b505af11580156200009d573d6000803e3d6000fd5b5050505050505062000117565b6001600160a01b0381168114620000c057600080fd5b50565b600080600060608486031215620000d957600080fd5b8351620000e681620000aa565b6020850151909350620000f981620000aa565b60408501519092506200010c81620000aa565b809150509250925092565b60805160a05160c051613700620001b7600039600081816101800152818161127c015261132e0152600081816103ac015261095a0152600081816102d30152818161043401528181610669015281816109f701528181610caf01528181610f0001528181611762015281816119f501528181611b7101528181611dec01528181611f8a015281816120e201528181612274015261247701526137006000f3fe6080604052600436106101635760003560e01c8063783312d9116100c0578063b96c5c0e11610074578063c2e3140a11610059578063c2e3140a14610387578063cf58879a1461039a578063f3995c67146103ce57600080fd5b8063b96c5c0e14610361578063bc1086931461037457600080fd5b80639fa74491116100a55780639fa744911461031b578063a4a78f0c1461032e578063ac9650d81461034157600080fd5b8063783312d9146102f557806389a3f1361461030857600080fd5b80632c0d9a0111610117578063403335a8116100fc578063403335a81461029b5780634659a494146102ae5780634da31827146102c157600080fd5b80632c0d9a01146102755780632cfcb94f1461028857600080fd5b80630f93d439116101485780630f93d439146102175780631aa349a81461022a578063250558dc1461023d57600080fd5b8063018ee9b7146101de5780630b0d1b1e146101f157600080fd5b366101d9573373ffffffffffffffffffffffffffffffffffffffff7f000000000000000000000000000000000000000000000000000000000000000016146101d7576040517fe7218bb300000000000000000000000000000000000000000000000000000000815260040160405180910390fd5b005b600080fd5b6101d76101ec36600461294d565b6103e1565b6102046101ff366004612979565b610494565b6040519081526020015b60405180910390f35b6102046102253660046129bb565b610650565b6101d7610238366004612a3f565b610822565b61025061024b366004612aa3565b61091a565b60405173ffffffffffffffffffffffffffffffffffffffff909116815260200161020e565b610204610283366004612979565b6109de565b610204610296366004612af8565b610c1f565b6101d76102a9366004612bc4565b610eae565b6101d76102bc366004612bf7565b610f76565b3480156102cd57600080fd5b506102507f000000000000000000000000000000000000000000000000000000000000000081565b6101d7610303366004612c51565b611031565b6101d7610316366004612d0c565b61124b565b6102046103293660046129bb565b6113c4565b6101d761033c366004612bf7565b611400565b61035461034f366004612d29565b6114ca565b60405161020e9190612e14565b6101d761036f366004612e94565b61163a565b6101d7610382366004612edd565b612214565b6101d7610395366004612bf7565b61233d565b3480156103a657600080fd5b506102507f000000000000000000000000000000000000000000000000000000000000000081565b6101d76103dc366004612bf7565b6123e3565b6040517f66c6bb0b00000000000000000000000000000000000000000000000000000000815273ffffffffffffffffffffffffffffffffffffffff838116600483015260016024830152604482018390527f000000000000000000000000000000000000000000000000000000000000000016906366c6bb0b90606401600060405180830381600087803b15801561047857600080fd5b505af115801561048c573d6000803e3d6000fd5b505050505050565b60006104ee6104a66020840184612d0c565b6104b36060850185612f30565b60008181106104c4576104c4612f98565b90506020028101906104d69190612fc7565b6104e4906020810190612d0c565b8460200135612460565b60006104fd6060840184612f30565b9050905060005b8181101561060b576105196060850185612f30565b8281811061052957610529612f98565b905060200281019061053b9190612fc7565b610549906020810190612d0c565b73ffffffffffffffffffffffffffffffffffffffff1663627dd56a6105716060870187612f30565b8481811061058157610581612f98565b90506020028101906105939190612fc7565b6105a1906020810190613005565b6040518363ffffffff1660e01b81526004016105be9291906130b3565b6020604051808303816000875af11580156105dd573d6000803e3d6000fd5b505050506040513d601f19601f8201168201806040525081019061060191906130c7565b9250600101610504565b50826040013582101561064a576040517fc9f52c7100000000000000000000000000000000000000000000000000000000815260040160405180910390fd5b50919050565b600073ffffffffffffffffffffffffffffffffffffffff7f00000000000000000000000000000000000000000000000000000000000000001663f18d03cc61069e6080850160608601612d0c565b336106af6060870160408801612d0c565b6040517fffffffff0000000000000000000000000000000000000000000000000000000060e086901b16815273ffffffffffffffffffffffffffffffffffffffff93841660048201529183166024830152909116604482015284356064820152608401600060405180830381600087803b15801561072c57600080fd5b505af1158015610740573d6000803e3d6000fd5b50610755925050506060830160408401612d0c565b73ffffffffffffffffffffffffffffffffffffffff1663627dd56a61077d6080850185613005565b6040518363ffffffff1660e01b815260040161079a9291906130b3565b6020604051808303816000875af11580156107b9573d6000803e3d6000fd5b505050506040513d601f19601f820116820180604052508101906107dd91906130c7565b9050816020013581101561081d576040517fc9f52c7100000000000000000000000000000000000000000000000000000000815260040160405180910390fd5b919050565b61084473ffffffffffffffffffffffffffffffffffffffff861633878761255f565b6040517faf8c09bf00000000000000000000000000000000000000000000000000000000815260009073ffffffffffffffffffffffffffffffffffffffff87169063af8c09bf9061089b90879087906004016130b3565b6020604051808303816000875af11580156108ba573d6000803e3d6000fd5b505050506040513d601f19601f820116820180604052508101906108de91906130c7565b90508181101561048c576040517fc9f52c7100000000000000000000000000000000000000000000000000000000815260040160405180910390fd5b6040517f250558dc00000000000000000000000000000000000000000000000000000000815260009073ffffffffffffffffffffffffffffffffffffffff7f0000000000000000000000000000000000000000000000000000000000000000169063250558dc90610993908790879087906004016130e0565b6020604051808303816000875af11580156109b2573d6000803e3d6000fd5b505050506040513d601f19601f820116820180604052508101906109d69190613119565b949350505050565b600073ffffffffffffffffffffffffffffffffffffffff7f00000000000000000000000000000000000000000000000000000000000000001663f18d03cc610a296020850185612d0c565b33610a376060870187612f30565b6000818110610a4857610a48612f98565b9050602002810190610a5a9190612fc7565b610a68906020810190612d0c565b60405160e085901b7fffffffff0000000000000000000000000000000000000000000000000000000016815273ffffffffffffffffffffffffffffffffffffffff93841660048201529183166024830152909116604482015260208501356064820152608401600060405180830381600087803b158015610ae857600080fd5b505af1158015610afc573d6000803e3d6000fd5b5060009250610b119150506060840184612f30565b9050905060005b8181101561060b57610b2d6060850185612f30565b82818110610b3d57610b3d612f98565b9050602002810190610b4f9190612fc7565b610b5d906020810190612d0c565b73ffffffffffffffffffffffffffffffffffffffff1663627dd56a610b856060870187612f30565b84818110610b9557610b95612f98565b9050602002810190610ba79190612fc7565b610bb5906020810190613005565b6040518363ffffffff1660e01b8152600401610bd29291906130b3565b6020604051808303816000875af1158015610bf1573d6000803e3d6000fd5b505050506040513d601f19601f82011682018060405250810190610c1591906130c7565b9250600101610b18565b600085815b81811015610dcf57888882818110610c3e57610c3e612f98565b9050606002016020016020810190610c569190613136565b15610cad57610ca8898983818110610c7057610c70612f98565b610c869260206060909202019081019150612d0c565b888b8b85818110610c9957610c99612f98565b90506060020160400135612460565b610dc7565b7f000000000000000000000000000000000000000000000000000000000000000073ffffffffffffffffffffffffffffffffffffffff1663f18d03cc8a8a84818110610cfb57610cfb612f98565b610d119260206060909202019081019150612d0c565b338a8d8d87818110610d2557610d25612f98565b604080517fffffffff0000000000000000000000000000000000000000000000000000000060e08a901b16815273ffffffffffffffffffffffffffffffffffffffff978816600482015295871660248701529590931660448501525060609091020191909101356064820152608401600060405180830381600087803b158015610dae57600080fd5b505af1158015610dc2573d6000803e3d6000fd5b505050505b600101610c24565b506040517f7ba0e2e700000000000000000000000000000000000000000000000000000000815273ffffffffffffffffffffffffffffffffffffffff871690637ba0e2e790610e2490879087906004016130b3565b6020604051808303816000875af1158015610e43573d6000803e3d6000fd5b505050506040513d601f19601f82011682018060405250810190610e6791906130c7565b915084821015610ea3576040517f249942be00000000000000000000000000000000000000000000000000000000815260040160405180910390fd5b509695505050505050565b6040517fc0a47c930000000000000000000000000000000000000000000000000000000081523360048201523060248201526001604482015260ff841660648201526084810183905260a481018290527f000000000000000000000000000000000000000000000000000000000000000073ffffffffffffffffffffffffffffffffffffffff169063c0a47c939060c401600060405180830381600087803b158015610f5957600080fd5b505af1158015610f6d573d6000803e3d6000fd5b50505050505050565b6040517f8fcbaf0c00000000000000000000000000000000000000000000000000000000815233600482015230602482015260448101869052606481018590526001608482015260ff841660a482015260c4810183905260e4810182905273ffffffffffffffffffffffffffffffffffffffff871690638fcbaf0c90610104015b600060405180830381600087803b15801561101157600080fd5b505af1158015611025573d6000803e3d6000fd5b50505050505050505050565b61105373ffffffffffffffffffffffffffffffffffffffff871633888861255f565b6040517f2a07b6c700000000000000000000000000000000000000000000000000000000815260009073ffffffffffffffffffffffffffffffffffffffff881690632a07b6c7906110aa90889088906004016130b3565b6000604051808303816000875af11580156110c9573d6000803e3d6000fd5b505050506040513d6000823e601f3d9081017fffffffffffffffffffffffffffffffffffffffffffffffffffffffffffffffe016820160405261110f91908101906131fa565b90508160005b818110156112405782818151811061112f5761112f612f98565b60200260200101516000015173ffffffffffffffffffffffffffffffffffffffff1685858381811061116357611163612f98565b6111799260206040909202019081019150612d0c565b73ffffffffffffffffffffffffffffffffffffffff16146111c6576040517f2664ab9d00000000000000000000000000000000000000000000000000000000815260040160405180910390fd5b8484828181106111d8576111d8612f98565b905060400201602001358382815181106111f4576111f4612f98565b6020026020010151602001511015611238576040517fc9f52c7100000000000000000000000000000000000000000000000000000000815260040160405180910390fd5b600101611115565b505050505050505050565b6040517f70a082310000000000000000000000000000000000000000000000000000000081523060048201526000907f000000000000000000000000000000000000000000000000000000000000000073ffffffffffffffffffffffffffffffffffffffff16906370a0823190602401602060405180830381865afa1580156112d8573d6000803e3d6000fd5b505050506040513d601f19601f820116820180604052508101906112fc91906130c7565b6040517f2e1a7d4d000000000000000000000000000000000000000000000000000000008152600481018290529091507f000000000000000000000000000000000000000000000000000000000000000073ffffffffffffffffffffffffffffffffffffffff1690632e1a7d4d90602401600060405180830381600087803b15801561138757600080fd5b505af115801561139b573d6000803e3d6000fd5b506113c09250505073ffffffffffffffffffffffffffffffffffffffff8316826126d0565b5050565b60006113f06113d96080840160608501612d0c565b6113e96060850160408601612d0c565b8435612460565b6107556060830160408401612d0c565b6040517fdd62ed3e0000000000000000000000000000000000000000000000000000000081523360048201523060248201527fffffffffffffffffffffffffffffffffffffffffffffffffffffffffffffffff9073ffffffffffffffffffffffffffffffffffffffff88169063dd62ed3e90604401602060405180830381865afa158015611492573d6000803e3d6000fd5b505050506040513d601f19601f820116820180604052508101906114b691906130c7565b101561048c5761048c868686868686610f76565b60608167ffffffffffffffff8111156114e5576114e5613153565b60405190808252806020026020018201604052801561151857816020015b60608152602001906001900390816115035790505b50905060005b82811015611633576000803086868581811061153c5761153c612f98565b905060200281019061154e9190613005565b60405161155c9291906132d0565b600060405180830381855af49150503d8060008114611597576040519150601f19603f3d011682016040523d82523d6000602084013e61159c565b606091505b50915091508161160b576044815110156115b557600080fd5b600481019050808060200190518101906115cf91906132e0565b6040517f08c379a00000000000000000000000000000000000000000000000000000000081526004016116029190613392565b60405180910390fd5b8084848151811061161e5761161e612f98565b6020908102919091010152505060010161151e565b5092915050565b60006116468280612f30565b9050905060005b818110156119bf5761165f8380612f30565b8281811061166f5761166f612f98565b905060200281019061168191906133a5565b611692906060810190604001613136565b1561174b576117466116a48480612f30565b838181106116b4576116b4612f98565b90506020028101906116c691906133a5565b6116d4906020810190612d0c565b6116de8580612f30565b848181106116ee576116ee612f98565b905060200281019061170091906133a5565b611711906040810190602001612d0c565b61171b8680612f30565b8581811061172b5761172b612f98565b905060200281019061173d91906133a5565b60600135612460565b6118c4565b73ffffffffffffffffffffffffffffffffffffffff7f00000000000000000000000000000000000000000000000000000000000000001663f18d03cc6117918580612f30565b848181106117a1576117a1612f98565b90506020028101906117b391906133a5565b6117c1906020810190612d0c565b336117cc8780612f30565b868181106117dc576117dc612f98565b90506020028101906117ee91906133a5565b6117ff906040810190602001612d0c565b6118098880612f30565b8781811061181957611819612f98565b905060200281019061182b91906133a5565b60405160e086901b7fffffffff0000000000000000000000000000000000000000000000000000000016815273ffffffffffffffffffffffffffffffffffffffff94851660048201529284166024840152921660448201526060909101356064820152608401600060405180830381600087803b1580156118ab57600080fd5b505af11580156118bf573d6000803e3d6000fd5b505050505b6118ce8380612f30565b828181106118de576118de612f98565b90506020028101906118f091906133a5565b611901906040810190602001612d0c565b73ffffffffffffffffffffffffffffffffffffffff1663627dd56a6119268580612f30565b8481811061193657611936612f98565b905060200281019061194891906133a5565b611956906080810190613005565b6040518363ffffffff1660e01b81526004016119739291906130b3565b6020604051808303816000875af1158015611992573d6000803e3d6000fd5b505050506040513d601f19601f820116820180604052508101906119b691906130c7565b5060010161164d565b506119cd6020830183612f30565b9050905060005b81811015611db657600073ffffffffffffffffffffffffffffffffffffffff7f00000000000000000000000000000000000000000000000000000000000000001663f7888aec611a276020870187612f30565b85818110611a3757611a37612f98565b9050602002810190611a4991906133d9565b611a57906020810190612d0c565b6040517fffffffff0000000000000000000000000000000000000000000000000000000060e084901b16815273ffffffffffffffffffffffffffffffffffffffff9091166004820152306024820152604401602060405180830381865afa158015611ac6573d6000803e3d6000fd5b505050506040513d601f19601f82011682018060405250810190611aea91906130c7565b90506000611afa6008600a61355e565b611b076020870187612f30565b85818110611b1757611b17612f98565b9050602002810190611b2991906133d9565b611b3a90606081019060400161356d565b611b4e9067ffffffffffffffff1684613597565b611b5891906135d4565b905073ffffffffffffffffffffffffffffffffffffffff7f00000000000000000000000000000000000000000000000000000000000000001663f18d03cc611ba36020880188612f30565b86818110611bb357611bb3612f98565b9050602002810190611bc591906133d9565b611bd3906020810190612d0c565b30611be160208a018a612f30565b88818110611bf157611bf1612f98565b9050602002810190611c0391906133d9565b611c14906040810190602001612d0c565b60405160e085901b7fffffffff0000000000000000000000000000000000000000000000000000000016815273ffffffffffffffffffffffffffffffffffffffff93841660048201529183166024830152909116604482015260648101849052608401600060405180830381600087803b158015611c9157600080fd5b505af1158015611ca5573d6000803e3d6000fd5b50611cb7925050506020860186612f30565b84818110611cc757611cc7612f98565b9050602002810190611cd991906133d9565b611cea906040810190602001612d0c565b73ffffffffffffffffffffffffffffffffffffffff1663627dd56a611d126020880188612f30565b86818110611d2257611d22612f98565b9050602002810190611d3491906133d9565b611d42906060810190613005565b6040518363ffffffff1660e01b8152600401611d5f9291906130b3565b6020604051808303816000875af1158015611d7e573d6000803e3d6000fd5b505050506040513d601f19601f82011682018060405250810190611da291906130c7565b505050611daf8160010190565b90506119d4565b50611dc4604083018361360f565b9050905060005b8181101561220f57600073ffffffffffffffffffffffffffffffffffffffff7f00000000000000000000000000000000000000000000000000000000000000001663f7888aec611e1e604087018761360f565b85818110611e2e57611e2e612f98565b611e449260206080909202019081019150612d0c565b6040517fffffffff0000000000000000000000000000000000000000000000000000000060e084901b16815273ffffffffffffffffffffffffffffffffffffffff9091166004820152306024820152604401602060405180830381865afa158015611eb3573d6000803e3d6000fd5b505050506040513d601f19601f82011682018060405250810190611ed791906130c7565b9050611ee6604085018561360f565b83818110611ef657611ef6612f98565b90506080020160600135811015611f39576040517fc9f52c7100000000000000000000000000000000000000000000000000000000815260040160405180910390fd5b611f46604085018561360f565b83818110611f5657611f56612f98565b9050608002016040016020810190611f6e9190613136565b156120cb5773ffffffffffffffffffffffffffffffffffffffff7f0000000000000000000000000000000000000000000000000000000000000000166397da6d30611fbc604087018761360f565b85818110611fcc57611fcc612f98565b611fe29260206080909202019081019150612d0c565b30611ff0604089018961360f565b8781811061200057612000612f98565b90506080020160200160208101906120189190612d0c565b60405160e085901b7fffffffff0000000000000000000000000000000000000000000000000000000016815273ffffffffffffffffffffffffffffffffffffffff938416600482015291831660248301529091166044820152600060648201526084810184905260a40160408051808303816000875af11580156120a0573d6000803e3d6000fd5b505050506040513d601f19601f820116820180604052508101906120c49190613677565b5050612206565b73ffffffffffffffffffffffffffffffffffffffff7f00000000000000000000000000000000000000000000000000000000000000001663f18d03cc612114604087018761360f565b8581811061212457612124612f98565b61213a9260206080909202019081019150612d0c565b30612148604089018961360f565b8781811061215857612158612f98565b90506080020160200160208101906121709190612d0c565b60405160e085901b7fffffffff0000000000000000000000000000000000000000000000000000000016815273ffffffffffffffffffffffffffffffffffffffff93841660048201529183166024830152909116604482015260648101849052608401600060405180830381600087803b1580156121ed57600080fd5b505af1158015612201573d6000803e3d6000fd5b505050505b50600101611dcb565b505050565b80156122d5576040517ff18d03cc00000000000000000000000000000000000000000000000000000000815273ffffffffffffffffffffffffffffffffffffffff85811660048301523060248301528381166044830152606482018590527f0000000000000000000000000000000000000000000000000000000000000000169063f18d03cc90608401600060405180830381600087803b1580156122b857600080fd5b505af11580156122cc573d6000803e3d6000fd5b50505050612337565b73ffffffffffffffffffffffffffffffffffffffff8416156123175761231273ffffffffffffffffffffffffffffffffffffffff851683856127b4565b612337565b61233773ffffffffffffffffffffffffffffffffffffffff8316476126d0565b50505050565b6040517fdd62ed3e000000000000000000000000000000000000000000000000000000008152336004820152306024820152859073ffffffffffffffffffffffffffffffffffffffff88169063dd62ed3e90604401602060405180830381865afa1580156123af573d6000803e3d6000fd5b505050506040513d601f19601f820116820180604052508101906123d391906130c7565b101561048c5761048c8686868686865b6040517fd505accf000000000000000000000000000000000000000000000000000000008152336004820152306024820152604481018690526064810185905260ff8416608482015260a4810183905260c4810182905273ffffffffffffffffffffffffffffffffffffffff87169063d505accf9060e401610ff7565b73ffffffffffffffffffffffffffffffffffffffff7f00000000000000000000000000000000000000000000000000000000000000008116906302b9446c908516156124ad5760006124af565b825b6040517fffffffff0000000000000000000000000000000000000000000000000000000060e084901b16815273ffffffffffffffffffffffffffffffffffffffff808816600483015233602483015286166044820152606481018590526000608482015260a401604080518083038185885af1158015612533573d6000803e3d6000fd5b50505050506040513d601f19601f820116820180604052508101906125589190613677565b5050505050565b6040805173ffffffffffffffffffffffffffffffffffffffff85811660248301528481166044830152606480830185905283518084039091018152608490920183526020820180517bffffffffffffffffffffffffffffffffffffffffffffffffffffffff167f23b872dd0000000000000000000000000000000000000000000000000000000017905291516000928392908816916125fe919061369b565b6000604051808303816000865af19150503d806000811461263b576040519150601f19603f3d011682016040523d82523d6000602084013e612640565b606091505b509150915081801561266a57508051158061266a57508080602001905181019061266a91906136ad565b61048c576040517f08c379a000000000000000000000000000000000000000000000000000000000815260206004820152600360248201527f53544600000000000000000000000000000000000000000000000000000000006044820152606401611602565b6040805160008082526020820190925273ffffffffffffffffffffffffffffffffffffffff8416908390604051612707919061369b565b60006040518083038185875af1925050503d8060008114612744576040519150601f19603f3d011682016040523d82523d6000602084013e612749565b606091505b505090508061220f576040517f08c379a000000000000000000000000000000000000000000000000000000000815260206004820152600360248201527f53544500000000000000000000000000000000000000000000000000000000006044820152606401611602565b6040805173ffffffffffffffffffffffffffffffffffffffff8481166024830152604480830185905283518084039091018152606490920183526020820180517bffffffffffffffffffffffffffffffffffffffffffffffffffffffff167fa9059cbb00000000000000000000000000000000000000000000000000000000179052915160009283929087169161284b919061369b565b6000604051808303816000865af19150503d8060008114612888576040519150601f19603f3d011682016040523d82523d6000602084013e61288d565b606091505b50915091508180156128b75750805115806128b75750808060200190518101906128b791906136ad565b612558576040517f08c379a000000000000000000000000000000000000000000000000000000000815260206004820152600260248201527f53540000000000000000000000000000000000000000000000000000000000006044820152606401611602565b73ffffffffffffffffffffffffffffffffffffffff8116811461293f57600080fd5b50565b803561081d8161291d565b6000806040838503121561296057600080fd5b823561296b8161291d565b946020939093013593505050565b60006020828403121561298b57600080fd5b813567ffffffffffffffff8111156129a257600080fd5b8201608081850312156129b457600080fd5b9392505050565b6000602082840312156129cd57600080fd5b813567ffffffffffffffff8111156129e457600080fd5b820160a081850312156129b457600080fd5b60008083601f840112612a0857600080fd5b50813567ffffffffffffffff811115612a2057600080fd5b602083019150836020828501011115612a3857600080fd5b9250929050565b600080600080600060808688031215612a5757600080fd5b8535612a628161291d565b945060208601359350604086013567ffffffffffffffff811115612a8557600080fd5b612a91888289016129f6565b96999598509660600135949350505050565b600080600060408486031215612ab857600080fd5b8335612ac38161291d565b9250602084013567ffffffffffffffff811115612adf57600080fd5b612aeb868287016129f6565b9497909650939450505050565b60008060008060008060808789031215612b1157600080fd5b863567ffffffffffffffff80821115612b2957600080fd5b818901915089601f830112612b3d57600080fd5b813581811115612b4c57600080fd5b8a6020606083028501011115612b6157600080fd5b60208301985080975050612b7760208a01612942565b9550604089013594506060890135915080821115612b9457600080fd5b50612ba189828a016129f6565b979a9699509497509295939492505050565b803560ff8116811461081d57600080fd5b600080600060608486031215612bd957600080fd5b612be284612bb3565b95602085013595506040909401359392505050565b60008060008060008060c08789031215612c1057600080fd5b8635612c1b8161291d565b95506020870135945060408701359350612c3760608801612bb3565b92506080870135915060a087013590509295509295509295565b60008060008060008060808789031215612c6a57600080fd5b8635612c758161291d565b955060208701359450604087013567ffffffffffffffff80821115612c9957600080fd5b612ca58a838b016129f6565b90965094506060890135915080821115612cbe57600080fd5b818901915089601f830112612cd257600080fd5b813581811115612ce157600080fd5b8a60208260061b8501011115612cf657600080fd5b6020830194508093505050509295509295509295565b600060208284031215612d1e57600080fd5b81356129b48161291d565b60008060208385031215612d3c57600080fd5b823567ffffffffffffffff80821115612d5457600080fd5b818501915085601f830112612d6857600080fd5b813581811115612d7757600080fd5b8660208260051b8501011115612d8c57600080fd5b60209290920196919550909350505050565b60005b83811015612db9578181015183820152602001612da1565b838111156123375750506000910152565b60008151808452612de2816020860160208601612d9e565b601f017fffffffffffffffffffffffffffffffffffffffffffffffffffffffffffffffe0169290920160200192915050565b6000602080830181845280855180835260408601915060408160051b870101925083870160005b82811015612e87577fffffffffffffffffffffffffffffffffffffffffffffffffffffffffffffffc0888603018452612e75858351612dca565b94509285019290850190600101612e3b565b5092979650505050505050565b600060208284031215612ea657600080fd5b813567ffffffffffffffff811115612ebd57600080fd5b8201606081850312156129b457600080fd5b801515811461293f57600080fd5b60008060008060808587031215612ef357600080fd5b8435612efe8161291d565b9350602085013592506040850135612f158161291d565b91506060850135612f2581612ecf565b939692955090935050565b60008083357fffffffffffffffffffffffffffffffffffffffffffffffffffffffffffffffe1843603018112612f6557600080fd5b83018035915067ffffffffffffffff821115612f8057600080fd5b6020019150600581901b3603821315612a3857600080fd5b7f4e487b7100000000000000000000000000000000000000000000000000000000600052603260045260246000fd5b600082357fffffffffffffffffffffffffffffffffffffffffffffffffffffffffffffffc1833603018112612ffb57600080fd5b9190910192915050565b60008083357fffffffffffffffffffffffffffffffffffffffffffffffffffffffffffffffe184360301811261303a57600080fd5b83018035915067ffffffffffffffff82111561305557600080fd5b602001915036819003821315612a3857600080fd5b8183528181602085013750600060208284010152600060207fffffffffffffffffffffffffffffffffffffffffffffffffffffffffffffffe0601f840116840101905092915050565b6020815260006109d660208301848661306a565b6000602082840312156130d957600080fd5b5051919050565b73ffffffffffffffffffffffffffffffffffffffff8416815260406020820152600061311060408301848661306a565b95945050505050565b60006020828403121561312b57600080fd5b81516129b48161291d565b60006020828403121561314857600080fd5b81356129b481612ecf565b7f4e487b7100000000000000000000000000000000000000000000000000000000600052604160045260246000fd5b6040805190810167ffffffffffffffff811182821017156131a5576131a5613153565b60405290565b604051601f82017fffffffffffffffffffffffffffffffffffffffffffffffffffffffffffffffe016810167ffffffffffffffff811182821017156131f2576131f2613153565b604052919050565b6000602080838503121561320d57600080fd5b825167ffffffffffffffff8082111561322557600080fd5b818501915085601f83011261323957600080fd5b81518181111561324b5761324b613153565b613259848260051b016131ab565b818152848101925060069190911b83018401908782111561327957600080fd5b928401925b818410156132c557604084890312156132975760008081fd5b61329f613182565b84516132aa8161291d565b8152848601518682015283526040909301929184019161327e565b979650505050505050565b8183823760009101908152919050565b6000602082840312156132f257600080fd5b815167ffffffffffffffff8082111561330a57600080fd5b818401915084601f83011261331e57600080fd5b81518181111561333057613330613153565b61336160207fffffffffffffffffffffffffffffffffffffffffffffffffffffffffffffffe0601f840116016131ab565b915080825285602082850101111561337857600080fd5b613389816020840160208601612d9e565b50949350505050565b6020815260006129b46020830184612dca565b600082357fffffffffffffffffffffffffffffffffffffffffffffffffffffffffffffff61833603018112612ffb57600080fd5b600082357fffffffffffffffffffffffffffffffffffffffffffffffffffffffffffffff81833603018112612ffb57600080fd5b7f4e487b7100000000000000000000000000000000000000000000000000000000600052601160045260246000fd5b600181815b8085111561349557817fffffffffffffffffffffffffffffffffffffffffffffffffffffffffffffffff0482111561347b5761347b61340d565b8085161561348857918102915b93841c9390800290613441565b509250929050565b6000826134ac57506001613558565b816134b957506000613558565b81600181146134cf57600281146134d9576134f5565b6001915050613558565b60ff8411156134ea576134ea61340d565b50506001821b613558565b5060208310610133831016604e8410600b8410161715613518575081810a613558565b613522838361343c565b807fffffffffffffffffffffffffffffffffffffffffffffffffffffffffffffffff048211156135545761355461340d565b0290505b92915050565b60006129b460ff84168361349d565b60006020828403121561357f57600080fd5b813567ffffffffffffffff811681146129b457600080fd5b6000817fffffffffffffffffffffffffffffffffffffffffffffffffffffffffffffffff04831182151516156135cf576135cf61340d565b500290565b60008261360a577f4e487b7100000000000000000000000000000000000000000000000000000000600052601260045260246000fd5b500490565b60008083357fffffffffffffffffffffffffffffffffffffffffffffffffffffffffffffffe184360301811261364457600080fd5b83018035915067ffffffffffffffff82111561365f57600080fd5b6020019150600781901b3603821315612a3857600080fd5b6000806040838503121561368a57600080fd5b505080516020909101519092909150565b60008251612ffb818460208701612d9e565b6000602082840312156136bf57600080fd5b81516129b481612ecf56fea26469706673582212207bdfecd1cc0f1c4960e03fe61c1814146d9c65e1721da4eb4591e5406c25a1bb64736f6c634300080a0033",
  "devdoc": {
    "errors": {
      "NotWethSender()": [
        {
          "details": "Custom Errors"
        }
      ]
    },
    "kind": "dev",
    "methods": {
      "addLiquidity((address,bool,uint256)[],address,uint256,bytes)": {
        "params": {
          "data": "Data required by the pool to add liquidity.",
          "minLiquidity": "Minimum output liquidity - caps slippage.",
          "pool": "Pool address to add liquidity to.",
          "tokenInput": "Token address and amount to add as liquidity."
        }
      },
      "burnLiquidity(address,uint256,bytes,(address,uint256)[])": {
        "params": {
          "data": "Data required by the pool to burn liquidity.",
          "liquidity": "Amount of liquidity tokens to burn.",
          "minWithdrawals": "Minimum amount of `bento` tokens to be returned.",
          "pool": "Pool address."
        }
      },
      "burnLiquiditySingle(address,uint256,bytes,uint256)": {
        "details": "The tokens are swapped automatically and the output is in a single token.",
        "params": {
          "data": "Data required by the pool to burn liquidity.",
          "liquidity": "Amount of liquidity tokens to burn.",
          "minWithdrawal": "Minimum amount of tokens to be returned.",
          "pool": "Pool address."
        }
      },
      "complexPath(((address,address,bool,uint256,bytes)[],(address,address,uint64,bytes)[],(address,address,bool,uint256)[]))": {
        "details": "This function is not optimized for single swaps and should only be used in complex cases where the amounts are large enough that minimizing slippage by using multiple paths is worth the extra gas.",
        "params": {
          "params": "This includes everything needed for the swap. Look at the `ComplexPathParams` struct for more details."
        }
      },
      "exactInput((address,uint256,uint256,(address,bytes)[]))": {
        "details": "Ensure that the pools are trusted before calling this function. The pools can steal users' tokens.",
        "params": {
          "params": "This includes the addresses of the tokens, pools, amount of token A to swap, minimum amount of token B after the swap and data required by the pools for the swaps."
        }
      },
      "exactInputSingle((uint256,uint256,address,address,bytes))": {
        "details": "Ensure that the pool is trusted before calling this function. The pool can steal users' tokens.",
        "params": {
          "params": "This includes the address of token A, pool, amount of token A to swap, minimum amount of token B after the swap and data required by the pool for the swap."
        }
      },
      "exactInputSingleWithNativeToken((uint256,uint256,address,address,bytes))": {
        "details": "Ensure that the pool is trusted before calling this function. The pool can steal users' tokens.",
        "params": {
          "params": "This includes the address of token A, pool, amount of token A to swap, minimum amount of token B after the swap and data required by the pool for the swap."
        }
      },
      "exactInputWithNativeToken((address,uint256,uint256,(address,bytes)[]))": {
        "details": "Ensure that the pools are trusted before calling this function. The pools can steal users' tokens.",
        "params": {
          "params": "This includes the addresses of the tokens, pools, amount of token A to swap, minimum amount of token B after the swap and data required by the pools for the swaps."
        }
      },
      "harvest(address,uint256)": {
        "details": "Should be batched in before a swap."
      }
    },
    "version": 1
  },
  "userdoc": {
    "kind": "user",
    "methods": {
      "addLiquidity((address,bool,uint256)[],address,uint256,bytes)": {
        "notice": "Add liquidity to a pool."
      },
      "approveMasterContract(uint8,bytes32,bytes32)": {
        "notice": "Wrapper function to allow bento set master contract approval to be batched, so the first trade can happen in one transaction."
      },
      "bento()": {
        "notice": "BentoBox token vault."
      },
      "burnLiquidity(address,uint256,bytes,(address,uint256)[])": {
        "notice": "Burn liquidity tokens to get back `bento` tokens."
      },
      "burnLiquiditySingle(address,uint256,bytes,uint256)": {
        "notice": "Burn liquidity tokens to get back `bento` tokens."
      },
      "complexPath(((address,address,bool,uint256,bytes)[],(address,address,uint64,bytes)[],(address,address,bool,uint256)[]))": {
        "notice": "Swaps multiple input tokens to multiple output tokens using multiple paths, in different percentages. For example, you can swap 50 DAI + 100 USDC into 60% ETH and 40% BTC."
      },
      "deployPool(address,bytes)": {
        "notice": "Wrapper function to allow pool deployment to be batched."
      },
      "exactInput((address,uint256,uint256,(address,bytes)[]))": {
        "notice": "Swaps token A to token B indirectly by using multiple hops."
      },
      "exactInputSingle((uint256,uint256,address,address,bytes))": {
        "notice": "Swaps token A to token B directly. Swaps are done on `bento` tokens."
      },
      "exactInputSingleWithNativeToken((uint256,uint256,address,address,bytes))": {
        "notice": "Swaps token A to token B directly. It's the same as `exactInputSingle` except it takes raw ERC-20 tokens from the users and deposits them into `bento`."
      },
      "exactInputWithNativeToken((address,uint256,uint256,(address,bytes)[]))": {
        "notice": "Swaps token A to token B indirectly by using multiple hops. It's the same as `exactInput` except it takes raw ERC-20 tokens from the users and deposits them into `bento`."
      },
      "harvest(address,uint256)": {
        "notice": "Call BentoBox harvest function to rebalance a BentoBox token strategy and ensure there are enough tokens available to withdraw a swap output."
      },
      "masterDeployer()": {
        "notice": "Master deployer."
      },
      "sweep(address,uint256,address,bool)": {
        "notice": "Recover mistakenly sent tokens."
      },
      "unwrapWETH(address)": {
        "notice": "Unwrap this contract's wETH into ETH."
      }
    },
    "notice": "Router contract that helps in swapping across Trident pools.",
    "version": 1
  },
  "storageLayout": {
    "storage": [],
    "types": null
  }
}