{
  "address": "0x93395129bd3fcf49d95730D3C2737c17990fF328",
  "abi": [
    {
      "inputs": [
        {
          "internalType": "contract IBentoBoxMinimal",
          "name": "_bentoBox",
          "type": "address"
        },
        {
          "internalType": "contract IPoolFactory",
          "name": "_poolFactoryCP",
          "type": "address"
        },
        {
          "internalType": "contract IMasterDeployer",
          "name": "_masterDeployer",
          "type": "address"
        }
      ],
      "stateMutability": "nonpayable",
      "type": "constructor"
    },
    {
      "inputs": [],
      "name": "MinimumOutput",
      "type": "error"
    },
    {
      "inputs": [],
      "name": "bentoBox",
      "outputs": [
        {
          "internalType": "contract IBentoBoxMinimal",
          "name": "",
          "type": "address"
        }
      ],
      "stateMutability": "view",
      "type": "function"
    },
    {
      "inputs": [],
      "name": "masterDeployer",
      "outputs": [
        {
          "internalType": "contract IMasterDeployer",
          "name": "",
          "type": "address"
        }
      ],
      "stateMutability": "view",
      "type": "function"
    },
    {
      "inputs": [
        {
          "internalType": "contract IConstantProductPool",
          "name": "currentPool",
          "type": "address"
        },
        {
          "internalType": "uint256",
          "name": "amount",
          "type": "uint256"
        },
        {
          "internalType": "uint256",
          "name": "swapFee",
          "type": "uint256"
        },
        {
          "internalType": "bool",
          "name": "twapSupport",
          "type": "bool"
        },
        {
          "internalType": "uint256",
          "name": "minToken0Received",
          "type": "uint256"
        },
        {
          "internalType": "uint256",
          "name": "minToken1Received",
          "type": "uint256"
        },
        {
          "internalType": "uint256",
          "name": "minLpReceived",
          "type": "uint256"
        }
      ],
      "name": "migrateCP",
      "outputs": [
        {
          "internalType": "uint256",
          "name": "liquidity",
          "type": "uint256"
        }
      ],
      "stateMutability": "nonpayable",
      "type": "function"
    },
    {
      "inputs": [
        {
          "internalType": "contract IUniswapV2Minimal",
          "name": "pair",
          "type": "address"
        },
        {
          "internalType": "uint256",
          "name": "amount",
          "type": "uint256"
        },
        {
          "internalType": "uint256",
          "name": "swapFee",
          "type": "uint256"
        },
        {
          "internalType": "bool",
          "name": "twapSupport",
          "type": "bool"
        },
        {
          "internalType": "uint256",
          "name": "minToken0Received",
          "type": "uint256"
        },
        {
          "internalType": "uint256",
          "name": "minToken1Received",
          "type": "uint256"
        },
        {
          "internalType": "uint256",
          "name": "minLpReceived",
          "type": "uint256"
        }
      ],
      "name": "migrateLegacyToCP",
      "outputs": [
        {
          "internalType": "uint256",
          "name": "liquidity",
          "type": "uint256"
        }
      ],
      "stateMutability": "nonpayable",
      "type": "function"
    },
    {
      "inputs": [
        {
          "internalType": "bytes[]",
          "name": "data",
          "type": "bytes[]"
        }
      ],
      "name": "multicall",
      "outputs": [
        {
          "internalType": "bytes[]",
          "name": "results",
          "type": "bytes[]"
        }
      ],
      "stateMutability": "payable",
      "type": "function"
    },
    {
      "inputs": [],
      "name": "poolFactoryCP",
      "outputs": [
        {
          "internalType": "contract IPoolFactory",
          "name": "",
          "type": "address"
        }
      ],
      "stateMutability": "view",
      "type": "function"
    },
    {
      "inputs": [
        {
          "internalType": "address",
          "name": "token",
          "type": "address"
        },
        {
          "internalType": "uint256",
          "name": "value",
          "type": "uint256"
        },
        {
          "internalType": "uint256",
          "name": "deadline",
          "type": "uint256"
        },
        {
          "internalType": "uint8",
          "name": "v",
          "type": "uint8"
        },
        {
          "internalType": "bytes32",
          "name": "r",
          "type": "bytes32"
        },
        {
          "internalType": "bytes32",
          "name": "s",
          "type": "bytes32"
        }
      ],
      "name": "selfPermit",
      "outputs": [],
      "stateMutability": "payable",
      "type": "function"
    },
    {
      "inputs": [
        {
          "internalType": "address",
          "name": "token",
          "type": "address"
        },
        {
          "internalType": "uint256",
          "name": "nonce",
          "type": "uint256"
        },
        {
          "internalType": "uint256",
          "name": "expiry",
          "type": "uint256"
        },
        {
          "internalType": "uint8",
          "name": "v",
          "type": "uint8"
        },
        {
          "internalType": "bytes32",
          "name": "r",
          "type": "bytes32"
        },
        {
          "internalType": "bytes32",
          "name": "s",
          "type": "bytes32"
        }
      ],
      "name": "selfPermitAllowed",
      "outputs": [],
      "stateMutability": "payable",
      "type": "function"
    },
    {
      "inputs": [
        {
          "internalType": "address",
          "name": "token",
          "type": "address"
        },
        {
          "internalType": "uint256",
          "name": "nonce",
          "type": "uint256"
        },
        {
          "internalType": "uint256",
          "name": "expiry",
          "type": "uint256"
        },
        {
          "internalType": "uint8",
          "name": "v",
          "type": "uint8"
        },
        {
          "internalType": "bytes32",
          "name": "r",
          "type": "bytes32"
        },
        {
          "internalType": "bytes32",
          "name": "s",
          "type": "bytes32"
        }
      ],
      "name": "selfPermitAllowedIfNecessary",
      "outputs": [],
      "stateMutability": "payable",
      "type": "function"
    },
    {
      "inputs": [
        {
          "internalType": "address",
          "name": "token",
          "type": "address"
        },
        {
          "internalType": "uint256",
          "name": "value",
          "type": "uint256"
        },
        {
          "internalType": "uint256",
          "name": "deadline",
          "type": "uint256"
        },
        {
          "internalType": "uint8",
          "name": "v",
          "type": "uint8"
        },
        {
          "internalType": "bytes32",
          "name": "r",
          "type": "bytes32"
        },
        {
          "internalType": "bytes32",
          "name": "s",
          "type": "bytes32"
        }
      ],
      "name": "selfPermitIfNecessary",
      "outputs": [],
      "stateMutability": "payable",
      "type": "function"
    }
  ],
  "transactionHash": "0x58d3edad377fa5b81a24e51bd8e234c57e31dce73462fdc12c9e4c734496c0e7",
  "args": [
    "0xE2d7F5dd869Fc7c126D21b13a9080e75a4bDb324",
    "0xF4d73326C13a4Fc5FD7A064217e12780e9Bd62c3",
    "0x80C7DD17B01855a6D2347444a0FCC36136a314de"
  ],
  "numDeployments": 1,
  "solcInputHash": "664d3baee6b839216522193aed1ed62c",
  "bytecode": "0x60e06040523480156200001157600080fd5b5060405162001ab538038062001ab583398101604081905262000034916200006b565b6001600160a01b0392831660805290821660a0521660c052620000bf565b6001600160a01b03811681146200006857600080fd5b50565b6000806000606084860312156200008157600080fd5b83516200008e8162000052565b6020850151909350620000a18162000052565b6040850151909250620000b48162000052565b809150509250925092565b60805160a05160c0516119876200012e60003960008181610203015281816105480152610b360152600081816101cf0152818161046c0152818161057501528181610a5a0152610b6301526000818161013001528181610caf01528181610db50152610e8601526119876000f3fe6080604052600436106100b15760003560e01c8063ac9650d811610069578063c98ce1c91161004e578063c98ce1c9146101bd578063cf58879a146101f1578063f3995c671461022557600080fd5b8063ac9650d81461018a578063c2e3140a146101aa57600080fd5b806354b6ee591161009a57806354b6ee59146100fe5780636b2ace871461011e578063a4a78f0c1461017757600080fd5b80634659a494146100b6578063543d0ee9146100cb575b600080fd5b6100c96100c43660046112ca565b610238565b005b3480156100d757600080fd5b506100eb6100e636600461133a565b6102f3565b6040519081526020015b60405180910390f35b34801561010a57600080fd5b506100eb61011936600461133a565b6108ce565b34801561012a57600080fd5b506101527f000000000000000000000000000000000000000000000000000000000000000081565b60405173ffffffffffffffffffffffffffffffffffffffff90911681526020016100f5565b6100c96101853660046112ca565b610f40565b61019d61019836600461139f565b611012565b6040516100f5919061148e565b6100c96101b83660046112ca565b611182565b3480156101c957600080fd5b506101527f000000000000000000000000000000000000000000000000000000000000000081565b3480156101fd57600080fd5b506101527f000000000000000000000000000000000000000000000000000000000000000081565b6100c96102333660046112ca565b611228565b6040517f8fcbaf0c00000000000000000000000000000000000000000000000000000000815233600482015230602482015260448101869052606481018590526001608482015260ff841660a482015260c4810183905260e4810182905273ffffffffffffffffffffffffffffffffffffffff871690638fcbaf0c90610104015b600060405180830381600087803b1580156102d357600080fd5b505af11580156102e7573d6000803e3d6000fd5b50505050505050505050565b6000808873ffffffffffffffffffffffffffffffffffffffff166367e4ac2c6040518163ffffffff1660e01b8152600401600060405180830381865afa158015610341573d6000803e3d6000fd5b505050506040513d6000823e601f3d9081017fffffffffffffffffffffffffffffffffffffffffffffffffffffffffffffffe016820160405261038791908101906115d9565b905060008160008151811061039e5761039e611678565b6020026020010151826001815181106103b9576103b9611678565b60200260200101518989604051602001610407949392919073ffffffffffffffffffffffffffffffffffffffff94851681529290931660208301526040820152901515606082015260800190565b604080518083037fffffffffffffffffffffffffffffffffffffffffffffffffffffffffffffffe001815290829052805160208201207ff6ab6d99000000000000000000000000000000000000000000000000000000008352600483015291506000907f000000000000000000000000000000000000000000000000000000000000000073ffffffffffffffffffffffffffffffffffffffff169063f6ab6d99906024016020604051808303816000875af11580156104ca573d6000803e3d6000fd5b505050506040513d601f19601f820116820180604052508101906104ee91906116a7565b905073ffffffffffffffffffffffffffffffffffffffff81166105e5576040517f250558dc00000000000000000000000000000000000000000000000000000000815273ffffffffffffffffffffffffffffffffffffffff7f0000000000000000000000000000000000000000000000000000000000000000169063250558dc9061059f907f00000000000000000000000000000000000000000000000000000000000000009086906004016116cb565b6020604051808303816000875af11580156105be573d6000803e3d6000fd5b505050506040513d601f19601f820116820180604052508101906105e291906116a7565b90505b6040517f23b872dd00000000000000000000000000000000000000000000000000000000815233600482015273ffffffffffffffffffffffffffffffffffffffff8c1660248201819052604482018c9052906323b872dd906064016020604051808303816000875af115801561065f573d6000803e3d6000fd5b505050506040513d601f19601f820116820180604052508101906106839190611702565b506040805173ffffffffffffffffffffffffffffffffffffffff8381166020830152600082840181905283518084038501815260608401948590527f2a07b6c70000000000000000000000000000000000000000000000000000000090945292908e1691632a07b6c7916106f99160640161171f565b6000604051808303816000875af1158015610718573d6000803e3d6000fd5b505050506040513d6000823e601f3d9081017fffffffffffffffffffffffffffffffffffffffffffffffffffffffffffffffe016820160405261075e9190810190611732565b90506000808260008151811061077657610776611678565b6020026020010151602001518360018151811061079557610795611678565b60200260200101516020015191509150898210806107b257508881105b156107e9576040517f9b9d48e100000000000000000000000000000000000000000000000000000000815260040160405180910390fd5b6040805133602082015273ffffffffffffffffffffffffffffffffffffffff861691637ba0e2e791015b6040516020818303038152906040526040518263ffffffff1660e01b815260040161083e919061171f565b6020604051808303816000875af115801561085d573d6000803e3d6000fd5b505050506040513d601f19601f8201168201806040525081019061088191906117e6565b9650878710156108bd576040517f9b9d48e100000000000000000000000000000000000000000000000000000000815260040160405180910390fd5b505050505050979650505050505050565b6000808873ffffffffffffffffffffffffffffffffffffffff16630dfe16816040518163ffffffff1660e01b8152600401602060405180830381865afa15801561091c573d6000803e3d6000fd5b505050506040513d601f19601f8201168201806040525081019061094091906116a7565b905060008973ffffffffffffffffffffffffffffffffffffffff1663d21220a76040518163ffffffff1660e01b8152600401602060405180830381865afa15801561098f573d6000803e3d6000fd5b505050506040513d601f19601f820116820180604052508101906109b391906116a7565b6040805173ffffffffffffffffffffffffffffffffffffffff8086166020830152831691810191909152606081018a9052881515608082015290915060009060a001604080518083037fffffffffffffffffffffffffffffffffffffffffffffffffffffffffffffffe001815290829052805160208201207ff6ab6d99000000000000000000000000000000000000000000000000000000008352600483015291506000907f000000000000000000000000000000000000000000000000000000000000000073ffffffffffffffffffffffffffffffffffffffff169063f6ab6d99906024016020604051808303816000875af1158015610ab8573d6000803e3d6000fd5b505050506040513d601f19601f82011682018060405250810190610adc91906116a7565b905073ffffffffffffffffffffffffffffffffffffffff8116610bd3576040517f250558dc00000000000000000000000000000000000000000000000000000000815273ffffffffffffffffffffffffffffffffffffffff7f0000000000000000000000000000000000000000000000000000000000000000169063250558dc90610b8d907f00000000000000000000000000000000000000000000000000000000000000009086906004016116cb565b6020604051808303816000875af1158015610bac573d6000803e3d6000fd5b505050506040513d601f19601f82011682018060405250810190610bd091906116a7565b90505b6040517f23b872dd00000000000000000000000000000000000000000000000000000000815233600482015273ffffffffffffffffffffffffffffffffffffffff8d1660248201819052604482018d9052906323b872dd906064016020604051808303816000875af1158015610c4d573d6000803e3d6000fd5b505050506040513d601f19601f82011682018060405250810190610c719190611702565b506040517f89afcb4400000000000000000000000000000000000000000000000000000000815273ffffffffffffffffffffffffffffffffffffffff7f00000000000000000000000000000000000000000000000000000000000000008116600483015260009182918f16906389afcb449060240160408051808303816000875af1158015610d04573d6000803e3d6000fd5b505050506040513d601f19601f82011682018060405250810190610d2891906117ff565b9150915089821080610d3957508881105b15610d70576040517f9b9d48e100000000000000000000000000000000000000000000000000000000815260040160405180910390fd5b6040517f02b9446c00000000000000000000000000000000000000000000000000000000815273ffffffffffffffffffffffffffffffffffffffff87811660048301527f000000000000000000000000000000000000000000000000000000000000000081166024830181905290851660448301526064820184905260006084830152906302b9446c9060a40160408051808303816000875af1158015610e1b573d6000803e3d6000fd5b505050506040513d601f19601f82011682018060405250810190610e3f91906117ff565b50506040517f02b9446c00000000000000000000000000000000000000000000000000000000815273ffffffffffffffffffffffffffffffffffffffff86811660048301527f000000000000000000000000000000000000000000000000000000000000000081166024830181905290851660448301526064820183905260006084830152906302b9446c9060a40160408051808303816000875af1158015610eec573d6000803e3d6000fd5b505050506040513d601f19601f82011682018060405250810190610f1091906117ff565b50506040805133602082015273ffffffffffffffffffffffffffffffffffffffff851691637ba0e2e79101610813565b6040517fdd62ed3e0000000000000000000000000000000000000000000000000000000081523360048201523060248201527fffffffffffffffffffffffffffffffffffffffffffffffffffffffffffffffff9073ffffffffffffffffffffffffffffffffffffffff88169063dd62ed3e90604401602060405180830381865afa158015610fd2573d6000803e3d6000fd5b505050506040513d601f19601f82011682018060405250810190610ff691906117e6565b101561100a5761100a868686868686610238565b505050505050565b60608167ffffffffffffffff81111561102d5761102d61150e565b60405190808252806020026020018201604052801561106057816020015b606081526020019060019003908161104b5790505b50905060005b8281101561117b576000803086868581811061108457611084611678565b90506020028101906110969190611823565b6040516110a492919061188f565b600060405180830381855af49150503d80600081146110df576040519150601f19603f3d011682016040523d82523d6000602084013e6110e4565b606091505b509150915081611153576044815110156110fd57600080fd5b60048101905080806020019051810190611117919061189f565b6040517f08c379a000000000000000000000000000000000000000000000000000000000815260040161114a919061171f565b60405180910390fd5b8084848151811061116657611166611678565b60209081029190910101525050600101611066565b5092915050565b6040517fdd62ed3e000000000000000000000000000000000000000000000000000000008152336004820152306024820152859073ffffffffffffffffffffffffffffffffffffffff88169063dd62ed3e90604401602060405180830381865afa1580156111f4573d6000803e3d6000fd5b505050506040513d601f19601f8201168201806040525081019061121891906117e6565b101561100a5761100a8686868686865b6040517fd505accf000000000000000000000000000000000000000000000000000000008152336004820152306024820152604481018690526064810185905260ff8416608482015260a4810183905260c4810182905273ffffffffffffffffffffffffffffffffffffffff87169063d505accf9060e4016102b9565b73ffffffffffffffffffffffffffffffffffffffff811681146112c757600080fd5b50565b60008060008060008060c087890312156112e357600080fd5b86356112ee816112a5565b95506020870135945060408701359350606087013560ff8116811461131257600080fd5b9598949750929560808101359460a0909101359350915050565b80151581146112c757600080fd5b600080600080600080600060e0888a03121561135557600080fd5b8735611360816112a5565b96506020880135955060408801359450606088013561137e8161132c565b9699959850939660808101359560a0820135955060c0909101359350915050565b600080602083850312156113b257600080fd5b823567ffffffffffffffff808211156113ca57600080fd5b818501915085601f8301126113de57600080fd5b8135818111156113ed57600080fd5b8660208260051b850101111561140257600080fd5b60209290920196919550909350505050565b60005b8381101561142f578181015183820152602001611417565b8381111561143e576000848401525b50505050565b6000815180845261145c816020860160208601611414565b601f017fffffffffffffffffffffffffffffffffffffffffffffffffffffffffffffffe0169290920160200192915050565b6000602080830181845280855180835260408601915060408160051b870101925083870160005b82811015611501577fffffffffffffffffffffffffffffffffffffffffffffffffffffffffffffffc08886030184526114ef858351611444565b945092850192908501906001016114b5565b5092979650505050505050565b7f4e487b7100000000000000000000000000000000000000000000000000000000600052604160045260246000fd5b6040805190810167ffffffffffffffff811182821017156115605761156061150e565b60405290565b604051601f82017fffffffffffffffffffffffffffffffffffffffffffffffffffffffffffffffe016810167ffffffffffffffff811182821017156115ad576115ad61150e565b604052919050565b600067ffffffffffffffff8211156115cf576115cf61150e565b5060051b60200190565b600060208083850312156115ec57600080fd5b825167ffffffffffffffff81111561160357600080fd5b8301601f8101851361161457600080fd5b8051611627611622826115b5565b611566565b81815260059190911b8201830190838101908783111561164657600080fd5b928401925b8284101561166d57835161165e816112a5565b8252928401929084019061164b565b979650505050505050565b7f4e487b7100000000000000000000000000000000000000000000000000000000600052603260045260246000fd5b6000602082840312156116b957600080fd5b81516116c4816112a5565b9392505050565b73ffffffffffffffffffffffffffffffffffffffff831681526040602082015260006116fa6040830184611444565b949350505050565b60006020828403121561171457600080fd5b81516116c48161132c565b6020815260006116c46020830184611444565b6000602080838503121561174557600080fd5b825167ffffffffffffffff81111561175c57600080fd5b8301601f8101851361176d57600080fd5b805161177b611622826115b5565b81815260069190911b8201830190838101908783111561179a57600080fd5b928401925b8284101561166d57604084890312156117b85760008081fd5b6117c061153d565b84516117cb816112a5565b8152848601518682015282526040909301929084019061179f565b6000602082840312156117f857600080fd5b5051919050565b6000806040838503121561181257600080fd5b505080516020909101519092909150565b60008083357fffffffffffffffffffffffffffffffffffffffffffffffffffffffffffffffe184360301811261185857600080fd5b83018035915067ffffffffffffffff82111561187357600080fd5b60200191503681900382131561188857600080fd5b9250929050565b8183823760009101908152919050565b6000602082840312156118b157600080fd5b815167ffffffffffffffff808211156118c957600080fd5b818401915084601f8301126118dd57600080fd5b8151818111156118ef576118ef61150e565b61192060207fffffffffffffffffffffffffffffffffffffffffffffffffffffffffffffffe0601f84011601611566565b915080825285602082850101111561193757600080fd5b611948816020840160208601611414565b5094935050505056fea26469706673582212200dbb40c5db2ae38e1373d2fa446ad1508eed9a378de75f9f05e554dba1a9829d64736f6c634300080a0033",
  "devdoc": {
    "kind": "dev",
    "methods": {
      "migrateCP(address,uint256,uint256,bool,uint256,uint256,uint256)": {
        "details": "If the pool with the current conditions doesn't exist it will be deployed. ",
        "params": {
          "amount": "Liquidity amount (Lp token balance) to be migrated.",
          "currentPool": "Trident CP pool address we want to migrate from. Can be form an outdated CP factory.",
          "minLpReceived": "Slippage protection for minting liquidity on the Trident CP pool.",
          "minToken0Received": "Slippage protection for removing liquidity. Values are in BentoBox shares.",
          "minToken1Received": "Slippage protection for removing liquidity. Values are in BentoBox shares.",
          "swapFee": "Swap fee of the Trident CP pool we are migrating into.",
          "twapSupport": "Whether the Trident CP pool we are migrating into supports twap oracles."
        }
      },
      "migrateLegacyToCP(address,uint256,uint256,bool,uint256,uint256,uint256)": {
        "details": "If the pool with the current conditions doesn't exist it will be deployed. ",
        "params": {
          "amount": "Liquidity amount (Lp token balance) to be migrated.",
          "minLpReceived": "Slippage protection for minting liquidity on the Trident CP pool.",
          "minToken0Received": "Slippage protection for removing liquidity from a UniV2 style pool.",
          "minToken1Received": "Slippage protection for removing liquidity from a UniV2 style pool.",
          "pair": "Uniswap V2 style liquidity pool address.",
          "swapFee": "Swap fee of the Trident CP pool we are migrating into.",
          "twapSupport": "Whether the Trident CP pool we are migrating into supports twap oracles."
        }
      }
    },
    "version": 1
  },
  "userdoc": {
    "kind": "user",
    "methods": {
      "migrateCP(address,uint256,uint256,bool,uint256,uint256,uint256)": {
        "notice": "Function to migrate betewwn Trident CP pools with different fee / twap settings."
      },
      "migrateLegacyToCP(address,uint256,uint256,bool,uint256,uint256,uint256)": {
        "notice": "Function to migrate existing Sushiswap or other Uniswap V2 style pools to Trident."
      }
    },
    "notice": "Liquidity migrator from UniV2 style pool to Trident Constant product pool.",
    "version": 1
  },
  "storageLayout": {
    "storage": [],
    "types": null
  }
}