{
  "address": "0xB5891167796722331b7ea7824F036b3Bdcb4531C",
  "abi": [
    {
      "inputs": [
        {
          "internalType": "contract IERC20",
          "name": "wethToken_",
          "type": "address"
        }
      ],
      "stateMutability": "nonpayable",
      "type": "constructor"
    },
    {
      "anonymous": false,
      "inputs": [
        {
          "indexed": true,
          "internalType": "address",
          "name": "masterContract",
          "type": "address"
        },
        {
          "indexed": false,
          "internalType": "bytes",
          "name": "data",
          "type": "bytes"
        },
        {
          "indexed": true,
          "internalType": "address",
          "name": "cloneAddress",
          "type": "address"
        }
      ],
      "name": "LogDeploy",
      "type": "event"
    },
    {
      "anonymous": false,
      "inputs": [
        {
          "indexed": true,
          "internalType": "contract IERC20",
          "name": "token",
          "type": "address"
        },
        {
          "indexed": true,
          "internalType": "address",
          "name": "from",
          "type": "address"
        },
        {
          "indexed": true,
          "internalType": "address",
          "name": "to",
          "type": "address"
        },
        {
          "indexed": false,
          "internalType": "uint256",
          "name": "amount",
          "type": "uint256"
        },
        {
          "indexed": false,
          "internalType": "uint256",
          "name": "share",
          "type": "uint256"
        }
      ],
      "name": "LogDeposit",
      "type": "event"
    },
    {
      "anonymous": false,
      "inputs": [
        {
          "indexed": true,
          "internalType": "address",
          "name": "borrower",
          "type": "address"
        },
        {
          "indexed": true,
          "internalType": "contract IERC20",
          "name": "token",
          "type": "address"
        },
        {
          "indexed": false,
          "internalType": "uint256",
          "name": "amount",
          "type": "uint256"
        },
        {
          "indexed": false,
          "internalType": "uint256",
          "name": "feeAmount",
          "type": "uint256"
        },
        {
          "indexed": true,
          "internalType": "address",
          "name": "receiver",
          "type": "address"
        }
      ],
      "name": "LogFlashLoan",
      "type": "event"
    },
    {
      "anonymous": false,
      "inputs": [
        {
          "indexed": true,
          "internalType": "address",
          "name": "protocol",
          "type": "address"
        }
      ],
      "name": "LogRegisterProtocol",
      "type": "event"
    },
    {
      "anonymous": false,
      "inputs": [
        {
          "indexed": true,
          "internalType": "address",
          "name": "masterContract",
          "type": "address"
        },
        {
          "indexed": true,
          "internalType": "address",
          "name": "user",
          "type": "address"
        },
        {
          "indexed": false,
          "internalType": "bool",
          "name": "approved",
          "type": "bool"
        }
      ],
      "name": "LogSetMasterContractApproval",
      "type": "event"
    },
    {
      "anonymous": false,
      "inputs": [
        {
          "indexed": true,
          "internalType": "contract IERC20",
          "name": "token",
          "type": "address"
        },
        {
          "indexed": false,
          "internalType": "uint256",
          "name": "amount",
          "type": "uint256"
        }
      ],
      "name": "LogStrategyDivest",
      "type": "event"
    },
    {
      "anonymous": false,
      "inputs": [
        {
          "indexed": true,
          "internalType": "contract IERC20",
          "name": "token",
          "type": "address"
        },
        {
          "indexed": false,
          "internalType": "uint256",
          "name": "amount",
          "type": "uint256"
        }
      ],
      "name": "LogStrategyInvest",
      "type": "event"
    },
    {
      "anonymous": false,
      "inputs": [
        {
          "indexed": true,
          "internalType": "contract IERC20",
          "name": "token",
          "type": "address"
        },
        {
          "indexed": false,
          "internalType": "uint256",
          "name": "amount",
          "type": "uint256"
        }
      ],
      "name": "LogStrategyLoss",
      "type": "event"
    },
    {
      "anonymous": false,
      "inputs": [
        {
          "indexed": true,
          "internalType": "contract IERC20",
          "name": "token",
          "type": "address"
        },
        {
          "indexed": false,
          "internalType": "uint256",
          "name": "amount",
          "type": "uint256"
        }
      ],
      "name": "LogStrategyProfit",
      "type": "event"
    },
    {
      "anonymous": false,
      "inputs": [
        {
          "indexed": true,
          "internalType": "contract IERC20",
          "name": "token",
          "type": "address"
        },
        {
          "indexed": true,
          "internalType": "contract IStrategy",
          "name": "strategy",
          "type": "address"
        }
      ],
      "name": "LogStrategyQueued",
      "type": "event"
    },
    {
      "anonymous": false,
      "inputs": [
        {
          "indexed": true,
          "internalType": "contract IERC20",
          "name": "token",
          "type": "address"
        },
        {
          "indexed": true,
          "internalType": "contract IStrategy",
          "name": "strategy",
          "type": "address"
        }
      ],
      "name": "LogStrategySet",
      "type": "event"
    },
    {
      "anonymous": false,
      "inputs": [
        {
          "indexed": true,
          "internalType": "contract IERC20",
          "name": "token",
          "type": "address"
        },
        {
          "indexed": false,
          "internalType": "uint256",
          "name": "targetPercentage",
          "type": "uint256"
        }
      ],
      "name": "LogStrategyTargetPercentage",
      "type": "event"
    },
    {
      "anonymous": false,
      "inputs": [
        {
          "indexed": true,
          "internalType": "contract IERC20",
          "name": "token",
          "type": "address"
        },
        {
          "indexed": true,
          "internalType": "address",
          "name": "from",
          "type": "address"
        },
        {
          "indexed": true,
          "internalType": "address",
          "name": "to",
          "type": "address"
        },
        {
          "indexed": false,
          "internalType": "uint256",
          "name": "share",
          "type": "uint256"
        }
      ],
      "name": "LogTransfer",
      "type": "event"
    },
    {
      "anonymous": false,
      "inputs": [
        {
          "indexed": true,
          "internalType": "address",
          "name": "masterContract",
          "type": "address"
        },
        {
          "indexed": false,
          "internalType": "bool",
          "name": "approved",
          "type": "bool"
        }
      ],
      "name": "LogWhiteListMasterContract",
      "type": "event"
    },
    {
      "anonymous": false,
      "inputs": [
        {
          "indexed": true,
          "internalType": "contract IERC20",
          "name": "token",
          "type": "address"
        },
        {
          "indexed": true,
          "internalType": "address",
          "name": "from",
          "type": "address"
        },
        {
          "indexed": true,
          "internalType": "address",
          "name": "to",
          "type": "address"
        },
        {
          "indexed": false,
          "internalType": "uint256",
          "name": "amount",
          "type": "uint256"
        },
        {
          "indexed": false,
          "internalType": "uint256",
          "name": "share",
          "type": "uint256"
        }
      ],
      "name": "LogWithdraw",
      "type": "event"
    },
    {
      "anonymous": false,
      "inputs": [
        {
          "indexed": true,
          "internalType": "address",
          "name": "previousOwner",
          "type": "address"
        },
        {
          "indexed": true,
          "internalType": "address",
          "name": "newOwner",
          "type": "address"
        }
      ],
      "name": "OwnershipTransferred",
      "type": "event"
    },
    {
      "inputs": [
        {
          "internalType": "contract IERC20",
          "name": "",
          "type": "address"
        },
        {
          "internalType": "address",
          "name": "",
          "type": "address"
        }
      ],
      "name": "balanceOf",
      "outputs": [
        {
          "internalType": "uint256",
          "name": "",
          "type": "uint256"
        }
      ],
      "stateMutability": "view",
      "type": "function"
    },
    {
      "inputs": [
        {
          "internalType": "bytes[]",
          "name": "calls",
          "type": "bytes[]"
        },
        {
          "internalType": "bool",
          "name": "revertOnFail",
          "type": "bool"
        }
      ],
      "name": "batch",
      "outputs": [
        {
          "internalType": "bool[]",
          "name": "successes",
          "type": "bool[]"
        },
        {
          "internalType": "bytes[]",
          "name": "results",
          "type": "bytes[]"
        }
      ],
      "stateMutability": "payable",
      "type": "function"
    },
    {
      "inputs": [
        {
          "internalType": "contract IBatchFlashBorrower",
          "name": "borrower",
          "type": "address"
        },
        {
          "internalType": "address[]",
          "name": "receivers",
          "type": "address[]"
        },
        {
          "internalType": "contract IERC20[]",
          "name": "tokens",
          "type": "address[]"
        },
        {
          "internalType": "uint256[]",
          "name": "amounts",
          "type": "uint256[]"
        },
        {
          "internalType": "bytes",
          "name": "data",
          "type": "bytes"
        }
      ],
      "name": "batchFlashLoan",
      "outputs": [],
      "stateMutability": "nonpayable",
      "type": "function"
    },
    {
      "inputs": [],
      "name": "claimOwnership",
      "outputs": [],
      "stateMutability": "nonpayable",
      "type": "function"
    },
    {
      "inputs": [
        {
          "internalType": "address",
          "name": "masterContract",
          "type": "address"
        },
        {
          "internalType": "bytes",
          "name": "data",
          "type": "bytes"
        },
        {
          "internalType": "bool",
          "name": "useCreate2",
          "type": "bool"
        }
      ],
      "name": "deploy",
      "outputs": [],
      "stateMutability": "payable",
      "type": "function"
    },
    {
      "inputs": [
        {
          "internalType": "contract IERC20",
          "name": "token_",
          "type": "address"
        },
        {
          "internalType": "address",
          "name": "from",
          "type": "address"
        },
        {
          "internalType": "address",
          "name": "to",
          "type": "address"
        },
        {
          "internalType": "uint256",
          "name": "amount",
          "type": "uint256"
        },
        {
          "internalType": "uint256",
          "name": "share",
          "type": "uint256"
        }
      ],
      "name": "deposit",
      "outputs": [
        {
          "internalType": "uint256",
          "name": "amountOut",
          "type": "uint256"
        },
        {
          "internalType": "uint256",
          "name": "shareOut",
          "type": "uint256"
        }
      ],
      "stateMutability": "payable",
      "type": "function"
    },
    {
      "inputs": [
        {
          "internalType": "contract IFlashBorrower",
          "name": "borrower",
          "type": "address"
        },
        {
          "internalType": "address",
          "name": "receiver",
          "type": "address"
        },
        {
          "internalType": "contract IERC20",
          "name": "token",
          "type": "address"
        },
        {
          "internalType": "uint256",
          "name": "amount",
          "type": "uint256"
        },
        {
          "internalType": "bytes",
          "name": "data",
          "type": "bytes"
        }
      ],
      "name": "flashLoan",
      "outputs": [],
      "stateMutability": "nonpayable",
      "type": "function"
    },
    {
      "inputs": [
        {
          "internalType": "contract IERC20",
          "name": "token",
          "type": "address"
        },
        {
          "internalType": "bool",
          "name": "balance",
          "type": "bool"
        },
        {
          "internalType": "uint256",
          "name": "maxChangeAmount",
          "type": "uint256"
        }
      ],
      "name": "harvest",
      "outputs": [],
      "stateMutability": "nonpayable",
      "type": "function"
    },
    {
      "inputs": [
        {
          "internalType": "address",
          "name": "",
          "type": "address"
        },
        {
          "internalType": "address",
          "name": "",
          "type": "address"
        }
      ],
      "name": "masterContractApproved",
      "outputs": [
        {
          "internalType": "bool",
          "name": "",
          "type": "bool"
        }
      ],
      "stateMutability": "view",
      "type": "function"
    },
    {
      "inputs": [
        {
          "internalType": "address",
          "name": "",
          "type": "address"
        }
      ],
      "name": "masterContractOf",
      "outputs": [
        {
          "internalType": "address",
          "name": "",
          "type": "address"
        }
      ],
      "stateMutability": "view",
      "type": "function"
    },
    {
      "inputs": [
        {
          "internalType": "address",
          "name": "",
          "type": "address"
        }
      ],
      "name": "nonces",
      "outputs": [
        {
          "internalType": "uint256",
          "name": "",
          "type": "uint256"
        }
      ],
      "stateMutability": "view",
      "type": "function"
    },
    {
      "inputs": [],
      "name": "owner",
      "outputs": [
        {
          "internalType": "address",
          "name": "",
          "type": "address"
        }
      ],
      "stateMutability": "view",
      "type": "function"
    },
    {
      "inputs": [],
      "name": "pendingOwner",
      "outputs": [
        {
          "internalType": "address",
          "name": "",
          "type": "address"
        }
      ],
      "stateMutability": "view",
      "type": "function"
    },
    {
      "inputs": [
        {
          "internalType": "contract IERC20",
          "name": "",
          "type": "address"
        }
      ],
      "name": "pendingStrategy",
      "outputs": [
        {
          "internalType": "contract IStrategy",
          "name": "",
          "type": "address"
        }
      ],
      "stateMutability": "view",
      "type": "function"
    },
    {
      "inputs": [
        {
          "internalType": "contract IERC20",
          "name": "token",
          "type": "address"
        },
        {
          "internalType": "address",
          "name": "from",
          "type": "address"
        },
        {
          "internalType": "address",
          "name": "to",
          "type": "address"
        },
        {
          "internalType": "uint256",
          "name": "amount",
          "type": "uint256"
        },
        {
          "internalType": "uint256",
          "name": "deadline",
          "type": "uint256"
        },
        {
          "internalType": "uint8",
          "name": "v",
          "type": "uint8"
        },
        {
          "internalType": "bytes32",
          "name": "r",
          "type": "bytes32"
        },
        {
          "internalType": "bytes32",
          "name": "s",
          "type": "bytes32"
        }
      ],
      "name": "permitToken",
      "outputs": [],
      "stateMutability": "nonpayable",
      "type": "function"
    },
    {
      "inputs": [],
      "name": "registerProtocol",
      "outputs": [],
      "stateMutability": "nonpayable",
      "type": "function"
    },
    {
      "inputs": [
        {
          "internalType": "address",
          "name": "user",
          "type": "address"
        },
        {
          "internalType": "address",
          "name": "masterContract",
          "type": "address"
        },
        {
          "internalType": "bool",
          "name": "approved",
          "type": "bool"
        },
        {
          "internalType": "uint8",
          "name": "v",
          "type": "uint8"
        },
        {
          "internalType": "bytes32",
          "name": "r",
          "type": "bytes32"
        },
        {
          "internalType": "bytes32",
          "name": "s",
          "type": "bytes32"
        }
      ],
      "name": "setMasterContractApproval",
      "outputs": [],
      "stateMutability": "nonpayable",
      "type": "function"
    },
    {
      "inputs": [
        {
          "internalType": "contract IERC20",
          "name": "token",
          "type": "address"
        },
        {
          "internalType": "contract IStrategy",
          "name": "newStrategy",
          "type": "address"
        }
      ],
      "name": "setStrategy",
      "outputs": [],
      "stateMutability": "nonpayable",
      "type": "function"
    },
    {
      "inputs": [
        {
          "internalType": "contract IERC20",
          "name": "token",
          "type": "address"
        },
        {
          "internalType": "uint64",
          "name": "targetPercentage_",
          "type": "uint64"
        }
      ],
      "name": "setStrategyTargetPercentage",
      "outputs": [],
      "stateMutability": "nonpayable",
      "type": "function"
    },
    {
      "inputs": [
        {
          "internalType": "contract IERC20",
          "name": "",
          "type": "address"
        }
      ],
      "name": "strategy",
      "outputs": [
        {
          "internalType": "contract IStrategy",
          "name": "",
          "type": "address"
        }
      ],
      "stateMutability": "view",
      "type": "function"
    },
    {
      "inputs": [
        {
          "internalType": "contract IERC20",
          "name": "",
          "type": "address"
        }
      ],
      "name": "strategyData",
      "outputs": [
        {
          "internalType": "uint64",
          "name": "strategyStartDate",
          "type": "uint64"
        },
        {
          "internalType": "uint64",
          "name": "targetPercentage",
          "type": "uint64"
        },
        {
          "internalType": "uint128",
          "name": "balance",
          "type": "uint128"
        }
      ],
      "stateMutability": "view",
      "type": "function"
    },
    {
      "inputs": [
        {
          "internalType": "contract IERC20",
          "name": "token",
          "type": "address"
        },
        {
          "internalType": "uint256",
          "name": "share",
          "type": "uint256"
        },
        {
          "internalType": "bool",
          "name": "roundUp",
          "type": "bool"
        }
      ],
      "name": "toAmount",
      "outputs": [
        {
          "internalType": "uint256",
          "name": "amount",
          "type": "uint256"
        }
      ],
      "stateMutability": "view",
      "type": "function"
    },
    {
      "inputs": [
        {
          "internalType": "contract IERC20",
          "name": "token",
          "type": "address"
        },
        {
          "internalType": "uint256",
          "name": "amount",
          "type": "uint256"
        },
        {
          "internalType": "bool",
          "name": "roundUp",
          "type": "bool"
        }
      ],
      "name": "toShare",
      "outputs": [
        {
          "internalType": "uint256",
          "name": "share",
          "type": "uint256"
        }
      ],
      "stateMutability": "view",
      "type": "function"
    },
    {
      "inputs": [
        {
          "internalType": "contract IERC20",
          "name": "",
          "type": "address"
        }
      ],
      "name": "totals",
      "outputs": [
        {
          "internalType": "uint128",
          "name": "elastic",
          "type": "uint128"
        },
        {
          "internalType": "uint128",
          "name": "base",
          "type": "uint128"
        }
      ],
      "stateMutability": "view",
      "type": "function"
    },
    {
      "inputs": [
        {
          "internalType": "contract IERC20",
          "name": "token",
          "type": "address"
        },
        {
          "internalType": "address",
          "name": "from",
          "type": "address"
        },
        {
          "internalType": "address",
          "name": "to",
          "type": "address"
        },
        {
          "internalType": "uint256",
          "name": "share",
          "type": "uint256"
        }
      ],
      "name": "transfer",
      "outputs": [],
      "stateMutability": "nonpayable",
      "type": "function"
    },
    {
      "inputs": [
        {
          "internalType": "contract IERC20",
          "name": "token",
          "type": "address"
        },
        {
          "internalType": "address",
          "name": "from",
          "type": "address"
        },
        {
          "internalType": "address[]",
          "name": "tos",
          "type": "address[]"
        },
        {
          "internalType": "uint256[]",
          "name": "shares",
          "type": "uint256[]"
        }
      ],
      "name": "transferMultiple",
      "outputs": [],
      "stateMutability": "nonpayable",
      "type": "function"
    },
    {
      "inputs": [
        {
          "internalType": "address",
          "name": "newOwner",
          "type": "address"
        },
        {
          "internalType": "bool",
          "name": "direct",
          "type": "bool"
        },
        {
          "internalType": "bool",
          "name": "renounce",
          "type": "bool"
        }
      ],
      "name": "transferOwnership",
      "outputs": [],
      "stateMutability": "nonpayable",
      "type": "function"
    },
    {
      "inputs": [
        {
          "internalType": "address",
          "name": "masterContract",
          "type": "address"
        },
        {
          "internalType": "bool",
          "name": "approved",
          "type": "bool"
        }
      ],
      "name": "whitelistMasterContract",
      "outputs": [],
      "stateMutability": "nonpayable",
      "type": "function"
    },
    {
      "inputs": [
        {
          "internalType": "address",
          "name": "",
          "type": "address"
        }
      ],
      "name": "whitelistedMasterContracts",
      "outputs": [
        {
          "internalType": "bool",
          "name": "",
          "type": "bool"
        }
      ],
      "stateMutability": "view",
      "type": "function"
    },
    {
      "inputs": [
        {
          "internalType": "contract IERC20",
          "name": "token_",
          "type": "address"
        },
        {
          "internalType": "address",
          "name": "from",
          "type": "address"
        },
        {
          "internalType": "address",
          "name": "to",
          "type": "address"
        },
        {
          "internalType": "uint256",
          "name": "amount",
          "type": "uint256"
        },
        {
          "internalType": "uint256",
          "name": "share",
          "type": "uint256"
        }
      ],
      "name": "withdraw",
      "outputs": [
        {
          "internalType": "uint256",
          "name": "amountOut",
          "type": "uint256"
        },
        {
          "internalType": "uint256",
          "name": "shareOut",
          "type": "uint256"
        }
      ],
      "stateMutability": "nonpayable",
      "type": "function"
    },
    {
      "stateMutability": "payable",
      "type": "receive"
    }
  ],
  "transactionHash": "0xabb9d377a4b3a935dec9e284728fb53333dece50f8dfae708030ee17b6d196f8",
  "args": [
    "0x084666322d3ee89aAbDBBCd084323c9AF705C7f5"
  ],
  "solcInputHash": "32d97b3cbf84c0cde66db043d6058253",
  "bytecode": "0x60c06040523480156200001157600080fd5b5060405162005a0038038062005a008339810160408190526200003491620000de565b600080546001600160a01b0319163390811782556040519091907f8be0079c531659141344cd1fd0a4f28419497f9722a3daafe3b4186f6b6457e0908290a36040514690620000ac907f8cad95687ba82c2ce50e74f7b754645e5117c3a5bec8151c0726d5857980a86690839030906020016200010e565b60408051808303601f1901815291905280516020909101206080525060601b6001600160601b03191660a05262000150565b600060208284031215620000f0578081fd5b81516001600160a01b038116811462000107578182fd5b9392505050565b928352608060208401819052600b908401526a2132b73a37a137bc102b1960a91b60a084015260408301919091526001600160a01b0316606082015260c00190565b60805160a05160601c61587a62000186600039806107415280610b1752806128945280612b5a525080612f8c525061587a6000f3fe6080604052600436106101d15760003560e01c80637ecebe00116100f7578063d2423b5111610095578063f1676d3711610064578063f1676d3714610535578063f18d03cc14610555578063f483b3da14610575578063f7888aec14610595576101d8565b8063d2423b51146104b0578063da5139ca146104d1578063df23b45b146104f1578063e30c397814610520576101d8565b806397da6d30116100d157806397da6d301461043b578063aee4d1b21461045b578063bafe4f1414610470578063c0a47c9314610490576101d8565b80637ecebe00146103e65780638da5cb5b1461040657806391e0eab51461041b576101d8565b80634e71e0c81161016f57806366c6bb0b1161013e57806366c6bb0b1461036657806372cb5d9714610386578063733a9d7c146103a65780637c516e94146103c6576101d8565b80634e71e0c8146102d65780634ffe34db146102eb5780635108a558146103195780635662311814610339576101d8565b806312a90c8a116101ab57806312a90c8a146102495780631f54245b14610276578063228bfd9f146102895780633e2a9d4e146102b6576101d8565b806302b9446c146101dd578063078dfbe7146102075780630fca884314610229576101d8565b366101d857005b600080fd5b6101f06101eb366004614851565b6105b5565b6040516101fe9291906156e1565b60405180910390f35b34801561021357600080fd5b50610227610222366004614605565b610c6c565b005b34801561023557600080fd5b5061022761024436600461492c565b610df7565b34801561025557600080fd5b50610269610264366004614518565b6111b9565b6040516101fe9190614f8b565b61022761028436600461464f565b6111ce565b34801561029557600080fd5b506102a96102a4366004614518565b611436565b6040516101fe9190614cef565b3480156102c257600080fd5b506102276102d1366004614a34565b61145e565b3480156102e257600080fd5b50610227611592565b3480156102f757600080fd5b5061030b610306366004614518565b611678565b6040516101fe9291906156b5565b34801561032557600080fd5b506102a9610334366004614518565b6116b4565b34801561034557600080fd5b506103596103543660046149fe565b6116dc565b6040516101fe91906156d8565b34801561037257600080fd5b506102276103813660046149be565b611753565b34801561039257600080fd5b506102276103a13660046147ef565b611f08565b3480156103b257600080fd5b506102276103c13660046145d8565b61250c565b3480156103d257600080fd5b506102276103e13660046148ab565b612629565b3480156103f257600080fd5b50610359610401366004614518565b6126c3565b34801561041257600080fd5b506102a96126d5565b34801561042757600080fd5b50610269610436366004614534565b6126f1565b34801561044757600080fd5b506101f0610456366004614851565b612711565b34801561046757600080fd5b50610227612d01565b34801561047c57600080fd5b506102a961048b366004614518565b612d60565b34801561049c57600080fd5b506102276104ab36600461456c565b612d88565b6104c36104be3660046146b5565b6131f7565b6040516101fe929190614ef1565b3480156104dd57600080fd5b506103596104ec3660046149fe565b6133a3565b3480156104fd57600080fd5b5061051161050c366004614518565b613412565b6040516101fe93929190615704565b34801561052c57600080fd5b506102a9613467565b34801561054157600080fd5b50610227610550366004614a6d565b613483565b34801561056157600080fd5b50610227610570366004614801565b61365e565b34801561058157600080fd5b5061022761059036600461471b565b6138b8565b3480156105a157600080fd5b506103596105b03660046147ef565b613c03565b6000808573ffffffffffffffffffffffffffffffffffffffff811633148015906105f5575073ffffffffffffffffffffffffffffffffffffffff81163014155b156106ce573360009081526002602052604090205473ffffffffffffffffffffffffffffffffffffffff1680610660576040517f08c379a0000000000000000000000000000000000000000000000000000000008152600401610657906154ac565b60405180910390fd5b73ffffffffffffffffffffffffffffffffffffffff80821660009081526003602090815260408083209386168352929052205460ff166106cc576040517f08c379a00000000000000000000000000000000000000000000000000000000081526004016106579061532f565b505b73ffffffffffffffffffffffffffffffffffffffff861661071b576040517f08c379a00000000000000000000000000000000000000000000000000000000081526004016106579061528c565b600073ffffffffffffffffffffffffffffffffffffffff89161561073f5788610761565b7f00000000000000000000000000000000000000000000000000000000000000005b905061076b61443c565b5073ffffffffffffffffffffffffffffffffffffffff81166000908152600760209081526040918290208251808401909352546fffffffffffffffffffffffffffffffff808216808552700100000000000000000000000000000000909204169183019190915215158061085c575060008273ffffffffffffffffffffffffffffffffffffffff166318160ddd6040518163ffffffff1660e01b815260040160206040518083038186803b15801561082257600080fd5b505afa158015610836573d6000803e3d6000fd5b505050506040513d601f19601f8201168201806040525081019061085a9190614ade565b115b610892576040517f08c379a0000000000000000000000000000000000000000000000000000000008152600401610657906151b0565b856108fc576108a381886000613c20565b95506103e86108d16108b488613cde565b60208401516fffffffffffffffffffffffffffffffff1690613d2e565b6fffffffffffffffffffffffffffffffff1610156108f757600080945094505050610c61565b61090b565b61090881876001613d86565b96505b73ffffffffffffffffffffffffffffffffffffffff891630141580610944575073ffffffffffffffffffffffffffffffffffffffff8a16155b8061097557508051610971906fffffffffffffffffffffffffffffffff1661096b84613e29565b90613f0d565b8711155b6109ab576040517f08c379a000000000000000000000000000000000000000000000000000000000815260040161065790615066565b73ffffffffffffffffffffffffffffffffffffffff8083166000908152600660209081526040808320938c16835292905220546109e89087613f4a565b73ffffffffffffffffffffffffffffffffffffffff8084166000908152600660209081526040808320938d1683529290522055610a44610a2787613cde565b60208301516fffffffffffffffffffffffffffffffff1690613d2e565b6fffffffffffffffffffffffffffffffff166020820152610a81610a6788613cde565b82516fffffffffffffffffffffffffffffffff1690613d2e565b6fffffffffffffffffffffffffffffffff908116825273ffffffffffffffffffffffffffffffffffffffff808416600090815260076020908152604090912084518154928601518516700100000000000000000000000000000000029085167fffffffffffffffffffffffffffffffff0000000000000000000000000000000090931692909217909316179091558a16610b9b577f000000000000000000000000000000000000000000000000000000000000000073ffffffffffffffffffffffffffffffffffffffff1663d0e30db0886040518263ffffffff1660e01b81526004016000604051808303818588803b158015610b7d57600080fd5b505af1158015610b91573d6000803e3d6000fd5b5050505050610bda565b73ffffffffffffffffffffffffffffffffffffffff89163014610bda57610bda73ffffffffffffffffffffffffffffffffffffffff83168a308a613f87565b8773ffffffffffffffffffffffffffffffffffffffff168973ffffffffffffffffffffffffffffffffffffffff168373ffffffffffffffffffffffffffffffffffffffff167fb2346165e782564f17f5b7e555c21f4fd96fbc93458572bf0113ea35a958fc558a8a604051610c509291906156e1565b60405180910390a486945085935050505b509550959350505050565b60005473ffffffffffffffffffffffffffffffffffffffff163314610cbd576040517f08c379a0000000000000000000000000000000000000000000000000000000008152600401610657906152fa565b8115610db15773ffffffffffffffffffffffffffffffffffffffff8316151580610ce45750805b610d1a576040517f08c379a000000000000000000000000000000000000000000000000000000000815260040161065790615179565b6000805460405173ffffffffffffffffffffffffffffffffffffffff808716939216917f8be0079c531659141344cd1fd0a4f28419497f9722a3daafe3b4186f6b6457e091a36000805473ffffffffffffffffffffffffffffffffffffffff85167fffffffffffffffffffffffff000000000000000000000000000000000000000091821617909155600180549091169055610df2565b600180547fffffffffffffffffffffffff00000000000000000000000000000000000000001673ffffffffffffffffffffffffffffffffffffffff85161790555b505050565b8473ffffffffffffffffffffffffffffffffffffffff81163314801590610e34575073ffffffffffffffffffffffffffffffffffffffff81163014155b15610f04573360009081526002602052604090205473ffffffffffffffffffffffffffffffffffffffff1680610e96576040517f08c379a0000000000000000000000000000000000000000000000000000000008152600401610657906154ac565b73ffffffffffffffffffffffffffffffffffffffff80821660009081526003602090815260408083209386168352929052205460ff16610f02576040517f08c379a00000000000000000000000000000000000000000000000000000000081526004016106579061532f565b505b600085858281610f1057fe5b9050602002016020810190610f259190614518565b73ffffffffffffffffffffffffffffffffffffffff161415610f73576040517f08c379a000000000000000000000000000000000000000000000000000000000815260040161065790615255565b600084815b81811015611137576000888883818110610f8e57fe5b9050602002016020810190610fa39190614518565b9050611046878784818110610fb457fe5b90506020020135600660008e73ffffffffffffffffffffffffffffffffffffffff1673ffffffffffffffffffffffffffffffffffffffff16815260200190815260200160002060008473ffffffffffffffffffffffffffffffffffffffff1673ffffffffffffffffffffffffffffffffffffffff16815260200190815260200160002054613f4a90919063ffffffff16565b73ffffffffffffffffffffffffffffffffffffffff808d1660009081526006602090815260408083209386168352929052205561109e87878481811061108857fe5b9050602002013585613f4a90919063ffffffff16565b93508073ffffffffffffffffffffffffffffffffffffffff168a73ffffffffffffffffffffffffffffffffffffffff168c73ffffffffffffffffffffffffffffffffffffffff167f6eabe333476233fd382224f233210cb808a7bc4c4de64f9d76628bf63c677b1a8a8a8781811061111257fe5b9050602002013560405161112691906156d8565b60405180910390a450600101610f78565b5073ffffffffffffffffffffffffffffffffffffffff808a166000908152600660209081526040808320938c16835292905220546111759083613f0d565b73ffffffffffffffffffffffffffffffffffffffff998a1660009081526006602090815260408083209b909c16825299909952989097209790975550505050505050565b60046020526000908152604090205460ff1681565b73ffffffffffffffffffffffffffffffffffffffff841661121b576040517f08c379a000000000000000000000000000000000000000000000000000000000815260040161065790615440565b606084901b600082156112a6576000858560405161123a929190614c99565b604051809103902090506040517f3d602d80600a3d3981f3363d3d373d3d3d363d7300000000000000000000000081528360148201527f5af43d82803e903d91602b57fd5bf300000000000000000000000000000000006028820152816037826000f592505050611302565b6040517f3d602d80600a3d3981f3363d3d373d3d3d363d7300000000000000000000000081528260148201527f5af43d82803e903d91602b57fd5bf3000000000000000000000000000000000060288201526037816000f09150505b73ffffffffffffffffffffffffffffffffffffffff8181166000818152600260205260409081902080547fffffffffffffffffffffffff000000000000000000000000000000000000000016938a169390931790925590517f4ddf47d4000000000000000000000000000000000000000000000000000000008152634ddf47d49034906113959089908990600401615008565b6000604051808303818588803b1580156113ae57600080fd5b505af11580156113c2573d6000803e3d6000fd5b50505050508073ffffffffffffffffffffffffffffffffffffffff168673ffffffffffffffffffffffffffffffffffffffff167fd62166f3c2149208e51788b1401cc356bf5da1fc6c7886a32e18570f57d88b3b8787604051611426929190615008565b60405180910390a3505050505050565b60086020526000908152604090205473ffffffffffffffffffffffffffffffffffffffff1681565b60005473ffffffffffffffffffffffffffffffffffffffff1633146114af576040517f08c379a0000000000000000000000000000000000000000000000000000000008152600401610657906152fa565b605f8167ffffffffffffffff1611156114f4576040517f08c379a00000000000000000000000000000000000000000000000000000000081526004016106579061562b565b73ffffffffffffffffffffffffffffffffffffffff82166000818152600a60205260409081902080547fffffffffffffffffffffffffffffffff0000000000000000ffffffffffffffff166801000000000000000067ffffffffffffffff861602179055517f7543af99b5602c06e62da0631b5308489a5ff859150105a623b6eb15e8deae0b906115869084906156ef565b60405180910390a25050565b60015473ffffffffffffffffffffffffffffffffffffffff163381146115e4576040517f08c379a000000000000000000000000000000000000000000000000000000000815260040161065790615366565b6000805460405173ffffffffffffffffffffffffffffffffffffffff808516939216917f8be0079c531659141344cd1fd0a4f28419497f9722a3daafe3b4186f6b6457e091a36000805473ffffffffffffffffffffffffffffffffffffffff9092167fffffffffffffffffffffffff0000000000000000000000000000000000000000928316179055600180549091169055565b6007602052600090815260409020546fffffffffffffffffffffffffffffffff8082169170010000000000000000000000000000000090041682565b60096020526000908152604090205473ffffffffffffffffffffffffffffffffffffffff1681565b73ffffffffffffffffffffffffffffffffffffffff831660009081526007602090815260408083208151808301909252546fffffffffffffffffffffffffffffffff8082168352700100000000000000000000000000000000909104169181019190915261174b908484613d86565b949350505050565b61175b614453565b5073ffffffffffffffffffffffffffffffffffffffff8381166000818152600a602090815260408083208151606081018352905467ffffffffffffffff8082168352680100000000000000008204168285015270010000000000000000000000000000000090046fffffffffffffffffffffffffffffffff16818301908152948452600890925280832054935190517f18fccc760000000000000000000000000000000000000000000000000000000081529194939093169283916318fccc769161182a91339060040161567d565b602060405180830381600087803b15801561184457600080fd5b505af1158015611858573d6000803e3d6000fd5b505050506040513d601f19601f8201168201806040525081019061187c9190614ade565b90508015801561188a575084155b1561189757505050610df2565b73ffffffffffffffffffffffffffffffffffffffff86166000908152600760205260408120546fffffffffffffffffffffffffffffffff169082131561199157816118e28282613f4a565b91506118ed82613cde565b73ffffffffffffffffffffffffffffffffffffffff89166000818152600760205260409081902080547fffffffffffffffffffffffffffffffff00000000000000000000000000000000166fffffffffffffffffffffffffffffffff949094169390931790925590517f911c9f20a03edabcbcbd18dca1174cce47a91b234ced7a5a3c60ba0d5b56c5d2906119839084906156d8565b60405180910390a250611aac565b6000821215611aac5760008290036119a98282613f0d565b91506119b482613cde565b73ffffffffffffffffffffffffffffffffffffffff8916600090815260076020526040902080547fffffffffffffffffffffffffffffffff00000000000000000000000000000000166fffffffffffffffffffffffffffffffff92909216919091179055611a41611a2482613cde565b60408701516fffffffffffffffffffffffffffffffff16906140f2565b6fffffffffffffffffffffffffffffffff166040808701919091525173ffffffffffffffffffffffffffffffffffffffff8916907f8f1f26eb9b6aa8689dbdd519ead1999d9c8819d4738e403b2003b18197d9cf9790611aa29084906156d8565b60405180910390a2505b8515611e305760006064611ad7866020015167ffffffffffffffff168461414490919063ffffffff16565b81611ade57fe5b0490508085604001516fffffffffffffffffffffffffffffffff161015611c7d576000611b2a86604001516fffffffffffffffffffffffffffffffff1683613f0d90919063ffffffff16565b90508615801590611b3a57508681115b15611b425750855b611b6373ffffffffffffffffffffffffffffffffffffffff8a168683614195565b611b8c611b6f82613cde565b60408801516fffffffffffffffffffffffffffffffff1690613d2e565b6fffffffffffffffffffffffffffffffff16604080880191909152517f6939aaf500000000000000000000000000000000000000000000000000000000815273ffffffffffffffffffffffffffffffffffffffff861690636939aaf590611bf79084906004016156d8565b600060405180830381600087803b158015611c1157600080fd5b505af1158015611c25573d6000803e3d6000fd5b505050508873ffffffffffffffffffffffffffffffffffffffff167fb18e7e4f6eac147a63a3bb6beb2d9039c88698623aff3efc4febbc20b0164ee582604051611c6f91906156d8565b60405180910390a250611e2e565b8085604001516fffffffffffffffffffffffffffffffff161115611e2e576000611cc6611ca983613cde565b60408801516fffffffffffffffffffffffffffffffff16906140f2565b6fffffffffffffffffffffffffffffffff1690508615801590611ce857508681115b15611cf05750855b6040517f2e1a7d4d00000000000000000000000000000000000000000000000000000000815260009073ffffffffffffffffffffffffffffffffffffffff871690632e1a7d4d90611d459085906004016156d8565b602060405180830381600087803b158015611d5f57600080fd5b505af1158015611d73573d6000803e3d6000fd5b505050506040513d601f19601f82011682018060405250810190611d979190614ade565b9050611dc2611da582613cde565b60408901516fffffffffffffffffffffffffffffffff16906140f2565b6fffffffffffffffffffffffffffffffff166040808901919091525173ffffffffffffffffffffffffffffffffffffffff8b16907f39aa22060f8dd4d291720311feedf3b72fef47c06c66ccf5c22b502c62e7550a90611e239084906156d8565b60405180910390a250505b505b50505073ffffffffffffffffffffffffffffffffffffffff84166000908152600a6020908152604091829020835181549285015193909401516fffffffffffffffffffffffffffffffff9081167001000000000000000000000000000000000267ffffffffffffffff94851668010000000000000000027fffffffffffffffffffffffffffffffff0000000000000000ffffffffffffffff959096167fffffffffffffffffffffffffffffffffffffffffffffffff000000000000000090941693909317939093169390931791909116179055505050565b60005473ffffffffffffffffffffffffffffffffffffffff163314611f59576040517f08c379a0000000000000000000000000000000000000000000000000000000008152600401610657906152fa565b611f61614453565b5073ffffffffffffffffffffffffffffffffffffffff8281166000818152600a602090815260408083208151606081018352905467ffffffffffffffff80821683526801000000000000000082048116838601527001000000000000000000000000000000009091046fffffffffffffffffffffffffffffffff168284015294845260099092529091205481519193169116158061202b57508273ffffffffffffffffffffffffffffffffffffffff168173ffffffffffffffffffffffffffffffffffffffff1614155b156120e85773ffffffffffffffffffffffffffffffffffffffff848116600090815260096020526040902080547fffffffffffffffffffffffff0000000000000000000000000000000000000000169185169190911790556120916212750042016142fd565b67ffffffffffffffff16825260405173ffffffffffffffffffffffffffffffffffffffff80851691908616907f6f7ccdf3f86039e5a1dcf6028bf7b4773cbf7a234716ba2e5392b12bb0f8558f90600090a3612438565b815167ffffffffffffffff161580159061210d5750815167ffffffffffffffff164210155b612143576040517f08c379a0000000000000000000000000000000000000000000000000000000008152600401610657906152c3565b73ffffffffffffffffffffffffffffffffffffffff848116600090815260086020526040902054161561239c5773ffffffffffffffffffffffffffffffffffffffff808516600090815260086020526040808220548582015191517f7f8661a100000000000000000000000000000000000000000000000000000000815292931691637f8661a1916121d791600401615660565b602060405180830381600087803b1580156121f157600080fd5b505af1158015612205573d6000803e3d6000fd5b505050506040513d601f19601f820116820180604052508101906122299190614ade565b905060008113156122ba5773ffffffffffffffffffffffffffffffffffffffff8516600090815260076020526040902081906122659082614341565b508573ffffffffffffffffffffffffffffffffffffffff167f911c9f20a03edabcbcbd18dca1174cce47a91b234ced7a5a3c60ba0d5b56c5d2826040516122ac91906156d8565b60405180910390a250612348565b60008112156123485773ffffffffffffffffffffffffffffffffffffffff8516600090815260076020526040812090829003906122f790826143af565b508573ffffffffffffffffffffffffffffffffffffffff167f8f1f26eb9b6aa8689dbdd519ead1999d9c8819d4738e403b2003b18197d9cf978260405161233e91906156d8565b60405180910390a2505b8473ffffffffffffffffffffffffffffffffffffffff167f39aa22060f8dd4d291720311feedf3b72fef47c06c66ccf5c22b502c62e7550a84604001516040516123929190615660565b60405180910390a2505b73ffffffffffffffffffffffffffffffffffffffff808516600081815260086020908152604080832080548688167fffffffffffffffffffffffff0000000000000000000000000000000000000000918216179091558388528782018490528484526009909252808320805490921690915551928616927f03e6352a885adc4cc54767592939c3b1bbd65685658c3beaaba66a888120e2179190a35b5073ffffffffffffffffffffffffffffffffffffffff929092166000908152600a6020908152604091829020845181549286015193909501517fffffffffffffffffffffffffffffffffffffffffffffffff000000000000000090921667ffffffffffffffff958616177fffffffffffffffffffffffffffffffff0000000000000000ffffffffffffffff16680100000000000000009590931694909402919091176fffffffffffffffffffffffffffffffff90811670010000000000000000000000000000000091909216021790915550565b60005473ffffffffffffffffffffffffffffffffffffffff16331461255d576040517f08c379a0000000000000000000000000000000000000000000000000000000008152600401610657906152fa565b73ffffffffffffffffffffffffffffffffffffffff82166125aa576040517f08c379a00000000000000000000000000000000000000000000000000000000081526004016106579061509d565b73ffffffffffffffffffffffffffffffffffffffff82166000818152600460205260409081902080547fffffffffffffffffffffffffffffffffffffffffffffffffffffffffffffff0016841515179055517f31a1e0eac44b54ac6c2a2efa87e92c83405ffcf33fceef02a7bca695130e260090611586908490614f8b565b6040517fd505accf00000000000000000000000000000000000000000000000000000000815273ffffffffffffffffffffffffffffffffffffffff89169063d505accf90612687908a908a908a908a908a908a908a90600401614e7d565b600060405180830381600087803b1580156126a157600080fd5b505af11580156126b5573d6000803e3d6000fd5b505050505050505050505050565b60056020526000908152604090205481565b60005473ffffffffffffffffffffffffffffffffffffffff1681565b600360209081526000928352604080842090915290825290205460ff1681565b6000808573ffffffffffffffffffffffffffffffffffffffff81163314801590612751575073ffffffffffffffffffffffffffffffffffffffff81163014155b15612821573360009081526002602052604090205473ffffffffffffffffffffffffffffffffffffffff16806127b3576040517f08c379a0000000000000000000000000000000000000000000000000000000008152600401610657906154ac565b73ffffffffffffffffffffffffffffffffffffffff80821660009081526003602090815260408083209386168352929052205460ff1661281f576040517f08c379a00000000000000000000000000000000000000000000000000000000081526004016106579061532f565b505b73ffffffffffffffffffffffffffffffffffffffff861661286e576040517f08c379a00000000000000000000000000000000000000000000000000000000081526004016106579061528c565b600073ffffffffffffffffffffffffffffffffffffffff89161561289257886128b4565b7f00000000000000000000000000000000000000000000000000000000000000005b90506128be61443c565b5073ffffffffffffffffffffffffffffffffffffffff81166000908152600760209081526040918290208251808401909352546fffffffffffffffffffffffffffffffff80821684527001000000000000000000000000000000009091041690820152856129395761293281886001613c20565b9550612948565b61294581876000613d86565b96505b73ffffffffffffffffffffffffffffffffffffffff8083166000908152600660209081526040808320938d16835292905220546129859087613f0d565b73ffffffffffffffffffffffffffffffffffffffff8084166000908152600660209081526040808320938e16835292905220556129de6129c488613cde565b82516fffffffffffffffffffffffffffffffff16906140f2565b6fffffffffffffffffffffffffffffffff168152612a1b6129fe87613cde565b60208301516fffffffffffffffffffffffffffffffff16906140f2565b6fffffffffffffffffffffffffffffffff16602082018190526103e8111580612a58575060208101516fffffffffffffffffffffffffffffffff16155b612a8e576040517f08c379a000000000000000000000000000000000000000000000000000000000815260040161065790615142565b73ffffffffffffffffffffffffffffffffffffffff828116600090815260076020908152604090912083518154928501517fffffffffffffffffffffffffffffffff000000000000000000000000000000009093166fffffffffffffffffffffffffffffffff91821617811670010000000000000000000000000000000091909316029190911790558a16612c6a576040517f2e1a7d4d00000000000000000000000000000000000000000000000000000000815273ffffffffffffffffffffffffffffffffffffffff7f00000000000000000000000000000000000000000000000000000000000000001690632e1a7d4d90612b8f908a906004016156d8565b600060405180830381600087803b158015612ba957600080fd5b505af1158015612bbd573d6000803e3d6000fd5b5050505060008873ffffffffffffffffffffffffffffffffffffffff1688604051612be790614cec565b60006040518083038185875af1925050503d8060008114612c24576040519150601f19603f3d011682016040523d82523d6000602084013e612c29565b606091505b5050905080612c64576040517f08c379a0000000000000000000000000000000000000000000000000000000008152600401610657906155bd565b50612c8b565b612c8b73ffffffffffffffffffffffffffffffffffffffff83168989614195565b8773ffffffffffffffffffffffffffffffffffffffff168973ffffffffffffffffffffffffffffffffffffffff168373ffffffffffffffffffffffffffffffffffffffff167fad9ab9ee6953d4d177f4a03b3a3ac3178ffcb9816319f348060194aa76b144868a8a604051610c509291906156e1565b3360008181526002602052604080822080547fffffffffffffffffffffffff00000000000000000000000000000000000000001684179055517fdfb44ffabf0d3a8f650d3ce43eff98f6d050e7ea1a396d5794f014e7dadabacb9190a2565b60026020526000908152604090205473ffffffffffffffffffffffffffffffffffffffff1681565b73ffffffffffffffffffffffffffffffffffffffff8516612dd5576040517f08c379a000000000000000000000000000000000000000000000000000000000815260040161065790615475565b81158015612de1575080155b8015612dee575060ff8316155b15612f055773ffffffffffffffffffffffffffffffffffffffff86163314612e42576040517f08c379a0000000000000000000000000000000000000000000000000000000008152600401610657906150d4565b73ffffffffffffffffffffffffffffffffffffffff8681166000908152600260205260409020541615612ea1576040517f08c379a0000000000000000000000000000000000000000000000000000000008152600401610657906153d2565b73ffffffffffffffffffffffffffffffffffffffff851660009081526004602052604090205460ff16612f00576040517f08c379a000000000000000000000000000000000000000000000000000000000815260040161065790615586565b613168565b73ffffffffffffffffffffffffffffffffffffffff8616612f52576040517f08c379a000000000000000000000000000000000000000000000000000000000815260040161065790615518565b60006040518060400160405280600281526020017f19010000000000000000000000000000000000000000000000000000000000008152507f00000000000000000000000000000000000000000000000000000000000000007f1962bc9f5484cb7a998701b81090e966ee1fce5771af884cceee7c081b14ade28761300c576040518060400160405280601a81526020017f5265766f6b652061636365737320746f2042656e746f426f783f000000000000815250613026565b60405180606001604052806038815260200161580d603891395b73ffffffffffffffffffffffffffffffffffffffff8b16600090815260056020908152604091829020805460018101909155915161306d9493928e928e928e929101614f96565b6040516020818303038152906040528051906020012060405160200161309593929190614cc5565b6040516020818303038152906040528051906020012090506000600182868686604051600081526020016040526040516130d29493929190614fea565b6020604051602081039080840390855afa1580156130f4573d6000803e3d6000fd5b5050506020604051035190508773ffffffffffffffffffffffffffffffffffffffff168173ffffffffffffffffffffffffffffffffffffffff1614613165576040517f08c379a000000000000000000000000000000000000000000000000000000000815260040161065790615409565b50505b73ffffffffffffffffffffffffffffffffffffffff8581166000818152600360209081526040808320948b16808452949091529081902080547fffffffffffffffffffffffffffffffffffffffffffffffffffffffffffffff0016881515179055517f5f6ebb64ba012a851c6f014e6cad458ddf213d1512049b31cd06365c2b05925790611426908890614f8b565b6060808367ffffffffffffffff8111801561321157600080fd5b5060405190808252806020026020018201604052801561323b578160200160208202803683370190505b5091508367ffffffffffffffff8111801561325557600080fd5b5060405190808252806020026020018201604052801561328957816020015b60608152602001906001900390816132745790505b50905060005b8481101561339a5760006060308888858181106132a857fe5b90506020028101906132ba919061573a565b6040516132c8929190614c99565b600060405180830381855af49150503d8060008114613303576040519150601f19603f3d011682016040523d82523d6000602084013e613308565b606091505b50915091508180613317575085155b613320826143d7565b90613358576040517f08c379a0000000000000000000000000000000000000000000000000000000008152600401610657919061501c565b508185848151811061336657fe5b6020026020010190151590811515815250508084848151811061338557fe5b6020908102919091010152505060010161328f565b50935093915050565b73ffffffffffffffffffffffffffffffffffffffff831660009081526007602090815260408083208151808301909252546fffffffffffffffffffffffffffffffff8082168352700100000000000000000000000000000000909104169181019190915261174b908484613c20565b600a6020526000908152604090205467ffffffffffffffff808216916801000000000000000081049091169070010000000000000000000000000000000090046fffffffffffffffffffffffffffffffff1683565b60015473ffffffffffffffffffffffffffffffffffffffff1681565b6000620186a0613494856032614144565b8161349b57fe5b0490506134bf73ffffffffffffffffffffffffffffffffffffffff86168786614195565b6040517f23e30c8b00000000000000000000000000000000000000000000000000000000815273ffffffffffffffffffffffffffffffffffffffff8816906323e30c8b9061351b9033908990899087908a908a90600401614dfa565b600060405180830381600087803b15801561353557600080fd5b505af1158015613549573d6000803e3d6000fd5b5050505061359661355982613cde565b73ffffffffffffffffffffffffffffffffffffffff87166000908152600760205260409020906fffffffffffffffffffffffffffffffff16614341565b61359f86613e29565b10156135d7576040517f08c379a00000000000000000000000000000000000000000000000000000000081526004016106579061554f565b8573ffffffffffffffffffffffffffffffffffffffff168573ffffffffffffffffffffffffffffffffffffffff168873ffffffffffffffffffffffffffffffffffffffff167f3be9b85936d5d30a1655ea116a17ee3d827b2cd428cc026ce5bf2ac46a223204878560405161364d9291906156e1565b60405180910390a450505050505050565b8273ffffffffffffffffffffffffffffffffffffffff8116331480159061369b575073ffffffffffffffffffffffffffffffffffffffff81163014155b1561376b573360009081526002602052604090205473ffffffffffffffffffffffffffffffffffffffff16806136fd576040517f08c379a0000000000000000000000000000000000000000000000000000000008152600401610657906154ac565b73ffffffffffffffffffffffffffffffffffffffff80821660009081526003602090815260408083209386168352929052205460ff16613769576040517f08c379a00000000000000000000000000000000000000000000000000000000081526004016106579061532f565b505b73ffffffffffffffffffffffffffffffffffffffff83166137b8576040517f08c379a00000000000000000000000000000000000000000000000000000000081526004016106579061528c565b73ffffffffffffffffffffffffffffffffffffffff8086166000908152600660209081526040808320938816835292905220546137f59083613f0d565b73ffffffffffffffffffffffffffffffffffffffff86811660009081526006602090815260408083208985168452909152808220939093559085168152205461383e9083613f4a565b73ffffffffffffffffffffffffffffffffffffffff80871660008181526006602090815260408083208986168085529252918290209490945551918716917f6eabe333476233fd382224f233210cb808a7bc4c4de64f9d76628bf63c677b1a906138a99087906156d8565b60405180910390a45050505050565b60608567ffffffffffffffff811180156138d157600080fd5b506040519080825280602002602001820160405280156138fb578160200160208202803683370190505b5090508560005b818110156139d757600087878381811061391857fe5b905060200201359050620186a061393960328361414490919063ffffffff16565b8161394057fe5b0484838151811061394d57fe5b6020026020010181815250506139ce8c8c8481811061396857fe5b905060200201602081019061397d9190614518565b89898581811061398957fe5b905060200201358c8c8681811061399c57fe5b90506020020160208101906139b19190614518565b73ffffffffffffffffffffffffffffffffffffffff169190614195565b50600101613902565b506040517fd9d1762300000000000000000000000000000000000000000000000000000000815273ffffffffffffffffffffffffffffffffffffffff8c169063d9d1762390613a389033908c908c908c908c908a908d908d90600401614d10565b600060405180830381600087803b158015613a5257600080fd5b505af1158015613a66573d6000803e3d6000fd5b5050505060005b818110156126b5576000898983818110613a8357fe5b9050602002016020810190613a989190614518565b9050613af6613ab9858481518110613aac57fe5b6020026020010151613cde565b73ffffffffffffffffffffffffffffffffffffffff83166000908152600760205260409020906fffffffffffffffffffffffffffffffff16614341565b613aff82613e29565b1015613b37576040517f08c379a00000000000000000000000000000000000000000000000000000000081526004016106579061554f565b8b8b83818110613b4357fe5b9050602002016020810190613b589190614518565b73ffffffffffffffffffffffffffffffffffffffff168173ffffffffffffffffffffffffffffffffffffffff168e73ffffffffffffffffffffffffffffffffffffffff167f3be9b85936d5d30a1655ea116a17ee3d827b2cd428cc026ce5bf2ac46a2232048b8b87818110613bc957fe5b90506020020135888781518110613bdc57fe5b6020026020010151604051613bf29291906156e1565b60405180910390a450600101613a6d565b600660209081526000928352604080842090915290825290205481565b82516000906fffffffffffffffffffffffffffffffff16613c42575081613cd7565b835160208501516fffffffffffffffffffffffffffffffff91821691613c6a91869116614144565b81613c7157fe5b049050818015613cc757508284602001516fffffffffffffffffffffffffffffffff16613cbd86600001516fffffffffffffffffffffffffffffffff168461414490919063ffffffff16565b81613cc457fe5b04105b15613cd75761174b816001613f4a565b9392505050565b60006fffffffffffffffffffffffffffffffff821115613d2a576040517f08c379a0000000000000000000000000000000000000000000000000000000008152600401610657906151e7565b5090565b8181016fffffffffffffffffffffffffffffffff8083169082161015613d80576040517f08c379a00000000000000000000000000000000000000000000000000000000081526004016106579061521e565b92915050565b600083602001516fffffffffffffffffffffffffffffffff1660001415613dae575081613cd7565b602084015184516fffffffffffffffffffffffffffffffff91821691613dd691869116614144565b81613ddd57fe5b049050818015613cc757508284600001516fffffffffffffffffffffffffffffffff16613cbd86602001516fffffffffffffffffffffffffffffffff168461414490919063ffffffff16565b73ffffffffffffffffffffffffffffffffffffffff81166000818152600a60205260408082205490517f70a082310000000000000000000000000000000000000000000000000000000081529192613d80927001000000000000000000000000000000009092046fffffffffffffffffffffffffffffffff16916370a0823190613eb7903090600401614cef565b60206040518083038186803b158015613ecf57600080fd5b505afa158015613ee3573d6000803e3d6000fd5b505050506040513d601f19601f82011682018060405250810190613f079190614ade565b90613f4a565b80820382811115613d80576040517f08c379a00000000000000000000000000000000000000000000000000000000081526004016106579061502f565b81810181811015613d80576040517f08c379a00000000000000000000000000000000000000000000000000000000081526004016106579061521e565b600060608573ffffffffffffffffffffffffffffffffffffffff166323b872dd60e01b868686604051602401613fbf93929190614e4c565b604080517fffffffffffffffffffffffffffffffffffffffffffffffffffffffffffffffe08184030181529181526020820180517bffffffffffffffffffffffffffffffffffffffffffffffffffffffff167fffffffff000000000000000000000000000000000000000000000000000000009094169390931790925290516140489190614ca9565b6000604051808303816000865af19150503d8060008114614085576040519150601f19603f3d011682016040523d82523d6000602084013e61408a565b606091505b50915091508180156140b45750805115806140b45750808060200190518101906140b491906146ff565b6140ea576040517f08c379a0000000000000000000000000000000000000000000000000000000008152600401610657906154e3565b505050505050565b8082036fffffffffffffffffffffffffffffffff8084169082161115613d80576040517f08c379a00000000000000000000000000000000000000000000000000000000081526004016106579061502f565b600081158061415f5750508082028282828161415c57fe5b04145b613d80576040517f08c379a0000000000000000000000000000000000000000000000000000000008152600401610657906155f4565b600060608473ffffffffffffffffffffffffffffffffffffffff1663a9059cbb60e01b85856040516024016141cb929190614ecb565b604080517fffffffffffffffffffffffffffffffffffffffffffffffffffffffffffffffe08184030181529181526020820180517bffffffffffffffffffffffffffffffffffffffffffffffffffffffff167fffffffff000000000000000000000000000000000000000000000000000000009094169390931790925290516142549190614ca9565b6000604051808303816000865af19150503d8060008114614291576040519150601f19603f3d011682016040523d82523d6000602084013e614296565b606091505b50915091508180156142c05750805115806142c05750808060200190518101906142c091906146ff565b6142f6576040517f08c379a00000000000000000000000000000000000000000000000000000000081526004016106579061510b565b5050505050565b600067ffffffffffffffff821115613d2a576040517f08c379a00000000000000000000000000000000000000000000000000000000081526004016106579061539b565b600061436961434f83613cde565b84546fffffffffffffffffffffffffffffffff1690613d2e565b83547fffffffffffffffffffffffffffffffff00000000000000000000000000000000166fffffffffffffffffffffffffffffffff919091169081179093555090919050565b60006143696143bd83613cde565b84546fffffffffffffffffffffffffffffffff16906140f2565b606060448251101561441d575060408051808201909152601d81527f5472616e73616374696f6e2072657665727465642073696c656e746c790000006020820152614437565b60048201915081806020019051810190613d809190614af6565b919050565b604080518082019091526000808252602082015290565b604080516060810182526000808252602082018190529181019190915290565b60008083601f840112614484578182fd5b50813567ffffffffffffffff81111561449b578182fd5b60208301915083602080830285010111156144b557600080fd5b9250929050565b60008083601f8401126144cd578182fd5b50813567ffffffffffffffff8111156144e4578182fd5b6020830191508360208285010111156144b557600080fd5b8035613d80816157d9565b803560ff81168114613d8057600080fd5b600060208284031215614529578081fd5b8135613cd7816157d9565b60008060408385031215614546578081fd5b8235614551816157d9565b91506020830135614561816157d9565b809150509250929050565b60008060008060008060c08789031215614584578182fd5b863561458f816157d9565b9550602087013561459f816157d9565b945060408701356145af816157fe565b93506145be8860608901614507565b92506080870135915060a087013590509295509295509295565b600080604083850312156145ea578182fd5b82356145f5816157d9565b91506020830135614561816157fe565b600080600060608486031215614619578283fd5b8335614624816157d9565b92506020840135614634816157fe565b91506040840135614644816157fe565b809150509250925092565b60008060008060608587031215614664578384fd5b843561466f816157d9565b9350602085013567ffffffffffffffff81111561468a578384fd5b614696878288016144bc565b90945092505060408501356146aa816157fe565b939692955090935050565b6000806000604084860312156146c9578081fd5b833567ffffffffffffffff8111156146df578182fd5b6146eb86828701614473565b9094509250506020840135614644816157fe565b600060208284031215614710578081fd5b8151613cd7816157fe565b600080600080600080600080600060a08a8c031215614738578687fd5b8935614743816157d9565b985060208a013567ffffffffffffffff8082111561475f578889fd5b61476b8d838e01614473565b909a50985060408c0135915080821115614783578485fd5b61478f8d838e01614473565b909850965060608c01359150808211156147a7578485fd5b6147b38d838e01614473565b909650945060808c01359150808211156147cb578384fd5b506147d88c828d016144bc565b915080935050809150509295985092959850929598565b60008060408385031215614546578182fd5b60008060008060808587031215614816578182fd5b8435614821816157d9565b93506020850135614831816157d9565b92506040850135614841816157d9565b9396929550929360600135925050565b600080600080600060a08688031215614868578283fd5b8535614873816157d9565b94506020860135614883816157d9565b93506040860135614893816157d9565b94979396509394606081013594506080013592915050565b600080600080600080600080610100898b0312156148c7578182fd5b88356148d2816157d9565b975060208901356148e2816157d9565b965060408901356148f2816157d9565b9550606089013594506080890135935061490f8a60a08b01614507565b925060c0890135915060e089013590509295985092959890939650565b60008060008060008060808789031215614944578384fd5b863561494f816157d9565b9550602087013561495f816157d9565b9450604087013567ffffffffffffffff8082111561497b578586fd5b6149878a838b01614473565b9096509450606089013591508082111561499f578384fd5b506149ac89828a01614473565b979a9699509497509295939492505050565b6000806000606084860312156149d2578081fd5b83356149dd816157d9565b925060208401356149ed816157fe565b929592945050506040919091013590565b600080600060608486031215614a12578081fd5b8335614a1d816157d9565b9250602084013591506040840135614644816157fe565b60008060408385031215614a46578182fd5b8235614a51816157d9565b9150602083013567ffffffffffffffff81168114614561578182fd5b60008060008060008060a08789031215614a85578384fd5b8635614a90816157d9565b95506020870135614aa0816157d9565b94506040870135614ab0816157d9565b935060608701359250608087013567ffffffffffffffff811115614ad2578283fd5b6149ac89828a016144bc565b600060208284031215614aef578081fd5b5051919050565b600060208284031215614b07578081fd5b815167ffffffffffffffff80821115614b1e578283fd5b818401915084601f830112614b31578283fd5b815181811115614b3f578384fd5b60405160207fffffffffffffffffffffffffffffffffffffffffffffffffffffffffffffffe0601f8401168201018181108482111715614b7d578586fd5b604052818152838201602001871015614b94578485fd5b614ba58260208301602087016157a9565b9695505050505050565b73ffffffffffffffffffffffffffffffffffffffff16815260200190565b6000815180845260208085019450808401835b83811015614bfc57815187529582019590820190600101614be0565b509495945050505050565b600082845282826020860137806020848601015260207fffffffffffffffffffffffffffffffffffffffffffffffffffffffffffffffe0601f85011685010190509392505050565b60008151808452614c678160208601602086016157a9565b601f017fffffffffffffffffffffffffffffffffffffffffffffffffffffffffffffffe0169290920160200192915050565b6000828483379101908152919050565b60008251614cbb8184602087016157a9565b9190910192915050565b60008451614cd78184602089016157a9565b91909101928352506020820152604001919050565b90565b73ffffffffffffffffffffffffffffffffffffffff91909116815260200190565b600060a0820173ffffffffffffffffffffffffffffffffffffffff8b168352602060a08185015281614d428b846156d8565b90508b9250835b8b811015614d7457828401614d6783614d6283886144fc565b614baf565b9094509150600101614d49565b508481036040860152614d8789826156d8565b9250507f07ffffffffffffffffffffffffffffffffffffffffffffffffffffffffffffff881115614db6578283fd5b8702614dc381838b61579d565b018281036060840152614dd68187614bcd565b90508281036080840152614deb818587614c07565b9b9a5050505050505050505050565b600073ffffffffffffffffffffffffffffffffffffffff808916835280881660208401525085604083015284606083015260a06080830152614e4060a083018486614c07565b98975050505050505050565b73ffffffffffffffffffffffffffffffffffffffff9384168152919092166020820152604081019190915260600190565b73ffffffffffffffffffffffffffffffffffffffff97881681529590961660208601526040850193909352606084019190915260ff16608083015260a082015260c081019190915260e00190565b73ffffffffffffffffffffffffffffffffffffffff929092168252602082015260400190565b604080825283519082018190526000906020906060840190828701845b82811015614f2c578151151584529284019290840190600101614f0e565b50505083810382850152808551614f4381846156d8565b91508192508381028201848801865b83811015614f7c578583038552614f6a838351614c4f565b94870194925090860190600101614f52565b50909998505050505050505050565b901515815260200190565b600087825260c06020830152614faf60c0830188614c4f565b73ffffffffffffffffffffffffffffffffffffffff9687166040840152949095166060820152911515608083015260a0909101529392505050565b93845260ff9290921660208401526040830152606082015260800190565b60006020825261174b602083018486614c07565b600060208252613cd76020830184614c4f565b60208082526015908201527f426f72696e674d6174683a20556e646572666c6f770000000000000000000000604082015260600190565b60208082526017908201527f42656e746f426f783a20536b696d20746f6f206d756368000000000000000000604082015260600190565b6020808252601c908201527f4d6173746572434d67723a2043616e6e6f7420617070726f7665203000000000604082015260600190565b6020808252601b908201527f4d6173746572434d67723a2075736572206e6f742073656e6465720000000000604082015260600190565b6020808252601c908201527f426f72696e6745524332303a205472616e73666572206661696c656400000000604082015260600190565b60208082526016908201527f42656e746f426f783a2063616e6e6f7420656d70747900000000000000000000604082015260600190565b60208082526015908201527f4f776e61626c653a207a65726f20616464726573730000000000000000000000604082015260600190565b60208082526013908201527f42656e746f426f783a204e6f20746f6b656e7300000000000000000000000000604082015260600190565b6020808252601c908201527f426f72696e674d6174683a2075696e74313238204f766572666c6f7700000000604082015260600190565b60208082526018908201527f426f72696e674d6174683a20416464204f766572666c6f770000000000000000604082015260600190565b60208082526017908201527f42656e746f426f783a20746f5b305d206e6f7420736574000000000000000000604082015260600190565b60208082526014908201527f42656e746f426f783a20746f206e6f7420736574000000000000000000000000604082015260600190565b6020808252601a908201527f53747261746567794d616e616765723a20546f6f206561726c79000000000000604082015260600190565b6020808252818101527f4f776e61626c653a2063616c6c6572206973206e6f7420746865206f776e6572604082015260600190565b6020808252601f908201527f42656e746f426f783a205472616e73666572206e6f7420617070726f76656400604082015260600190565b6020808252818101527f4f776e61626c653a2063616c6c657220213d2070656e64696e67206f776e6572604082015260600190565b6020808252601b908201527f426f72696e674d6174683a2075696e743634204f766572666c6f770000000000604082015260600190565b60208082526019908201527f4d6173746572434d67723a207573657220697320636c6f6e6500000000000000604082015260600190565b6020808252601d908201527f4d6173746572434d67723a20496e76616c6964205369676e6174757265000000604082015260600190565b6020808252818101527f426f72696e67466163746f72793a204e6f206d6173746572436f6e7472616374604082015260600190565b6020808252601b908201527f4d6173746572434d67723a206d617374657243206e6f74207365740000000000604082015260600190565b6020808252601b908201527f42656e746f426f783a206e6f206d6173746572436f6e74726163740000000000604082015260600190565b6020808252818101527f426f72696e6745524332303a205472616e7366657246726f6d206661696c6564604082015260600190565b6020808252601c908201527f4d6173746572434d67723a20557365722063616e6e6f74206265203000000000604082015260600190565b60208082526016908201527f42656e746f426f783a2057726f6e6720616d6f756e7400000000000000000000604082015260600190565b6020808252601b908201527f4d6173746572434d67723a206e6f742077686974656c69737465640000000000604082015260600190565b6020808252601d908201527f42656e746f426f783a20455448207472616e73666572206661696c6564000000604082015260600190565b60208082526018908201527f426f72696e674d6174683a204d756c204f766572666c6f770000000000000000604082015260600190565b6020808252818101527f53747261746567794d616e616765723a2054617267657420746f6f2068696768604082015260600190565b6fffffffffffffffffffffffffffffffff91909116815260200190565b6fffffffffffffffffffffffffffffffff92909216825273ffffffffffffffffffffffffffffffffffffffff16602082015260400190565b6fffffffffffffffffffffffffffffffff92831681529116602082015260400190565b90815260200190565b918252602082015260400190565b67ffffffffffffffff91909116815260200190565b67ffffffffffffffff93841681529190921660208201526fffffffffffffffffffffffffffffffff909116604082015260600190565b60008083357fffffffffffffffffffffffffffffffffffffffffffffffffffffffffffffffe184360301811261576e578283fd5b83018035915067ffffffffffffffff821115615788578283fd5b6020019150368190038213156144b557600080fd5b82818337506000910152565b60005b838110156157c45781810151838201526020016157ac565b838111156157d3576000848401525b50505050565b73ffffffffffffffffffffffffffffffffffffffff811681146157fb57600080fd5b50565b80151581146157fb57600080fdfe476976652046554c4c2061636365737320746f2066756e647320696e2028616e6420617070726f76656420746f292042656e746f426f783fa2646970667358221220733b1b9c985ff3e4f71b5bacf9b296982093fd4086abdc0dbbfde84bfdd01ae964736f6c634300060c0033",
  "devdoc": {
    "author": "BoringCrypto, Keno",
    "kind": "dev",
    "methods": {
      "batchFlashLoan(address,address[],address[],uint256[],bytes)": {
        "params": {
          "amounts": "of the tokens for each receiver.",
          "borrower": "The address of the contract that implements and conforms to `IBatchFlashBorrower` and handles the flashloan.",
          "data": "The calldata to pass to the `borrower` contract.",
          "receivers": "An array of the token receivers. A one-to-one mapping with `tokens` and `amounts`.",
          "tokens": "The addresses of the tokens."
        }
      },
      "deposit(address,address,address,uint256,uint256)": {
        "params": {
          "amount": "Token amount in native representation to deposit.",
          "from": "which account to pull the tokens.",
          "share": "Token amount represented in shares to deposit. Takes precedence over `amount`.",
          "to": "which account to push the tokens.",
          "token_": "The ERC-20 token to deposit."
        },
        "returns": {
          "amountOut": "The amount deposited.",
          "shareOut": "The deposited amount repesented in shares."
        }
      },
      "flashLoan(address,address,address,uint256,bytes)": {
        "params": {
          "amount": "of the tokens to receive.",
          "borrower": "The address of the contract that implements and conforms to `IFlashBorrower` and handles the flashloan.",
          "data": "The calldata to pass to the `borrower` contract.",
          "receiver": "Address of the token receiver.",
          "token": "The address of the token to receive."
        }
      },
      "harvest(address,bool,uint256)": {
        "params": {
          "balance": "True if housekeeping should be done.",
          "maxChangeAmount": "The maximum amount for either pulling or pushing from/to the `IStrategy` contract.",
          "token": "The address of the token for which a strategy is deployed."
        }
      },
      "setStrategy(address,address)": {
        "details": "Only the owner of this contract is allowed to change this.",
        "params": {
          "newStrategy": "The address of the contract that conforms to `IStrategy`.",
          "token": "The address of the token that maps to a strategy to change."
        }
      },
      "setStrategyTargetPercentage(address,uint64)": {
        "details": "Only the owner of this contract is allowed to change this.",
        "params": {
          "targetPercentage_": "The new target in percent. Must be lesser or equal to `MAX_TARGET_PERCENTAGE`.",
          "token": "The address of the token that maps to a strategy to change."
        }
      },
      "toAmount(address,uint256,bool)": {
        "details": "Helper function represent shares back into the `token` amount.",
        "params": {
          "roundUp": "If the result should be rounded up.",
          "share": "The amount of shares.",
          "token": "The ERC-20 token."
        },
        "returns": {
          "amount": "The share amount back into native representation."
        }
      },
      "toShare(address,uint256,bool)": {
        "details": "Helper function to represent an `amount` of `token` in shares.",
        "params": {
          "amount": "The `token` amount.",
          "roundUp": "If the result `share` should be rounded up.",
          "token": "The ERC-20 token."
        },
        "returns": {
          "share": "The token amount represented in shares."
        }
      },
      "transfer(address,address,address,uint256)": {
        "params": {
          "from": "which user to pull the tokens.",
          "share": "The amount of `token` in shares.",
          "to": "which user to push the tokens.",
          "token": "The ERC-20 token to transfer."
        }
      },
      "transferMultiple(address,address,address[],uint256[])": {
        "params": {
          "from": "which user to pull the tokens.",
          "shares": "The amount of `token` in shares for each receiver in `tos`.",
          "token": "The ERC-20 token to transfer.",
          "tos": "The receivers of the tokens."
        }
      },
      "withdraw(address,address,address,uint256,uint256)": {
        "params": {
          "amount": "of tokens. Either one of `amount` or `share` needs to be supplied.",
          "from": "which user to pull the tokens.",
          "share": "Like above, but `share` takes precedence over `amount`.",
          "to": "which user to push the tokens.",
          "token_": "The ERC-20 token to withdraw."
        }
      }
    },
    "title": "BentoBox",
    "version": 1
  },
  "userdoc": {
    "kind": "user",
    "methods": {
      "batchFlashLoan(address,address[],address[],uint256[],bytes)": {
        "notice": "Support for batched flashloans. Useful to request multiple different `tokens` in a single transaction."
      },
      "deposit(address,address,address,uint256,uint256)": {
        "notice": "Deposit an amount of `token` represented in either `amount` or `share`."
      },
      "flashLoan(address,address,address,uint256,bytes)": {
        "notice": "Flashloan ability."
      },
      "harvest(address,bool,uint256)": {
        "notice": "The actual process of yield farming. Executes the strategy of `token`. Optionally does housekeeping if `balance` is true. `maxChangeAmount` is relevant for skimming or withdrawing if `balance` is true."
      },
      "setStrategy(address,address)": {
        "notice": "Sets the contract address of a new strategy that conforms to `IStrategy` for `token`. Must be called twice with the same arguments. A new strategy becomes pending first and can be activated once `STRATEGY_DELAY` is over."
      },
      "setStrategyTargetPercentage(address,uint64)": {
        "notice": "Sets the target percentage of the strategy for `token`."
      },
      "transfer(address,address,address,uint256)": {
        "notice": "Transfer shares from a user account to another one."
      },
      "transferMultiple(address,address,address[],uint256[])": {
        "notice": "Transfer shares from a user account to multiple other ones."
      },
      "withdraw(address,address,address,uint256,uint256)": {
        "notice": "Withdraws an amount of `token` from a user account."
      }
    },
    "notice": "The BentoBox is a vault for tokens. The stored tokens can be flash loaned and used in strategies. Yield from this will go to the token depositors. Rebasing tokens ARE NOT supported and WILL cause loss of funds. Any funds transfered directly onto the BentoBox will be lost, use the deposit function instead.",
    "version": 1
  },
  "storageLayout": {
    "storage": [
      {
        "astId": 995,
        "contract": "contracts/flat/BentoBoxFlat.sol:BentoBoxV1",
        "label": "owner",
        "offset": 0,
        "slot": "0",
        "type": "t_address"
      },
      {
        "astId": 997,
        "contract": "contracts/flat/BentoBoxFlat.sol:BentoBoxV1",
        "label": "pendingOwner",
        "offset": 0,
        "slot": "1",
        "type": "t_address"
      },
      {
        "astId": 1129,
        "contract": "contracts/flat/BentoBoxFlat.sol:BentoBoxV1",
        "label": "masterContractOf",
        "offset": 0,
        "slot": "2",
        "type": "t_mapping(t_address,t_address)"
      },
      {
        "astId": 1222,
        "contract": "contracts/flat/BentoBoxFlat.sol:BentoBoxV1",
        "label": "masterContractApproved",
        "offset": 0,
        "slot": "3",
        "type": "t_mapping(t_address,t_mapping(t_address,t_bool))"
      },
      {
        "astId": 1226,
        "contract": "contracts/flat/BentoBoxFlat.sol:BentoBoxV1",
        "label": "whitelistedMasterContracts",
        "offset": 0,
        "slot": "4",
        "type": "t_mapping(t_address,t_bool)"
      },
      {
        "astId": 1230,
        "contract": "contracts/flat/BentoBoxFlat.sol:BentoBoxV1",
        "label": "nonces",
        "offset": 0,
        "slot": "5",
        "type": "t_mapping(t_address,t_uint256)"
      },
      {
        "astId": 1733,
        "contract": "contracts/flat/BentoBoxFlat.sol:BentoBoxV1",
        "label": "balanceOf",
        "offset": 0,
        "slot": "6",
        "type": "t_mapping(t_contract(IERC20)66,t_mapping(t_address,t_uint256))"
      },
      {
        "astId": 1737,
        "contract": "contracts/flat/BentoBoxFlat.sol:BentoBoxV1",
        "label": "totals",
        "offset": 0,
        "slot": "7",
        "type": "t_mapping(t_contract(IERC20)66,t_struct(Rebase)654_storage)"
      },
      {
        "astId": 1741,
        "contract": "contracts/flat/BentoBoxFlat.sol:BentoBoxV1",
        "label": "strategy",
        "offset": 0,
        "slot": "8",
        "type": "t_mapping(t_contract(IERC20)66,t_contract(IStrategy)135)"
      },
      {
        "astId": 1745,
        "contract": "contracts/flat/BentoBoxFlat.sol:BentoBoxV1",
        "label": "pendingStrategy",
        "offset": 0,
        "slot": "9",
        "type": "t_mapping(t_contract(IERC20)66,t_contract(IStrategy)135)"
      },
      {
        "astId": 1749,
        "contract": "contracts/flat/BentoBoxFlat.sol:BentoBoxV1",
        "label": "strategyData",
        "offset": 0,
        "slot": "10",
        "type": "t_mapping(t_contract(IERC20)66,t_struct(StrategyData)1705_storage)"
      }
    ],
    "types": {
      "t_address": {
        "encoding": "inplace",
        "label": "address",
        "numberOfBytes": "20"
      },
      "t_bool": {
        "encoding": "inplace",
        "label": "bool",
        "numberOfBytes": "1"
      },
      "t_contract(IERC20)66": {
        "encoding": "inplace",
        "label": "contract IERC20",
        "numberOfBytes": "20"
      },
      "t_contract(IStrategy)135": {
        "encoding": "inplace",
        "label": "contract IStrategy",
        "numberOfBytes": "20"
      },
      "t_mapping(t_address,t_address)": {
        "encoding": "mapping",
        "key": "t_address",
        "label": "mapping(address => address)",
        "numberOfBytes": "32",
        "value": "t_address"
      },
      "t_mapping(t_address,t_bool)": {
        "encoding": "mapping",
        "key": "t_address",
        "label": "mapping(address => bool)",
        "numberOfBytes": "32",
        "value": "t_bool"
      },
      "t_mapping(t_address,t_mapping(t_address,t_bool))": {
        "encoding": "mapping",
        "key": "t_address",
        "label": "mapping(address => mapping(address => bool))",
        "numberOfBytes": "32",
        "value": "t_mapping(t_address,t_bool)"
      },
      "t_mapping(t_address,t_uint256)": {
        "encoding": "mapping",
        "key": "t_address",
        "label": "mapping(address => uint256)",
        "numberOfBytes": "32",
        "value": "t_uint256"
      },
      "t_mapping(t_contract(IERC20)66,t_contract(IStrategy)135)": {
        "encoding": "mapping",
        "key": "t_contract(IERC20)66",
        "label": "mapping(contract IERC20 => contract IStrategy)",
        "numberOfBytes": "32",
        "value": "t_contract(IStrategy)135"
      },
      "t_mapping(t_contract(IERC20)66,t_mapping(t_address,t_uint256))": {
        "encoding": "mapping",
        "key": "t_contract(IERC20)66",
        "label": "mapping(contract IERC20 => mapping(address => uint256))",
        "numberOfBytes": "32",
        "value": "t_mapping(t_address,t_uint256)"
      },
      "t_mapping(t_contract(IERC20)66,t_struct(Rebase)654_storage)": {
        "encoding": "mapping",
        "key": "t_contract(IERC20)66",
        "label": "mapping(contract IERC20 => struct Rebase)",
        "numberOfBytes": "32",
        "value": "t_struct(Rebase)654_storage"
      },
      "t_mapping(t_contract(IERC20)66,t_struct(StrategyData)1705_storage)": {
        "encoding": "mapping",
        "key": "t_contract(IERC20)66",
        "label": "mapping(contract IERC20 => struct BentoBoxV1.StrategyData)",
        "numberOfBytes": "32",
        "value": "t_struct(StrategyData)1705_storage"
      },
      "t_struct(Rebase)654_storage": {
        "encoding": "inplace",
        "label": "struct Rebase",
        "members": [
          {
            "astId": 651,
            "contract": "contracts/flat/BentoBoxFlat.sol:BentoBoxV1",
            "label": "elastic",
            "offset": 0,
            "slot": "0",
            "type": "t_uint128"
          },
          {
            "astId": 653,
            "contract": "contracts/flat/BentoBoxFlat.sol:BentoBoxV1",
            "label": "base",
            "offset": 16,
            "slot": "0",
            "type": "t_uint128"
          }
        ],
        "numberOfBytes": "32"
      },
      "t_struct(StrategyData)1705_storage": {
        "encoding": "inplace",
        "label": "struct BentoBoxV1.StrategyData",
        "members": [
          {
            "astId": 1700,
            "contract": "contracts/flat/BentoBoxFlat.sol:BentoBoxV1",
            "label": "strategyStartDate",
            "offset": 0,
            "slot": "0",
            "type": "t_uint64"
          },
          {
            "astId": 1702,
            "contract": "contracts/flat/BentoBoxFlat.sol:BentoBoxV1",
            "label": "targetPercentage",
            "offset": 8,
            "slot": "0",
            "type": "t_uint64"
          },
          {
            "astId": 1704,
            "contract": "contracts/flat/BentoBoxFlat.sol:BentoBoxV1",
            "label": "balance",
            "offset": 16,
            "slot": "0",
            "type": "t_uint128"
          }
        ],
        "numberOfBytes": "32"
      },
      "t_uint128": {
        "encoding": "inplace",
        "label": "uint128",
        "numberOfBytes": "16"
      },
      "t_uint256": {
        "encoding": "inplace",
        "label": "uint256",
        "numberOfBytes": "32"
      },
      "t_uint64": {
        "encoding": "inplace",
        "label": "uint64",
        "numberOfBytes": "8"
      }
    }
  }
}