{
  "address": "0xf2614A233c7C3e7f08b1F887Ba133a13f1eb2c55",
  "abi": [
    {
      "inputs": [
        {
          "internalType": "address",
          "name": "_bentoBox",
          "type": "address"
        },
        {
          "internalType": "address[]",
          "name": "priviledgedUserList",
          "type": "address[]"
        }
      ],
      "stateMutability": "nonpayable",
      "type": "constructor"
    },
    {
      "inputs": [
        {
          "internalType": "uint256",
          "name": "amountOut",
          "type": "uint256"
        }
      ],
      "name": "MinimalOutputBalanceViolation",
      "type": "error"
    },
    {
      "anonymous": false,
      "inputs": [
        {
          "indexed": true,
          "internalType": "address",
          "name": "previousOwner",
          "type": "address"
        },
        {
          "indexed": true,
          "internalType": "address",
          "name": "newOwner",
          "type": "address"
        }
      ],
      "name": "OwnershipTransferred",
      "type": "event"
    },
    {
      "anonymous": false,
      "inputs": [
        {
          "indexed": true,
          "internalType": "address",
          "name": "from",
          "type": "address"
        },
        {
          "indexed": false,
          "internalType": "address",
          "name": "to",
          "type": "address"
        },
        {
          "indexed": true,
          "internalType": "address",
          "name": "tokenIn",
          "type": "address"
        },
        {
          "indexed": true,
          "internalType": "address",
          "name": "tokenOut",
          "type": "address"
        },
        {
          "indexed": false,
          "internalType": "uint256",
          "name": "amountIn",
          "type": "uint256"
        },
        {
          "indexed": false,
          "internalType": "uint256",
          "name": "amountOutMin",
          "type": "uint256"
        },
        {
          "indexed": false,
          "internalType": "uint256",
          "name": "amountOut",
          "type": "uint256"
        }
      ],
      "name": "Route",
      "type": "event"
    },
    {
      "inputs": [
        {
          "internalType": "int256",
          "name": "amount0Delta",
          "type": "int256"
        },
        {
          "internalType": "int256",
          "name": "amount1Delta",
          "type": "int256"
        },
        {
          "internalType": "bytes",
          "name": "data",
          "type": "bytes"
        }
      ],
      "name": "algebraSwapCallback",
      "outputs": [],
      "stateMutability": "nonpayable",
      "type": "function"
    },
    {
      "inputs": [],
      "name": "bentoBox",
      "outputs": [
        {
          "internalType": "contract IBentoBoxMinimal",
          "name": "",
          "type": "address"
        }
      ],
      "stateMutability": "view",
      "type": "function"
    },
    {
      "inputs": [],
      "name": "owner",
      "outputs": [
        {
          "internalType": "address",
          "name": "",
          "type": "address"
        }
      ],
      "stateMutability": "view",
      "type": "function"
    },
    {
      "inputs": [
        {
          "internalType": "int256",
          "name": "amount0Delta",
          "type": "int256"
        },
        {
          "internalType": "int256",
          "name": "amount1Delta",
          "type": "int256"
        },
        {
          "internalType": "bytes",
          "name": "data",
          "type": "bytes"
        }
      ],
      "name": "pancakeV3SwapCallback",
      "outputs": [],
      "stateMutability": "nonpayable",
      "type": "function"
    },
    {
      "inputs": [],
      "name": "pause",
      "outputs": [],
      "stateMutability": "nonpayable",
      "type": "function"
    },
    {
      "inputs": [
        {
          "internalType": "address",
          "name": "",
          "type": "address"
        }
      ],
      "name": "priviledgedUsers",
      "outputs": [
        {
          "internalType": "bool",
          "name": "",
          "type": "bool"
        }
      ],
      "stateMutability": "view",
      "type": "function"
    },
    {
      "inputs": [
        {
          "internalType": "address",
          "name": "tokenIn",
          "type": "address"
        },
        {
          "internalType": "uint256",
          "name": "amountIn",
          "type": "uint256"
        },
        {
          "internalType": "address",
          "name": "tokenOut",
          "type": "address"
        },
        {
          "internalType": "uint256",
          "name": "amountOutMin",
          "type": "uint256"
        },
        {
          "internalType": "address",
          "name": "to",
          "type": "address"
        },
        {
          "internalType": "bytes",
          "name": "route",
          "type": "bytes"
        }
      ],
      "name": "processRoute",
      "outputs": [
        {
          "internalType": "uint256",
          "name": "amountOut",
          "type": "uint256"
        }
      ],
      "stateMutability": "payable",
      "type": "function"
    },
    {
      "inputs": [
        {
          "internalType": "address payable",
          "name": "transferValueTo",
          "type": "address"
        },
        {
          "internalType": "uint256",
          "name": "amountValueTransfer",
          "type": "uint256"
        },
        {
          "internalType": "address",
          "name": "tokenIn",
          "type": "address"
        },
        {
          "internalType": "uint256",
          "name": "amountIn",
          "type": "uint256"
        },
        {
          "internalType": "address",
          "name": "tokenOut",
          "type": "address"
        },
        {
          "internalType": "uint256",
          "name": "amountOutMin",
          "type": "uint256"
        },
        {
          "internalType": "address",
          "name": "to",
          "type": "address"
        },
        {
          "internalType": "bytes",
          "name": "route",
          "type": "bytes"
        }
      ],
      "name": "processRouteWithTransferValueInput",
      "outputs": [
        {
          "internalType": "uint256",
          "name": "amountOut",
          "type": "uint256"
        }
      ],
      "stateMutability": "payable",
      "type": "function"
    },
    {
      "inputs": [
        {
          "internalType": "address payable",
          "name": "transferValueTo",
          "type": "address"
        },
        {
          "internalType": "uint256",
          "name": "amountValueTransfer",
          "type": "uint256"
        },
        {
          "internalType": "address",
          "name": "tokenIn",
          "type": "address"
        },
        {
          "internalType": "uint256",
          "name": "amountIn",
          "type": "uint256"
        },
        {
          "internalType": "address",
          "name": "tokenOut",
          "type": "address"
        },
        {
          "internalType": "uint256",
          "name": "amountOutMin",
          "type": "uint256"
        },
        {
          "internalType": "address",
          "name": "to",
          "type": "address"
        },
        {
          "internalType": "bytes",
          "name": "route",
          "type": "bytes"
        }
      ],
      "name": "processRouteWithTransferValueOutput",
      "outputs": [
        {
          "internalType": "uint256",
          "name": "amountOut",
          "type": "uint256"
        }
      ],
      "stateMutability": "payable",
      "type": "function"
    },
    {
      "inputs": [],
      "name": "renounceOwnership",
      "outputs": [],
      "stateMutability": "nonpayable",
      "type": "function"
    },
    {
      "inputs": [],
      "name": "resume",
      "outputs": [],
      "stateMutability": "nonpayable",
      "type": "function"
    },
    {
      "inputs": [
        {
          "internalType": "address",
          "name": "user",
          "type": "address"
        },
        {
          "internalType": "bool",
          "name": "priviledge",
          "type": "bool"
        }
      ],
      "name": "setPriviledge",
      "outputs": [],
      "stateMutability": "nonpayable",
      "type": "function"
    },
    {
      "inputs": [
        {
          "internalType": "address",
          "name": "newOwner",
          "type": "address"
        }
      ],
      "name": "transferOwnership",
      "outputs": [],
      "stateMutability": "nonpayable",
      "type": "function"
    },
    {
      "inputs": [
        {
          "internalType": "address",
          "name": "transferValueTo",
          "type": "address"
        },
        {
          "internalType": "uint256",
          "name": "amountValueTransfer",
          "type": "uint256"
        },
        {
          "internalType": "address",
          "name": "tokenIn",
          "type": "address"
        },
        {
          "internalType": "uint256",
          "name": "amountIn",
          "type": "uint256"
        },
        {
          "internalType": "address",
          "name": "tokenOut",
          "type": "address"
        },
        {
          "internalType": "uint256",
          "name": "amountOutMin",
          "type": "uint256"
        },
        {
          "internalType": "address",
          "name": "to",
          "type": "address"
        },
        {
          "internalType": "bytes",
          "name": "route",
          "type": "bytes"
        }
      ],
      "name": "transferValueAndprocessRoute",
      "outputs": [
        {
          "internalType": "uint256",
          "name": "amountOut",
          "type": "uint256"
        }
      ],
      "stateMutability": "payable",
      "type": "function"
    },
    {
      "inputs": [
        {
          "internalType": "int256",
          "name": "amount0Delta",
          "type": "int256"
        },
        {
          "internalType": "int256",
          "name": "amount1Delta",
          "type": "int256"
        },
        {
          "internalType": "bytes",
          "name": "data",
          "type": "bytes"
        }
      ],
      "name": "uniswapV3SwapCallback",
      "outputs": [],
      "stateMutability": "nonpayable",
      "type": "function"
    },
    {
      "stateMutability": "payable",
      "type": "receive"
    }
  ],
  "transactionHash": "0x02c6a17a485224d22f868d1e5d7630f06d5567125fc70a57c64416aa053036d4",
  "args": [
    "0x0000000000000000000000000000000000000000",
    []
  ],
  "numDeployments": 1,
  "solcInputHash": "9252879aaeb02fabe759ce8768addec4",
  "bytecode": "0x60a06040526002805461ffff60a01b191661010160a01b1790553480156200002657600080fd5b50604051620040a3380380620040a383398101604081905262000049916200016e565b6200005433620000eb565b6001600160a01b038216608052600280546001600160a01b031916600117905560005b8151811015620000e25760018060008484815181106200009b576200009b62000257565b6020908102919091018101516001600160a01b03168252810191909152604001600020805460ff191691151591909117905580620000d9816200026d565b91505062000077565b50505062000297565b600080546001600160a01b038381166001600160a01b0319831681178455604051919092169283917f8be0079c531659141344cd1fd0a4f28419497f9722a3daafe3b4186f6b6457e09190a35050565b80516001600160a01b03811681146200015357600080fd5b919050565b634e487b7160e01b600052604160045260246000fd5b600080604083850312156200018257600080fd5b6200018d836200013b565b602084810151919350906001600160401b0380821115620001ad57600080fd5b818601915086601f830112620001c257600080fd5b815181811115620001d757620001d762000158565b8060051b604051601f19603f83011681018181108582111715620001ff57620001ff62000158565b6040529182528482019250838101850191898311156200021e57600080fd5b938501935b82851015620002475762000237856200013b565b8452938501939285019262000223565b8096505050505050509250929050565b634e487b7160e01b600052603260045260246000fd5b60006000198214156200029057634e487b7160e01b600052601160045260246000fd5b5060010190565b608051613da3620003006000396000818161018d01528181611798015281816127380152818161279d01528181612807015281816128cc0152818161297901528181612a5d01528181612b6401528181612c1001528181612cdf0152612df10152613da36000f3fe6080604052600436106100ec5760003560e01c8063715018a61161008a5780639a1f3406116100595780639a1f34061461023c578063cd0fb7a71461025c578063f2fde38b1461029c578063fa461e33146102bc57600080fd5b8063715018a6146101d45780638456cb59146101e95780638da5cb5b146101fe57806393b3774c1461022957600080fd5b80632c8958f6116100c65780632c8958f61461010f57806347f8bd41146101555780636678ec1f146101685780636b2ace871461017b57600080fd5b8063046f7da2146100f857806323a69e751461010f5780632646478b1461012f57600080fd5b366100f357005b600080fd5b34801561010457600080fd5b5061010d6102dc565b005b34801561011b57600080fd5b5061010d61012a3660046135d4565b6103e4565b61014261013d366004613750565b6103f6565b6040519081526020015b60405180910390f35b6101426101633660046137d7565b6105a0565b6101426101763660046137d7565b61076e565b34801561018757600080fd5b506101af7f000000000000000000000000000000000000000000000000000000000000000081565b60405173ffffffffffffffffffffffffffffffffffffffff909116815260200161014c565b3480156101e057600080fd5b5061010d61091c565b3480156101f557600080fd5b5061010d610930565b34801561020a57600080fd5b5060005473ffffffffffffffffffffffffffffffffffffffff166101af565b6101426102373660046137d7565b610a33565b34801561024857600080fd5b5061010d61025736600461388a565b610ba4565b34801561026857600080fd5b5061028c6102773660046138c3565b60016020526000908152604090205460ff1681565b604051901515815260200161014c565b3480156102a857600080fd5b5061010d6102b73660046138c3565b610c02565b3480156102c857600080fd5b5061010d6102d73660046135d4565b610cb9565b60005473ffffffffffffffffffffffffffffffffffffffff1633148061031157503360009081526001602052604090205460ff165b6103a2576040517f08c379a000000000000000000000000000000000000000000000000000000000815260206004820152603060248201527f52503a2063616c6c6572206973206e6f7420746865206f776e6572206f72206160448201527f2070726976696c6567656420757365720000000000000000000000000000000060648201526084015b60405180910390fd5b600280547fffffffffffffffffffff00ffffffffffffffffffffffffffffffffffffffffff167501000000000000000000000000000000000000000000179055565b6103f084848484610cb9565b50505050565b60025460009074010000000000000000000000000000000000000000900460ff16600114610480576040517f08c379a000000000000000000000000000000000000000000000000000000000815260206004820152601860248201527f526f75746550726f636573736f72206973206c6f636b656400000000000000006044820152606401610399565b6002547501000000000000000000000000000000000000000000900460ff16600114610508576040517f08c379a000000000000000000000000000000000000000000000000000000000815260206004820152601860248201527f526f75746550726f636573736f722069732070617573656400000000000000006044820152606401610399565b600280547fffffffffffffffffffffff00ffffffffffffffffffffffffffffffffffffffff1674020000000000000000000000000000000000000000179055610555878787878787610e67565b9050600280547fffffffffffffffffffffff00ffffffffffffffffffffffffffffffffffffffff16740100000000000000000000000000000000000000001790559695505050505050565b60025460009074010000000000000000000000000000000000000000900460ff1660011461062a576040517f08c379a000000000000000000000000000000000000000000000000000000000815260206004820152601860248201527f526f75746550726f636573736f72206973206c6f636b656400000000000000006044820152606401610399565b6002547501000000000000000000000000000000000000000000900460ff166001146106b2576040517f08c379a000000000000000000000000000000000000000000000000000000000815260206004820152601860248201527f526f75746550726f636573736f722069732070617573656400000000000000006044820152606401610399565b600280547fffffffffffffffffffffff00ffffffffffffffffffffffffffffffffffffffff167402000000000000000000000000000000000000000017905561071273ffffffffffffffffffffffffffffffffffffffff88168a8a61121d565b610720878787878787610e67565b90505b600280547fffffffffffffffffffffff00ffffffffffffffffffffffffffffffffffffffff167401000000000000000000000000000000000000000017905598975050505050505050565b60025460009074010000000000000000000000000000000000000000900460ff166001146107f8576040517f08c379a000000000000000000000000000000000000000000000000000000000815260206004820152601860248201527f526f75746550726f636573736f72206973206c6f636b656400000000000000006044820152606401610399565b6002547501000000000000000000000000000000000000000000900460ff16600114610880576040517f08c379a000000000000000000000000000000000000000000000000000000000815260206004820152601860248201527f526f75746550726f636573736f722069732070617573656400000000000000006044820152606401610399565b600280547fffffffffffffffffffffff00ffffffffffffffffffffffffffffffffffffffff16740200000000000000000000000000000000000000001790556108cd878787873087610e67565b90506108f073ffffffffffffffffffffffffffffffffffffffff86168a8a611280565b610723836108fe8a84613916565b73ffffffffffffffffffffffffffffffffffffffff88169190611280565b6109246112dd565b61092e600061135e565b565b60005473ffffffffffffffffffffffffffffffffffffffff1633148061096557503360009081526001602052604090205460ff165b6109f1576040517f08c379a000000000000000000000000000000000000000000000000000000000815260206004820152603060248201527f52503a2063616c6c6572206973206e6f7420746865206f776e6572206f72206160448201527f2070726976696c656765642075736572000000000000000000000000000000006064820152608401610399565b600280547fffffffffffffffffffff00ffffffffffffffffffffffffffffffffffffffffff167502000000000000000000000000000000000000000000179055565b60025460009074010000000000000000000000000000000000000000900460ff16600114610abd576040517f08c379a000000000000000000000000000000000000000000000000000000000815260206004820152601860248201527f526f75746550726f636573736f72206973206c6f636b656400000000000000006044820152606401610399565b6002547501000000000000000000000000000000000000000000900460ff16600114610b45576040517f08c379a000000000000000000000000000000000000000000000000000000000815260206004820152601860248201527f526f75746550726f636573736f722069732070617573656400000000000000006044820152606401610399565b600280547fffffffffffffffffffffff00ffffffffffffffffffffffffffffffffffffffff167402000000000000000000000000000000000000000017905561071273ffffffffffffffffffffffffffffffffffffffff8a16896113d3565b610bac6112dd565b73ffffffffffffffffffffffffffffffffffffffff91909116600090815260016020526040902080547fffffffffffffffffffffffffffffffffffffffffffffffffffffffffffffff0016911515919091179055565b610c0a6112dd565b73ffffffffffffffffffffffffffffffffffffffff8116610cad576040517f08c379a000000000000000000000000000000000000000000000000000000000815260206004820152602660248201527f4f776e61626c653a206e6577206f776e657220697320746865207a65726f206160448201527f64647265737300000000000000000000000000000000000000000000000000006064820152608401610399565b610cb68161135e565b50565b60025473ffffffffffffffffffffffffffffffffffffffff163314610d60576040517f08c379a000000000000000000000000000000000000000000000000000000000815260206004820152603e60248201527f526f75746550726f636573736f722e756e697377617056335377617043616c6c60448201527f6261636b3a2063616c6c2066726f6d20756e6b6e6f776e20736f7572636500006064820152608401610399565b6000808513610d6f5783610d71565b845b905060008113610e03576040517f08c379a000000000000000000000000000000000000000000000000000000000815260206004820152603960248201527f526f75746550726f636573736f722e756e697377617056335377617043616c6c60448201527f6261636b3a206e6f7420706f73697469766520616d6f756e74000000000000006064820152608401610399565b600280547fffffffffffffffffffffffff00000000000000000000000000000000000000001660011790556000610e3c838501856138c3565b9050610e5f73ffffffffffffffffffffffffffffffffffffffff82163384611445565b505050505050565b600080610e8a73ffffffffffffffffffffffffffffffffffffffff891633611519565b90506000610eae73ffffffffffffffffffffffffffffffffffffffff881686611519565b905087600080610ed287604080518082019091528181528151909101602082015290565b90505b805160208201511115611028576000610ef48280516001018051915290565b90508060ff1660011415610f1e576000610f0d83611604565b905083610f18578094505b50611017565b8060ff1660021415610f3957610f34828d6116c9565b611017565b8060ff1660031415610f50576000610f0d836116e9565b8060ff1660041415610f6557610f348261170f565b8060ff1660051415610f7a57610f3482611735565b8060ff1660061415610f9057610f348d8361183a565b6040517f08c379a0000000000000000000000000000000000000000000000000000000008152602060048201526024808201527f526f75746550726f636573736f723a20556e6b6e6f776e20636f6d6d616e642060448201527f636f6465000000000000000000000000000000000000000000000000000000006064820152608401610399565b6110208361392d565b925050610ed5565b506000905061104d73ffffffffffffffffffffffffffffffffffffffff8c1633611519565b905073ffffffffffffffffffffffffffffffffffffffff8b1673eeeeeeeeeeeeeeeeeeeeeeeeeeeeeeeeeeeeeeee14611124578361108b8b83613966565b61109690600a613966565b1015611124576040517f08c379a000000000000000000000000000000000000000000000000000000000815260206004820152602f60248201527f526f75746550726f636573736f723a204d696e696d616c20696e70757420626160448201527f6c616e63652076696f6c6174696f6e00000000000000000000000000000000006064820152608401610399565b600061114673ffffffffffffffffffffffffffffffffffffffff8b1689611519565b90506111528985613966565b811015611198576111638482613916565b6040517f963b34a500000000000000000000000000000000000000000000000000000000815260040161039991815260200190565b6111a28482613916565b6040805173ffffffffffffffffffffffffffffffffffffffff8b81168252602082018790529181018c905260608101839052919750808c1691908e169033907f2db5ddd0b42bdbca0d69ea16f234a870a485854ae0d91f16643d6f317d8b89949060800160405180910390a450505050509695505050505050565b73ffffffffffffffffffffffffffffffffffffffff831673eeeeeeeeeeeeeeeeeeeeeeeeeeeeeeeeeeeeeeee141561125e5761125982826113d3565b505050565b61125973ffffffffffffffffffffffffffffffffffffffff841633848461196a565b73ffffffffffffffffffffffffffffffffffffffff831673eeeeeeeeeeeeeeeeeeeeeeeeeeeeeeeeeeeeeeee14156112bc5761125982826113d3565b61125973ffffffffffffffffffffffffffffffffffffffff84168383611445565b60005473ffffffffffffffffffffffffffffffffffffffff16331461092e576040517f08c379a000000000000000000000000000000000000000000000000000000000815260206004820181905260248201527f4f776e61626c653a2063616c6c6572206973206e6f7420746865206f776e65726044820152606401610399565b6000805473ffffffffffffffffffffffffffffffffffffffff8381167fffffffffffffffffffffffff0000000000000000000000000000000000000000831681178455604051919092169283917f8be0079c531659141344cd1fd0a4f28419497f9722a3daafe3b4186f6b6457e09190a35050565b6000808373ffffffffffffffffffffffffffffffffffffffff168360405160006040518083038185875af1925050503d806000811461142e576040519150601f19603f3d011682016040523d82523d6000602084013e611433565b606091505b5091509150816103f057805181602001fd5b60405173ffffffffffffffffffffffffffffffffffffffff83166024820152604481018290526112599084907fa9059cbb00000000000000000000000000000000000000000000000000000000906064015b604080517fffffffffffffffffffffffffffffffffffffffffffffffffffffffffffffffe08184030181529190526020810180517bffffffffffffffffffffffffffffffffffffffffffffffffffffffff167fffffffff00000000000000000000000000000000000000000000000000000000909316929092179091526119c8565b600073ffffffffffffffffffffffffffffffffffffffff831673eeeeeeeeeeeeeeeeeeeeeeeeeeeeeeeeeeeeeeee141561156b575073ffffffffffffffffffffffffffffffffffffffff8116316115fe565b6040517f70a0823100000000000000000000000000000000000000000000000000000000815273ffffffffffffffffffffffffffffffffffffffff83811660048301528416906370a0823190602401602060405180830381865afa1580156115d7573d6000803e3d6000fd5b505050506040513d601f19601f820116820180604052508101906115fb919061397e565b90505b92915050565b6000806116178380516014018051915290565b6040517f70a0823100000000000000000000000000000000000000000000000000000000815230600482015290915073ffffffffffffffffffffffffffffffffffffffff8216906370a0823190602401602060405180830381865afa158015611684573d6000803e3d6000fd5b505050506040513d601f19601f820116820180604052508101906116a8919061397e565b915081156116b7576001820391505b6116c383308385611ad4565b50919050565b60006116db8380516014018051915290565b905061125983338385611ad4565b4761170a823073eeeeeeeeeeeeeeeeeeeeeeeeeeeeeeeeeeeeeeee84611ad4565b919050565b60006117218280516014018051915290565b9050611731826000836000611b2f565b5050565b60006117478280516014018051915290565b6040517ff7888aec00000000000000000000000000000000000000000000000000000000815273ffffffffffffffffffffffffffffffffffffffff80831660048301523060248301529192506000917f0000000000000000000000000000000000000000000000000000000000000000169063f7888aec90604401602060405180830381865afa1580156117df573d6000803e3d6000fd5b505050506040513d601f19601f82011682018060405250810190611803919061397e565b9050801561182e577fffffffffffffffffffffffffffffffffffffffffffffffffffffffffffffffff015b61125983308484611ad4565b600061184c8280516020018051915290565b905060006118608380516020018051915290565b905060006118748480516001018051915290565b905060006118888580516020018051915290565b9050600061189c8680516020018051915290565b6040517fdd62ed3e000000000000000000000000000000000000000000000000000000008152336004820152306024820152909150859073ffffffffffffffffffffffffffffffffffffffff89169063dd62ed3e90604401602060405180830381865afa158015611911573d6000803e3d6000fd5b505050506040513d601f19601f82011682018060405250810190611935919061397e565b10156119615761196173ffffffffffffffffffffffffffffffffffffffff881633308888888888611c63565b50505050505050565b60405173ffffffffffffffffffffffffffffffffffffffff808516602483015283166044820152606481018290526103f09085907f23b872dd0000000000000000000000000000000000000000000000000000000090608401611497565b6000611a2a826040518060400160405280602081526020017f5361666545524332303a206c6f772d6c6576656c2063616c6c206661696c65648152508573ffffffffffffffffffffffffffffffffffffffff16611ee39092919063ffffffff16565b8051909150156112595780806020019051810190611a489190613997565b611259576040517f08c379a000000000000000000000000000000000000000000000000000000000815260206004820152602a60248201527f5361666545524332303a204552433230206f7065726174696f6e20646964206e60448201527f6f742073756363656564000000000000000000000000000000000000000000006064820152608401610399565b6000611ae68580516001018051915290565b905060005b8160ff16811015610e5f576000611b088780516002018051915290565b61ffff8082168602049485900394909150611b2588888884611b2f565b5050600101611aeb565b6000611b418580516001018051915290565b905060ff8116611b5c57611b5785858585611efa565b611c5c565b8060ff1660011415611b7457611b57858585856122af565b8060ff1660021415611b8c57611b57858585856124ef565b8060ff1660031415611ba457611b57858585856126cd565b8060ff1660041415611bbc57611b5785858585612d55565b8060ff1660051415611bd457611b5785858585612ee3565b6040517f08c379a000000000000000000000000000000000000000000000000000000000815260206004820152602160248201527f526f75746550726f636573736f723a20556e6b6e6f776e20706f6f6c2074797060448201527f65000000000000000000000000000000000000000000000000000000000000006064820152608401610399565b5050505050565b6040517f7ecebe0000000000000000000000000000000000000000000000000000000000815273ffffffffffffffffffffffffffffffffffffffff8881166004830152600091908a1690637ecebe0090602401602060405180830381865afa158015611cd3573d6000803e3d6000fd5b505050506040513d601f19601f82011682018060405250810190611cf7919061397e565b6040517fd505accf00000000000000000000000000000000000000000000000000000000815273ffffffffffffffffffffffffffffffffffffffff8a811660048301528981166024830152604482018990526064820188905260ff8716608483015260a4820186905260c48201859052919250908a169063d505accf9060e401600060405180830381600087803b158015611d9157600080fd5b505af1158015611da5573d6000803e3d6000fd5b50506040517f7ecebe0000000000000000000000000000000000000000000000000000000000815273ffffffffffffffffffffffffffffffffffffffff8b81166004830152600093508c169150637ecebe0090602401602060405180830381865afa158015611e18573d6000803e3d6000fd5b505050506040513d601f19601f82011682018060405250810190611e3c919061397e565b9050611e49826001613966565b8114611ed7576040517f08c379a000000000000000000000000000000000000000000000000000000000815260206004820152602160248201527f5361666545524332303a207065726d697420646964206e6f742073756363656560448201527f64000000000000000000000000000000000000000000000000000000000000006064820152608401610399565b50505050505050505050565b6060611ef2848460008561329a565b949350505050565b6000611f0c8580516014018051915290565b90506000611f208680516001018051915290565b90506000611f348780516014018051915290565b90506000611f488880516003018051915290565b905073ffffffffffffffffffffffffffffffffffffffff8716301415611f8e57611f8973ffffffffffffffffffffffffffffffffffffffff87168587611445565b611fce565b73ffffffffffffffffffffffffffffffffffffffff8716331415611fce57611fce73ffffffffffffffffffffffffffffffffffffffff871633868861196a565b6000808573ffffffffffffffffffffffffffffffffffffffff16630902f1ac6040518163ffffffff1660e01b8152600401606060405180830381865afa15801561201c573d6000803e3d6000fd5b505050506040513d601f19601f8201168201806040525081019061204091906139d2565b506dffffffffffffffffffffffffffff1691506dffffffffffffffffffffffffffff1691506000821180156120755750600081115b6120db576040517f08c379a000000000000000000000000000000000000000000000000000000000815260206004820152601360248201527f57726f6e6720706f6f6c207265736572766573000000000000000000000000006044820152606401610399565b6000808660ff166001146120f05782846120f3565b83835b6040517f70a0823100000000000000000000000000000000000000000000000000000000815273ffffffffffffffffffffffffffffffffffffffff8b8116600483015292945090925083918c16906370a0823190602401602060405180830381865afa158015612167573d6000803e3d6000fd5b505050506040513d601f19601f8201168201806040525081019061218b919061397e565b6121959190613916565b985060006121a686620f4240613a22565b6121b59062ffffff168b613a46565b90506000816121c785620f4240613a46565b6121d19190613966565b6121db8484613a46565b6121e59190613a83565b90506000808a60ff166001146121fd57826000612201565b6000835b604080516000815260208101918290527f022c0d9f00000000000000000000000000000000000000000000000000000000909152919350915073ffffffffffffffffffffffffffffffffffffffff8d169063022c0d9f9061226b90859085908f9060248101613b34565b600060405180830381600087803b15801561228557600080fd5b505af1158015612299573d6000803e3d6000fd5b5050505050505050505050505050505050505050565b60006122c18580516014018051915290565b90506000806122d68780516001018051915290565b60ff1611905060006122ee8780516014018051915290565b905073ffffffffffffffffffffffffffffffffffffffff86163314156123305761233073ffffffffffffffffffffffffffffffffffffffff861633308761196a565b600280547fffffffffffffffffffffffff00000000000000000000000000000000000000001673ffffffffffffffffffffffffffffffffffffffff851690811790915563128acb08828487816123a45761239f600173fffd8963efd1fc6a506488495d951d5263988d26613b6f565b6123b4565b6123b46401000276a36001613b9c565b6040805173ffffffffffffffffffffffffffffffffffffffff8d166020820152016040516020818303038152906040526040518663ffffffff1660e01b8152600401612404959493929190613bd4565b60408051808303816000875af1158015612422573d6000803e3d6000fd5b505050506040513d601f19601f820116820180604052508101906124469190613c1b565b505060025473ffffffffffffffffffffffffffffffffffffffff16600114611961576040517f08c379a0000000000000000000000000000000000000000000000000000000008152602060048201526024808201527f526f75746550726f636573736f722e73776170556e6956333a20756e6578706560448201527f63746564000000000000000000000000000000000000000000000000000000006064820152608401610399565b60006125018580516001018051915290565b905060006125158680516014018051915290565b9050600180831614156125e45760006125348780516014018051915290565b9050600283166125a0578073ffffffffffffffffffffffffffffffffffffffff1663d0e30db0856040518263ffffffff1660e01b81526004016000604051808303818588803b15801561258657600080fd5b505af115801561259a573d6000803e3d6000fd5b50505050505b73ffffffffffffffffffffffffffffffffffffffff821630146125de576125de73ffffffffffffffffffffffffffffffffffffffff82168386611445565b50610e5f565b600282166126ad5773ffffffffffffffffffffffffffffffffffffffff851633141561262c5761262c73ffffffffffffffffffffffffffffffffffffffff851633308661196a565b6040517f2e1a7d4d0000000000000000000000000000000000000000000000000000000081526004810184905273ffffffffffffffffffffffffffffffffffffffff851690632e1a7d4d90602401600060405180830381600087803b15801561269457600080fd5b505af11580156126a8573d6000803e3d6000fd5b505050505b610e5f73ffffffffffffffffffffffffffffffffffffffff8216846113d3565b60006126df8580516001018051915290565b905060006126f38680516014018051915290565b905060ff821615612aee5773ffffffffffffffffffffffffffffffffffffffff85163014156127625761275d73ffffffffffffffffffffffffffffffffffffffff85167f000000000000000000000000000000000000000000000000000000000000000085611445565b612a18565b73ffffffffffffffffffffffffffffffffffffffff85163314156127c25761275d73ffffffffffffffffffffffffffffffffffffffff8516337f00000000000000000000000000000000000000000000000000000000000000008661196a565b6040517f4ffe34db00000000000000000000000000000000000000000000000000000000815273ffffffffffffffffffffffffffffffffffffffff85811660048301527f00000000000000000000000000000000000000000000000000000000000000001690634ffe34db906024016040805180830381865afa15801561284d573d6000803e3d6000fd5b505050506040513d601f19601f820116820180604052508101906128719190613c5f565b516040517fdf23b45b00000000000000000000000000000000000000000000000000000000815273ffffffffffffffffffffffffffffffffffffffff86811660048301526fffffffffffffffffffffffffffffffff909216917f0000000000000000000000000000000000000000000000000000000000000000169063df23b45b90602401606060405180830381865afa158015612913573d6000803e3d6000fd5b505050506040513d601f19601f820116820180604052508101906129379190613cd2565b60409081015190517f70a0823100000000000000000000000000000000000000000000000000000000815273ffffffffffffffffffffffffffffffffffffffff7f0000000000000000000000000000000000000000000000000000000000000000811660048301526fffffffffffffffffffffffffffffffff909216918716906370a0823190602401602060405180830381865afa1580156129dd573d6000803e3d6000fd5b505050506040513d601f19601f82011682018060405250810190612a01919061397e565b612a0b9190613966565b612a159190613916565b92505b6040517f02b9446c00000000000000000000000000000000000000000000000000000000815273ffffffffffffffffffffffffffffffffffffffff85811660048301527f000000000000000000000000000000000000000000000000000000000000000081166024830181905290831660448301526064820185905260006084830152906302b9446c9060a40160408051808303816000875af1158015612ac3573d6000803e3d6000fd5b505050506040513d601f19601f82011682018060405250810190612ae79190613c1b565b5050610e5f565b73ffffffffffffffffffffffffffffffffffffffff851615612bc5576040517ff18d03cc00000000000000000000000000000000000000000000000000000000815273ffffffffffffffffffffffffffffffffffffffff85811660048301528681166024830152306044830152606482018590527f0000000000000000000000000000000000000000000000000000000000000000169063f18d03cc90608401600060405180830381600087803b158015612ba857600080fd5b505af1158015612bbc573d6000803e3d6000fd5b50505050612c7e565b6040517ff7888aec00000000000000000000000000000000000000000000000000000000815273ffffffffffffffffffffffffffffffffffffffff85811660048301523060248301527f0000000000000000000000000000000000000000000000000000000000000000169063f7888aec90604401602060405180830381865afa158015612c57573d6000803e3d6000fd5b505050506040513d601f19601f82011682018060405250810190612c7b919061397e565b92505b6040517f97da6d3000000000000000000000000000000000000000000000000000000000815273ffffffffffffffffffffffffffffffffffffffff8581166004830152306024830152828116604483015260006064830152608482018590527f000000000000000000000000000000000000000000000000000000000000000016906397da6d309060a40160408051808303816000875af1158015612d27573d6000803e3d6000fd5b505050506040513d601f19601f82011682018060405250810190612d4b9190613c1b565b5050505050505050565b6000612d678580516014018051915290565b85516020808201805190920101875290915073ffffffffffffffffffffffffffffffffffffffff851615612e4e576040517ff18d03cc00000000000000000000000000000000000000000000000000000000815273ffffffffffffffffffffffffffffffffffffffff858116600483015286811660248301528381166044830152606482018590527f0000000000000000000000000000000000000000000000000000000000000000169063f18d03cc90608401600060405180830381600087803b158015612e3557600080fd5b505af1158015612e49573d6000803e3d6000fd5b505050505b6040517f627dd56a00000000000000000000000000000000000000000000000000000000815273ffffffffffffffffffffffffffffffffffffffff83169063627dd56a90612ea0908490600401613d3e565b6020604051808303816000875af1158015612ebf573d6000803e3d6000fd5b505050506040513d601f19601f82011682018060405250810190611961919061397e565b6000612ef58580516014018051915290565b90506000612f098680516001018051915290565b90506000612f1d8780516001018051915290565b60000b90506000612f348880516001018051915290565b60000b90506000612f4b8980516014018051915290565b90506000612f5f8a80516014018051915290565b9050600073ffffffffffffffffffffffffffffffffffffffff891673eeeeeeeeeeeeeeeeeeeeeeeeeeeeeeeeeeeeeeee1415613048576040517f3df02124000000000000000000000000000000000000000000000000000000008152600f86810b600483015285900b6024820152604481018990526000606482015273ffffffffffffffffffffffffffffffffffffffff881690633df02124908a9060840160206040518083038185885af115801561301c573d6000803e3d6000fd5b50505050506040513d601f19601f82011682018060405250810190613041919061397e565b905061324f565b73ffffffffffffffffffffffffffffffffffffffff8a163314156130885761308873ffffffffffffffffffffffffffffffffffffffff8a1633308b61196a565b6130a973ffffffffffffffffffffffffffffffffffffffff8a16888a6133b3565b5060ff861661315c576040517f3df02124000000000000000000000000000000000000000000000000000000008152600f86810b600483015285900b6024820152604481018990526000606482015273ffffffffffffffffffffffffffffffffffffffff881690633df02124906084016020604051808303816000875af1158015613138573d6000803e3d6000fd5b505050506040513d601f19601f82011682018060405250810190613041919061397e565b600061317e73ffffffffffffffffffffffffffffffffffffffff841630611519565b6040517f3df02124000000000000000000000000000000000000000000000000000000008152600f88810b600483015287900b6024820152604481018b90526000606482015290915073ffffffffffffffffffffffffffffffffffffffff891690633df0212490608401600060405180830381600087803b15801561320257600080fd5b505af1158015613216573d6000803e3d6000fd5b506000925061323e91505073ffffffffffffffffffffffffffffffffffffffff851630611519565b905061324a8282613916565b925050505b73ffffffffffffffffffffffffffffffffffffffff8316301461328d5761328d73ffffffffffffffffffffffffffffffffffffffff83168483611280565b5050505050505050505050565b60608247101561332c576040517f08c379a000000000000000000000000000000000000000000000000000000000815260206004820152602660248201527f416464726573733a20696e73756666696369656e742062616c616e636520666f60448201527f722063616c6c00000000000000000000000000000000000000000000000000006064820152608401610399565b6000808673ffffffffffffffffffffffffffffffffffffffff1685876040516133559190613d51565b60006040518083038185875af1925050503d8060008114613392576040519150601f19603f3d011682016040523d82523d6000602084013e613397565b606091505b50915091506133a8878383876133e4565b979650505050505050565b60006133c0848484613481565b80611ef257506133d284846000613481565b8015611ef25750611ef2848484613481565b606083156134775782516134705773ffffffffffffffffffffffffffffffffffffffff85163b613470576040517f08c379a000000000000000000000000000000000000000000000000000000000815260206004820152601d60248201527f416464726573733a2063616c6c20746f206e6f6e2d636f6e74726163740000006044820152606401610399565b5081611ef2565b611ef28383613590565b6040805173ffffffffffffffffffffffffffffffffffffffff8481166024830152604480830185905283518084039091018152606490920183526020820180517bffffffffffffffffffffffffffffffffffffffffffffffffffffffff167f095ea7b3000000000000000000000000000000000000000000000000000000001790529151600092839283929188169161351a9190613d51565b6000604051808303816000865af19150503d8060008114613557576040519150601f19603f3d011682016040523d82523d6000602084013e61355c565b606091505b50915091508180156135865750805115806135865750808060200190518101906135869190613997565b9695505050505050565b8151156135a05781518083602001fd5b806040517f08c379a00000000000000000000000000000000000000000000000000000000081526004016103999190613d3e565b600080600080606085870312156135ea57600080fd5b8435935060208501359250604085013567ffffffffffffffff8082111561361057600080fd5b818701915087601f83011261362457600080fd5b81358181111561363357600080fd5b88602082850101111561364557600080fd5b95989497505060200194505050565b73ffffffffffffffffffffffffffffffffffffffff81168114610cb657600080fd5b7f4e487b7100000000000000000000000000000000000000000000000000000000600052604160045260246000fd5b600082601f8301126136b657600080fd5b813567ffffffffffffffff808211156136d1576136d1613676565b604051601f83017fffffffffffffffffffffffffffffffffffffffffffffffffffffffffffffffe0908116603f0116810190828211818310171561371757613717613676565b8160405283815286602085880101111561373057600080fd5b836020870160208301376000602085830101528094505050505092915050565b60008060008060008060c0878903121561376957600080fd5b863561377481613654565b955060208701359450604087013561378b81613654565b93506060870135925060808701356137a281613654565b915060a087013567ffffffffffffffff8111156137be57600080fd5b6137ca89828a016136a5565b9150509295509295509295565b600080600080600080600080610100898b0312156137f457600080fd5b88356137ff81613654565b975060208901359650604089013561381681613654565b955060608901359450608089013561382d81613654565b935060a0890135925060c089013561384481613654565b915060e089013567ffffffffffffffff81111561386057600080fd5b61386c8b828c016136a5565b9150509295985092959890939650565b8015158114610cb657600080fd5b6000806040838503121561389d57600080fd5b82356138a881613654565b915060208301356138b88161387c565b809150509250929050565b6000602082840312156138d557600080fd5b81356138e081613654565b9392505050565b7f4e487b7100000000000000000000000000000000000000000000000000000000600052601160045260246000fd5b600082821015613928576139286138e7565b500390565b60007fffffffffffffffffffffffffffffffffffffffffffffffffffffffffffffffff82141561395f5761395f6138e7565b5060010190565b60008219821115613979576139796138e7565b500190565b60006020828403121561399057600080fd5b5051919050565b6000602082840312156139a957600080fd5b81516138e08161387c565b80516dffffffffffffffffffffffffffff8116811461170a57600080fd5b6000806000606084860312156139e757600080fd5b6139f0846139b4565b92506139fe602085016139b4565b9150604084015163ffffffff81168114613a1757600080fd5b809150509250925092565b600062ffffff83811690831681811015613a3e57613a3e6138e7565b039392505050565b6000817fffffffffffffffffffffffffffffffffffffffffffffffffffffffffffffffff0483118215151615613a7e57613a7e6138e7565b500290565b600082613ab9577f4e487b7100000000000000000000000000000000000000000000000000000000600052601260045260246000fd5b500490565b60005b83811015613ad9578181015183820152602001613ac1565b838111156103f05750506000910152565b60008151808452613b02816020860160208601613abe565b601f017fffffffffffffffffffffffffffffffffffffffffffffffffffffffffffffffe0169290920160200192915050565b84815283602082015273ffffffffffffffffffffffffffffffffffffffff831660408201526080606082015260006135866080830184613aea565b600073ffffffffffffffffffffffffffffffffffffffff83811690831681811015613a3e57613a3e6138e7565b600073ffffffffffffffffffffffffffffffffffffffff808316818516808303821115613bcb57613bcb6138e7565b01949350505050565b600073ffffffffffffffffffffffffffffffffffffffff8088168352861515602084015285604084015280851660608401525060a060808301526133a860a0830184613aea565b60008060408385031215613c2e57600080fd5b505080516020909101519092909150565b80516fffffffffffffffffffffffffffffffff8116811461170a57600080fd5b600060408284031215613c7157600080fd5b6040516040810181811067ffffffffffffffff82111715613c9457613c94613676565b604052613ca083613c3f565b8152613cae60208401613c3f565b60208201529392505050565b805167ffffffffffffffff8116811461170a57600080fd5b600060608284031215613ce457600080fd5b6040516060810181811067ffffffffffffffff82111715613d0757613d07613676565b604052613d1383613cba565b8152613d2160208401613cba565b6020820152613d3260408401613c3f565b60408201529392505050565b6020815260006138e06020830184613aea565b60008251613d63818460208701613abe565b919091019291505056fea26469706673582212209f3b5dd61e1718e28656003bdb1e93579bac1e86bdbff2eb5116c63421166cc164736f6c634300080a0033",
  "devdoc": {
    "author": "Ilya Lyalin",
    "kind": "dev",
    "methods": {
      "algebraSwapCallback(int256,int256,bytes)": {
        "details": "In the implementation you must pay the pool tokens owed for the swap. The caller of this method _must_ be checked to be a AlgebraPool deployed by the canonical AlgebraFactory. amount0Delta and amount1Delta can both be 0 if no tokens were swapped.",
        "params": {
          "amount0Delta": "The amount of token0 that was sent (negative) or must be received (positive) by the pool by the end of the swap. If positive, the callback must send that amount of token0 to the pool.",
          "amount1Delta": "The amount of token1 that was sent (negative) or must be received (positive) by the pool by the end of the swap. If positive, the callback must send that amount of token1 to the pool.",
          "data": "Any data passed through by the caller via the IAlgebraPoolActions#swap call"
        }
      },
      "owner()": {
        "details": "Returns the address of the current owner."
      },
      "pancakeV3SwapCallback(int256,int256,bytes)": {
        "details": "In the implementation you must pay the pool tokens owed for the swap.",
        "params": {
          "amount0Delta": "The amount of token0 that was sent (negative) or must be received (positive) by the pool by the end of the swap. If positive, the callback must send that amount of token0 to the pool.",
          "amount1Delta": "The amount of token1 that was sent (negative) or must be received (positive) by the pool by the end of the swap. If positive, the callback must send that amount of token1 to the pool.",
          "data": "Any data passed through by the caller via the PancakeV3Pool#swap call"
        }
      },
      "processRoute(address,uint256,address,uint256,address,bytes)": {
        "params": {
          "amountIn": "Amount of the input token",
          "amountOutMin": "Minimum amount of the output token",
          "route": "Route to process",
          "to": "Where to transfer output tokens",
          "tokenIn": "Address of the input token",
          "tokenOut": "Address of the output token"
        },
        "returns": {
          "amountOut": "Actual amount of the output token"
        }
      },
      "processRouteWithTransferValueInput(address,uint256,address,uint256,address,uint256,address,bytes)": {
        "params": {
          "amountIn": "Amount of the input token",
          "amountOutMin": "Minimum amount of the output token",
          "amountValueTransfer": "How much value to transfer",
          "tokenIn": "Address of the input token",
          "tokenOut": "Address of the output token",
          "transferValueTo": "Address where the value should be transferred"
        },
        "returns": {
          "amountOut": "Actual amount of the output token"
        }
      },
      "processRouteWithTransferValueOutput(address,uint256,address,uint256,address,uint256,address,bytes)": {
        "params": {
          "amountIn": "Amount of the input token",
          "amountOutMin": "Minimum amount of the output token",
          "amountValueTransfer": "How much value to transfer",
          "tokenIn": "Address of the input token",
          "tokenOut": "Address of the output token",
          "transferValueTo": "Address where the value should be transferred"
        },
        "returns": {
          "amountOut": "Actual amount of the output token"
        }
      },
      "renounceOwnership()": {
        "details": "Leaves the contract without owner. It will not be possible to call `onlyOwner` functions anymore. Can only be called by the current owner. NOTE: Renouncing ownership will leave the contract without an owner, thereby removing any functionality that is only available to the owner."
      },
      "transferOwnership(address)": {
        "details": "Transfers ownership of the contract to a new account (`newOwner`). Can only be called by the current owner."
      },
      "transferValueAndprocessRoute(address,uint256,address,uint256,address,uint256,address,bytes)": {
        "params": {
          "amountIn": "Amount of the input token",
          "amountOutMin": "Minimum amount of the output token",
          "amountValueTransfer": "How much value to transfer",
          "tokenIn": "Address of the input token",
          "tokenOut": "Address of the output token",
          "transferValueTo": "Address where the value should be transferred"
        },
        "returns": {
          "amountOut": "Actual amount of the output token"
        }
      },
      "uniswapV3SwapCallback(int256,int256,bytes)": {
        "details": "In the implementation you must pay the pool tokens owed for the swap. The caller of this method must be checked to be a UniswapV3Pool deployed by the canonical UniswapV3Factory. amount0Delta and amount1Delta can both be 0 if no tokens were swapped.",
        "params": {
          "amount0Delta": "The amount of token0 that was sent (negative) or must be received (positive) by the pool by the end of the swap. If positive, the callback must send that amount of token0 to the pool.",
          "amount1Delta": "The amount of token1 that was sent (negative) or must be received (positive) by the pool by the end of the swap. If positive, the callback must send that amount of token1 to the pool.",
          "data": "Any data passed through by the caller via the IUniswapV3PoolActions#swap call"
        }
      }
    },
    "title": "A route processor for the Sushi Aggregator",
    "version": 1
  },
  "userdoc": {
    "kind": "user",
    "methods": {
      "algebraSwapCallback(int256,int256,bytes)": {
        "notice": "Called to `msg.sender` after executing a swap via IAlgebraPool#swap."
      },
      "pancakeV3SwapCallback(int256,int256,bytes)": {
        "notice": "Called to `msg.sender` after executing a swap via PancakeV3Pool#swap."
      },
      "processRoute(address,uint256,address,uint256,address,bytes)": {
        "notice": "Processes the route generated off-chain. Has a lock"
      },
      "processRouteWithTransferValueInput(address,uint256,address,uint256,address,uint256,address,bytes)": {
        "notice": "Transfers some value of input tokens to <transferValueTo> and then processes the route"
      },
      "processRouteWithTransferValueOutput(address,uint256,address,uint256,address,uint256,address,bytes)": {
        "notice": "processes the route and sends <amountValueTransfer> amount of output token to <transferValueTo>"
      },
      "transferValueAndprocessRoute(address,uint256,address,uint256,address,uint256,address,bytes)": {
        "notice": "Transfers some value to <transferValueTo> and then processes the route"
      },
      "uniswapV3SwapCallback(int256,int256,bytes)": {
        "notice": "Called to `msg.sender` after executing a swap via IUniswapV3Pool#swap."
      }
    },
    "version": 1
  },
  "storageLayout": {
    "storage": [
      {
        "astId": 7,
        "contract": "contracts/RouteProcessor5.sol:RouteProcessor5",
        "label": "_owner",
        "offset": 0,
        "slot": "0",
        "type": "t_address"
      },
      {
        "astId": 8573,
        "contract": "contracts/RouteProcessor5.sol:RouteProcessor5",
        "label": "priviledgedUsers",
        "offset": 0,
        "slot": "1",
        "type": "t_mapping(t_address,t_bool)"
      },
      {
        "astId": 8575,
        "contract": "contracts/RouteProcessor5.sol:RouteProcessor5",
        "label": "lastCalledPool",
        "offset": 0,
        "slot": "2",
        "type": "t_address"
      },
      {
        "astId": 8578,
        "contract": "contracts/RouteProcessor5.sol:RouteProcessor5",
        "label": "unlocked",
        "offset": 20,
        "slot": "2",
        "type": "t_uint8"
      },
      {
        "astId": 8581,
        "contract": "contracts/RouteProcessor5.sol:RouteProcessor5",
        "label": "paused",
        "offset": 21,
        "slot": "2",
        "type": "t_uint8"
      }
    ],
    "types": {
      "t_address": {
        "encoding": "inplace",
        "label": "address",
        "numberOfBytes": "20"
      },
      "t_bool": {
        "encoding": "inplace",
        "label": "bool",
        "numberOfBytes": "1"
      },
      "t_mapping(t_address,t_bool)": {
        "encoding": "mapping",
        "key": "t_address",
        "label": "mapping(address => bool)",
        "numberOfBytes": "32",
        "value": "t_bool"
      },
      "t_uint8": {
        "encoding": "inplace",
        "label": "uint8",
        "numberOfBytes": "1"
      }
    }
  }
}