{
  "_format": "hh-sol-artifact-1",
  "contractName": "RouteProcessor5",
  "sourceName": "contracts/RouteProcessor5.sol",
  "abi": [
    {
      "inputs": [
        {
          "internalType": "address",
          "name": "_bentoBox",
          "type": "address"
        },
        {
          "internalType": "address[]",
          "name": "priviledgedUserList",
          "type": "address[]"
        }
      ],
      "stateMutability": "nonpayable",
      "type": "constructor"
    },
    {
      "inputs": [
        {
          "internalType": "uint256",
          "name": "amountOut",
          "type": "uint256"
        }
      ],
      "name": "MinimalOutputBalanceViolation",
      "type": "error"
    },
    {
      "anonymous": false,
      "inputs": [
        {
          "indexed": true,
          "internalType": "address",
          "name": "previousOwner",
          "type": "address"
        },
        {
          "indexed": true,
          "internalType": "address",
          "name": "newOwner",
          "type": "address"
        }
      ],
      "name": "OwnershipTransferred",
      "type": "event"
    },
    {
      "anonymous": false,
      "inputs": [
        {
          "indexed": true,
          "internalType": "address",
          "name": "from",
          "type": "address"
        },
        {
          "indexed": false,
          "internalType": "address",
          "name": "to",
          "type": "address"
        },
        {
          "indexed": true,
          "internalType": "address",
          "name": "tokenIn",
          "type": "address"
        },
        {
          "indexed": true,
          "internalType": "address",
          "name": "tokenOut",
          "type": "address"
        },
        {
          "indexed": false,
          "internalType": "uint256",
          "name": "amountIn",
          "type": "uint256"
        },
        {
          "indexed": false,
          "internalType": "uint256",
          "name": "amountOutMin",
          "type": "uint256"
        },
        {
          "indexed": false,
          "internalType": "uint256",
          "name": "amountOut",
          "type": "uint256"
        }
      ],
      "name": "Route",
      "type": "event"
    },
    {
      "inputs": [
        {
          "internalType": "int256",
          "name": "amount0Delta",
          "type": "int256"
        },
        {
          "internalType": "int256",
          "name": "amount1Delta",
          "type": "int256"
        },
        {
          "internalType": "bytes",
          "name": "data",
          "type": "bytes"
        }
      ],
      "name": "algebraSwapCallback",
      "outputs": [],
      "stateMutability": "nonpayable",
      "type": "function"
    },
    {
      "inputs": [],
      "name": "bentoBox",
      "outputs": [
        {
          "internalType": "contract IBentoBoxMinimal",
          "name": "",
          "type": "address"
        }
      ],
      "stateMutability": "view",
      "type": "function"
    },
    {
      "inputs": [],
      "name": "owner",
      "outputs": [
        {
          "internalType": "address",
          "name": "",
          "type": "address"
        }
      ],
      "stateMutability": "view",
      "type": "function"
    },
    {
      "inputs": [
        {
          "internalType": "int256",
          "name": "amount0Delta",
          "type": "int256"
        },
        {
          "internalType": "int256",
          "name": "amount1Delta",
          "type": "int256"
        },
        {
          "internalType": "bytes",
          "name": "data",
          "type": "bytes"
        }
      ],
      "name": "pancakeV3SwapCallback",
      "outputs": [],
      "stateMutability": "nonpayable",
      "type": "function"
    },
    {
      "inputs": [],
      "name": "pause",
      "outputs": [],
      "stateMutability": "nonpayable",
      "type": "function"
    },
    {
      "inputs": [
        {
          "internalType": "address",
          "name": "",
          "type": "address"
        }
      ],
      "name": "priviledgedUsers",
      "outputs": [
        {
          "internalType": "bool",
          "name": "",
          "type": "bool"
        }
      ],
      "stateMutability": "view",
      "type": "function"
    },
    {
      "inputs": [
        {
          "internalType": "address",
          "name": "tokenIn",
          "type": "address"
        },
        {
          "internalType": "uint256",
          "name": "amountIn",
          "type": "uint256"
        },
        {
          "internalType": "address",
          "name": "tokenOut",
          "type": "address"
        },
        {
          "internalType": "uint256",
          "name": "amountOutMin",
          "type": "uint256"
        },
        {
          "internalType": "address",
          "name": "to",
          "type": "address"
        },
        {
          "internalType": "bytes",
          "name": "route",
          "type": "bytes"
        }
      ],
      "name": "processRoute",
      "outputs": [
        {
          "internalType": "uint256",
          "name": "amountOut",
          "type": "uint256"
        }
      ],
      "stateMutability": "payable",
      "type": "function"
    },
    {
      "inputs": [
        {
          "internalType": "address payable",
          "name": "transferValueTo",
          "type": "address"
        },
        {
          "internalType": "uint256",
          "name": "amountValueTransfer",
          "type": "uint256"
        },
        {
          "internalType": "address",
          "name": "tokenIn",
          "type": "address"
        },
        {
          "internalType": "uint256",
          "name": "amountIn",
          "type": "uint256"
        },
        {
          "internalType": "address",
          "name": "tokenOut",
          "type": "address"
        },
        {
          "internalType": "uint256",
          "name": "amountOutMin",
          "type": "uint256"
        },
        {
          "internalType": "address",
          "name": "to",
          "type": "address"
        },
        {
          "internalType": "bytes",
          "name": "route",
          "type": "bytes"
        }
      ],
      "name": "processRouteWithTransferValueInput",
      "outputs": [
        {
          "internalType": "uint256",
          "name": "amountOut",
          "type": "uint256"
        }
      ],
      "stateMutability": "payable",
      "type": "function"
    },
    {
      "inputs": [
        {
          "internalType": "address payable",
          "name": "transferValueTo",
          "type": "address"
        },
        {
          "internalType": "uint256",
          "name": "amountValueTransfer",
          "type": "uint256"
        },
        {
          "internalType": "address",
          "name": "tokenIn",
          "type": "address"
        },
        {
          "internalType": "uint256",
          "name": "amountIn",
          "type": "uint256"
        },
        {
          "internalType": "address",
          "name": "tokenOut",
          "type": "address"
        },
        {
          "internalType": "uint256",
          "name": "amountOutMin",
          "type": "uint256"
        },
        {
          "internalType": "address",
          "name": "to",
          "type": "address"
        },
        {
          "internalType": "bytes",
          "name": "route",
          "type": "bytes"
        }
      ],
      "name": "processRouteWithTransferValueOutput",
      "outputs": [
        {
          "internalType": "uint256",
          "name": "amountOut",
          "type": "uint256"
        }
      ],
      "stateMutability": "payable",
      "type": "function"
    },
    {
      "inputs": [],
      "name": "renounceOwnership",
      "outputs": [],
      "stateMutability": "nonpayable",
      "type": "function"
    },
    {
      "inputs": [],
      "name": "resume",
      "outputs": [],
      "stateMutability": "nonpayable",
      "type": "function"
    },
    {
      "inputs": [
        {
          "internalType": "address",
          "name": "user",
          "type": "address"
        },
        {
          "internalType": "bool",
          "name": "priviledge",
          "type": "bool"
        }
      ],
      "name": "setPriviledge",
      "outputs": [],
      "stateMutability": "nonpayable",
      "type": "function"
    },
    {
      "inputs": [
        {
          "internalType": "address",
          "name": "newOwner",
          "type": "address"
        }
      ],
      "name": "transferOwnership",
      "outputs": [],
      "stateMutability": "nonpayable",
      "type": "function"
    },
    {
      "inputs": [
        {
          "internalType": "address",
          "name": "transferValueTo",
          "type": "address"
        },
        {
          "internalType": "uint256",
          "name": "amountValueTransfer",
          "type": "uint256"
        },
        {
          "internalType": "address",
          "name": "tokenIn",
          "type": "address"
        },
        {
          "internalType": "uint256",
          "name": "amountIn",
          "type": "uint256"
        },
        {
          "internalType": "address",
          "name": "tokenOut",
          "type": "address"
        },
        {
          "internalType": "uint256",
          "name": "amountOutMin",
          "type": "uint256"
        },
        {
          "internalType": "address",
          "name": "to",
          "type": "address"
        },
        {
          "internalType": "bytes",
          "name": "route",
          "type": "bytes"
        }
      ],
      "name": "transferValueAndprocessRoute",
      "outputs": [
        {
          "internalType": "uint256",
          "name": "amountOut",
          "type": "uint256"
        }
      ],
      "stateMutability": "payable",
      "type": "function"
    },
    {
      "inputs": [
        {
          "internalType": "int256",
          "name": "amount0Delta",
          "type": "int256"
        },
        {
          "internalType": "int256",
          "name": "amount1Delta",
          "type": "int256"
        },
        {
          "internalType": "bytes",
          "name": "data",
          "type": "bytes"
        }
      ],
      "name": "uniswapV3SwapCallback",
      "outputs": [],
      "stateMutability": "nonpayable",
      "type": "function"
    },
    {
      "stateMutability": "payable",
      "type": "receive"
    }
  ],
  "bytecode": "0x60a06040526002805461ffff60a01b191661010160a01b1790553480156200002657600080fd5b50604051620040063803806200400683398101604081905262000049916200016e565b6200005433620000eb565b6001600160a01b038216608052600280546001600160a01b031916600117905560005b8151811015620000e25760018060008484815181106200009b576200009b62000257565b6020908102919091018101516001600160a01b03168252810191909152604001600020805460ff191691151591909117905580620000d9816200026d565b91505062000077565b50505062000297565b600080546001600160a01b038381166001600160a01b0319831681178455604051919092169283917f8be0079c531659141344cd1fd0a4f28419497f9722a3daafe3b4186f6b6457e09190a35050565b80516001600160a01b03811681146200015357600080fd5b919050565b634e487b7160e01b600052604160045260246000fd5b600080604083850312156200018257600080fd5b6200018d836200013b565b602084810151919350906001600160401b0380821115620001ad57600080fd5b818601915086601f830112620001c257600080fd5b815181811115620001d757620001d762000158565b8060051b604051601f19603f83011681018181108582111715620001ff57620001ff62000158565b6040529182528482019250838101850191898311156200021e57600080fd5b938501935b82851015620002475762000237856200013b565b8452938501939285019262000223565b8096505050505050509250929050565b634e487b7160e01b600052603260045260246000fd5b60006000198214156200029057634e487b7160e01b600052601160045260246000fd5b5060010190565b608051613d06620003006000396000818161018d015281816117980152818161269b015281816127000152818161276a0152818161282f015281816128dc015281816129c001528181612ac701528181612b7301528181612c420152612d540152613d066000f3fe6080604052600436106100ec5760003560e01c8063715018a61161008a5780639a1f3406116100595780639a1f34061461023c578063cd0fb7a71461025c578063f2fde38b1461029c578063fa461e33146102bc57600080fd5b8063715018a6146101d45780638456cb59146101e95780638da5cb5b146101fe57806393b3774c1461022957600080fd5b80632c8958f6116100c65780632c8958f61461010f57806347f8bd41146101555780636678ec1f146101685780636b2ace871461017b57600080fd5b8063046f7da2146100f857806323a69e751461010f5780632646478b1461012f57600080fd5b366100f357005b600080fd5b34801561010457600080fd5b5061010d6102dc565b005b34801561011b57600080fd5b5061010d61012a366004613537565b6103e4565b61014261013d3660046136b3565b6103f6565b6040519081526020015b60405180910390f35b61014261016336600461373a565b6105a0565b61014261017636600461373a565b61076e565b34801561018757600080fd5b506101af7f000000000000000000000000000000000000000000000000000000000000000081565b60405173ffffffffffffffffffffffffffffffffffffffff909116815260200161014c565b3480156101e057600080fd5b5061010d61091c565b3480156101f557600080fd5b5061010d610930565b34801561020a57600080fd5b5060005473ffffffffffffffffffffffffffffffffffffffff166101af565b61014261023736600461373a565b610a33565b34801561024857600080fd5b5061010d6102573660046137ed565b610ba4565b34801561026857600080fd5b5061028c610277366004613826565b60016020526000908152604090205460ff1681565b604051901515815260200161014c565b3480156102a857600080fd5b5061010d6102b7366004613826565b610c02565b3480156102c857600080fd5b5061010d6102d7366004613537565b610cb9565b60005473ffffffffffffffffffffffffffffffffffffffff1633148061031157503360009081526001602052604090205460ff165b6103a2576040517f08c379a000000000000000000000000000000000000000000000000000000000815260206004820152603060248201527f52503a2063616c6c6572206973206e6f7420746865206f776e6572206f72206160448201527f2070726976696c6567656420757365720000000000000000000000000000000060648201526084015b60405180910390fd5b600280547fffffffffffffffffffff00ffffffffffffffffffffffffffffffffffffffffff167501000000000000000000000000000000000000000000179055565b6103f084848484610cb9565b50505050565b60025460009074010000000000000000000000000000000000000000900460ff16600114610480576040517f08c379a000000000000000000000000000000000000000000000000000000000815260206004820152601860248201527f526f75746550726f636573736f72206973206c6f636b656400000000000000006044820152606401610399565b6002547501000000000000000000000000000000000000000000900460ff16600114610508576040517f08c379a000000000000000000000000000000000000000000000000000000000815260206004820152601860248201527f526f75746550726f636573736f722069732070617573656400000000000000006044820152606401610399565b600280547fffffffffffffffffffffff00ffffffffffffffffffffffffffffffffffffffff1674020000000000000000000000000000000000000000179055610555878787878787610e67565b9050600280547fffffffffffffffffffffff00ffffffffffffffffffffffffffffffffffffffff16740100000000000000000000000000000000000000001790559695505050505050565b60025460009074010000000000000000000000000000000000000000900460ff1660011461062a576040517f08c379a000000000000000000000000000000000000000000000000000000000815260206004820152601860248201527f526f75746550726f636573736f72206973206c6f636b656400000000000000006044820152606401610399565b6002547501000000000000000000000000000000000000000000900460ff166001146106b2576040517f08c379a000000000000000000000000000000000000000000000000000000000815260206004820152601860248201527f526f75746550726f636573736f722069732070617573656400000000000000006044820152606401610399565b600280547fffffffffffffffffffffff00ffffffffffffffffffffffffffffffffffffffff167402000000000000000000000000000000000000000017905561071273ffffffffffffffffffffffffffffffffffffffff88168a8a61121d565b610720878787878787610e67565b90505b600280547fffffffffffffffffffffff00ffffffffffffffffffffffffffffffffffffffff167401000000000000000000000000000000000000000017905598975050505050505050565b60025460009074010000000000000000000000000000000000000000900460ff166001146107f8576040517f08c379a000000000000000000000000000000000000000000000000000000000815260206004820152601860248201527f526f75746550726f636573736f72206973206c6f636b656400000000000000006044820152606401610399565b6002547501000000000000000000000000000000000000000000900460ff16600114610880576040517f08c379a000000000000000000000000000000000000000000000000000000000815260206004820152601860248201527f526f75746550726f636573736f722069732070617573656400000000000000006044820152606401610399565b600280547fffffffffffffffffffffff00ffffffffffffffffffffffffffffffffffffffff16740200000000000000000000000000000000000000001790556108cd878787873087610e67565b90506108f073ffffffffffffffffffffffffffffffffffffffff86168a8a611280565b610723836108fe8a84613879565b73ffffffffffffffffffffffffffffffffffffffff88169190611280565b6109246112dd565b61092e600061135e565b565b60005473ffffffffffffffffffffffffffffffffffffffff1633148061096557503360009081526001602052604090205460ff165b6109f1576040517f08c379a000000000000000000000000000000000000000000000000000000000815260206004820152603060248201527f52503a2063616c6c6572206973206e6f7420746865206f776e6572206f72206160448201527f2070726976696c656765642075736572000000000000000000000000000000006064820152608401610399565b600280547fffffffffffffffffffff00ffffffffffffffffffffffffffffffffffffffffff167502000000000000000000000000000000000000000000179055565b60025460009074010000000000000000000000000000000000000000900460ff16600114610abd576040517f08c379a000000000000000000000000000000000000000000000000000000000815260206004820152601860248201527f526f75746550726f636573736f72206973206c6f636b656400000000000000006044820152606401610399565b6002547501000000000000000000000000000000000000000000900460ff16600114610b45576040517f08c379a000000000000000000000000000000000000000000000000000000000815260206004820152601860248201527f526f75746550726f636573736f722069732070617573656400000000000000006044820152606401610399565b600280547fffffffffffffffffffffff00ffffffffffffffffffffffffffffffffffffffff167402000000000000000000000000000000000000000017905561071273ffffffffffffffffffffffffffffffffffffffff8a16896113d3565b610bac6112dd565b73ffffffffffffffffffffffffffffffffffffffff91909116600090815260016020526040902080547fffffffffffffffffffffffffffffffffffffffffffffffffffffffffffffff0016911515919091179055565b610c0a6112dd565b73ffffffffffffffffffffffffffffffffffffffff8116610cad576040517f08c379a000000000000000000000000000000000000000000000000000000000815260206004820152602660248201527f4f776e61626c653a206e6577206f776e657220697320746865207a65726f206160448201527f64647265737300000000000000000000000000000000000000000000000000006064820152608401610399565b610cb68161135e565b50565b60025473ffffffffffffffffffffffffffffffffffffffff163314610d60576040517f08c379a000000000000000000000000000000000000000000000000000000000815260206004820152603e60248201527f526f75746550726f636573736f722e756e697377617056335377617043616c6c60448201527f6261636b3a2063616c6c2066726f6d20756e6b6e6f776e20736f7572636500006064820152608401610399565b6000808513610d6f5783610d71565b845b905060008113610e03576040517f08c379a000000000000000000000000000000000000000000000000000000000815260206004820152603960248201527f526f75746550726f636573736f722e756e697377617056335377617043616c6c60448201527f6261636b3a206e6f7420706f73697469766520616d6f756e74000000000000006064820152608401610399565b600280547fffffffffffffffffffffffff00000000000000000000000000000000000000001660011790556000610e3c83850185613826565b9050610e5f73ffffffffffffffffffffffffffffffffffffffff82163384611445565b505050505050565b600080610e8a73ffffffffffffffffffffffffffffffffffffffff891633611519565b90506000610eae73ffffffffffffffffffffffffffffffffffffffff881686611519565b905087600080610ed287604080518082019091528181528151909101602082015290565b90505b805160208201511115611028576000610ef48280516001018051915290565b90508060ff1660011415610f1e576000610f0d83611604565b905083610f18578094505b50611017565b8060ff1660021415610f3957610f34828d6116c9565b611017565b8060ff1660031415610f50576000610f0d836116e9565b8060ff1660041415610f6557610f348261170f565b8060ff1660051415610f7a57610f3482611735565b8060ff1660061415610f9057610f348d8361183a565b6040517f08c379a0000000000000000000000000000000000000000000000000000000008152602060048201526024808201527f526f75746550726f636573736f723a20556e6b6e6f776e20636f6d6d616e642060448201527f636f6465000000000000000000000000000000000000000000000000000000006064820152608401610399565b61102083613890565b925050610ed5565b506000905061104d73ffffffffffffffffffffffffffffffffffffffff8c1633611519565b905073ffffffffffffffffffffffffffffffffffffffff8b1673eeeeeeeeeeeeeeeeeeeeeeeeeeeeeeeeeeeeeeee14611124578361108b8b836138c9565b61109690600a6138c9565b1015611124576040517f08c379a000000000000000000000000000000000000000000000000000000000815260206004820152602f60248201527f526f75746550726f636573736f723a204d696e696d616c20696e70757420626160448201527f6c616e63652076696f6c6174696f6e00000000000000000000000000000000006064820152608401610399565b600061114673ffffffffffffffffffffffffffffffffffffffff8b1689611519565b905061115289856138c9565b811015611198576111638482613879565b6040517f963b34a500000000000000000000000000000000000000000000000000000000815260040161039991815260200190565b6111a28482613879565b6040805173ffffffffffffffffffffffffffffffffffffffff8b81168252602082018790529181018c905260608101839052919750808c1691908e169033907f2db5ddd0b42bdbca0d69ea16f234a870a485854ae0d91f16643d6f317d8b89949060800160405180910390a450505050509695505050505050565b73ffffffffffffffffffffffffffffffffffffffff831673eeeeeeeeeeeeeeeeeeeeeeeeeeeeeeeeeeeeeeee141561125e5761125982826113d3565b505050565b61125973ffffffffffffffffffffffffffffffffffffffff84163384846118cd565b73ffffffffffffffffffffffffffffffffffffffff831673eeeeeeeeeeeeeeeeeeeeeeeeeeeeeeeeeeeeeeee14156112bc5761125982826113d3565b61125973ffffffffffffffffffffffffffffffffffffffff84168383611445565b60005473ffffffffffffffffffffffffffffffffffffffff16331461092e576040517f08c379a000000000000000000000000000000000000000000000000000000000815260206004820181905260248201527f4f776e61626c653a2063616c6c6572206973206e6f7420746865206f776e65726044820152606401610399565b6000805473ffffffffffffffffffffffffffffffffffffffff8381167fffffffffffffffffffffffff0000000000000000000000000000000000000000831681178455604051919092169283917f8be0079c531659141344cd1fd0a4f28419497f9722a3daafe3b4186f6b6457e09190a35050565b6000808373ffffffffffffffffffffffffffffffffffffffff168360405160006040518083038185875af1925050503d806000811461142e576040519150601f19603f3d011682016040523d82523d6000602084013e611433565b606091505b5091509150816103f057805181602001fd5b60405173ffffffffffffffffffffffffffffffffffffffff83166024820152604481018290526112599084907fa9059cbb00000000000000000000000000000000000000000000000000000000906064015b604080517fffffffffffffffffffffffffffffffffffffffffffffffffffffffffffffffe08184030181529190526020810180517bffffffffffffffffffffffffffffffffffffffffffffffffffffffff167fffffffff000000000000000000000000000000000000000000000000000000009093169290921790915261192b565b600073ffffffffffffffffffffffffffffffffffffffff831673eeeeeeeeeeeeeeeeeeeeeeeeeeeeeeeeeeeeeeee141561156b575073ffffffffffffffffffffffffffffffffffffffff8116316115fe565b6040517f70a0823100000000000000000000000000000000000000000000000000000000815273ffffffffffffffffffffffffffffffffffffffff83811660048301528416906370a0823190602401602060405180830381865afa1580156115d7573d6000803e3d6000fd5b505050506040513d601f19601f820116820180604052508101906115fb91906138e1565b90505b92915050565b6000806116178380516014018051915290565b6040517f70a0823100000000000000000000000000000000000000000000000000000000815230600482015290915073ffffffffffffffffffffffffffffffffffffffff8216906370a0823190602401602060405180830381865afa158015611684573d6000803e3d6000fd5b505050506040513d601f19601f820116820180604052508101906116a891906138e1565b915081156116b7576001820391505b6116c383308385611a37565b50919050565b60006116db8380516014018051915290565b905061125983338385611a37565b4761170a823073eeeeeeeeeeeeeeeeeeeeeeeeeeeeeeeeeeeeeeee84611a37565b919050565b60006117218280516014018051915290565b9050611731826000836000611a92565b5050565b60006117478280516014018051915290565b6040517ff7888aec00000000000000000000000000000000000000000000000000000000815273ffffffffffffffffffffffffffffffffffffffff80831660048301523060248301529192506000917f0000000000000000000000000000000000000000000000000000000000000000169063f7888aec90604401602060405180830381865afa1580156117df573d6000803e3d6000fd5b505050506040513d601f19601f8201168201806040525081019061180391906138e1565b9050801561182e577fffffffffffffffffffffffffffffffffffffffffffffffffffffffffffffffff015b61125983308484611a37565b600061184c8280516020018051915290565b905060006118608380516020018051915290565b905060006118748480516001018051915290565b905060006118888580516020018051915290565b9050600061189c8680516020018051915290565b90506118c473ffffffffffffffffffffffffffffffffffffffff881633308888888888611bc6565b50505050505050565b60405173ffffffffffffffffffffffffffffffffffffffff808516602483015283166044820152606481018290526103f09085907f23b872dd0000000000000000000000000000000000000000000000000000000090608401611497565b600061198d826040518060400160405280602081526020017f5361666545524332303a206c6f772d6c6576656c2063616c6c206661696c65648152508573ffffffffffffffffffffffffffffffffffffffff16611e469092919063ffffffff16565b80519091501561125957808060200190518101906119ab91906138fa565b611259576040517f08c379a000000000000000000000000000000000000000000000000000000000815260206004820152602a60248201527f5361666545524332303a204552433230206f7065726174696f6e20646964206e60448201527f6f742073756363656564000000000000000000000000000000000000000000006064820152608401610399565b6000611a498580516001018051915290565b905060005b8160ff16811015610e5f576000611a6b8780516002018051915290565b61ffff8082168602049485900394909150611a8888888884611a92565b5050600101611a4e565b6000611aa48580516001018051915290565b905060ff8116611abf57611aba85858585611e5d565b611bbf565b8060ff1660011415611ad757611aba85858585612212565b8060ff1660021415611aef57611aba85858585612452565b8060ff1660031415611b0757611aba85858585612630565b8060ff1660041415611b1f57611aba85858585612cb8565b8060ff1660051415611b3757611aba85858585612e46565b6040517f08c379a000000000000000000000000000000000000000000000000000000000815260206004820152602160248201527f526f75746550726f636573736f723a20556e6b6e6f776e20706f6f6c2074797060448201527f65000000000000000000000000000000000000000000000000000000000000006064820152608401610399565b5050505050565b6040517f7ecebe0000000000000000000000000000000000000000000000000000000000815273ffffffffffffffffffffffffffffffffffffffff8881166004830152600091908a1690637ecebe0090602401602060405180830381865afa158015611c36573d6000803e3d6000fd5b505050506040513d601f19601f82011682018060405250810190611c5a91906138e1565b6040517fd505accf00000000000000000000000000000000000000000000000000000000815273ffffffffffffffffffffffffffffffffffffffff8a811660048301528981166024830152604482018990526064820188905260ff8716608483015260a4820186905260c48201859052919250908a169063d505accf9060e401600060405180830381600087803b158015611cf457600080fd5b505af1158015611d08573d6000803e3d6000fd5b50506040517f7ecebe0000000000000000000000000000000000000000000000000000000000815273ffffffffffffffffffffffffffffffffffffffff8b81166004830152600093508c169150637ecebe0090602401602060405180830381865afa158015611d7b573d6000803e3d6000fd5b505050506040513d601f19601f82011682018060405250810190611d9f91906138e1565b9050611dac8260016138c9565b8114611e3a576040517f08c379a000000000000000000000000000000000000000000000000000000000815260206004820152602160248201527f5361666545524332303a207065726d697420646964206e6f742073756363656560448201527f64000000000000000000000000000000000000000000000000000000000000006064820152608401610399565b50505050505050505050565b6060611e5584846000856131fd565b949350505050565b6000611e6f8580516014018051915290565b90506000611e838680516001018051915290565b90506000611e978780516014018051915290565b90506000611eab8880516003018051915290565b905073ffffffffffffffffffffffffffffffffffffffff8716301415611ef157611eec73ffffffffffffffffffffffffffffffffffffffff87168587611445565b611f31565b73ffffffffffffffffffffffffffffffffffffffff8716331415611f3157611f3173ffffffffffffffffffffffffffffffffffffffff87163386886118cd565b6000808573ffffffffffffffffffffffffffffffffffffffff16630902f1ac6040518163ffffffff1660e01b8152600401606060405180830381865afa158015611f7f573d6000803e3d6000fd5b505050506040513d601f19601f82011682018060405250810190611fa39190613935565b506dffffffffffffffffffffffffffff1691506dffffffffffffffffffffffffffff169150600082118015611fd85750600081115b61203e576040517f08c379a000000000000000000000000000000000000000000000000000000000815260206004820152601360248201527f57726f6e6720706f6f6c207265736572766573000000000000000000000000006044820152606401610399565b6000808660ff16600114612053578284612056565b83835b6040517f70a0823100000000000000000000000000000000000000000000000000000000815273ffffffffffffffffffffffffffffffffffffffff8b8116600483015292945090925083918c16906370a0823190602401602060405180830381865afa1580156120ca573d6000803e3d6000fd5b505050506040513d601f19601f820116820180604052508101906120ee91906138e1565b6120f89190613879565b9850600061210986620f4240613985565b6121189062ffffff168b6139a9565b905060008161212a85620f42406139a9565b61213491906138c9565b61213e84846139a9565b61214891906139e6565b90506000808a60ff1660011461216057826000612164565b6000835b604080516000815260208101918290527f022c0d9f00000000000000000000000000000000000000000000000000000000909152919350915073ffffffffffffffffffffffffffffffffffffffff8d169063022c0d9f906121ce90859085908f9060248101613a97565b600060405180830381600087803b1580156121e857600080fd5b505af11580156121fc573d6000803e3d6000fd5b5050505050505050505050505050505050505050565b60006122248580516014018051915290565b90506000806122398780516001018051915290565b60ff1611905060006122518780516014018051915290565b905073ffffffffffffffffffffffffffffffffffffffff86163314156122935761229373ffffffffffffffffffffffffffffffffffffffff86163330876118cd565b600280547fffffffffffffffffffffffff00000000000000000000000000000000000000001673ffffffffffffffffffffffffffffffffffffffff851690811790915563128acb088284878161230757612302600173fffd8963efd1fc6a506488495d951d5263988d26613ad2565b612317565b6123176401000276a36001613aff565b6040805173ffffffffffffffffffffffffffffffffffffffff8d166020820152016040516020818303038152906040526040518663ffffffff1660e01b8152600401612367959493929190613b37565b60408051808303816000875af1158015612385573d6000803e3d6000fd5b505050506040513d601f19601f820116820180604052508101906123a99190613b7e565b505060025473ffffffffffffffffffffffffffffffffffffffff166001146118c4576040517f08c379a0000000000000000000000000000000000000000000000000000000008152602060048201526024808201527f526f75746550726f636573736f722e73776170556e6956333a20756e6578706560448201527f63746564000000000000000000000000000000000000000000000000000000006064820152608401610399565b60006124648580516001018051915290565b905060006124788680516014018051915290565b9050600180831614156125475760006124978780516014018051915290565b905060028316612503578073ffffffffffffffffffffffffffffffffffffffff1663d0e30db0856040518263ffffffff1660e01b81526004016000604051808303818588803b1580156124e957600080fd5b505af11580156124fd573d6000803e3d6000fd5b50505050505b73ffffffffffffffffffffffffffffffffffffffff821630146125415761254173ffffffffffffffffffffffffffffffffffffffff82168386611445565b50610e5f565b600282166126105773ffffffffffffffffffffffffffffffffffffffff851633141561258f5761258f73ffffffffffffffffffffffffffffffffffffffff85163330866118cd565b6040517f2e1a7d4d0000000000000000000000000000000000000000000000000000000081526004810184905273ffffffffffffffffffffffffffffffffffffffff851690632e1a7d4d90602401600060405180830381600087803b1580156125f757600080fd5b505af115801561260b573d6000803e3d6000fd5b505050505b610e5f73ffffffffffffffffffffffffffffffffffffffff8216846113d3565b60006126428580516001018051915290565b905060006126568680516014018051915290565b905060ff821615612a515773ffffffffffffffffffffffffffffffffffffffff85163014156126c5576126c073ffffffffffffffffffffffffffffffffffffffff85167f000000000000000000000000000000000000000000000000000000000000000085611445565b61297b565b73ffffffffffffffffffffffffffffffffffffffff8516331415612725576126c073ffffffffffffffffffffffffffffffffffffffff8516337f0000000000000000000000000000000000000000000000000000000000000000866118cd565b6040517f4ffe34db00000000000000000000000000000000000000000000000000000000815273ffffffffffffffffffffffffffffffffffffffff85811660048301527f00000000000000000000000000000000000000000000000000000000000000001690634ffe34db906024016040805180830381865afa1580156127b0573d6000803e3d6000fd5b505050506040513d601f19601f820116820180604052508101906127d49190613bc2565b516040517fdf23b45b00000000000000000000000000000000000000000000000000000000815273ffffffffffffffffffffffffffffffffffffffff86811660048301526fffffffffffffffffffffffffffffffff909216917f0000000000000000000000000000000000000000000000000000000000000000169063df23b45b90602401606060405180830381865afa158015612876573d6000803e3d6000fd5b505050506040513d601f19601f8201168201806040525081019061289a9190613c35565b60409081015190517f70a0823100000000000000000000000000000000000000000000000000000000815273ffffffffffffffffffffffffffffffffffffffff7f0000000000000000000000000000000000000000000000000000000000000000811660048301526fffffffffffffffffffffffffffffffff909216918716906370a0823190602401602060405180830381865afa158015612940573d6000803e3d6000fd5b505050506040513d601f19601f8201168201806040525081019061296491906138e1565b61296e91906138c9565b6129789190613879565b92505b6040517f02b9446c00000000000000000000000000000000000000000000000000000000815273ffffffffffffffffffffffffffffffffffffffff85811660048301527f000000000000000000000000000000000000000000000000000000000000000081166024830181905290831660448301526064820185905260006084830152906302b9446c9060a40160408051808303816000875af1158015612a26573d6000803e3d6000fd5b505050506040513d601f19601f82011682018060405250810190612a4a9190613b7e565b5050610e5f565b73ffffffffffffffffffffffffffffffffffffffff851615612b28576040517ff18d03cc00000000000000000000000000000000000000000000000000000000815273ffffffffffffffffffffffffffffffffffffffff85811660048301528681166024830152306044830152606482018590527f0000000000000000000000000000000000000000000000000000000000000000169063f18d03cc90608401600060405180830381600087803b158015612b0b57600080fd5b505af1158015612b1f573d6000803e3d6000fd5b50505050612be1565b6040517ff7888aec00000000000000000000000000000000000000000000000000000000815273ffffffffffffffffffffffffffffffffffffffff85811660048301523060248301527f0000000000000000000000000000000000000000000000000000000000000000169063f7888aec90604401602060405180830381865afa158015612bba573d6000803e3d6000fd5b505050506040513d601f19601f82011682018060405250810190612bde91906138e1565b92505b6040517f97da6d3000000000000000000000000000000000000000000000000000000000815273ffffffffffffffffffffffffffffffffffffffff8581166004830152306024830152828116604483015260006064830152608482018590527f000000000000000000000000000000000000000000000000000000000000000016906397da6d309060a40160408051808303816000875af1158015612c8a573d6000803e3d6000fd5b505050506040513d601f19601f82011682018060405250810190612cae9190613b7e565b5050505050505050565b6000612cca8580516014018051915290565b85516020808201805190920101875290915073ffffffffffffffffffffffffffffffffffffffff851615612db1576040517ff18d03cc00000000000000000000000000000000000000000000000000000000815273ffffffffffffffffffffffffffffffffffffffff858116600483015286811660248301528381166044830152606482018590527f0000000000000000000000000000000000000000000000000000000000000000169063f18d03cc90608401600060405180830381600087803b158015612d9857600080fd5b505af1158015612dac573d6000803e3d6000fd5b505050505b6040517f627dd56a00000000000000000000000000000000000000000000000000000000815273ffffffffffffffffffffffffffffffffffffffff83169063627dd56a90612e03908490600401613ca1565b6020604051808303816000875af1158015612e22573d6000803e3d6000fd5b505050506040513d601f19601f820116820180604052508101906118c491906138e1565b6000612e588580516014018051915290565b90506000612e6c8680516001018051915290565b90506000612e808780516001018051915290565b60000b90506000612e978880516001018051915290565b60000b90506000612eae8980516014018051915290565b90506000612ec28a80516014018051915290565b9050600073ffffffffffffffffffffffffffffffffffffffff891673eeeeeeeeeeeeeeeeeeeeeeeeeeeeeeeeeeeeeeee1415612fab576040517f3df02124000000000000000000000000000000000000000000000000000000008152600f86810b600483015285900b6024820152604481018990526000606482015273ffffffffffffffffffffffffffffffffffffffff881690633df02124908a9060840160206040518083038185885af1158015612f7f573d6000803e3d6000fd5b50505050506040513d601f19601f82011682018060405250810190612fa491906138e1565b90506131b2565b73ffffffffffffffffffffffffffffffffffffffff8a16331415612feb57612feb73ffffffffffffffffffffffffffffffffffffffff8a1633308b6118cd565b61300c73ffffffffffffffffffffffffffffffffffffffff8a16888a613316565b5060ff86166130bf576040517f3df02124000000000000000000000000000000000000000000000000000000008152600f86810b600483015285900b6024820152604481018990526000606482015273ffffffffffffffffffffffffffffffffffffffff881690633df02124906084016020604051808303816000875af115801561309b573d6000803e3d6000fd5b505050506040513d601f19601f82011682018060405250810190612fa491906138e1565b60006130e173ffffffffffffffffffffffffffffffffffffffff841630611519565b6040517f3df02124000000000000000000000000000000000000000000000000000000008152600f88810b600483015287900b6024820152604481018b90526000606482015290915073ffffffffffffffffffffffffffffffffffffffff891690633df0212490608401600060405180830381600087803b15801561316557600080fd5b505af1158015613179573d6000803e3d6000fd5b50600092506131a191505073ffffffffffffffffffffffffffffffffffffffff851630611519565b90506131ad8282613879565b925050505b73ffffffffffffffffffffffffffffffffffffffff831630146131f0576131f073ffffffffffffffffffffffffffffffffffffffff83168483611280565b5050505050505050505050565b60608247101561328f576040517f08c379a000000000000000000000000000000000000000000000000000000000815260206004820152602660248201527f416464726573733a20696e73756666696369656e742062616c616e636520666f60448201527f722063616c6c00000000000000000000000000000000000000000000000000006064820152608401610399565b6000808673ffffffffffffffffffffffffffffffffffffffff1685876040516132b89190613cb4565b60006040518083038185875af1925050503d80600081146132f5576040519150601f19603f3d011682016040523d82523d6000602084013e6132fa565b606091505b509150915061330b87838387613347565b979650505050505050565b60006133238484846133e4565b80611e555750613335848460006133e4565b8015611e555750611e558484846133e4565b606083156133da5782516133d35773ffffffffffffffffffffffffffffffffffffffff85163b6133d3576040517f08c379a000000000000000000000000000000000000000000000000000000000815260206004820152601d60248201527f416464726573733a2063616c6c20746f206e6f6e2d636f6e74726163740000006044820152606401610399565b5081611e55565b611e5583836134f3565b6040805173ffffffffffffffffffffffffffffffffffffffff8481166024830152604480830185905283518084039091018152606490920183526020820180517bffffffffffffffffffffffffffffffffffffffffffffffffffffffff167f095ea7b3000000000000000000000000000000000000000000000000000000001790529151600092839283929188169161347d9190613cb4565b6000604051808303816000865af19150503d80600081146134ba576040519150601f19603f3d011682016040523d82523d6000602084013e6134bf565b606091505b50915091508180156134e95750805115806134e95750808060200190518101906134e991906138fa565b9695505050505050565b8151156135035781518083602001fd5b806040517f08c379a00000000000000000000000000000000000000000000000000000000081526004016103999190613ca1565b6000806000806060858703121561354d57600080fd5b8435935060208501359250604085013567ffffffffffffffff8082111561357357600080fd5b818701915087601f83011261358757600080fd5b81358181111561359657600080fd5b8860208285010111156135a857600080fd5b95989497505060200194505050565b73ffffffffffffffffffffffffffffffffffffffff81168114610cb657600080fd5b7f4e487b7100000000000000000000000000000000000000000000000000000000600052604160045260246000fd5b600082601f83011261361957600080fd5b813567ffffffffffffffff80821115613634576136346135d9565b604051601f83017fffffffffffffffffffffffffffffffffffffffffffffffffffffffffffffffe0908116603f0116810190828211818310171561367a5761367a6135d9565b8160405283815286602085880101111561369357600080fd5b836020870160208301376000602085830101528094505050505092915050565b60008060008060008060c087890312156136cc57600080fd5b86356136d7816135b7565b95506020870135945060408701356136ee816135b7565b9350606087013592506080870135613705816135b7565b915060a087013567ffffffffffffffff81111561372157600080fd5b61372d89828a01613608565b9150509295509295509295565b600080600080600080600080610100898b03121561375757600080fd5b8835613762816135b7565b9750602089013596506040890135613779816135b7565b9550606089013594506080890135613790816135b7565b935060a0890135925060c08901356137a7816135b7565b915060e089013567ffffffffffffffff8111156137c357600080fd5b6137cf8b828c01613608565b9150509295985092959890939650565b8015158114610cb657600080fd5b6000806040838503121561380057600080fd5b823561380b816135b7565b9150602083013561381b816137df565b809150509250929050565b60006020828403121561383857600080fd5b8135613843816135b7565b9392505050565b7f4e487b7100000000000000000000000000000000000000000000000000000000600052601160045260246000fd5b60008282101561388b5761388b61384a565b500390565b60007fffffffffffffffffffffffffffffffffffffffffffffffffffffffffffffffff8214156138c2576138c261384a565b5060010190565b600082198211156138dc576138dc61384a565b500190565b6000602082840312156138f357600080fd5b5051919050565b60006020828403121561390c57600080fd5b8151613843816137df565b80516dffffffffffffffffffffffffffff8116811461170a57600080fd5b60008060006060848603121561394a57600080fd5b61395384613917565b925061396160208501613917565b9150604084015163ffffffff8116811461397a57600080fd5b809150509250925092565b600062ffffff838116908316818110156139a1576139a161384a565b039392505050565b6000817fffffffffffffffffffffffffffffffffffffffffffffffffffffffffffffffff04831182151516156139e1576139e161384a565b500290565b600082613a1c577f4e487b7100000000000000000000000000000000000000000000000000000000600052601260045260246000fd5b500490565b60005b83811015613a3c578181015183820152602001613a24565b838111156103f05750506000910152565b60008151808452613a65816020860160208601613a21565b601f017fffffffffffffffffffffffffffffffffffffffffffffffffffffffffffffffe0169290920160200192915050565b84815283602082015273ffffffffffffffffffffffffffffffffffffffff831660408201526080606082015260006134e96080830184613a4d565b600073ffffffffffffffffffffffffffffffffffffffff838116908316818110156139a1576139a161384a565b600073ffffffffffffffffffffffffffffffffffffffff808316818516808303821115613b2e57613b2e61384a565b01949350505050565b600073ffffffffffffffffffffffffffffffffffffffff8088168352861515602084015285604084015280851660608401525060a0608083015261330b60a0830184613a4d565b60008060408385031215613b9157600080fd5b505080516020909101519092909150565b80516fffffffffffffffffffffffffffffffff8116811461170a57600080fd5b600060408284031215613bd457600080fd5b6040516040810181811067ffffffffffffffff82111715613bf757613bf76135d9565b604052613c0383613ba2565b8152613c1160208401613ba2565b60208201529392505050565b805167ffffffffffffffff8116811461170a57600080fd5b600060608284031215613c4757600080fd5b6040516060810181811067ffffffffffffffff82111715613c6a57613c6a6135d9565b604052613c7683613c1d565b8152613c8460208401613c1d565b6020820152613c9560408401613ba2565b60408201529392505050565b6020815260006138436020830184613a4d565b60008251613cc6818460208701613a21565b919091019291505056fea26469706673582212201daca9512f497ebb62455e5278090e92a97622990854102bfff576b9d9c0e94364736f6c634300080a0033",
  "linkReferences": {},
  "deployedLinkReferences": {}
}