{
  "address": "0x2F255d3f3C0A3726c6c99E74566c4b18E36E3ce6",
  "abi": [
    {
      "inputs": [
        {
          "internalType": "address",
          "name": "_bentoBox",
          "type": "address"
        }
      ],
      "stateMutability": "nonpayable",
      "type": "constructor"
    },
    {
      "inputs": [],
      "name": "bentoBox",
      "outputs": [
        {
          "internalType": "contract IBentoBoxMinimal",
          "name": "",
          "type": "address"
        }
      ],
      "stateMutability": "view",
      "type": "function"
    },
    {
      "inputs": [
        {
          "internalType": "address",
          "name": "tokenIn",
          "type": "address"
        },
        {
          "internalType": "uint256",
          "name": "amountIn",
          "type": "uint256"
        },
        {
          "internalType": "address",
          "name": "tokenOut",
          "type": "address"
        },
        {
          "internalType": "uint256",
          "name": "amountOutMin",
          "type": "uint256"
        },
        {
          "internalType": "address",
          "name": "to",
          "type": "address"
        },
        {
          "internalType": "bytes",
          "name": "route",
          "type": "bytes"
        }
      ],
      "name": "processRoute",
      "outputs": [
        {
          "internalType": "uint256",
          "name": "amountOut",
          "type": "uint256"
        }
      ],
      "stateMutability": "payable",
      "type": "function"
    },
    {
      "inputs": [
        {
          "internalType": "address payable",
          "name": "transferValueTo",
          "type": "address"
        },
        {
          "internalType": "uint256",
          "name": "amountValueTransfer",
          "type": "uint256"
        },
        {
          "internalType": "address",
          "name": "tokenIn",
          "type": "address"
        },
        {
          "internalType": "uint256",
          "name": "amountIn",
          "type": "uint256"
        },
        {
          "internalType": "address",
          "name": "tokenOut",
          "type": "address"
        },
        {
          "internalType": "uint256",
          "name": "amountOutMin",
          "type": "uint256"
        },
        {
          "internalType": "address",
          "name": "to",
          "type": "address"
        },
        {
          "internalType": "bytes",
          "name": "route",
          "type": "bytes"
        }
      ],
      "name": "transferValueAndprocessRoute",
      "outputs": [
        {
          "internalType": "uint256",
          "name": "amountOut",
          "type": "uint256"
        }
      ],
      "stateMutability": "payable",
      "type": "function"
    },
    {
      "stateMutability": "payable",
      "type": "receive"
    }
  ],
  "transactionHash": "0xa945ad6d5868ac545da156398016b723948c0035c6f839f6ccc81fe863159d86",
  "args": [
    "0x6b2A3FF504798886862Ca5ce501e080947A506A2"
  ],
  "numDeployments": 2,
  "solcInputHash": "4ad860d6d6f228aacbbaf962a08da285",
  "bytecode": "0x60a0604052600160005534801561001557600080fd5b506040516200255e3803806200255e83398101604081905261003691610047565b6001600160a01b0316608052610077565b60006020828403121561005957600080fd5b81516001600160a01b038116811461007057600080fd5b9392505050565b60805161247f620000df60003960008181607c015281816110470152818161122001528181611307015281816113f20152818161150a015281816115e5015281816116aa0152818161175701528181611838015281816118fe01526119cd015261247f6000f3fe6080604052600436106100385760003560e01c80632646478b146100445780636b2ace871461006a57806393b3774c146100c357600080fd5b3661003f57005b600080fd5b610057610052366004611f4c565b6100d6565b6040519081526020015b60405180910390f35b34801561007657600080fd5b5061009e7f000000000000000000000000000000000000000000000000000000000000000081565b60405173ffffffffffffffffffffffffffffffffffffffff9091168152602001610061565b6100576100d1366004611fd3565b61016b565b60008054600114610148576040517f08c379a000000000000000000000000000000000000000000000000000000000815260206004820152601860248201527f526f75746550726f636573736f72206973206c6f636b6564000000000000000060448201526064015b60405180910390fd5b600260005561015b8787878787876102bc565b6001600055979650505050505050565b600080546001146101d8576040517f08c379a000000000000000000000000000000000000000000000000000000000815260206004820152601860248201527f526f75746550726f636573736f72206973206c6f636b65640000000000000000604482015260640161013f565b60026000908155604051819073ffffffffffffffffffffffffffffffffffffffff8c16908b908381818185875af1925050503d8060008114610236576040519150601f19603f3d011682016040523d82523d6000602084013e61023b565b606091505b5091509150818160405160200161025291906120a4565b60405160208183030381529060405290610299576040517f08c379a000000000000000000000000000000000000000000000000000000000815260040161013f919061210a565b506102a88989898989896102bc565b60016000559b9a5050505050505050505050565b6000808073ffffffffffffffffffffffffffffffffffffffff871673eeeeeeeeeeeeeeeeeeeeeeeeeeeeeeeeeeeeeeee14610386576040517f70a0823100000000000000000000000000000000000000000000000000000000815273ffffffffffffffffffffffffffffffffffffffff86811660048301528816906370a0823190602401602060405180830381865afa15801561035d573d6000803e3d6000fd5b505050506040513d601f19601f820116820180604052508101906103819190612124565b61039f565b8473ffffffffffffffffffffffffffffffffffffffff16315b604080518082019091528581528551860160208201529091505b80516020820151111561058d5760006103d88280516001018051915290565b905060148160ff1610156104e5578060ff16600a1415610401576103fb82610765565b50610587565b8060ff166004141561041b5761041682610a87565b610587565b8060ff166003141561044257610431828c610bcb565b61043b908561216c565b9350610587565b8060ff16600514156104575761043182610c63565b8060ff166006141561046d576104168783610dfc565b8060ff166007141561048357610431828c610f4d565b6040517f08c379a000000000000000000000000000000000000000000000000000000000815260206004820152601460248201527f556e6b6e6f776e20636f6d6d616e6420636f6465000000000000000000000000604482015260640161013f565b60188160ff161015610532578060ff166014141561050757610416828c610fdc565b8060ff166015141561051c57610416826110dc565b8060ff166017141561048357610416828c611196565b8060ff166018141561054857610431828c611251565b8060ff166019141561055d5761041682611378565b8060ff16601a14156105725761041682611574565b8060ff16601b14156104835761041682611887565b506103b9565b8883146105f6576040517f08c379a000000000000000000000000000000000000000000000000000000000815260206004820152601460248201527f57726f6e6720616d6f756e74496e2076616c7565000000000000000000000000604482015260640161013f565b600073ffffffffffffffffffffffffffffffffffffffff891673eeeeeeeeeeeeeeeeeeeeeeeeeeeeeeeeeeeeeeee146106be576040517f70a0823100000000000000000000000000000000000000000000000000000000815273ffffffffffffffffffffffffffffffffffffffff88811660048301528a16906370a0823190602401602060405180830381865afa158015610695573d6000803e3d6000fd5b505050506040513d601f19601f820116820180604052508101906106b99190612124565b6106d7565b8673ffffffffffffffffffffffffffffffffffffffff16315b90506106e3888461216c565b81101561074c576040517f08c379a000000000000000000000000000000000000000000000000000000000815260206004820152601f60248201527f4d696e696d616c206f757075742062616c616e63652076696f6c6174696f6e00604482015260640161013f565b6107568382612184565b9b9a5050505050505050505050565b6000806107788380516014018051915290565b9050600061078c8480516014018051915290565b905060006107a08580516001018051915290565b905060006107b48680516014018051915290565b90506000808573ffffffffffffffffffffffffffffffffffffffff16630902f1ac6040518163ffffffff1660e01b8152600401606060405180830381865afa158015610804573d6000803e3d6000fd5b505050506040513d601f19601f8201168201806040525081019061082891906121be565b506dffffffffffffffffffffffffffff1691506dffffffffffffffffffffffffffff16915060008211801561085d5750600081115b6108c3576040517f08c379a000000000000000000000000000000000000000000000000000000000815260206004820152601360248201527f57726f6e6720706f6f6c20726573657276657300000000000000000000000000604482015260640161013f565b6000808560ff166001146108d85782846108db565b83835b6040517f70a0823100000000000000000000000000000000000000000000000000000000815273ffffffffffffffffffffffffffffffffffffffff8b811660048301529294509092506000918491908a16906370a0823190602401602060405180830381865afa158015610953573d6000803e3d6000fd5b505050506040513d601f19601f820116820180604052508101906109779190612124565b6109819190612184565b90506000610991826103e561220e565b9050806109a0856103e861220e565b6109aa919061216c565b6109b4848361220e565b6109be919061224b565b9a506000808960ff166001146109d6578c60006109da565b60008d5b604080516000815260208101918290527f022c0d9f00000000000000000000000000000000000000000000000000000000909152919350915073ffffffffffffffffffffffffffffffffffffffff8d169063022c0d9f90610a4490859085908e9060248101612286565b600060405180830381600087803b158015610a5e57600080fd5b505af1158015610a72573d6000803e3d6000fd5b50505050505050505050505050505050919050565b6000610a998280516014018051915290565b90506000610aad8380516001018051915290565b6040517f70a0823100000000000000000000000000000000000000000000000000000000815230600482015290915060009060019073ffffffffffffffffffffffffffffffffffffffff8516906370a0823190602401602060405180830381865afa158015610b20573d6000803e3d6000fd5b505050506040513d601f19601f82011682018060405250810190610b449190612124565b610b4e9190612184565b905060005b8260ff16811015610bc4576000610b708680516014018051915290565b90506000610b848780516002018051915290565b61ffff8082168602049485900394909150610bb673ffffffffffffffffffffffffffffffffffffffff881684836119fe565b505050806001019050610b53565b5050505050565b600080610bde8480516001018051915290565b90506000915060005b8160ff16811015610c5b576000610c048680516014018051915290565b90506000610c188780516020018051915290565b9050610c24818661216c565b9450610c4873ffffffffffffffffffffffffffffffffffffffff8716338484611ad7565b505080610c54906122cb565b9050610be7565b505092915050565b600080610c768380516014018051915290565b90508073ffffffffffffffffffffffffffffffffffffffff1663d0e30db0476040518263ffffffff1660e01b81526004016000604051808303818588803b158015610cc057600080fd5b505af1158015610cd4573d6000803e3d6000fd5b50505050506000610ceb8480516001018051915290565b90506000925060005b8160ff16811015610d67576000610d118680516014018051915290565b90506000610d258780516020018051915290565b9050610d31818761216c565b9550610d5473ffffffffffffffffffffffffffffffffffffffff861683836119fe565b505080610d60906122cb565b9050610cf4565b504715610df5576040517f08c379a0000000000000000000000000000000000000000000000000000000008152602060048201526024808201527f526f75746550726f636573736f723a20696e76616c696420696e70757420616d60448201527f6f756e7400000000000000000000000000000000000000000000000000000000606482015260840161013f565b5050919050565b6000610e0e8280516014018051915290565b6040517f70a0823100000000000000000000000000000000000000000000000000000000815230600482015290915073ffffffffffffffffffffffffffffffffffffffff821690632e1a7d4d9060019083906370a0823190602401602060405180830381865afa158015610e86573d6000803e3d6000fd5b505050506040513d601f19601f82011682018060405250810190610eaa9190612124565b610eb49190612184565b6040518263ffffffff1660e01b8152600401610ed291815260200190565b600060405180830381600087803b158015610eec57600080fd5b505af1158015610f00573d6000803e3d6000fd5b505060405173ffffffffffffffffffffffffffffffffffffffff861692504780156108fc029250906000818181858888f19350505050158015610f47573d6000803e3d6000fd5b50505050565b600080610f608480516001018051915290565b90506000915060005b8160ff16811015610c5b576000610f868680516014018051915290565b90506000610f9a8780516020018051915290565b9050610fa6818661216c565b9450610fc973ffffffffffffffffffffffffffffffffffffffff871683836119fe565b505080610fd5906122cb565b9050610f69565b6000610fee8380516014018051915290565b905060006110028480516020018051915290565b6040517f02b9446c00000000000000000000000000000000000000000000000000000000815273ffffffffffffffffffffffffffffffffffffffff85811660048301527f0000000000000000000000000000000000000000000000000000000000000000811660248301819052908516604483015260648201839052600060848301529192506302b9446c9060a4015b60408051808303816000875af11580156110b0573d6000803e3d6000fd5b505050506040513d601f19601f820116820180604052508101906110d49190612304565b505050505050565b60006110ee8280516014018051915290565b8251602080820180519092010184526040517f627dd56a0000000000000000000000000000000000000000000000000000000081529192509073ffffffffffffffffffffffffffffffffffffffff83169063627dd56a9061115390849060040161210a565b6020604051808303816000875af1158015611172573d6000803e3d6000fd5b505050506040513d601f19601f82011682018060405250810190610f479190612124565b60006111a88380516014018051915290565b905060006111bc8480516020018051915290565b6040517f97da6d3000000000000000000000000000000000000000000000000000000000815273ffffffffffffffffffffffffffffffffffffffff8581166004830152306024830152848116604483015260648201839052600060848301529192507f0000000000000000000000000000000000000000000000000000000000000000909116906397da6d309060a401611092565b6000806112648480516001018051915290565b90506000915060005b8160ff16811015610c5b57600061128a8680516014018051915290565b9050600061129e8780516020018051915290565b90506112aa818661216c565b6040517ff18d03cc00000000000000000000000000000000000000000000000000000000815273ffffffffffffffffffffffffffffffffffffffff88811660048301523360248301528481166044830152606482018490529196507f00000000000000000000000000000000000000000000000000000000000000009091169063f18d03cc90608401600060405180830381600087803b15801561134d57600080fd5b505af1158015611361573d6000803e3d6000fd5b50505050505080611371906122cb565b905061126d565b600061138a8280516014018051915290565b9050600061139e8380516001018051915290565b6040517ff7888aec00000000000000000000000000000000000000000000000000000000815273ffffffffffffffffffffffffffffffffffffffff84811660048301523060248301529192506000916001917f00000000000000000000000000000000000000000000000000000000000000009091169063f7888aec90604401602060405180830381865afa15801561143b573d6000803e3d6000fd5b505050506040513d601f19601f8201168201806040525081019061145f9190612124565b6114699190612184565b905060005b8260ff16811015610bc457600061148b8680516014018051915290565b9050600061149f8780516002018051915290565b6040517ff18d03cc00000000000000000000000000000000000000000000000000000000815273ffffffffffffffffffffffffffffffffffffffff8881166004830152306024830152848116604483015261ffff8084168802046064830181905296879003969293507f0000000000000000000000000000000000000000000000000000000000000000169063f18d03cc90608401600060405180830381600087803b15801561154e57600080fd5b505af1158015611562573d6000803e3d6000fd5b5050505050505080600101905061146e565b60006115868280516014018051915290565b9050600061159a8380516014018051915290565b6040517f4ffe34db00000000000000000000000000000000000000000000000000000000815273ffffffffffffffffffffffffffffffffffffffff80831660048301529192506000917f00000000000000000000000000000000000000000000000000000000000000001690634ffe34db906024016040805180830381865afa15801561162b573d6000803e3d6000fd5b505050506040513d601f19601f8201168201806040525081019061164f9190612348565b516040517fdf23b45b00000000000000000000000000000000000000000000000000000000815273ffffffffffffffffffffffffffffffffffffffff84811660048301526fffffffffffffffffffffffffffffffff909216917f0000000000000000000000000000000000000000000000000000000000000000169063df23b45b90602401606060405180830381865afa1580156116f1573d6000803e3d6000fd5b505050506040513d601f19601f8201168201806040525081019061171591906123bb565b60409081015190517f70a0823100000000000000000000000000000000000000000000000000000000815273ffffffffffffffffffffffffffffffffffffffff7f0000000000000000000000000000000000000000000000000000000000000000811660048301526fffffffffffffffffffffffffffffffff909216918516906370a0823190602401602060405180830381865afa1580156117bb573d6000803e3d6000fd5b505050506040513d601f19601f820116820180604052508101906117df9190612124565b6117e9919061216c565b6117f39190612184565b6040517f02b9446c00000000000000000000000000000000000000000000000000000000815273ffffffffffffffffffffffffffffffffffffffff84811660048301527f0000000000000000000000000000000000000000000000000000000000000000811660248301819052908616604483015260648201839052600060848301529192506302b9446c9060a401611092565b60006118998280516014018051915290565b905060006118ad8380516014018051915290565b6040517ff7888aec00000000000000000000000000000000000000000000000000000000815273ffffffffffffffffffffffffffffffffffffffff84811660048301523060248301529192506000917f0000000000000000000000000000000000000000000000000000000000000000169063f7888aec90604401602060405180830381865afa158015611945573d6000803e3d6000fd5b505050506040513d601f19601f820116820180604052508101906119699190612124565b6040517f97da6d3000000000000000000000000000000000000000000000000000000000815273ffffffffffffffffffffffffffffffffffffffff8581166004830152306024830152848116604483015260006064830152608482018390529192507f0000000000000000000000000000000000000000000000000000000000000000909116906397da6d309060a401611092565b60405173ffffffffffffffffffffffffffffffffffffffff8316602482015260448101829052611ad29084907fa9059cbb00000000000000000000000000000000000000000000000000000000906064015b604080517fffffffffffffffffffffffffffffffffffffffffffffffffffffffffffffffe08184030181529190526020810180517bffffffffffffffffffffffffffffffffffffffffffffffffffffffff167fffffffff0000000000000000000000000000000000000000000000000000000090931692909217909152611b35565b505050565b60405173ffffffffffffffffffffffffffffffffffffffff80851660248301528316604482015260648101829052610f479085907f23b872dd0000000000000000000000000000000000000000000000000000000090608401611a50565b6000611b97826040518060400160405280602081526020017f5361666545524332303a206c6f772d6c6576656c2063616c6c206661696c65648152508573ffffffffffffffffffffffffffffffffffffffff16611c419092919063ffffffff16565b805190915015611ad25780806020019051810190611bb59190612427565b611ad2576040517f08c379a000000000000000000000000000000000000000000000000000000000815260206004820152602a60248201527f5361666545524332303a204552433230206f7065726174696f6e20646964206e60448201527f6f74207375636365656400000000000000000000000000000000000000000000606482015260840161013f565b6060611c508484600085611c58565b949350505050565b606082471015611cea576040517f08c379a000000000000000000000000000000000000000000000000000000000815260206004820152602660248201527f416464726573733a20696e73756666696369656e742062616c616e636520666f60448201527f722063616c6c0000000000000000000000000000000000000000000000000000606482015260840161013f565b6000808673ffffffffffffffffffffffffffffffffffffffff168587604051611d1391906120a4565b60006040518083038185875af1925050503d8060008114611d50576040519150601f19603f3d011682016040523d82523d6000602084013e611d55565b606091505b5091509150611d6687838387611d71565b979650505050505050565b60608315611e04578251611dfd5773ffffffffffffffffffffffffffffffffffffffff85163b611dfd576040517f08c379a000000000000000000000000000000000000000000000000000000000815260206004820152601d60248201527f416464726573733a2063616c6c20746f206e6f6e2d636f6e7472616374000000604482015260640161013f565b5081611c50565b611c508383815115611e195781518083602001fd5b806040517f08c379a000000000000000000000000000000000000000000000000000000000815260040161013f919061210a565b73ffffffffffffffffffffffffffffffffffffffff81168114611e6f57600080fd5b50565b7f4e487b7100000000000000000000000000000000000000000000000000000000600052604160045260246000fd5b600082601f830112611eb257600080fd5b813567ffffffffffffffff80821115611ecd57611ecd611e72565b604051601f83017fffffffffffffffffffffffffffffffffffffffffffffffffffffffffffffffe0908116603f01168101908282118183101715611f1357611f13611e72565b81604052838152866020858801011115611f2c57600080fd5b836020870160208301376000602085830101528094505050505092915050565b60008060008060008060c08789031215611f6557600080fd5b8635611f7081611e4d565b9550602087013594506040870135611f8781611e4d565b9350606087013592506080870135611f9e81611e4d565b915060a087013567ffffffffffffffff811115611fba57600080fd5b611fc689828a01611ea1565b9150509295509295509295565b600080600080600080600080610100898b031215611ff057600080fd5b8835611ffb81611e4d565b975060208901359650604089013561201281611e4d565b955060608901359450608089013561202981611e4d565b935060a0890135925060c089013561204081611e4d565b915060e089013567ffffffffffffffff81111561205c57600080fd5b6120688b828c01611ea1565b9150509295985092959890939650565b60005b8381101561209357818101518382015260200161207b565b83811115610f475750506000910152565b600082516120b6818460208701612078565b9190910192915050565b600081518084526120d8816020860160208601612078565b601f017fffffffffffffffffffffffffffffffffffffffffffffffffffffffffffffffe0169290920160200192915050565b60208152600061211d60208301846120c0565b9392505050565b60006020828403121561213657600080fd5b5051919050565b7f4e487b7100000000000000000000000000000000000000000000000000000000600052601160045260246000fd5b6000821982111561217f5761217f61213d565b500190565b6000828210156121965761219661213d565b500390565b80516dffffffffffffffffffffffffffff811681146121b957600080fd5b919050565b6000806000606084860312156121d357600080fd5b6121dc8461219b565b92506121ea6020850161219b565b9150604084015163ffffffff8116811461220357600080fd5b809150509250925092565b6000817fffffffffffffffffffffffffffffffffffffffffffffffffffffffffffffffff04831182151516156122465761224661213d565b500290565b600082612281577f4e487b7100000000000000000000000000000000000000000000000000000000600052601260045260246000fd5b500490565b84815283602082015273ffffffffffffffffffffffffffffffffffffffff831660408201526080606082015260006122c160808301846120c0565b9695505050505050565b60007fffffffffffffffffffffffffffffffffffffffffffffffffffffffffffffffff8214156122fd576122fd61213d565b5060010190565b6000806040838503121561231757600080fd5b505080516020909101519092909150565b80516fffffffffffffffffffffffffffffffff811681146121b957600080fd5b60006040828403121561235a57600080fd5b6040516040810181811067ffffffffffffffff8211171561237d5761237d611e72565b60405261238983612328565b815261239760208401612328565b60208201529392505050565b805167ffffffffffffffff811681146121b957600080fd5b6000606082840312156123cd57600080fd5b6040516060810181811067ffffffffffffffff821117156123f0576123f0611e72565b6040526123fc836123a3565b815261240a602084016123a3565b602082015261241b60408401612328565b60408201529392505050565b60006020828403121561243957600080fd5b8151801515811461211d57600080fdfea26469706673582212207060243d92e06d14230900d64ab354a476a1920a72e5f888d610c82ccec9a13264736f6c634300080a0033",
  "devdoc": {
    "author": "Okavango",
    "kind": "dev",
    "methods": {
      "processRoute(address,uint256,address,uint256,address,bytes)": {
        "params": {
          "amountIn": "Amount of the input token",
          "amountOutMin": "Minimum amount of the output token",
          "tokenIn": "Address of the input token",
          "tokenOut": "Address of the output token"
        },
        "returns": {
          "amountOut": "Actual amount of the output token"
        }
      },
      "transferValueAndprocessRoute(address,uint256,address,uint256,address,uint256,address,bytes)": {
        "params": {
          "amountIn": "Amount of the input token",
          "amountOutMin": "Minimum amount of the output token",
          "amountValueTransfer": "How much value to transfer",
          "tokenIn": "Address of the input token",
          "tokenOut": "Address of the output token",
          "transferValueTo": "Address where the value should be transferred"
        },
        "returns": {
          "amountOut": "Actual amount of the output token"
        }
      }
    },
    "title": "A route processor for the Sushi Aggregator",
    "version": 1
  },
  "userdoc": {
    "kind": "user",
    "methods": {
      "processRoute(address,uint256,address,uint256,address,bytes)": {
        "notice": "Processes the route generated off-chain. Has a lock"
      },
      "transferValueAndprocessRoute(address,uint256,address,uint256,address,uint256,address,bytes)": {
        "notice": "Transfers some value to <transferValueTo> and then processes the route"
      }
    },
    "version": 1
  },
  "storageLayout": {
    "storage": [
      {
        "astId": 978,
        "contract": "contracts/RouteProcessor.sol:RouteProcessor",
        "label": "unlocked",
        "offset": 0,
        "slot": "0",
        "type": "t_uint256"
      }
    ],
    "types": {
      "t_uint256": {
        "encoding": "inplace",
        "label": "uint256",
        "numberOfBytes": "32"
      }
    }
  }
}