{
  "_format": "hh-sol-artifact-1",
  "contractName": "ERC20Data",
  "sourceName": "@boringcrypto/boring-solidity/contracts/ERC20.sol",
  "abi": [
    {
      "inputs": [
        {
          "internalType": "address",
          "name": "",
          "type": "address"
        },
        {
          "internalType": "address",
          "name": "",
          "type": "address"
        }
      ],
      "name": "allowance",
      "outputs": [
        {
          "internalType": "uint256",
          "name": "",
          "type": "uint256"
        }
      ],
      "stateMutability": "view",
      "type": "function"
    },
    {
      "inputs": [
        {
          "internalType": "address",
          "name": "",
          "type": "address"
        }
      ],
      "name": "balanceOf",
      "outputs": [
        {
          "internalType": "uint256",
          "name": "",
          "type": "uint256"
        }
      ],
      "stateMutability": "view",
      "type": "function"
    },
    {
      "inputs": [
        {
          "internalType": "address",
          "name": "",
          "type": "address"
        }
      ],
      "name": "nonces",
      "outputs": [
        {
          "internalType": "uint256",
          "name": "",
          "type": "uint256"
        }
      ],
      "stateMutability": "view",
      "type": "function"
    }
  ],
  "bytecode": "0x608060405234801561001057600080fd5b50610149806100206000396000f3fe608060405234801561001057600080fd5b50600436106100415760003560e01c806370a08231146100465780637ecebe001461007e578063dd62ed3e146100a4575b600080fd5b61006c6004803603602081101561005c57600080fd5b50356001600160a01b03166100d2565b60408051918252519081900360200190f35b61006c6004803603602081101561009457600080fd5b50356001600160a01b03166100e4565b61006c600480360360408110156100ba57600080fd5b506001600160a01b03813581169160200135166100f6565b60006020819052908152604090205481565b60026020526000908152604090205481565b60016020908152600092835260408084209091529082529020548156fea26469706673582212200eec46aa6861cee1dc51b52cfbc82d222b1c1d55b9197ddc439be66fccc7c3c764736f6c634300060c0033",
  "linkReferences": {},
  "deployedLinkReferences": {}
}