{
  "address": "0x2c8C987C4777AB740d20Cb581f5d381BE95A4A4a",
  "abi": [
    {
      "inputs": [
        {
          "internalType": "address",
          "name": "constantProductPoolFactory",
          "type": "address"
        },
        {
          "internalType": "address[]",
          "name": "tokens",
          "type": "address[]"
        }
      ],
      "name": "getPoolsForTokens",
      "outputs": [
        {
          "components": [
            {
              "internalType": "uint8",
              "name": "tokenA",
              "type": "uint8"
            },
            {
              "internalType": "uint8",
              "name": "tokenB",
              "type": "uint8"
            },
            {
              "internalType": "uint112",
              "name": "reserve0",
              "type": "uint112"
            },
            {
              "internalType": "uint112",
              "name": "reserve1",
              "type": "uint112"
            },
            {
              "internalType": "uint16",
              "name": "swapFeeAndTwapSupport",
              "type": "uint16"
            }
          ],
          "internalType": "struct ConstantProductPoolFactoryHelper.ConstantProductPoolInfo[]",
          "name": "poolInfos",
          "type": "tuple[]"
        },
        {
          "internalType": "uint256",
          "name": "length",
          "type": "uint256"
        }
      ],
      "stateMutability": "view",
      "type": "function"
    }
  ],
  "transactionHash": "0x185ed7bda8c27571561e49dae944412f3ee34a33a6fd7be7193046085c74f7d7",
  "args": [],
  "numDeployments": 1,
  "solcInputHash": "7d1323ab452b40d0444e8e5feeeaadf3",
  "bytecode": "0x608060405234801561001057600080fd5b50610b6a806100206000396000f3fe608060405234801561001057600080fd5b506004361061002b5760003560e01c8063bb19dff614610030575b600080fd5b61004361003e3660046106c1565b61005a565b604051610051929190610749565b60405180910390f35b60606000848382600261006e83600161080a565b610078908461082f565b6100829190610858565b60ff1667ffffffffffffffff81111561009d5761009d6108a1565b6040519080825280602002602001820160405280156100c6578160200160208202803683370190505b5090506000805b8360ff168160ff16101561025d5760006100e882600161080a565b90505b8460ff168160ff16101561024a5760008673ffffffffffffffffffffffffffffffffffffffff16635bc93d6c8c8c8660ff1681811061012c5761012c6108d0565b905060200201602081019061014191906108ff565b8d8d8660ff16818110610156576101566108d0565b905060200201602081019061016b91906108ff565b6040517fffffffff0000000000000000000000000000000000000000000000000000000060e085901b16815273ffffffffffffffffffffffffffffffffffffffff928316600482015291166024820152604401602060405180830381865afa1580156101db573d6000803e3d6000fd5b505050506040513d601f19601f820116820180604052508101906101ff9190610923565b905080858561020d8161093c565b96508151811061021f5761021f6108d0565b60209081029190910101526102348189610975565b97505080806102429061098d565b9150506100eb565b50806102558161098d565b9150506100cd565b508467ffffffffffffffff811115610277576102776108a1565b6040519080825280602002602001820160405280156102ee57816020015b6040805160a0810182526000808252602080830182905292820181905260608201819052608082015282527fffffffffffffffffffffffffffffffffffffffffffffffffffffffffffffffff9092019101816102955790505b509550600090506000805b8460ff168160ff16101561068e57600061031482600161080a565b90505b8560ff168160ff16101561067b5760008773ffffffffffffffffffffffffffffffffffffffff166371a258128d8d8660ff16818110610358576103586108d0565b905060200201602081019061036d91906108ff565b8e8e8660ff16818110610382576103826108d0565b905060200201602081019061039791906108ff565b60008a8a6103a48161093c565b9b50815181106103b6576103b66108d0565b60209081029190910101516040517fffffffff0000000000000000000000000000000000000000000000000000000060e087901b16815273ffffffffffffffffffffffffffffffffffffffff948516600482015293909216602484015260448301526064820152608401600060405180830381865afa15801561043d573d6000803e3d6000fd5b505050506040513d6000823e601f3d9081017fffffffffffffffffffffffffffffffffffffffffffffffffffffffffffffffe016820160405261048391908101906109bd565b905060005b81518110156106665760008b8661049e8161093c565b9750815181106104b0576104b06108d0565b60209081029190910181015160ff808816825286169181019190915283519091506000908490849081106104e6576104e66108d0565b6020026020010151905060008060008373ffffffffffffffffffffffffffffffffffffffff16630902f1ac6040518163ffffffff1660e01b8152600401606060405180830381865afa158015610540573d6000803e3d6000fd5b505050506040513d601f19601f820116820180604052508101906105649190610abe565b6dffffffffffffffffffffffffffff8084166040808b019190915290831660608a015280517f54cf2aeb0000000000000000000000000000000000000000000000000000000081529051939650919450925073ffffffffffffffffffffffffffffffffffffffff8616916354cf2aeb916004808201926020929091908290030181865afa1580156105f9573d6000803e3d6000fd5b505050506040513d601f19601f8201168201806040525081019061061d9190610923565b61ffff16608086015263ffffffff81161561064e57618000856080018181516106469190610b0e565b61ffff169052505b5050505050808061065e9061093c565b915050610488565b505080806106739061098d565b915050610317565b50806106868161098d565b9150506102f9565b505050505050935093915050565b73ffffffffffffffffffffffffffffffffffffffff811681146106be57600080fd5b50565b6000806000604084860312156106d657600080fd5b83356106e18161069c565b9250602084013567ffffffffffffffff808211156106fe57600080fd5b818601915086601f83011261071257600080fd5b81358181111561072157600080fd5b8760208260051b850101111561073657600080fd5b6020830194508093505050509250925092565b6040808252835182820181905260009190606090818501906020808901865b838110156107c7578151805160ff9081168752848201511684870152878101516dffffffffffffffffffffffffffff9081168988015287820151168787015260809081015161ffff169086015260a09094019390820190600101610768565b505095909501959095525092949350505050565b7f4e487b7100000000000000000000000000000000000000000000000000000000600052601160045260246000fd5b600060ff821660ff84168060ff03821115610827576108276107db565b019392505050565b600060ff821660ff84168160ff0481118215151615610850576108506107db565b029392505050565b600060ff831680610892577f4e487b7100000000000000000000000000000000000000000000000000000000600052601260045260246000fd5b8060ff84160491505092915050565b7f4e487b7100000000000000000000000000000000000000000000000000000000600052604160045260246000fd5b7f4e487b7100000000000000000000000000000000000000000000000000000000600052603260045260246000fd5b60006020828403121561091157600080fd5b813561091c8161069c565b9392505050565b60006020828403121561093557600080fd5b5051919050565b60007fffffffffffffffffffffffffffffffffffffffffffffffffffffffffffffffff82141561096e5761096e6107db565b5060010190565b60008219821115610988576109886107db565b500190565b600060ff821660ff8114156109a4576109a46107db565b60010192915050565b80516109b88161069c565b919050565b600060208083850312156109d057600080fd5b825167ffffffffffffffff808211156109e857600080fd5b818501915085601f8301126109fc57600080fd5b815181811115610a0e57610a0e6108a1565b8060051b6040517fffffffffffffffffffffffffffffffffffffffffffffffffffffffffffffffe0603f83011681018181108582111715610a5157610a516108a1565b604052918252848201925083810185019188831115610a6f57600080fd5b938501935b82851015610a9457610a85856109ad565b84529385019392850192610a74565b98975050505050505050565b80516dffffffffffffffffffffffffffff811681146109b857600080fd5b600080600060608486031215610ad357600080fd5b610adc84610aa0565b9250610aea60208501610aa0565b9150604084015163ffffffff81168114610b0357600080fd5b809150509250925092565b600061ffff808316818516808303821115610b2b57610b2b6107db565b0194935050505056fea2646970667358221220d9308857138ebd6a35dc733522f650cb7b6c421c60b9cf12290d9a194feb474264736f6c634300080a0033",
  "devdoc": {
    "author": "Ilya Lyalin",
    "kind": "dev",
    "methods": {},
    "version": 1
  },
  "userdoc": {
    "kind": "user",
    "methods": {},
    "notice": "Helper Contract for fetching info for several pools",
    "version": 1
  },
  "storageLayout": {
    "storage": [],
    "types": null
  }
}