{
  "address": "0x7CD29170e8fA3fE5204624deDE5A66F4e8161741",
  "abi": [
    {
      "inputs": [
        {
          "internalType": "address",
          "name": "_bentoBox",
          "type": "address"
        }
      ],
      "stateMutability": "nonpayable",
      "type": "constructor"
    },
    {
      "inputs": [],
      "name": "bentoBox",
      "outputs": [
        {
          "internalType": "contract IBentoBoxMinimal",
          "name": "",
          "type": "address"
        }
      ],
      "stateMutability": "view",
      "type": "function"
    },
    {
      "inputs": [
        {
          "internalType": "address",
          "name": "tokenIn",
          "type": "address"
        },
        {
          "internalType": "uint256",
          "name": "amountIn",
          "type": "uint256"
        },
        {
          "internalType": "address",
          "name": "tokenOut",
          "type": "address"
        },
        {
          "internalType": "uint256",
          "name": "amountOutMin",
          "type": "uint256"
        },
        {
          "internalType": "address",
          "name": "to",
          "type": "address"
        },
        {
          "internalType": "bytes",
          "name": "route",
          "type": "bytes"
        }
      ],
      "name": "processRoute",
      "outputs": [
        {
          "internalType": "uint256",
          "name": "amountOut",
          "type": "uint256"
        }
      ],
      "stateMutability": "payable",
      "type": "function"
    },
    {
      "stateMutability": "payable",
      "type": "receive"
    }
  ],
  "transactionHash": "0x02732665d0e6894329dd9d6c2fba431ffb056a9ebdae622f4153149ad75caa67",
  "args": [
    "0x0319000133d3AdA02600f0875d2cf03D442C3367"
  ],
  "numDeployments": 1,
  "solcInputHash": "7f041beafb9fb0543a179f3cb1476375",
  "bytecode": "0x60a060405234801561001057600080fd5b506040516200228e3803806200228e83398101604081905261003191610042565b6001600160a01b0316608052610072565b60006020828403121561005457600080fd5b81516001600160a01b038116811461006b57600080fd5b9392505050565b6080516121b4620000da60003960008181607101528181610e0e01528181610fe7015281816110ce015281816111b9015281816112d1015281816113ac015281816114710152818161151e015281816115ff015281816116c5015261179401526121b46000f3fe60806040526004361061002d5760003560e01c80632646478b146100395780636b2ace871461005f57600080fd5b3661003457005b600080fd5b61004c610047366004611cbb565b6100b8565b6040519081526020015b60405180910390f35b34801561006b57600080fd5b506100937f000000000000000000000000000000000000000000000000000000000000000081565b60405173ffffffffffffffffffffffffffffffffffffffff9091168152602001610056565b6000323314610128576040517f08c379a000000000000000000000000000000000000000000000000000000000815260206004820152601160248201527f43616c6c2066726f6d206e6f7420454f4100000000000000000000000000000060448201526064015b60405180910390fd5b60008073ffffffffffffffffffffffffffffffffffffffff871673eeeeeeeeeeeeeeeeeeeeeeeeeeeeeeeeeeeeeeee146101f1576040517f70a0823100000000000000000000000000000000000000000000000000000000815273ffffffffffffffffffffffffffffffffffffffff86811660048301528816906370a0823190602401602060405180830381865afa1580156101c8573d6000803e3d6000fd5b505050506040513d601f19601f820116820180604052508101906101ec9190611db2565b61020a565b8473ffffffffffffffffffffffffffffffffffffffff16315b604080518082019091528581528551860160208201529091505b8051602082015111156103e25760006102438280516001018051915290565b905060148160ff16101561033a578060ff16600a141561026c57610266826105ba565b506103dc565b8060ff166004141561028657610281826108dc565b6103dc565b8060ff16600314156102ad5761029c828c610a20565b6102a69085611dfa565b93506103dc565b8060ff16600514156102c25761029c82610ab8565b8060ff16600614156102d8576102818783610c52565b6040517f08c379a000000000000000000000000000000000000000000000000000000000815260206004820152601460248201527f556e6b6e6f776e20636f6d6d616e6420636f6465000000000000000000000000604482015260640161011f565b60188160ff161015610387578060ff166014141561035c57610281828c610da3565b8060ff16601514156103715761028182610ea3565b8060ff16601714156102d857610281828c610f5d565b8060ff166018141561039d5761029c828c611018565b8060ff16601914156103b2576102818261113f565b8060ff16601a14156103c7576102818261133b565b8060ff16601b14156102d8576102818261164e565b50610224565b88831461044b576040517f08c379a000000000000000000000000000000000000000000000000000000000815260206004820152601460248201527f57726f6e6720616d6f756e74496e2076616c7565000000000000000000000000604482015260640161011f565b600073ffffffffffffffffffffffffffffffffffffffff891673eeeeeeeeeeeeeeeeeeeeeeeeeeeeeeeeeeeeeeee14610513576040517f70a0823100000000000000000000000000000000000000000000000000000000815273ffffffffffffffffffffffffffffffffffffffff88811660048301528a16906370a0823190602401602060405180830381865afa1580156104ea573d6000803e3d6000fd5b505050506040513d601f19601f8201168201806040525081019061050e9190611db2565b61052c565b8673ffffffffffffffffffffffffffffffffffffffff16315b90506105388884611dfa565b8110156105a1576040517f08c379a000000000000000000000000000000000000000000000000000000000815260206004820152601f60248201527f4d696e696d616c206f757075742062616c616e63652076696f6c6174696f6e00604482015260640161011f565b6105ab8382611e12565b9b9a5050505050505050505050565b6000806105cd8380516014018051915290565b905060006105e18480516014018051915290565b905060006105f58580516001018051915290565b905060006106098680516014018051915290565b90506000808573ffffffffffffffffffffffffffffffffffffffff16630902f1ac6040518163ffffffff1660e01b8152600401606060405180830381865afa158015610659573d6000803e3d6000fd5b505050506040513d601f19601f8201168201806040525081019061067d9190611e47565b506dffffffffffffffffffffffffffff1691506dffffffffffffffffffffffffffff1691506000821180156106b25750600081115b610718576040517f08c379a000000000000000000000000000000000000000000000000000000000815260206004820152601360248201527f57726f6e6720706f6f6c20726573657276657300000000000000000000000000604482015260640161011f565b6000808560ff1660011461072d578284610730565b83835b6040517f70a0823100000000000000000000000000000000000000000000000000000000815273ffffffffffffffffffffffffffffffffffffffff8b811660048301529294509092506000918491908a16906370a0823190602401602060405180830381865afa1580156107a8573d6000803e3d6000fd5b505050506040513d601f19601f820116820180604052508101906107cc9190611db2565b6107d69190611e12565b905060006107e6826103e5611e97565b9050806107f5856103e8611e97565b6107ff9190611dfa565b6108098483611e97565b6108139190611ed4565b9a506000808960ff1660011461082b578c600061082f565b60008d5b604080516000815260208101918290527f022c0d9f00000000000000000000000000000000000000000000000000000000909152919350915073ffffffffffffffffffffffffffffffffffffffff8d169063022c0d9f9061089990859085908e9060248101611f85565b600060405180830381600087803b1580156108b357600080fd5b505af11580156108c7573d6000803e3d6000fd5b50505050505050505050505050505050919050565b60006108ee8280516014018051915290565b905060006109028380516001018051915290565b6040517f70a0823100000000000000000000000000000000000000000000000000000000815230600482015290915060009060019073ffffffffffffffffffffffffffffffffffffffff8516906370a0823190602401602060405180830381865afa158015610975573d6000803e3d6000fd5b505050506040513d601f19601f820116820180604052508101906109999190611db2565b6109a39190611e12565b905060005b8260ff16811015610a195760006109c58680516014018051915290565b905060006109d98780516002018051915290565b61ffff8082168602049485900394909150610a0b73ffffffffffffffffffffffffffffffffffffffff881684836117c5565b5050508060010190506109a8565b5050505050565b600080610a338480516001018051915290565b90506000915060005b8160ff16811015610ab0576000610a598680516014018051915290565b90506000610a6d8780516020018051915290565b9050610a798186611dfa565b9450610a9d73ffffffffffffffffffffffffffffffffffffffff871633848461189e565b505080610aa990611fca565b9050610a3c565b505092915050565b600080610acb8380516014018051915290565b90508073ffffffffffffffffffffffffffffffffffffffff1663d0e30db0346040518263ffffffff1660e01b81526004016000604051808303818588803b158015610b1557600080fd5b505af1158015610b29573d6000803e3d6000fd5b50505050506000610b408480516001018051915290565b90506000925060005b8160ff16811015610bbc576000610b668680516014018051915290565b90506000610b7a8780516020018051915290565b9050610b868187611dfa565b9550610ba973ffffffffffffffffffffffffffffffffffffffff861683836117c5565b505080610bb590611fca565b9050610b49565b50823414610c4b576040517f08c379a0000000000000000000000000000000000000000000000000000000008152602060048201526024808201527f526f75746550726f636573736f723a20696e76616c696420696e70757420616d60448201527f6f756e7400000000000000000000000000000000000000000000000000000000606482015260840161011f565b5050919050565b6000610c648280516014018051915290565b6040517f70a0823100000000000000000000000000000000000000000000000000000000815230600482015290915073ffffffffffffffffffffffffffffffffffffffff821690632e1a7d4d9060019083906370a0823190602401602060405180830381865afa158015610cdc573d6000803e3d6000fd5b505050506040513d601f19601f82011682018060405250810190610d009190611db2565b610d0a9190611e12565b6040518263ffffffff1660e01b8152600401610d2891815260200190565b600060405180830381600087803b158015610d4257600080fd5b505af1158015610d56573d6000803e3d6000fd5b505060405173ffffffffffffffffffffffffffffffffffffffff861692504780156108fc029250906000818181858888f19350505050158015610d9d573d6000803e3d6000fd5b50505050565b6000610db58380516014018051915290565b90506000610dc98480516020018051915290565b6040517f02b9446c00000000000000000000000000000000000000000000000000000000815273ffffffffffffffffffffffffffffffffffffffff85811660048301527f0000000000000000000000000000000000000000000000000000000000000000811660248301819052908516604483015260648201839052600060848301529192506302b9446c9060a4015b60408051808303816000875af1158015610e77573d6000803e3d6000fd5b505050506040513d601f19601f82011682018060405250810190610e9b9190612003565b505050505050565b6000610eb58280516014018051915290565b8251602080820180519092010184526040517f627dd56a0000000000000000000000000000000000000000000000000000000081529192509073ffffffffffffffffffffffffffffffffffffffff83169063627dd56a90610f1a908490600401612027565b6020604051808303816000875af1158015610f39573d6000803e3d6000fd5b505050506040513d601f19601f82011682018060405250810190610d9d9190611db2565b6000610f6f8380516014018051915290565b90506000610f838480516020018051915290565b6040517f97da6d3000000000000000000000000000000000000000000000000000000000815273ffffffffffffffffffffffffffffffffffffffff8581166004830152306024830152848116604483015260648201839052600060848301529192507f0000000000000000000000000000000000000000000000000000000000000000909116906397da6d309060a401610e59565b60008061102b8480516001018051915290565b90506000915060005b8160ff16811015610ab05760006110518680516014018051915290565b905060006110658780516020018051915290565b90506110718186611dfa565b6040517ff18d03cc00000000000000000000000000000000000000000000000000000000815273ffffffffffffffffffffffffffffffffffffffff88811660048301523360248301528481166044830152606482018490529196507f00000000000000000000000000000000000000000000000000000000000000009091169063f18d03cc90608401600060405180830381600087803b15801561111457600080fd5b505af1158015611128573d6000803e3d6000fd5b5050505050508061113890611fca565b9050611034565b60006111518280516014018051915290565b905060006111658380516001018051915290565b6040517ff7888aec00000000000000000000000000000000000000000000000000000000815273ffffffffffffffffffffffffffffffffffffffff84811660048301523060248301529192506000916001917f00000000000000000000000000000000000000000000000000000000000000009091169063f7888aec90604401602060405180830381865afa158015611202573d6000803e3d6000fd5b505050506040513d601f19601f820116820180604052508101906112269190611db2565b6112309190611e12565b905060005b8260ff16811015610a195760006112528680516014018051915290565b905060006112668780516002018051915290565b6040517ff18d03cc00000000000000000000000000000000000000000000000000000000815273ffffffffffffffffffffffffffffffffffffffff8881166004830152306024830152848116604483015261ffff8084168802046064830181905296879003969293507f0000000000000000000000000000000000000000000000000000000000000000169063f18d03cc90608401600060405180830381600087803b15801561131557600080fd5b505af1158015611329573d6000803e3d6000fd5b50505050505050806001019050611235565b600061134d8280516014018051915290565b905060006113618380516014018051915290565b6040517f4ffe34db00000000000000000000000000000000000000000000000000000000815273ffffffffffffffffffffffffffffffffffffffff80831660048301529192506000917f00000000000000000000000000000000000000000000000000000000000000001690634ffe34db906024016040805180830381865afa1580156113f2573d6000803e3d6000fd5b505050506040513d601f19601f820116820180604052508101906114169190612061565b516040517fdf23b45b00000000000000000000000000000000000000000000000000000000815273ffffffffffffffffffffffffffffffffffffffff84811660048301526fffffffffffffffffffffffffffffffff909216917f0000000000000000000000000000000000000000000000000000000000000000169063df23b45b90602401606060405180830381865afa1580156114b8573d6000803e3d6000fd5b505050506040513d601f19601f820116820180604052508101906114dc91906120d4565b60409081015190517f70a0823100000000000000000000000000000000000000000000000000000000815273ffffffffffffffffffffffffffffffffffffffff7f0000000000000000000000000000000000000000000000000000000000000000811660048301526fffffffffffffffffffffffffffffffff909216918516906370a0823190602401602060405180830381865afa158015611582573d6000803e3d6000fd5b505050506040513d601f19601f820116820180604052508101906115a69190611db2565b6115b09190611dfa565b6115ba9190611e12565b6040517f02b9446c00000000000000000000000000000000000000000000000000000000815273ffffffffffffffffffffffffffffffffffffffff84811660048301527f0000000000000000000000000000000000000000000000000000000000000000811660248301819052908616604483015260648201839052600060848301529192506302b9446c9060a401610e59565b60006116608280516014018051915290565b905060006116748380516014018051915290565b6040517ff7888aec00000000000000000000000000000000000000000000000000000000815273ffffffffffffffffffffffffffffffffffffffff84811660048301523060248301529192506000917f0000000000000000000000000000000000000000000000000000000000000000169063f7888aec90604401602060405180830381865afa15801561170c573d6000803e3d6000fd5b505050506040513d601f19601f820116820180604052508101906117309190611db2565b6040517f97da6d3000000000000000000000000000000000000000000000000000000000815273ffffffffffffffffffffffffffffffffffffffff8581166004830152306024830152848116604483015260006064830152608482018390529192507f0000000000000000000000000000000000000000000000000000000000000000909116906397da6d309060a401610e59565b60405173ffffffffffffffffffffffffffffffffffffffff83166024820152604481018290526118999084907fa9059cbb00000000000000000000000000000000000000000000000000000000906064015b604080517fffffffffffffffffffffffffffffffffffffffffffffffffffffffffffffffe08184030181529190526020810180517bffffffffffffffffffffffffffffffffffffffffffffffffffffffff167fffffffff00000000000000000000000000000000000000000000000000000000909316929092179091526118fc565b505050565b60405173ffffffffffffffffffffffffffffffffffffffff80851660248301528316604482015260648101829052610d9d9085907f23b872dd0000000000000000000000000000000000000000000000000000000090608401611817565b600061195e826040518060400160405280602081526020017f5361666545524332303a206c6f772d6c6576656c2063616c6c206661696c65648152508573ffffffffffffffffffffffffffffffffffffffff16611a089092919063ffffffff16565b805190915015611899578080602001905181019061197c9190612140565b611899576040517f08c379a000000000000000000000000000000000000000000000000000000000815260206004820152602a60248201527f5361666545524332303a204552433230206f7065726174696f6e20646964206e60448201527f6f74207375636365656400000000000000000000000000000000000000000000606482015260840161011f565b6060611a178484600085611a1f565b949350505050565b606082471015611ab1576040517f08c379a000000000000000000000000000000000000000000000000000000000815260206004820152602660248201527f416464726573733a20696e73756666696369656e742062616c616e636520666f60448201527f722063616c6c0000000000000000000000000000000000000000000000000000606482015260840161011f565b6000808673ffffffffffffffffffffffffffffffffffffffff168587604051611ada9190612162565b60006040518083038185875af1925050503d8060008114611b17576040519150601f19603f3d011682016040523d82523d6000602084013e611b1c565b606091505b5091509150611b2d87838387611b38565b979650505050505050565b60608315611bcb578251611bc45773ffffffffffffffffffffffffffffffffffffffff85163b611bc4576040517f08c379a000000000000000000000000000000000000000000000000000000000815260206004820152601d60248201527f416464726573733a2063616c6c20746f206e6f6e2d636f6e7472616374000000604482015260640161011f565b5081611a17565b611a178383815115611be05781518083602001fd5b806040517f08c379a000000000000000000000000000000000000000000000000000000000815260040161011f9190612027565b803573ffffffffffffffffffffffffffffffffffffffff81168114611c3857600080fd5b919050565b7f4e487b7100000000000000000000000000000000000000000000000000000000600052604160045260246000fd5b604051601f82017fffffffffffffffffffffffffffffffffffffffffffffffffffffffffffffffe016810167ffffffffffffffff81118282101715611cb357611cb3611c3d565b604052919050565b60008060008060008060c08789031215611cd457600080fd5b611cdd87611c14565b95506020808801359550611cf360408901611c14565b945060608801359350611d0860808901611c14565b925060a088013567ffffffffffffffff80821115611d2557600080fd5b818a0191508a601f830112611d3957600080fd5b813581811115611d4b57611d4b611c3d565b611d7b847fffffffffffffffffffffffffffffffffffffffffffffffffffffffffffffffe0601f84011601611c6c565b91508082528b84828501011115611d9157600080fd5b80848401858401376000848284010152508093505050509295509295509295565b600060208284031215611dc457600080fd5b5051919050565b7f4e487b7100000000000000000000000000000000000000000000000000000000600052601160045260246000fd5b60008219821115611e0d57611e0d611dcb565b500190565b600082821015611e2457611e24611dcb565b500390565b80516dffffffffffffffffffffffffffff81168114611c3857600080fd5b600080600060608486031215611e5c57600080fd5b611e6584611e29565b9250611e7360208501611e29565b9150604084015163ffffffff81168114611e8c57600080fd5b809150509250925092565b6000817fffffffffffffffffffffffffffffffffffffffffffffffffffffffffffffffff0483118215151615611ecf57611ecf611dcb565b500290565b600082611f0a577f4e487b7100000000000000000000000000000000000000000000000000000000600052601260045260246000fd5b500490565b60005b83811015611f2a578181015183820152602001611f12565b83811115610d9d5750506000910152565b60008151808452611f53816020860160208601611f0f565b601f017fffffffffffffffffffffffffffffffffffffffffffffffffffffffffffffffe0169290920160200192915050565b84815283602082015273ffffffffffffffffffffffffffffffffffffffff83166040820152608060608201526000611fc06080830184611f3b565b9695505050505050565b60007fffffffffffffffffffffffffffffffffffffffffffffffffffffffffffffffff821415611ffc57611ffc611dcb565b5060010190565b6000806040838503121561201657600080fd5b505080516020909101519092909150565b60208152600061203a6020830184611f3b565b9392505050565b80516fffffffffffffffffffffffffffffffff81168114611c3857600080fd5b60006040828403121561207357600080fd5b6040516040810181811067ffffffffffffffff8211171561209657612096611c3d565b6040526120a283612041565b81526120b060208401612041565b60208201529392505050565b805167ffffffffffffffff81168114611c3857600080fd5b6000606082840312156120e657600080fd5b6040516060810181811067ffffffffffffffff8211171561210957612109611c3d565b604052612115836120bc565b8152612123602084016120bc565b602082015261213460408401612041565b60408201529392505050565b60006020828403121561215257600080fd5b8151801515811461203a57600080fd5b60008251612174818460208701611f0f565b919091019291505056fea2646970667358221220e45795e28762c80a64d6fe2954c59f6598e34d7af0efbe173c7d48a61897f0bd64736f6c634300080a0033",
  "devdoc": {
    "author": "Okavango",
    "kind": "dev",
    "methods": {
      "processRoute(address,uint256,address,uint256,address,bytes)": {
        "params": {
          "amountIn": "Amount of the input token",
          "amountOutMin": "Minimum amount of the output token",
          "tokenIn": "Address of the input token",
          "tokenOut": "Address of the output token"
        },
        "returns": {
          "amountOut": "Actual amount of the output token"
        }
      }
    },
    "title": "A route processor for the Sushi Aggregator",
    "version": 1
  },
  "userdoc": {
    "kind": "user",
    "methods": {
      "processRoute(address,uint256,address,uint256,address,bytes)": {
        "notice": "Processes the route generated off-chain"
      }
    },
    "version": 1
  },
  "storageLayout": {
    "storage": [],
    "types": null
  }
}