{
  "_format": "hh-sol-artifact-1",
  "contractName": "Salary",
  "sourceName": "contracts/samples/salary.sol",
  "abi": [
    {
      "inputs": [
        {
          "internalType": "contract BentoBox",
          "name": "_bentoBox",
          "type": "address"
        }
      ],
      "stateMutability": "nonpayable",
      "type": "constructor"
    },
    {
      "anonymous": false,
      "inputs": [
        {
          "indexed": true,
          "internalType": "uint256",
          "name": "salaryId",
          "type": "uint256"
        },
        {
          "indexed": true,
          "internalType": "address",
          "name": "to",
          "type": "address"
        },
        {
          "indexed": false,
          "internalType": "uint256",
          "name": "shares",
          "type": "uint256"
        }
      ],
      "name": "LogCancel",
      "type": "event"
    },
    {
      "anonymous": false,
      "inputs": [
        {
          "indexed": true,
          "internalType": "address",
          "name": "funder",
          "type": "address"
        },
        {
          "indexed": true,
          "internalType": "address",
          "name": "recipient",
          "type": "address"
        },
        {
          "indexed": true,
          "internalType": "contract IERC20",
          "name": "token",
          "type": "address"
        },
        {
          "indexed": false,
          "internalType": "uint32",
          "name": "cliffTimestamp",
          "type": "uint32"
        },
        {
          "indexed": false,
          "internalType": "uint32",
          "name": "endTimestamp",
          "type": "uint32"
        },
        {
          "indexed": false,
          "internalType": "uint32",
          "name": "cliffPercent",
          "type": "uint32"
        },
        {
          "indexed": false,
          "internalType": "uint128",
          "name": "totalShares",
          "type": "uint128"
        },
        {
          "indexed": false,
          "internalType": "uint256",
          "name": "salaryId",
          "type": "uint256"
        }
      ],
      "name": "LogCreate",
      "type": "event"
    },
    {
      "anonymous": false,
      "inputs": [
        {
          "indexed": true,
          "internalType": "uint256",
          "name": "salaryId",
          "type": "uint256"
        },
        {
          "indexed": true,
          "internalType": "address",
          "name": "to",
          "type": "address"
        },
        {
          "indexed": false,
          "internalType": "uint256",
          "name": "shares",
          "type": "uint256"
        }
      ],
      "name": "LogWithdraw",
      "type": "event"
    },
    {
      "inputs": [
        {
          "internalType": "uint256",
          "name": "salaryId",
          "type": "uint256"
        }
      ],
      "name": "available",
      "outputs": [
        {
          "internalType": "uint256",
          "name": "shares",
          "type": "uint256"
        }
      ],
      "stateMutability": "view",
      "type": "function"
    },
    {
      "inputs": [
        {
          "internalType": "bytes[]",
          "name": "calls",
          "type": "bytes[]"
        },
        {
          "internalType": "bool",
          "name": "revertOnFail",
          "type": "bool"
        }
      ],
      "name": "batch",
      "outputs": [
        {
          "internalType": "bool[]",
          "name": "successes",
          "type": "bool[]"
        },
        {
          "internalType": "bytes[]",
          "name": "results",
          "type": "bytes[]"
        }
      ],
      "stateMutability": "payable",
      "type": "function"
    },
    {
      "inputs": [],
      "name": "bentoBox",
      "outputs": [
        {
          "internalType": "contract BentoBox",
          "name": "",
          "type": "address"
        }
      ],
      "stateMutability": "view",
      "type": "function"
    },
    {
      "inputs": [
        {
          "internalType": "uint256",
          "name": "salaryId",
          "type": "uint256"
        },
        {
          "internalType": "address",
          "name": "to",
          "type": "address"
        },
        {
          "internalType": "bool",
          "name": "toBentoBox",
          "type": "bool"
        }
      ],
      "name": "cancel",
      "outputs": [],
      "stateMutability": "nonpayable",
      "type": "function"
    },
    {
      "inputs": [
        {
          "internalType": "address",
          "name": "recipient",
          "type": "address"
        },
        {
          "internalType": "contract IERC20",
          "name": "token",
          "type": "address"
        },
        {
          "internalType": "uint32",
          "name": "cliffTimestamp",
          "type": "uint32"
        },
        {
          "internalType": "uint32",
          "name": "endTimestamp",
          "type": "uint32"
        },
        {
          "internalType": "uint32",
          "name": "cliffPercent",
          "type": "uint32"
        },
        {
          "internalType": "uint8",
          "name": "mode",
          "type": "uint8"
        },
        {
          "internalType": "uint128",
          "name": "amount",
          "type": "uint128"
        }
      ],
      "name": "create",
      "outputs": [
        {
          "internalType": "uint256",
          "name": "salaryId",
          "type": "uint256"
        },
        {
          "internalType": "uint256",
          "name": "shares",
          "type": "uint256"
        }
      ],
      "stateMutability": "nonpayable",
      "type": "function"
    },
    {
      "inputs": [
        {
          "internalType": "uint256",
          "name": "",
          "type": "uint256"
        }
      ],
      "name": "funder",
      "outputs": [
        {
          "internalType": "address",
          "name": "",
          "type": "address"
        }
      ],
      "stateMutability": "view",
      "type": "function"
    },
    {
      "inputs": [
        {
          "internalType": "contract IERC20",
          "name": "token",
          "type": "address"
        },
        {
          "internalType": "address",
          "name": "from",
          "type": "address"
        },
        {
          "internalType": "address",
          "name": "to",
          "type": "address"
        },
        {
          "internalType": "uint256",
          "name": "amount",
          "type": "uint256"
        },
        {
          "internalType": "uint256",
          "name": "deadline",
          "type": "uint256"
        },
        {
          "internalType": "uint8",
          "name": "v",
          "type": "uint8"
        },
        {
          "internalType": "bytes32",
          "name": "r",
          "type": "bytes32"
        },
        {
          "internalType": "bytes32",
          "name": "s",
          "type": "bytes32"
        }
      ],
      "name": "permitToken",
      "outputs": [],
      "stateMutability": "nonpayable",
      "type": "function"
    },
    {
      "inputs": [
        {
          "internalType": "uint256",
          "name": "",
          "type": "uint256"
        }
      ],
      "name": "salaries",
      "outputs": [
        {
          "internalType": "address",
          "name": "recipient",
          "type": "address"
        },
        {
          "internalType": "contract IERC20",
          "name": "token",
          "type": "address"
        },
        {
          "internalType": "uint256",
          "name": "withdrawnShares",
          "type": "uint256"
        },
        {
          "internalType": "uint32",
          "name": "cliffTimestamp",
          "type": "uint32"
        },
        {
          "internalType": "uint32",
          "name": "endTimestamp",
          "type": "uint32"
        },
        {
          "internalType": "uint64",
          "name": "cliffPercent",
          "type": "uint64"
        },
        {
          "internalType": "uint128",
          "name": "shares",
          "type": "uint128"
        }
      ],
      "stateMutability": "view",
      "type": "function"
    },
    {
      "inputs": [
        {
          "internalType": "address",
          "name": "user",
          "type": "address"
        },
        {
          "internalType": "bool",
          "name": "approved",
          "type": "bool"
        },
        {
          "internalType": "uint8",
          "name": "v",
          "type": "uint8"
        },
        {
          "internalType": "bytes32",
          "name": "r",
          "type": "bytes32"
        },
        {
          "internalType": "bytes32",
          "name": "s",
          "type": "bytes32"
        }
      ],
      "name": "setBentoBoxApproval",
      "outputs": [],
      "stateMutability": "nonpayable",
      "type": "function"
    },
    {
      "inputs": [
        {
          "internalType": "uint256",
          "name": "salaryId",
          "type": "uint256"
        },
        {
          "internalType": "address",
          "name": "to",
          "type": "address"
        },
        {
          "internalType": "bool",
          "name": "toBentoBox",
          "type": "bool"
        }
      ],
      "name": "withdraw",
      "outputs": [],
      "stateMutability": "nonpayable",
      "type": "function"
    }
  ],
  "bytecode": "0x608060405234801561001057600080fd5b5060405162001aee38038062001aee8339810160408190526100319161009f565b600080546001600160a01b0319166001600160a01b03831690811782556040805163577268d960e11b81529051919263aee4d1b29260048084019382900301818387803b15801561008157600080fd5b505af1158015610095573d6000803e3d6000fd5b50505050506100cd565b6000602082840312156100b0578081fd5b81516001600160a01b03811681146100c6578182fd5b9392505050565b611a1180620000dd6000396000f3fe6080604052600436106100905760003560e01c80637c516e94116100595780637c516e94146101555780638fbe4a3a1461017557806396e494e814610195578063ad0dee43146101c2578063d2423b51146101f057610090565b8062ebf5dd146100955780631f2c9238146100b7578063489bb0b2146100ed578063610addba1461010d5780636b2ace8714610140575b600080fd5b3480156100a157600080fd5b506100b56100b036600461143e565b610211565b005b3480156100c357600080fd5b506100d76100d236600461140e565b610470565b6040516100e491906114d7565b60405180910390f35b3480156100f957600080fd5b506100b5610108366004611172565b610497565b34801561011957600080fd5b5061012d61012836600461140e565b61050a565b6040516100e49796959493929190611565565b34801561014c57600080fd5b506100d7610584565b34801561016157600080fd5b506100b56101703660046112f1565b610593565b34801561018157600080fd5b506100b561019036600461143e565b610607565b3480156101a157600080fd5b506101b56101b036600461140e565b61084d565b6040516100e491906118c8565b3480156101ce57600080fd5b506101e26101dd3660046111d1565b6108f9565b6040516100e49291906118d1565b6102036101fe366004611271565b610d4c565b6040516100e49291906115bb565b610219611136565b6001848154811061022657fe5b60009182526020918290206040805160e081018252600490930290910180546001600160a01b039081168085526001830154909116948401949094526002810154918301919091526003015463ffffffff8082166060840152640100000000820416608083015267ffffffffffffffff600160401b82041660a08301526001600160801b03600160801b9091041660c0820152915033146102e25760405162461bcd60e51b81526004016102d990611862565b60405180910390fd5b60006102ed82610ede565b60408301519091506102ff908261102c565b6001868154811061030c57fe5b9060005260206000209060040201600201819055508215610397576000546020830151604051633c6340f360e21b81526001600160a01b039092169163f18d03cc9161036091309089908790600401611691565b600060405180830381600087803b15801561037a57600080fd5b505af115801561038e573d6000803e3d6000fd5b50505050610427565b60008054602084015160405163097da6d360e41b81526001600160a01b03909216926397da6d30926103d3929130918a919088906004016116bb565b6040805180830381600087803b1580156103ec57600080fd5b505af1158015610400573d6000803e3d6000fd5b505050506040513d601f19601f820116820180604052508101906104249190611478565b50505b836001600160a01b0316857f125e889e0ad284210ec4c8448f648c2a782a6d7f2f9d607aefd518485a78c7f48360405161046191906118c8565b60405180910390a35050505050565b6002818154811061047d57fe5b6000918252602090912001546001600160a01b0316905081565b60005460405163c0a47c9360e01b81526001600160a01b039091169063c0a47c93906104d1908890309089908990899089906004016114eb565b600060405180830381600087803b1580156104eb57600080fd5b505af11580156104ff573d6000803e3d6000fd5b505050505050505050565b6001818154811061051757fe5b600091825260209091206004909102018054600182015460028301546003909301546001600160a01b0392831694509116919063ffffffff80821691640100000000810490911690600160401b810467ffffffffffffffff1690600160801b90046001600160801b031687565b6000546001600160a01b031681565b60405163d505accf60e01b81526001600160a01b0389169063d505accf906105cb908a908a908a908a908a908a908a90600401611524565b600060405180830381600087803b1580156105e557600080fd5b505af11580156105f9573d6000803e3d6000fd5b505050505050505050505050565b82336001600160a01b03166002828154811061061f57fe5b6000918252602090912001546001600160a01b0316146106515760405162461bcd60e51b81526004016102d9906117ff565b60006106ac6001868154811061066357fe5b9060005260206000209060040201600201546001878154811061068257fe5b6000918252602090912060049091020160030154600160801b90046001600160801b03169061104f565b9050821561075657600054600180546001600160a01b039092169163f18d03cc9190889081106106d857fe5b906000526020600020906004020160010160009054906101000a90046001600160a01b03163087856040518563ffffffff1660e01b815260040161071f9493929190611691565b600060405180830381600087803b15801561073957600080fd5b505af115801561074d573d6000803e3d6000fd5b50505050610813565b600054600180546001600160a01b03909216916397da6d3091908890811061077a57fe5b6000918252602082206004918202016001015460405160e085901b6001600160e01b03191681526107bf936001600160a01b039092169230928b9290918991016116bb565b6040805180830381600087803b1580156107d857600080fd5b505af11580156107ec573d6000803e3d6000fd5b505050506040513d601f19601f820116820180604052508101906108109190611478565b50505b836001600160a01b0316857fcabe9e1784950547285194bcd0e3c0fc267db2c6c6b7e6a913ab88754f9fb3a58360405161046191906118c8565b60006108f36001838154811061085f57fe5b60009182526020918290206040805160e081018252600490930290910180546001600160a01b0390811684526001820154169383019390935260028301549082015260039091015463ffffffff8082166060840152640100000000820416608083015267ffffffffffffffff600160401b82041660a08301526001600160801b03600160801b9091041660c0820152610ede565b92915050565b6000808563ffffffff168763ffffffff1611156109285760405162461bcd60e51b81526004016102d9906117d2565b670de0b6b3a76400008563ffffffff1611156109565760405162461bcd60e51b81526004016102d99061182b565b60ff8416610a505760008054604051636d289ce560e11b81526001600160a01b039091169163da5139ca91610992918c918891906004016116ef565b60206040518083038186803b1580156109aa57600080fd5b505afa1580156109be573d6000803e3d6000fd5b505050506040513d601f19601f820116820180604052508101906109e29190611426565b600054604051633c6340f360e21b81529192506001600160a01b03169063f18d03cc90610a19908b90339030908790600401611691565b600060405180830381600087803b158015610a3357600080fd5b505af1158015610a47573d6000803e3d6000fd5b50505050610af9565b6000546001600160a01b03166302b9446c8960ff8716600114610a735733610a80565b6000546001600160a01b03165b308760006040518663ffffffff1660e01b8152600401610aa4959493929190611655565b6040805180830381600087803b158015610abd57600080fd5b505af1158015610ad1573d6000803e3d6000fd5b505050506040513d601f19601f82011682018060405250810190610af59190611478565b9150505b6001549150610b06611136565b6001600160a01b03808b1682528916602082015263ffffffff80891660608301528781166080830152861660a0820152610b3f82611072565b6001600160801b0390811660c083019081526001805480820182556000828152855160049092027fb10e2d527612073b26eecdfd717e6a320cf44b4afac2b0732d9fcbe2b7fa0cf6810180546001600160a01b0394851673ffffffffffffffffffffffffffffffffffffffff199182161790915560208801517fb10e2d527612073b26eecdfd717e6a320cf44b4afac2b0732d9fcbe2b7fa0cf78301805491861691831691909117905560408801517fb10e2d527612073b26eecdfd717e6a320cf44b4afac2b0732d9fcbe2b7fa0cf883015560608801517fb10e2d527612073b26eecdfd717e6a320cf44b4afac2b0732d9fcbe2b7fa0cf9909201805460808a015160a08b015198518a16600160801b0267ffffffffffffffff909916600160401b026fffffffffffffffff00000000000000001963ffffffff9283166401000000000267ffffffff00000000199390971663ffffffff199094169390931791909116949094171692909217909616949094179093556002805492830181559092527f405787fa12a823e0f2b7631cc41b3ba8828b3321ca811111fa75cd3aa3bb5ace018054909216339081179092558a811691908c16907f8009e1b43ca81a771d0da92e87b6ed944f38c88e0a132536e6019c48dcf1de698b8b8b610d2589611072565b8a604051610d379594939291906118df565b60405180910390a45097509795505050505050565b6060808367ffffffffffffffff81118015610d6657600080fd5b50604051908082528060200260200182016040528015610d90578160200160208202803683370190505b5091508367ffffffffffffffff81118015610daa57600080fd5b50604051908082528060200260200182016040528015610dde57816020015b6060815260200190600190039081610dc95790505b50905060005b84811015610ed5576000606030888885818110610dfd57fe5b9050602002810190610e0f9190611918565b604051610e1d9291906114c7565b600060405180830381855af49150503d8060008114610e58576040519150601f19603f3d011682016040523d82523d6000602084013e610e5d565b606091505b50915091508180610e6c575085155b610e758261109f565b90610e935760405162461bcd60e51b81526004016102d9919061171b565b5081858481518110610ea157fe5b60200260200101901515908115158152505080848481518110610ec057fe5b60209081029190910101525050600101610de4565b50935093915050565b6000816060015163ffffffff16421015610efa57506000611000565b816080015163ffffffff164210610f1f575060c08101516001600160801b0316611000565b6000610f3e836060015163ffffffff164261104f90919063ffffffff16565b90506000610f69846060015163ffffffff16856080015163ffffffff1661104f90919063ffffffff16565b60a085015190915067ffffffffffffffff168215610fd0576000610fac8660a0015167ffffffffffffffff16670de0b6b3a764000061104f90919063ffffffff16565b9050610fcc83610fbc83876110ff565b81610fc357fe5b8491900461102c565b9150505b60c0850151670de0b6b3a764000090610ff2906001600160801b0316836110ff565b81610ff957fe5b0493505050505b816040015181111561102357604082015161101c90829061104f565b9050611027565b5060005b919050565b818101818110156108f35760405162461bcd60e51b81526004016102d99061179b565b808203828111156108f35760405162461bcd60e51b81526004016102d990611735565b60006001600160801b0382111561109b5760405162461bcd60e51b81526004016102d990611764565b5090565b60606044825110156110e5575060408051808201909152601d81527f5472616e73616374696f6e2072657665727465642073696c656e746c790000006020820152611027565b600482019150818060200190518101906108f39190611373565b600081158061111a5750508082028282828161111757fe5b04145b6108f35760405162461bcd60e51b81526004016102d990611891565b6040805160e081018252600080825260208201819052918101829052606081018290526080810182905260a0810182905260c081019190915290565b600080600080600060a08688031215611189578081fd5b853561119481611994565b945060208601356111a4816119ac565b9350604086013560ff811681146111b9578182fd5b94979396509394606081013594506080013592915050565b600080600080600080600060e0888a0312156111eb578182fd5b87356111f681611994565b9650602088013561120681611994565b95506040880135611216816119ba565b94506060880135611226816119ba565b93506080880135611236816119ba565b925060a0880135611246816119cc565b915060c08801356001600160801b0381168114611261578182fd5b8091505092959891949750929550565b600080600060408486031215611285578283fd5b833567ffffffffffffffff8082111561129c578485fd5b818601915086601f8301126112af578485fd5b8135818111156112bd578586fd5b87602080830285010111156112d0578586fd5b602092830195509350508401356112e6816119ac565b809150509250925092565b600080600080600080600080610100898b03121561130d578081fd5b883561131881611994565b9750602089013561132881611994565b9650604089013561133881611994565b9550606089013594506080890135935060a0890135611356816119cc565b979a969950949793969295929450505060c08201359160e0013590565b600060208284031215611384578081fd5b815167ffffffffffffffff8082111561139b578283fd5b818401915084601f8301126113ae578283fd5b8151818111156113bc578384fd5b604051601f8201601f1916810160200183811182821017156113dc578586fd5b6040528181528382016020018710156113f3578485fd5b611404826020830160208701611964565b9695505050505050565b60006020828403121561141f578081fd5b5035919050565b600060208284031215611437578081fd5b5051919050565b600080600060608486031215611452578283fd5b83359250602084013561146481611994565b9150604084013580151581146112e6578182fd5b6000806040838503121561148a578182fd5b505080516020909101519092909150565b600081518084526114b3816020860160208601611964565b601f01601f19169290920160200192915050565b6000828483379101908152919050565b6001600160a01b0391909116815260200190565b6001600160a01b039687168152949095166020850152911515604084015260ff166060830152608082015260a081019190915260c00190565b6001600160a01b0397881681529590961660208601526040850193909352606084019190915260ff16608083015260a082015260c081019190915260e00190565b6001600160a01b039788168152959096166020860152604085019390935263ffffffff918216606085015216608083015267ffffffffffffffff1660a08201526001600160801b0390911660c082015260e00190565b604080825283519082018190526000906020906060840190828701845b828110156115f65781511515845292840192908401906001016115d8565b5050508381038285015280855161160d81846118c8565b91508192508381028201848801865b8381101561164657858303855261163483835161149b565b9487019492509086019060010161161c565b50909998505050505050505050565b6001600160a01b03958616815293851660208501529190931660408301526001600160801b039092166060820152608081019190915260a00190565b6001600160a01b039485168152928416602084015292166040820152606081019190915260800190565b6001600160a01b03958616815293851660208501529190931660408301526060820192909252608081019190915260a00190565b6001600160a01b039390931683526001600160801b039190911660208301521515604082015260600190565b60006020825261172e602083018461149b565b9392505050565b602080825260159082015274426f72696e674d6174683a20556e646572666c6f7760581b604082015260600190565b6020808252601c908201527f426f72696e674d6174683a2075696e74313238204f766572666c6f7700000000604082015260600190565b60208082526018908201527f426f72696e674d6174683a20416464204f766572666c6f770000000000000000604082015260600190565b60208082526013908201527214d85b185c9e4e8818db1a5999880f88195b99606a1b604082015260600190565b60208082526012908201527129b0b630b93c9d103737ba10333ab73232b960711b604082015260600190565b60208082526017908201527f53616c6172793a20636c69666620746f6f206c61726765000000000000000000604082015260600190565b60208082526015908201527414d85b185c9e4e881b9bdd081c9958da5c1a595b9d605a1b604082015260600190565b60208082526018908201527f426f72696e674d6174683a204d756c204f766572666c6f770000000000000000604082015260600190565b90815260200190565b918252602082015260400190565b63ffffffff958616815293851660208501529190931660408301526001600160801b039092166060820152608081019190915260a00190565b6000808335601e1984360301811261192e578283fd5b83018035915067ffffffffffffffff821115611948578283fd5b60200191503681900382131561195d57600080fd5b9250929050565b60005b8381101561197f578181015183820152602001611967565b8381111561198e576000848401525b50505050565b6001600160a01b03811681146119a957600080fd5b50565b80151581146119a957600080fd5b63ffffffff811681146119a957600080fd5b60ff811681146119a957600080fdfea2646970667358221220bce51fe41e15a0074dfb7e1c10a91ae5c0524e71520ea6e248d214e2b22b110064736f6c634300060c0033",
  "linkReferences": {},
  "deployedLinkReferences": {}
}