{
  "address": "0x8f54301F315C56c112D492D9443047D4745dbe9e",
  "abi": [
    {
      "inputs": [
        {
          "internalType": "contract IBentoBoxMinimal",
          "name": "_bentoBox",
          "type": "address"
        },
        {
          "internalType": "contract IStargateRouter",
          "name": "_stargateRouter",
          "type": "address"
        },
        {
          "internalType": "address",
          "name": "_factory",
          "type": "address"
        },
        {
          "internalType": "bytes32",
          "name": "_pairCodeHash",
          "type": "bytes32"
        }
      ],
      "stateMutability": "nonpayable",
      "type": "constructor"
    },
    {
      "inputs": [],
      "name": "NotStargateRouter",
      "type": "error"
    },
    {
      "inputs": [],
      "name": "TooLittleReceived",
      "type": "error"
    },
    {
      "inputs": [
        {
          "internalType": "contract IERC20",
          "name": "token",
          "type": "address"
        }
      ],
      "name": "approveToStargateRouter",
      "outputs": [],
      "stateMutability": "nonpayable",
      "type": "function"
    },
    {
      "inputs": [],
      "name": "bentoBox",
      "outputs": [
        {
          "internalType": "contract IBentoBoxMinimal",
          "name": "",
          "type": "address"
        }
      ],
      "stateMutability": "view",
      "type": "function"
    },
    {
      "inputs": [
        {
          "internalType": "uint8[]",
          "name": "actions",
          "type": "uint8[]"
        },
        {
          "internalType": "uint256[]",
          "name": "values",
          "type": "uint256[]"
        },
        {
          "internalType": "bytes[]",
          "name": "datas",
          "type": "bytes[]"
        }
      ],
      "name": "cook",
      "outputs": [],
      "stateMutability": "payable",
      "type": "function"
    },
    {
      "inputs": [],
      "name": "factory",
      "outputs": [
        {
          "internalType": "address",
          "name": "",
          "type": "address"
        }
      ],
      "stateMutability": "view",
      "type": "function"
    },
    {
      "inputs": [
        {
          "internalType": "uint16",
          "name": "_dstChainId",
          "type": "uint16"
        },
        {
          "internalType": "uint8",
          "name": "_functionType",
          "type": "uint8"
        },
        {
          "internalType": "address",
          "name": "_receiver",
          "type": "address"
        },
        {
          "internalType": "uint256",
          "name": "_gas",
          "type": "uint256"
        },
        {
          "internalType": "uint256",
          "name": "_dustAmount",
          "type": "uint256"
        },
        {
          "internalType": "bytes",
          "name": "_payload",
          "type": "bytes"
        }
      ],
      "name": "getFee",
      "outputs": [
        {
          "internalType": "uint256",
          "name": "a",
          "type": "uint256"
        },
        {
          "internalType": "uint256",
          "name": "b",
          "type": "uint256"
        }
      ],
      "stateMutability": "view",
      "type": "function"
    },
    {
      "inputs": [],
      "name": "pairCodeHash",
      "outputs": [
        {
          "internalType": "bytes32",
          "name": "",
          "type": "bytes32"
        }
      ],
      "stateMutability": "view",
      "type": "function"
    },
    {
      "inputs": [
        {
          "internalType": "uint16",
          "name": "",
          "type": "uint16"
        },
        {
          "internalType": "bytes",
          "name": "",
          "type": "bytes"
        },
        {
          "internalType": "uint256",
          "name": "",
          "type": "uint256"
        },
        {
          "internalType": "address",
          "name": "_token",
          "type": "address"
        },
        {
          "internalType": "uint256",
          "name": "amountLD",
          "type": "uint256"
        },
        {
          "internalType": "bytes",
          "name": "payload",
          "type": "bytes"
        }
      ],
      "name": "sgReceive",
      "outputs": [],
      "stateMutability": "nonpayable",
      "type": "function"
    },
    {
      "inputs": [],
      "name": "stargateRouter",
      "outputs": [
        {
          "internalType": "contract IStargateRouter",
          "name": "",
          "type": "address"
        }
      ],
      "stateMutability": "view",
      "type": "function"
    },
    {
      "stateMutability": "payable",
      "type": "receive"
    }
  ],
  "transactionHash": "0xf31a61ceed242482b74929689e1dbbbb4ac20829597b10098b67a06ae366a764",
  "args": [
    "0xc35DADB65012eC5796536bD9864eD8773aBc74C4",
    "0xB0D502E938ed5f4df2E681fE6E419ff29631d62b",
    "0x0000000000000000000000000000000000000000",
    "0x0000000000000000000000000000000000000000000000000000000000000000"
  ],
  "numDeployments": 9,
  "solcInputHash": "790df116d5afa73f32028017a1ecf47a",
  "bytecode": "0x6101006040523480156200001257600080fd5b5060405162004ca038038062004ca08339810160408190526200003591620000ca565b6001600160a01b03808516608081905281851660a05290831660c05260e08290526040805163577268d960e11b8152905163aee4d1b29160048082019260009290919082900301818387803b1580156200008e57600080fd5b505af1158015620000a3573d6000803e3d6000fd5b505050505050505062000124565b6001600160a01b0381168114620000c757600080fd5b50565b60008060008060808587031215620000e157600080fd5b8451620000ee81620000b1565b60208601519094506200010181620000b1565b60408601519093506200011481620000b1565b6060959095015193969295505050565b60805160a05160c05160e051614a7f62000221600039600081816101450152818161138c015281816114af0152612b3b0152600081816101db015281816113690152818161145801528181612ad50152612b1801526000818161018701528181610a8101528181610c1401528181610e3c015261226801526000818160b20152818161030301528181610583015281816105ae0152818161079701528181610ee701528181610fc8015281816110940152818161115e01528181611682015281816116a9015281816116ea0152818161190f01528181611b2601528181611c6a01528181611e6a01528181611fdf01526121160152614a7f6000f3fe60806040526004361061007f5760003560e01c8063a9e56f3c1161004e578063a9e56f3c14610175578063ab8236f3146101a9578063c45a0155146101c9578063d1ac3535146101fd57600080fd5b8063656f3d641461008b5780636b2ace87146100a05780636ce4fe03146100fe5780639aab92481461013357600080fd5b3661008657005b600080fd5b61009e610099366004613704565b61021d565b005b3480156100ac57600080fd5b506100d47f000000000000000000000000000000000000000000000000000000000000000081565b60405173ffffffffffffffffffffffffffffffffffffffff90911681526020015b60405180910390f35b34801561010a57600080fd5b5061011e61011936600461381c565b610a7c565b604080519283526020830191909152016100f5565b34801561013f57600080fd5b506101677f000000000000000000000000000000000000000000000000000000000000000081565b6040519081526020016100f5565b34801561018157600080fd5b506100d47f000000000000000000000000000000000000000000000000000000000000000081565b3480156101b557600080fd5b5061009e6101c43660046138a3565b610bfc565b3480156101d557600080fd5b506100d47f000000000000000000000000000000000000000000000000000000000000000081565b34801561020957600080fd5b5061009e610218366004613933565b610e20565b825160005b81811015610a7557600085828151811061023e5761023e613950565b60200260200101519050600060ff168160ff16141561036b57600080600080600088878151811061027157610271613950565b602002602001015180602001905181019061028c919061399f565b6040517fc0a47c9300000000000000000000000000000000000000000000000000000000815273ffffffffffffffffffffffffffffffffffffffff8681166004830152306024830152851515604483015260ff851660648301526084820184905260a48201839052959a50939850919650945092507f00000000000000000000000000000000000000000000000000000000000000009091169063c0a47c939060c401600060405180830381600087803b15801561034957600080fd5b505af115801561035d573d6000803e3d6000fd5b505050505050505050610a6c565b60ff8116600114156103e25760008060008087868151811061038f5761038f613950565b60200260200101518060200190518101906103aa91906139f9565b93509350935093506103d984338585858e8c815181106103cc576103cc613950565b6020026020010151610e84565b50505050610a6c565b60ff81166002141561044557600080600080600088878151811061040857610408613950565b60200260200101518060200190518101906104239190613a41565b9450945094509450945061043b853386868686610f5f565b5050505050610a6c565b60ff8116600b141561049c57600080600086858151811061046857610468613950565b60200260200101518060200190518101906104839190613a9e565b9250925092506104948383836111be565b505050610a6c565b60ff8116600314156105e2576000806000808786815181106104c0576104c0613950565b60200260200101518060200190518101906104db91906139f9565b9350935093509350816000141561057d576040517f70a0823100000000000000000000000000000000000000000000000000000000815230600482015273ffffffffffffffffffffffffffffffffffffffff8516906370a0823190602401602060405180830381865afa158015610556573d6000803e3d6000fd5b505050506040513d601f19601f8201168201806040525081019061057a9190613ae1565b91505b6105a8847f0000000000000000000000000000000000000000000000000000000000000000846111e5565b6103d9847f00000000000000000000000000000000000000000000000000000000000000008585858e8c815181106103cc576103cc613950565b60ff8116600414156106ee57600080600086858151811061060557610605613950565b60200260200101518060200190518101906106209190613a9e565b92509250925080600014156106e35773ffffffffffffffffffffffffffffffffffffffff8316156106e0576040517f70a0823100000000000000000000000000000000000000000000000000000000815230600482015273ffffffffffffffffffffffffffffffffffffffff8416906370a0823190602401602060405180830381865afa1580156106b5573d6000803e3d6000fd5b505050506040513d601f19601f820116820180604052508101906106d99190613ae1565b90506106e3565b50475b6104948383836111e5565b60ff81166005141561081357600080600080600088878151811061071457610714613950565b602002602001015180602001905181019061072f9190613a41565b94509450945094509450826000148015610747575081155b15610805576040517ff7888aec00000000000000000000000000000000000000000000000000000000815273ffffffffffffffffffffffffffffffffffffffff86811660048301523060248301527f0000000000000000000000000000000000000000000000000000000000000000169063f7888aec90604401602060405180830381865afa1580156107de573d6000803e3d6000fd5b505050506040513d601f19601f820116820180604052508101906108029190613ae1565b91505b61043b853086868686610f5f565b60ff8116600614156108645760008085848151811061083457610834613950565b602002602001015180602001905181019061084f9190613afa565b9150915061085d828261126b565b5050610a6c565b60ff8116600714156109825760008060008087868151811061088857610888613950565b60200260200101518060200190518101906108a39190613b34565b93509350935093506000846000141561096a57826000815181106108c9576108c9613950565b60209081029190910101516040517f70a0823100000000000000000000000000000000000000000000000000000000815230600482015273ffffffffffffffffffffffffffffffffffffffff909116906370a0823190602401602060405180830381865afa15801561093f573d6000803e3d6000fd5b505050506040513d601f19601f820116820180604052508101906109639190613ae1565b9450600190505b6109778585858585611361565b505050505050610a6c565b60ff8116600814156109c85760008483815181106109a2576109a2613950565b60200260200101518060200190518101906109bd9190613c6d565b905061085d816115d5565b60ff811660091415610a145760008483815181106109e8576109e8613950565b6020026020010151806020019051810190610a039190613f9a565b9050610a0e816118ff565b50610a6c565b60ff8116600a1415610a6c57600080600080878681518110610a3857610a38613950565b6020026020010151806020019051810190610a539190614297565b9350935093509350610a6784848484612237565b505050505b50600101610222565b5050505050565b6000807f000000000000000000000000000000000000000000000000000000000000000073ffffffffffffffffffffffffffffffffffffffff16630a512369898989604051602001610af9919060609190911b7fffffffffffffffffffffffffffffffffffffffff00000000000000000000000016815260140190565b60405160208183030381529060405287604051602001610b19919061440a565b60405160208183030381529060405260405180606001604052808c81526020018b81526020018d604051602001610b7b919060609190911b7fffffffffffffffffffffffffffffffffffffffff00000000000000000000000016815260140190565b6040516020818303038152906040528152506040518663ffffffff1660e01b8152600401610bad959493929190614446565b6040805180830381865afa158015610bc9573d6000803e3d6000fd5b505050506040513d601f19601f82011682018060405250810190610bed919061449e565b90999098509650505050505050565b3373ffffffffffffffffffffffffffffffffffffffff7f00000000000000000000000000000000000000000000000000000000000000001614610c6b576040517f8c66bf5600000000000000000000000000000000000000000000000000000000815260040160405180910390fd5b60008060008084806020019051810190610c8591906144c2565b6040517f656f3d6400000000000000000000000000000000000000000000000000000000815293975091955093509150309063656f3d6490610ccf90869086908690600401614608565b600060405180830381600087803b158015610ce957600080fd5b505af1925050508015610cfa575060015b610dca573d808015610d28576040519150601f19603f3d011682016040523d82523d6000602084013e610d2d565b606091505b506040517fa9059cbb00000000000000000000000000000000000000000000000000000000815273ffffffffffffffffffffffffffffffffffffffff86811660048301526024820189905289169063a9059cbb906044016020604051808303816000875af1158015610da3573d6000803e3d6000fd5b505050506040513d601f19601f82011682018060405250810190610dc7919061464b565b50505b4715610e145760405173ffffffffffffffffffffffffffffffffffffffff8516904780156108fc02916000818181858888f19350505050158015610e12573d6000803e3d6000fd5b505b50505050505050505050565b610e8173ffffffffffffffffffffffffffffffffffffffff82167f00000000000000000000000000000000000000000000000000000000000000007fffffffffffffffffffffffffffffffffffffffffffffffffffffffffffffffff612463565b50565b6040517f02b9446c00000000000000000000000000000000000000000000000000000000815273ffffffffffffffffffffffffffffffffffffffff87811660048301528681166024830152858116604483015260648201859052608482018490527f000000000000000000000000000000000000000000000000000000000000000016906302b9446c90839060a401604080518083038185885af1158015610f30573d6000803e3d6000fd5b50505050506040513d601f19601f82011682018060405250810190610f55919061449e565b5050505050505050565b801561103b576040517f97da6d3000000000000000000000000000000000000000000000000000000000815273ffffffffffffffffffffffffffffffffffffffff87811660048301528681166024830152858116604483015260648201859052608482018490527f000000000000000000000000000000000000000000000000000000000000000016906397da6d309060a40160408051808303816000875af1158015611010573d6000803e3d6000fd5b505050506040513d601f19601f82011682018060405250810190611034919061449e565b50506111b6565b8215611102576040517fda5139ca00000000000000000000000000000000000000000000000000000000815273ffffffffffffffffffffffffffffffffffffffff878116600483015260248201859052600060448301527f0000000000000000000000000000000000000000000000000000000000000000169063da5139ca90606401602060405180830381865afa1580156110db573d6000803e3d6000fd5b505050506040513d601f19601f820116820180604052508101906110ff9190613ae1565b91505b6040517ff18d03cc00000000000000000000000000000000000000000000000000000000815273ffffffffffffffffffffffffffffffffffffffff878116600483015286811660248301528581166044830152606482018490527f0000000000000000000000000000000000000000000000000000000000000000169063f18d03cc90608401600060405180830381600087803b1580156111a257600080fd5b505af1158015610e14573d6000803e3d6000fd5b505050505050565b6111e073ffffffffffffffffffffffffffffffffffffffff8416338484612663565b505050565b73ffffffffffffffffffffffffffffffffffffffff831615611222576111e073ffffffffffffffffffffffffffffffffffffffff841683836126c1565b60405173ffffffffffffffffffffffffffffffffffffffff83169082156108fc029083906000818181858888f19350505050158015611265573d6000803e3d6000fd5b50505050565b6040517f70a0823100000000000000000000000000000000000000000000000000000000815230600482015273ffffffffffffffffffffffffffffffffffffffff831690632e1a7d4d9082906370a0823190602401602060405180830381865afa1580156112dd573d6000803e3d6000fd5b505050506040513d601f19601f820116820180604052508101906113019190613ae1565b6040518263ffffffff1660e01b815260040161131f91815260200190565b600060405180830381600087803b15801561133957600080fd5b505af115801561134d573d6000803e3d6000fd5b5050505061135d600082476111e5565b5050565b6000806113b07f000000000000000000000000000000000000000000000000000000000000000088877f0000000000000000000000000000000000000000000000000000000000000000612717565b905080600182516113c19190614695565b815181106113d1576113d1613950565b602002602001015191508582101561144a576040517f08c379a000000000000000000000000000000000000000000000000000000000815260206004820152601760248201527f696e73756666696369656e742d616d6f756e742d6f757400000000000000000060448201526064015b60405180910390fd5b82156115c0576115c06114d37f00000000000000000000000000000000000000000000000000000000000000008760008151811061148a5761148a613950565b6020026020010151886001815181106114a5576114a5613950565b60200260200101517f00000000000000000000000000000000000000000000000000000000000000006128be565b866000815181106114e6576114e6613950565b60209081029190910101516040517f70a0823100000000000000000000000000000000000000000000000000000000815230600482015273ffffffffffffffffffffffffffffffffffffffff909116906370a0823190602401602060405180830381865afa15801561155c573d6000803e3d6000fd5b505050506040513d601f19601f820116820180604052508101906115809190613ae1565b8760008151811061159357611593613950565b602002602001015173ffffffffffffffffffffffffffffffffffffffff166126c19092919063ffffffff16565b6115cb8186866129d8565b5095945050505050565b60008160200151600014156117e15781516040517f70a0823100000000000000000000000000000000000000000000000000000000815230600482015260009173ffffffffffffffffffffffffffffffffffffffff16906370a0823190602401602060405180830381865afa158015611652573d6000803e3d6000fd5b505050506040513d601f19601f820116820180604052508101906116769190613ae1565b90506116a783600001517f0000000000000000000000000000000000000000000000000000000000000000836111e5565b7f000000000000000000000000000000000000000000000000000000000000000073ffffffffffffffffffffffffffffffffffffffff166302b9446c84600001517f0000000000000000000000000000000000000000000000000000000000000000866060015160008151811061172057611720613950565b6020908102919091010151516040517fffffffff0000000000000000000000000000000000000000000000000000000060e086901b16815273ffffffffffffffffffffffffffffffffffffffff93841660048201529183166024830152919091166044820152606481018490526000608482015260a40160408051808303816000875af11580156117b5573d6000803e3d6000fd5b505050506040513d601f19601f820116820180604052508101906117d9919061449e565b602085015250505b60608201515160005b818110156118ba578360600151818151811061180857611808613950565b60200260200101516000015173ffffffffffffffffffffffffffffffffffffffff1663627dd56a8560600151838151811061184557611845613950565b6020026020010151602001516040518263ffffffff1660e01b815260040161186d919061440a565b6020604051808303816000875af115801561188c573d6000803e3d6000fd5b505050506040513d601f19601f820116820180604052508101906118b09190613ae1565b92506001016117ea565b5082604001518210156118f9576040517fc9f52c7100000000000000000000000000000000000000000000000000000000815260040160405180910390fd5b50919050565b80515160005b81811015611b0f577f000000000000000000000000000000000000000000000000000000000000000073ffffffffffffffffffffffffffffffffffffffff1663f18d03cc8460000151838151811061195f5761195f613950565b602002602001015160000151308660000151858151811061198257611982613950565b602002602001015160200151876000015186815181106119a4576119a4613950565b6020908102919091010151606001516040517fffffffff0000000000000000000000000000000000000000000000000000000060e087901b16815273ffffffffffffffffffffffffffffffffffffffff94851660048201529284166024840152921660448201526064810191909152608401600060405180830381600087803b158015611a3057600080fd5b505af1158015611a44573d6000803e3d6000fd5b5050505082600001518181518110611a5e57611a5e613950565b60200260200101516020015173ffffffffffffffffffffffffffffffffffffffff1663627dd56a84600001518381518110611a9b57611a9b613950565b6020026020010151608001516040518263ffffffff1660e01b8152600401611ac3919061440a565b6020604051808303816000875af1158015611ae2573d6000803e3d6000fd5b505050506040513d601f19601f82011682018060405250810190611b069190613ae1565b50600101611905565b505060208101515160005b81811015611e535760007f000000000000000000000000000000000000000000000000000000000000000073ffffffffffffffffffffffffffffffffffffffff1663f7888aec85602001518481518110611b7657611b76613950565b6020908102919091010151516040517fffffffff0000000000000000000000000000000000000000000000000000000060e084901b16815273ffffffffffffffffffffffffffffffffffffffff9091166004820152306024820152604401602060405180830381865afa158015611bf1573d6000803e3d6000fd5b505050506040513d601f19601f82011682018060405250810190611c159190613ae1565b90506000611c256008600a6147cc565b85602001518481518110611c3b57611c3b613950565b60200260200101516040015167ffffffffffffffff1683611c5c91906147db565b611c669190614818565b90507f000000000000000000000000000000000000000000000000000000000000000073ffffffffffffffffffffffffffffffffffffffff1663f18d03cc86602001518581518110611cba57611cba613950565b6020026020010151600001513088602001518781518110611cdd57611cdd613950565b60209081029190910181015101516040517fffffffff0000000000000000000000000000000000000000000000000000000060e086901b16815273ffffffffffffffffffffffffffffffffffffffff9384166004820152918316602483015291909116604482015260648101849052608401600060405180830381600087803b158015611d6957600080fd5b505af1158015611d7d573d6000803e3d6000fd5b5050505084602001518381518110611d9757611d97613950565b60200260200101516020015173ffffffffffffffffffffffffffffffffffffffff1663627dd56a86602001518581518110611dd457611dd4613950565b6020026020010151606001516040518263ffffffff1660e01b8152600401611dfc919061440a565b6020604051808303816000875af1158015611e1b573d6000803e3d6000fd5b505050506040513d601f19601f82011682018060405250810190611e3f9190613ae1565b505050611e4c8160010190565b9050611b1a565b505060408101515160005b818110156111e05760007f000000000000000000000000000000000000000000000000000000000000000073ffffffffffffffffffffffffffffffffffffffff1663f7888aec85604001518481518110611eba57611eba613950565b6020908102919091010151516040517fffffffff0000000000000000000000000000000000000000000000000000000060e084901b16815273ffffffffffffffffffffffffffffffffffffffff9091166004820152306024820152604401602060405180830381865afa158015611f35573d6000803e3d6000fd5b505050506040513d601f19601f82011682018060405250810190611f599190613ae1565b905083604001518281518110611f7157611f71613950565b602002602001015160600151811015611fb6576040517fc9f52c7100000000000000000000000000000000000000000000000000000000815260040160405180910390fd5b83604001518281518110611fcc57611fcc613950565b60200260200101516040015115612114577f000000000000000000000000000000000000000000000000000000000000000073ffffffffffffffffffffffffffffffffffffffff166397da6d308560400151848151811061202f5761202f613950565b602002602001015160000151308760400151868151811061205257612052613950565b60209081029190910181015101516040517fffffffff0000000000000000000000000000000000000000000000000000000060e086901b16815273ffffffffffffffffffffffffffffffffffffffff93841660048201529183166024830152919091166044820152600060648201526084810184905260a40160408051808303816000875af11580156120e9573d6000803e3d6000fd5b505050506040513d601f19601f8201168201806040525081019061210d919061449e565b505061222e565b7f000000000000000000000000000000000000000000000000000000000000000073ffffffffffffffffffffffffffffffffffffffff1663f18d03cc8560400151848151811061216657612166613950565b602002602001015160000151308760400151868151811061218957612189613950565b60209081029190910181015101516040517fffffffff0000000000000000000000000000000000000000000000000000000060e086901b16815273ffffffffffffffffffffffffffffffffffffffff9384166004820152918316602483015291909116604482015260648101849052608401600060405180830381600087803b15801561221557600080fd5b505af1158015612229573d6000803e3d6000fd5b505050505b50600101611e5e565b60008461010001518484846040516020016122559493929190614853565b60405160208183030381529060405290507f000000000000000000000000000000000000000000000000000000000000000073ffffffffffffffffffffffffffffffffffffffff16639fbf10fc47876000015188604001518960600151338b60800151600014156123595760208c01516040517f70a0823100000000000000000000000000000000000000000000000000000000815230600482015273ffffffffffffffffffffffffffffffffffffffff909116906370a0823190602401602060405180830381865afa158015612330573d6000803e3d6000fd5b505050506040513d601f19601f820116820180604052508101906123549190613ae1565b61235f565b8b608001515b8c60a0015160405180606001604052808f610120015181526020018f60c0015181526020018f60e001516040516020016123c4919060609190911b7fffffffffffffffffffffffffffffffffffffffff00000000000000000000000016815260140190565b6040516020818303038152906040528152508e60e00151604051602001612416919060609190911b7fffffffffffffffffffffffffffffffffffffffff00000000000000000000000016815260140190565b6040516020818303038152906040528b6040518b63ffffffff1660e01b815260040161244a999897969594939291906148a8565b6000604051808303818588803b1580156111a257600080fd5b80158061250357506040517fdd62ed3e00000000000000000000000000000000000000000000000000000000815230600482015273ffffffffffffffffffffffffffffffffffffffff838116602483015284169063dd62ed3e90604401602060405180830381865afa1580156124dd573d6000803e3d6000fd5b505050506040513d601f19601f820116820180604052508101906125019190613ae1565b155b61258f576040517f08c379a000000000000000000000000000000000000000000000000000000000815260206004820152603660248201527f5361666545524332303a20617070726f76652066726f6d206e6f6e2d7a65726f60448201527f20746f206e6f6e2d7a65726f20616c6c6f77616e6365000000000000000000006064820152608401611441565b60405173ffffffffffffffffffffffffffffffffffffffff83166024820152604481018290526111e09084907f095ea7b300000000000000000000000000000000000000000000000000000000906064015b604080517fffffffffffffffffffffffffffffffffffffffffffffffffffffffffffffffe08184030181529190526020810180517bffffffffffffffffffffffffffffffffffffffffffffffffffffffff167fffffffff0000000000000000000000000000000000000000000000000000000090931692909217909152612c15565b60405173ffffffffffffffffffffffffffffffffffffffff808516602483015283166044820152606481018290526112659085907f23b872dd00000000000000000000000000000000000000000000000000000000906084016125e1565b60405173ffffffffffffffffffffffffffffffffffffffff83166024820152604481018290526111e09084907fa9059cbb00000000000000000000000000000000000000000000000000000000906064016125e1565b6060600283511015612785576040517f08c379a000000000000000000000000000000000000000000000000000000000815260206004820152601e60248201527f556e697377617056324c6962726172793a20494e56414c49445f5041544800006044820152606401611441565b825167ffffffffffffffff81111561279f5761279f61341b565b6040519080825280602002602001820160405280156127c8578160200160208202803683370190505b50905083816000815181106127df576127df613950565b60200260200101818152505060005b600184516127fc9190614695565b8110156128b5576000806128508887858151811061281c5761281c613950565b6020026020010151888660016128329190614933565b8151811061284257612842613950565b602002602001015188612d21565b9150915061287884848151811061286957612869613950565b60200260200101518383612e22565b84612884856001614933565b8151811061289457612894613950565b602002602001018181525050505080806128ad9061494b565b9150506127ee565b50949350505050565b60008060006128cd8686612f9c565b6040517fffffffffffffffffffffffffffffffffffffffff000000000000000000000000606084811b8216602084015283901b166034820152919350915087906048016040516020818303038152906040528051906020012085604051602001612997939291907fff00000000000000000000000000000000000000000000000000000000000000815260609390931b7fffffffffffffffffffffffffffffffffffffffff0000000000000000000000001660018401526015830191909152603582015260550190565b604080517fffffffffffffffffffffffffffffffffffffffffffffffffffffffffffffffe08184030181529190528051602090910120979650505050505050565b60005b600183516129e99190614695565b81101561126557600080848381518110612a0557612a05613950565b602002602001015185846001612a1b9190614933565b81518110612a2b57612a2b613950565b6020026020010151915091506000612a438383612f9c565b509050600087612a54866001614933565b81518110612a6457612a64613950565b602002602001015190506000808373ffffffffffffffffffffffffffffffffffffffff168673ffffffffffffffffffffffffffffffffffffffff1614612aac57826000612ab0565b6000835b91509150600060028a51612ac49190614695565b8810612ad05788612b11565b612b117f0000000000000000000000000000000000000000000000000000000000000000878c612b018c6002614933565b815181106114a5576114a5613950565b9050612b5f7f000000000000000000000000000000000000000000000000000000000000000088887f00000000000000000000000000000000000000000000000000000000000000006128be565b73ffffffffffffffffffffffffffffffffffffffff1663022c0d9f84848460006040519080825280601f01601f191660200182016040528015612ba9576020820181803683370190505b506040518563ffffffff1660e01b8152600401612bc99493929190614984565b600060405180830381600087803b158015612be357600080fd5b505af1158015612bf7573d6000803e3d6000fd5b50505050505050505050508080612c0d9061494b565b9150506129db565b6000612c77826040518060400160405280602081526020017f5361666545524332303a206c6f772d6c6576656c2063616c6c206661696c65648152508573ffffffffffffffffffffffffffffffffffffffff166131219092919063ffffffff16565b8051909150156111e05780806020019051810190612c95919061464b565b6111e0576040517f08c379a000000000000000000000000000000000000000000000000000000000815260206004820152602a60248201527f5361666545524332303a204552433230206f7065726174696f6e20646964206e60448201527f6f742073756363656564000000000000000000000000000000000000000000006064820152608401611441565b6000806000612d308686612f9c565b509050600080612d42898989896128be565b73ffffffffffffffffffffffffffffffffffffffff16630902f1ac6040518163ffffffff1660e01b8152600401606060405180830381865afa158015612d8c573d6000803e3d6000fd5b505050506040513d601f19601f82011682018060405250810190612db091906149dd565b506dffffffffffffffffffffffffffff1691506dffffffffffffffffffffffffffff1691508273ffffffffffffffffffffffffffffffffffffffff168873ffffffffffffffffffffffffffffffffffffffff1614612e0f578082612e12565b81815b909a909950975050505050505050565b6000808411612eb3576040517f08c379a000000000000000000000000000000000000000000000000000000000815260206004820152602b60248201527f556e697377617056324c6962726172793a20494e53554646494349454e545f4960448201527f4e5055545f414d4f554e540000000000000000000000000000000000000000006064820152608401611441565b600083118015612ec35750600082115b612f4f576040517f08c379a000000000000000000000000000000000000000000000000000000000815260206004820152602860248201527f556e697377617056324c6962726172793a20494e53554646494349454e545f4c60448201527f49515549444954590000000000000000000000000000000000000000000000006064820152608401611441565b6000612f5d856103e561313a565b90506000612f6b828561313a565b90506000612f8583612f7f886103e861313a565b906131ca565b9050612f918183614818565b979650505050505050565b6000808273ffffffffffffffffffffffffffffffffffffffff168473ffffffffffffffffffffffffffffffffffffffff16141561305b576040517f08c379a000000000000000000000000000000000000000000000000000000000815260206004820152602560248201527f556e697377617056324c6962726172793a204944454e544943414c5f4144445260448201527f45535345530000000000000000000000000000000000000000000000000000006064820152608401611441565b8273ffffffffffffffffffffffffffffffffffffffff168473ffffffffffffffffffffffffffffffffffffffff1610613095578284613098565b83835b909250905073ffffffffffffffffffffffffffffffffffffffff821661311a576040517f08c379a000000000000000000000000000000000000000000000000000000000815260206004820152601e60248201527f556e697377617056324c6962726172793a205a45524f5f4144445245535300006044820152606401611441565b9250929050565b60606131308484600085613242565b90505b9392505050565b600081158061315e5750828261315081836147db565b925061315c9083614818565b145b6131c4576040517f08c379a000000000000000000000000000000000000000000000000000000000815260206004820152601460248201527f64732d6d6174682d6d756c2d6f766572666c6f770000000000000000000000006044820152606401611441565b92915050565b6000826131d78382614933565b91508110156131c4576040517f08c379a000000000000000000000000000000000000000000000000000000000815260206004820152601460248201527f64732d6d6174682d6164642d6f766572666c6f770000000000000000000000006044820152606401611441565b6060824710156132d4576040517f08c379a000000000000000000000000000000000000000000000000000000000815260206004820152602660248201527f416464726573733a20696e73756666696369656e742062616c616e636520666f60448201527f722063616c6c00000000000000000000000000000000000000000000000000006064820152608401611441565b73ffffffffffffffffffffffffffffffffffffffff85163b613352576040517f08c379a000000000000000000000000000000000000000000000000000000000815260206004820152601d60248201527f416464726573733a2063616c6c20746f206e6f6e2d636f6e74726163740000006044820152606401611441565b6000808673ffffffffffffffffffffffffffffffffffffffff16858760405161337b9190614a2d565b60006040518083038185875af1925050503d80600081146133b8576040519150601f19603f3d011682016040523d82523d6000602084013e6133bd565b606091505b5091509150612f91828286606083156133d7575081613133565b8251156133e75782518084602001fd5b816040517f08c379a0000000000000000000000000000000000000000000000000000000008152600401611441919061440a565b7f4e487b7100000000000000000000000000000000000000000000000000000000600052604160045260246000fd5b6040516080810167ffffffffffffffff8111828210171561346d5761346d61341b565b60405290565b6040805190810167ffffffffffffffff8111828210171561346d5761346d61341b565b6040516060810167ffffffffffffffff8111828210171561346d5761346d61341b565b60405160a0810167ffffffffffffffff8111828210171561346d5761346d61341b565b604051610140810167ffffffffffffffff8111828210171561346d5761346d61341b565b604051601f82017fffffffffffffffffffffffffffffffffffffffffffffffffffffffffffffffe016810167ffffffffffffffff811182821017156135475761354761341b565b604052919050565b600067ffffffffffffffff8211156135695761356961341b565b5060051b60200190565b60ff81168114610e8157600080fd5b600082601f83011261359357600080fd5b813560206135a86135a38361354f565b613500565b82815260059290921b840181019181810190868411156135c757600080fd5b8286015b848110156135e257803583529183019183016135cb565b509695505050505050565b600067ffffffffffffffff8211156136075761360761341b565b50601f017fffffffffffffffffffffffffffffffffffffffffffffffffffffffffffffffe01660200190565b600082601f83011261364457600080fd5b81356136526135a3826135ed565b81815284602083860101111561366757600080fd5b816020850160208301376000918101602001919091529392505050565b600082601f83011261369557600080fd5b813560206136a56135a38361354f565b82815260059290921b840181019181810190868411156136c457600080fd5b8286015b848110156135e257803567ffffffffffffffff8111156136e85760008081fd5b6136f68986838b0101613633565b8452509183019183016136c8565b60008060006060848603121561371957600080fd5b833567ffffffffffffffff8082111561373157600080fd5b818601915086601f83011261374557600080fd5b813560206137556135a38361354f565b82815260059290921b8401810191818101908a84111561377457600080fd5b948201945b8386101561379b57853561378c81613573565b82529482019490820190613779565b975050870135925050808211156137b157600080fd5b6137bd87838801613582565b935060408601359150808211156137d357600080fd5b506137e086828701613684565b9150509250925092565b61ffff81168114610e8157600080fd5b73ffffffffffffffffffffffffffffffffffffffff81168114610e8157600080fd5b60008060008060008060c0878903121561383557600080fd5b8635613840816137ea565b9550602087013561385081613573565b94506040870135613860816137fa565b9350606087013592506080870135915060a087013567ffffffffffffffff81111561388a57600080fd5b61389689828a01613633565b9150509295509295509295565b60008060008060008060c087890312156138bc57600080fd5b86356138c7816137ea565b9550602087013567ffffffffffffffff808211156138e457600080fd5b6138f08a838b01613633565b96506040890135955060608901359150613909826137fa565b9093506080880135925060a0880135908082111561392657600080fd5b5061389689828a01613633565b60006020828403121561394557600080fd5b8135613133816137fa565b7f4e487b7100000000000000000000000000000000000000000000000000000000600052603260045260246000fd5b805161398a816137fa565b919050565b8051801515811461398a57600080fd5b600080600080600060a086880312156139b757600080fd5b85516139c2816137fa565b94506139d06020870161398f565b935060408601516139e081613573565b6060870151608090970151959894975095949392505050565b60008060008060808587031215613a0f57600080fd5b8451613a1a816137fa565b6020860151909450613a2b816137fa565b6040860151606090960151949790965092505050565b600080600080600060a08688031215613a5957600080fd5b8551613a64816137fa565b6020870151909550613a75816137fa565b6040870151606088015191955093509150613a926080870161398f565b90509295509295909350565b600080600060608486031215613ab357600080fd5b8351613abe816137fa565b6020850151909350613acf816137fa565b80925050604084015190509250925092565b600060208284031215613af357600080fd5b5051919050565b60008060408385031215613b0d57600080fd5b8251613b18816137fa565b6020840151909250613b29816137fa565b809150509250929050565b60008060008060808587031215613b4a57600080fd5b845193506020808601519350604086015167ffffffffffffffff811115613b7057600080fd5b8601601f81018813613b8157600080fd5b8051613b8f6135a38261354f565b81815260059190911b8201830190838101908a831115613bae57600080fd5b928401925b82841015613bd5578351613bc6816137fa565b82529284019290840190613bb3565b8096505050505050613be96060860161397f565b905092959194509250565b60005b83811015613c0f578181015183820152602001613bf7565b838111156112655750506000910152565b600082601f830112613c3157600080fd5b8151613c3f6135a3826135ed565b818152846020838601011115613c5457600080fd5b613c65826020830160208701613bf4565b949350505050565b60006020808385031215613c8057600080fd5b825167ffffffffffffffff80821115613c9857600080fd5b9084019060808287031215613cac57600080fd5b613cb461344a565b8251613cbf816137fa565b8152828401518482015260408084015181830152606084015183811115613ce557600080fd5b80850194505087601f850112613cfa57600080fd5b8351613d086135a38261354f565b81815260059190911b8501860190868101908a831115613d2757600080fd5b8787015b83811015613dc157805187811115613d435760008081fd5b8801808d037fffffffffffffffffffffffffffffffffffffffffffffffffffffffffffffffe001861315613d775760008081fd5b613d7f613473565b8a820151613d8c816137fa565b81528187015189811115613da05760008081fd5b613dae8f8d83860101613c20565b828d015250845250918801918801613d2b565b506060850152509198975050505050505050565b600082601f830112613de657600080fd5b81516020613df66135a38361354f565b82815260059290921b84018101918181019086841115613e1557600080fd5b8286015b848110156135e257805167ffffffffffffffff80821115613e3a5760008081fd5b81890191506080807fffffffffffffffffffffffffffffffffffffffffffffffffffffffffffffffe0848d03011215613e735760008081fd5b613e7b61344a565b87840151613e88816137fa565b8152604084810151613e99816137fa565b828a01526060858101518581168114613eb25760008081fd5b83830152928501519284841115613ecb57600091508182fd5b613ed98e8b86890101613c20565b90830152508652505050918301918301613e19565b600082601f830112613eff57600080fd5b81516020613f0f6135a38361354f565b82815260079290921b84018101918181019086841115613f2e57600080fd5b8286015b848110156135e25760808189031215613f4b5760008081fd5b613f5361344a565b8151613f5e816137fa565b815281850151613f6d816137fa565b818601526040613f7e83820161398f565b9082015260608281015190820152835291830191608001613f32565b60006020808385031215613fad57600080fd5b825167ffffffffffffffff80821115613fc557600080fd5b9084019060608287031215613fd957600080fd5b613fe1613496565b825182811115613ff057600080fd5b8301601f8101881361400157600080fd5b805161400f6135a38261354f565b81815260059190911b8201860190868101908a83111561402e57600080fd5b8784015b838110156140f65780518781111561404957600080fd5b850160a0818e037fffffffffffffffffffffffffffffffffffffffffffffffffffffffffffffffe001121561407d57600080fd5b6140856134b9565b8a820151614092816137fa565b815260408201516140a2816137fa565b818c01526140b26060830161398f565b60408201526080820151606082015260a0820151898111156140d45760008081fd5b6140e28f8d83860101613c20565b608083015250845250918801918801614032565b508452505050828401518281111561410d57600080fd5b61411988828601613dd5565b8583015250604083015193508184111561413257600080fd5b61413e87858501613eee565b60408201529695505050505050565b805161398a816137ea565b600082601f83011261416957600080fd5b815160206141796135a38361354f565b82815260059290921b8401810191818101908684111561419857600080fd5b8286015b848110156135e25780516141af81613573565b835291830191830161419c565b600082601f8301126141cd57600080fd5b815160206141dd6135a38361354f565b82815260059290921b840181019181810190868411156141fc57600080fd5b8286015b848110156135e25780518352918301918301614200565b600082601f83011261422857600080fd5b815160206142386135a38361354f565b82815260059290921b8401810191818101908684111561425757600080fd5b8286015b848110156135e257805167ffffffffffffffff81111561427b5760008081fd5b6142898986838b0101613c20565b84525091830191830161425b565b6000806000808486036101a08112156142af57600080fd5b610140808212156142bf57600080fd5b6142c76134dc565b91506142d28761414d565b82526142e06020880161397f565b602083015260408701516040830152606087015160608301526080870151608083015260a087015160a083015260c087015160c083015261432360e0880161397f565b60e083015261010061433681890161397f565b90830152610120878101519083015286015190945067ffffffffffffffff8082111561436157600080fd5b61436d88838901614158565b945061016087015191508082111561438457600080fd5b614390888389016141bc565b93506101808701519150808211156143a757600080fd5b506143b487828801614217565b91505092959194509250565b600081518084526143d8816020860160208601613bf4565b601f017fffffffffffffffffffffffffffffffffffffffffffffffffffffffffffffffe0169290920160200192915050565b60208152600061313360208301846143c0565b80518252602081015160208301526000604082015160606040850152613c6560608501826143c0565b61ffff8616815260ff8516602082015260a06040820152600061446c60a08301866143c0565b828103606084015261447e81866143c0565b90508281036080840152614492818561441d565b98975050505050505050565b600080604083850312156144b157600080fd5b505080516020909101519092909150565b600080600080608085870312156144d857600080fd5b84516144e3816137fa565b602086015190945067ffffffffffffffff8082111561450157600080fd5b61450d88838901614158565b9450604087015191508082111561452357600080fd5b61452f888389016141bc565b935060608701519150808211156143a757600080fd5b600081518084526020808501945080840160005b8381101561457857815160ff1687529582019590820190600101614559565b509495945050505050565b600081518084526020808501945080840160005b8381101561457857815187529582019590820190600101614597565b600081518084526020808501808196508360051b8101915082860160005b858110156145fb5782840389526145e98483516143c0565b988501989350908401906001016145d1565b5091979650505050505050565b60608152600061461b6060830186614545565b828103602084015261462d8186614583565b9050828103604084015261464181856145b3565b9695505050505050565b60006020828403121561465d57600080fd5b6131338261398f565b7f4e487b7100000000000000000000000000000000000000000000000000000000600052601160045260246000fd5b6000828210156146a7576146a7614666565b500390565b600181815b8085111561470557817fffffffffffffffffffffffffffffffffffffffffffffffffffffffffffffffff048211156146eb576146eb614666565b808516156146f857918102915b93841c93908002906146b1565b509250929050565b60008261471c575060016131c4565b81614729575060006131c4565b816001811461473f576002811461474957614765565b60019150506131c4565b60ff84111561475a5761475a614666565b50506001821b6131c4565b5060208310610133831016604e8410600b8410161715614788575081810a6131c4565b61479283836146ac565b807fffffffffffffffffffffffffffffffffffffffffffffffffffffffffffffffff048211156147c4576147c4614666565b029392505050565b600061313360ff84168361470d565b6000817fffffffffffffffffffffffffffffffffffffffffffffffffffffffffffffffff048311821515161561481357614813614666565b500290565b60008261484e577f4e487b7100000000000000000000000000000000000000000000000000000000600052601260045260246000fd5b500490565b73ffffffffffffffffffffffffffffffffffffffff851681526080602082015260006148826080830186614545565b82810360408401526148948186614583565b90508281036060840152612f9181856145b3565b600061012061ffff8c1683528a602084015289604084015273ffffffffffffffffffffffffffffffffffffffff891660608401528760808401528660a08401528060c08401526148fa8184018761441d565b905082810360e084015261490e81866143c0565b905082810361010084015261492381856143c0565b9c9b505050505050505050505050565b6000821982111561494657614946614666565b500190565b60007fffffffffffffffffffffffffffffffffffffffffffffffffffffffffffffffff82141561497d5761497d614666565b5060010190565b84815283602082015273ffffffffffffffffffffffffffffffffffffffff8316604082015260806060820152600061464160808301846143c0565b80516dffffffffffffffffffffffffffff8116811461398a57600080fd5b6000806000606084860312156149f257600080fd5b6149fb846149bf565b9250614a09602085016149bf565b9150604084015163ffffffff81168114614a2257600080fd5b809150509250925092565b60008251614a3f818460208701613bf4565b919091019291505056fea26469706673582212200a79e4e2a29d70c49c280640620c7f4796d1fae2586e8bec97fefb1280e6b79664736f6c634300080b0033",
  "devdoc": {
    "details": "Supports both BentoBox and Wallet. Supports both Trident and Legacy AMM. Uses Stargate as bridge.",
    "kind": "dev",
    "methods": {
      "approveToStargateRouter(address)": {
        "params": {
          "token": "token to approve"
        }
      },
      "cook(uint8[],uint256[],bytes[])": {
        "details": "The function gets invoked both at the src and dst chain.",
        "params": {
          "actions": "An array with a sequence of actions to execute (see ACTION_ declarations).",
          "datas": "A one-to-one mapped array to `actions`. Contains abi encoded data of function arguments.",
          "values": "A one-to-one mapped array to `actions`. Native token amount to send along action."
        }
      },
      "getFee(uint16,uint8,address,uint256,uint256,bytes)": {
        "params": {
          "_dstChainId": "stargate dst chainId",
          "_dustAmount": "dust amount to be received at the dst chain",
          "_functionType": "stargate Function type 1 for swap. See more at https://stargateprotocol.gitbook.io/stargate/developers/function-types",
          "_gas": "extra gas being sent",
          "_payload": "payload being sent at the dst chain",
          "_receiver": "sushiXswap on the dst chain"
        }
      },
      "sgReceive(uint16,bytes,uint256,address,uint256,bytes)": {
        "params": {
          "_token": "bridge token received",
          "amountLD": "amount received",
          "payload": "ABI-Encoded data received from src chain"
        }
      }
    },
    "title": "SushiXSwap",
    "version": 1
  },
  "userdoc": {
    "kind": "user",
    "methods": {
      "approveToStargateRouter(address)": {
        "notice": "Approves token to the Stargate Router"
      },
      "bentoBox()": {
        "notice": "BentoBox token vault"
      },
      "cook(uint8[],uint256[],bytes[])": {
        "notice": "Executes a set of actions and allows composability (contract calls) to other contracts."
      },
      "factory()": {
        "notice": "Sushiswap Legacy AMM Factory"
      },
      "getFee(uint16,uint8,address,uint256,uint256,bytes)": {
        "notice": "Get the fees to be paid in native token for the swap"
      },
      "pairCodeHash()": {
        "notice": "Sushiswap Legacy AMM PairCodeHash"
      },
      "sgReceive(uint16,bytes,uint256,address,uint256,bytes)": {
        "notice": "Receiver function on dst chain"
      },
      "stargateRouter()": {
        "notice": "Stargate Router for cross chain interaction"
      }
    },
    "notice": "Enables cross chain swap for sushiswap.",
    "version": 1
  },
  "storageLayout": {
    "storage": [],
    "types": null
  }
}