{
  "address": "0x3D2f8ae0344d38525d2AE96Ab750B83480c0844F",
  "abi": [
    {
      "inputs": [
        {
          "internalType": "contract IBentoBoxMinimal",
          "name": "_bentoBox",
          "type": "address"
        },
        {
          "internalType": "contract IStargateRouter",
          "name": "_stargateRouter",
          "type": "address"
        },
        {
          "internalType": "address",
          "name": "_factory",
          "type": "address"
        },
        {
          "internalType": "bytes32",
          "name": "_pairCodeHash",
          "type": "bytes32"
        }
      ],
      "stateMutability": "nonpayable",
      "type": "constructor"
    },
    {
      "inputs": [],
      "name": "TooLittleReceived",
      "type": "error"
    },
    {
      "inputs": [
        {
          "internalType": "contract IERC20",
          "name": "token",
          "type": "address"
        }
      ],
      "name": "approveToStargateRouter",
      "outputs": [],
      "stateMutability": "nonpayable",
      "type": "function"
    },
    {
      "inputs": [],
      "name": "bentoBox",
      "outputs": [
        {
          "internalType": "contract IBentoBoxMinimal",
          "name": "",
          "type": "address"
        }
      ],
      "stateMutability": "view",
      "type": "function"
    },
    {
      "inputs": [
        {
          "internalType": "uint8[]",
          "name": "actions",
          "type": "uint8[]"
        },
        {
          "internalType": "uint256[]",
          "name": "values",
          "type": "uint256[]"
        },
        {
          "internalType": "bytes[]",
          "name": "datas",
          "type": "bytes[]"
        }
      ],
      "name": "cook",
      "outputs": [],
      "stateMutability": "payable",
      "type": "function"
    },
    {
      "inputs": [],
      "name": "factory",
      "outputs": [
        {
          "internalType": "address",
          "name": "",
          "type": "address"
        }
      ],
      "stateMutability": "view",
      "type": "function"
    },
    {
      "inputs": [],
      "name": "pairCodeHash",
      "outputs": [
        {
          "internalType": "bytes32",
          "name": "",
          "type": "bytes32"
        }
      ],
      "stateMutability": "view",
      "type": "function"
    },
    {
      "inputs": [
        {
          "internalType": "uint16",
          "name": "",
          "type": "uint16"
        },
        {
          "internalType": "bytes",
          "name": "",
          "type": "bytes"
        },
        {
          "internalType": "uint256",
          "name": "",
          "type": "uint256"
        },
        {
          "internalType": "address",
          "name": "_token",
          "type": "address"
        },
        {
          "internalType": "uint256",
          "name": "amountLD",
          "type": "uint256"
        },
        {
          "internalType": "bytes",
          "name": "payload",
          "type": "bytes"
        }
      ],
      "name": "sgReceive",
      "outputs": [],
      "stateMutability": "nonpayable",
      "type": "function"
    },
    {
      "inputs": [],
      "name": "stargateRouter",
      "outputs": [
        {
          "internalType": "contract IStargateRouter",
          "name": "",
          "type": "address"
        }
      ],
      "stateMutability": "view",
      "type": "function"
    },
    {
      "stateMutability": "payable",
      "type": "receive"
    }
  ],
  "transactionHash": "0x8b9741f96121df763009b5b8674799e328ceba78496fb6923829ff01d44a587d",
  "args": [
    "0xc35DADB65012eC5796536bD9864eD8773aBc74C4",
    "0xB0D502E938ed5f4df2E681fE6E419ff29631d62b",
    "0x0000000000000000000000000000000000000000",
    "0x0000000000000000000000000000000000000000000000000000000000000000"
  ],
  "numDeployments": 3,
  "solcInputHash": "276e557ddb11d33524378f2ab6b61e01",
  "bytecode": "0x6101006040523480156200001257600080fd5b506040516200469c3803806200469c8339810160408190526200003591620000ca565b6001600160a01b03808516608081905281851660a05290831660c05260e08290526040805163577268d960e11b8152905163aee4d1b29160048082019260009290919082900301818387803b1580156200008e57600080fd5b505af1158015620000a3573d6000803e3d6000fd5b505050505050505062000124565b6001600160a01b0381168114620000c757600080fd5b50565b60008060008060808587031215620000e157600080fd5b8451620000ee81620000b1565b60208601519094506200010181620000b1565b60408601519093506200011481620000b1565b6060959095015193969295505050565b60805160a05160c05160e0516144a5620001f76000396000818161010501528181611099015281816111b7015261263b01526000818161019b0152818161107601528181611160015281816125d50152612618015260008181610147015281816109db01528181610c380152611dc601526000818160a7015281816102c2015281816104eb0152818161051601528181610ce301528181610dc401528181610e93015281816112ee015281816115c3015281816117da0152818161191e01528181611b1e0152611c6c01526144a56000f3fe6080604052600436106100745760003560e01c8063a9e56f3c1161004e578063a9e56f3c14610135578063ab8236f314610169578063c45a015514610189578063d1ac3535146101bd57600080fd5b8063656f3d64146100805780636b2ace87146100955780639aab9248146100f357600080fd5b3661007b57005b600080fd5b61009361008e366004613204565b6101dd565b005b3480156100a157600080fd5b506100c97f000000000000000000000000000000000000000000000000000000000000000081565b60405173ffffffffffffffffffffffffffffffffffffffff90911681526020015b60405180910390f35b3480156100ff57600080fd5b506101277f000000000000000000000000000000000000000000000000000000000000000081565b6040519081526020016100ea565b34801561014157600080fd5b506100c97f000000000000000000000000000000000000000000000000000000000000000081565b34801561017557600080fd5b5061009361018436600461331c565b6109c3565b34801561019557600080fd5b506100c97f000000000000000000000000000000000000000000000000000000000000000081565b3480156101c957600080fd5b506100936101d83660046133b9565b610c1c565b60005b83518110156109bd5760008482815181106101fd576101fd6133d6565b60200260200101519050600060ff168160ff16141561032a576000806000806000878781518110610230576102306133d6565b602002602001015180602001905181019061024b9190613425565b6040517fc0a47c9300000000000000000000000000000000000000000000000000000000815273ffffffffffffffffffffffffffffffffffffffff8681166004830152306024830152851515604483015260ff851660648301526084820184905260a48201839052959a50939850919650945092507f00000000000000000000000000000000000000000000000000000000000000009091169063c0a47c939060c401600060405180830381600087803b15801561030857600080fd5b505af115801561031c573d6000803e3d6000fd5b5050505050505050506109aa565b60ff8116600114156103a15760008060008086868151811061034e5761034e6133d6565b6020026020010151806020019051810190610369919061347f565b935093509350935061039884338585858d8c8151811061038b5761038b6133d6565b6020026020010151610c80565b505050506109aa565b60ff8116600214156104045760008060008060008787815181106103c7576103c76133d6565b60200260200101518060200190518101906103e291906134c7565b945094509450945094506103fa853386868686610d5b565b50505050506109aa565b60ff81166003141561054a57600080600080868681518110610428576104286133d6565b6020026020010151806020019051810190610443919061347f565b935093509350935081600014156104e5576040517f70a0823100000000000000000000000000000000000000000000000000000000815230600482015273ffffffffffffffffffffffffffffffffffffffff8516906370a0823190602401602060405180830381865afa1580156104be573d6000803e3d6000fd5b505050506040513d601f19601f820116820180604052508101906104e29190613524565b91505b610510847f000000000000000000000000000000000000000000000000000000000000000084610ef3565b610398847f00000000000000000000000000000000000000000000000000000000000000008585858d8c8151811061038b5761038b6133d6565b60ff81166004141561065e57600080600085858151811061056d5761056d6133d6565b6020026020010151806020019051810190610588919061353d565b925092509250806000141561064b5773ffffffffffffffffffffffffffffffffffffffff831615610648576040517f70a0823100000000000000000000000000000000000000000000000000000000815230600482015273ffffffffffffffffffffffffffffffffffffffff8416906370a0823190602401602060405180830381865afa15801561061d573d6000803e3d6000fd5b505050506040513d601f19601f820116820180604052508101906106419190613524565b905061064b565b50475b610656838383610ef3565b5050506109aa565b60ff811660051415610751576000806000806000878781518110610684576106846133d6565b602002602001015180602001905181019061069f91906134c7565b945094509450945094508260001415610743576040517f70a0823100000000000000000000000000000000000000000000000000000000815230600482015273ffffffffffffffffffffffffffffffffffffffff8616906370a0823190602401602060405180830381865afa15801561071c573d6000803e3d6000fd5b505050506040513d601f19601f820116820180604052508101906107409190613524565b92505b6103fa853086868686610d5b565b60ff8116600614156107a257600080848481518110610772576107726133d6565b602002602001015180602001905181019061078d9190613580565b9150915061079b8282610f78565b50506109aa565b60ff8116600714156108c0576000806000808686815181106107c6576107c66133d6565b60200260200101518060200190518101906107e191906135ba565b9350935093509350600084600014156108a85782600081518110610807576108076133d6565b60209081029190910101516040517f70a0823100000000000000000000000000000000000000000000000000000000815230600482015273ffffffffffffffffffffffffffffffffffffffff909116906370a0823190602401602060405180830381865afa15801561087d573d6000803e3d6000fd5b505050506040513d601f19601f820116820180604052508101906108a19190613524565b9450600190505b6108b5858585858561106e565b5050505050506109aa565b60ff8116600814156109065760008383815181106108e0576108e06133d6565b60200260200101518060200190518101906108fb91906136f3565b905061079b816112dd565b60ff811660091415610952576000838381518110610926576109266133d6565b60200260200101518060200190518101906109419190613a20565b905061094c816115b3565b506109aa565b60ff8116600a14156109aa57600080600080868681518110610976576109766133d6565b60200260200101518060200190518101906109919190613d1d565b93509350935093506109a584848484611d95565b505050505b50806109b581613e75565b9150506101e0565b50505050565b3373ffffffffffffffffffffffffffffffffffffffff7f00000000000000000000000000000000000000000000000000000000000000001614610a67576040517f08c379a000000000000000000000000000000000000000000000000000000000815260206004820152601a60248201527f43616c6c6572206e6f7420537461726761746520526f7574657200000000000060448201526064015b60405180910390fd5b60008060008084806020019051810190610a819190613eae565b6040517f656f3d6400000000000000000000000000000000000000000000000000000000815293975091955093509150309063656f3d6490610acb9086908690869060040161403e565b600060405180830381600087803b158015610ae557600080fd5b505af1925050508015610af6575060015b610bc6573d808015610b24576040519150601f19603f3d011682016040523d82523d6000602084013e610b29565b606091505b506040517fa9059cbb00000000000000000000000000000000000000000000000000000000815273ffffffffffffffffffffffffffffffffffffffff86811660048301526024820189905289169063a9059cbb906044016020604051808303816000875af1158015610b9f573d6000803e3d6000fd5b505050506040513d601f19601f82011682018060405250810190610bc39190614081565b50505b4715610c105760405173ffffffffffffffffffffffffffffffffffffffff8516904780156108fc02916000818181858888f19350505050158015610c0e573d6000803e3d6000fd5b505b50505050505050505050565b610c7d73ffffffffffffffffffffffffffffffffffffffff82167f00000000000000000000000000000000000000000000000000000000000000007fffffffffffffffffffffffffffffffffffffffffffffffffffffffffffffffff611fc1565b50565b6040517f02b9446c00000000000000000000000000000000000000000000000000000000815273ffffffffffffffffffffffffffffffffffffffff87811660048301528681166024830152858116604483015260648201859052608482018490527f000000000000000000000000000000000000000000000000000000000000000016906302b9446c90839060a401604080518083038185885af1158015610d2c573d6000803e3d6000fd5b50505050506040513d601f19601f82011682018060405250810190610d51919061409c565b5050505050505050565b8015610e37576040517f97da6d3000000000000000000000000000000000000000000000000000000000815273ffffffffffffffffffffffffffffffffffffffff87811660048301528681166024830152858116604483015260648201859052608482018490527f000000000000000000000000000000000000000000000000000000000000000016906397da6d309060a40160408051808303816000875af1158015610e0c573d6000803e3d6000fd5b505050506040513d601f19601f82011682018060405250810190610e30919061409c565b5050610eeb565b6040517ff18d03cc00000000000000000000000000000000000000000000000000000000815273ffffffffffffffffffffffffffffffffffffffff878116600483015286811660248301528581166044830152606482018490527f0000000000000000000000000000000000000000000000000000000000000000169063f18d03cc90608401600060405180830381600087803b158015610ed757600080fd5b505af1158015610c10573d6000803e3d6000fd5b505050505050565b73ffffffffffffffffffffffffffffffffffffffff831615610f3557610f3073ffffffffffffffffffffffffffffffffffffffff841683836121c1565b505050565b60405173ffffffffffffffffffffffffffffffffffffffff83169082156108fc029083906000818181858888f193505050501580156109bd573d6000803e3d6000fd5b6040517f70a0823100000000000000000000000000000000000000000000000000000000815230600482015273ffffffffffffffffffffffffffffffffffffffff831690632e1a7d4d9082906370a0823190602401602060405180830381865afa158015610fea573d6000803e3d6000fd5b505050506040513d601f19601f8201168201806040525081019061100e9190613524565b6040518263ffffffff1660e01b815260040161102c91815260200190565b600060405180830381600087803b15801561104657600080fd5b505af115801561105a573d6000803e3d6000fd5b5050505061106a60008247610ef3565b5050565b6000806110bd7f000000000000000000000000000000000000000000000000000000000000000088877f0000000000000000000000000000000000000000000000000000000000000000612217565b905080600182516110ce91906140c0565b815181106110de576110de6133d6565b6020026020010151915085821015611152576040517f08c379a000000000000000000000000000000000000000000000000000000000815260206004820152601760248201527f696e73756666696369656e742d616d6f756e742d6f75740000000000000000006044820152606401610a5e565b82156112c8576112c86111db7f000000000000000000000000000000000000000000000000000000000000000087600081518110611192576111926133d6565b6020026020010151886001815181106111ad576111ad6133d6565b60200260200101517f00000000000000000000000000000000000000000000000000000000000000006123be565b866000815181106111ee576111ee6133d6565b60209081029190910101516040517f70a0823100000000000000000000000000000000000000000000000000000000815230600482015273ffffffffffffffffffffffffffffffffffffffff909116906370a0823190602401602060405180830381865afa158015611264573d6000803e3d6000fd5b505050506040513d601f19601f820116820180604052508101906112889190613524565b8760008151811061129b5761129b6133d6565b602002602001015173ffffffffffffffffffffffffffffffffffffffff166121c19092919063ffffffff16565b6112d38186866124d8565b5095945050505050565b6000816020015160001415611495577f000000000000000000000000000000000000000000000000000000000000000073ffffffffffffffffffffffffffffffffffffffff166302b9446c8360000151308560600151600081518110611345576113456133d6565b60209081029190910101515186516040517f70a0823100000000000000000000000000000000000000000000000000000000815230600482015273ffffffffffffffffffffffffffffffffffffffff909116906370a0823190602401602060405180830381865afa1580156113be573d6000803e3d6000fd5b505050506040513d601f19601f820116820180604052508101906113e29190613524565b6040517fffffffff0000000000000000000000000000000000000000000000000000000060e087901b16815273ffffffffffffffffffffffffffffffffffffffff948516600482015292841660248401529216604482015260648101919091526000608482015260a40160408051808303816000875af115801561146a573d6000803e3d6000fd5b505050506040513d601f19601f8201168201806040525081019061148e919061409c565b6020840152505b60608201515160005b8181101561156e57836060015181815181106114bc576114bc6133d6565b60200260200101516000015173ffffffffffffffffffffffffffffffffffffffff1663627dd56a856060015183815181106114f9576114f96133d6565b6020026020010151602001516040518263ffffffff1660e01b815260040161152191906140d7565b6020604051808303816000875af1158015611540573d6000803e3d6000fd5b505050506040513d601f19601f820116820180604052508101906115649190613524565b925060010161149e565b5082604001518210156115ad576040517fc9f52c7100000000000000000000000000000000000000000000000000000000815260040160405180910390fd5b50919050565b80515160005b818110156117c3577f000000000000000000000000000000000000000000000000000000000000000073ffffffffffffffffffffffffffffffffffffffff1663f18d03cc84600001518381518110611613576116136133d6565b6020026020010151600001513086600001518581518110611636576116366133d6565b60200260200101516020015187600001518681518110611658576116586133d6565b6020908102919091010151606001516040517fffffffff0000000000000000000000000000000000000000000000000000000060e087901b16815273ffffffffffffffffffffffffffffffffffffffff94851660048201529284166024840152921660448201526064810191909152608401600060405180830381600087803b1580156116e457600080fd5b505af11580156116f8573d6000803e3d6000fd5b5050505082600001518181518110611712576117126133d6565b60200260200101516020015173ffffffffffffffffffffffffffffffffffffffff1663627dd56a8460000151838151811061174f5761174f6133d6565b6020026020010151608001516040518263ffffffff1660e01b815260040161177791906140d7565b6020604051808303816000875af1158015611796573d6000803e3d6000fd5b505050506040513d601f19601f820116820180604052508101906117ba9190613524565b506001016115b9565b505060208101515160005b81811015611b075760007f000000000000000000000000000000000000000000000000000000000000000073ffffffffffffffffffffffffffffffffffffffff1663f7888aec8560200151848151811061182a5761182a6133d6565b6020908102919091010151516040517fffffffff0000000000000000000000000000000000000000000000000000000060e084901b16815273ffffffffffffffffffffffffffffffffffffffff9091166004820152306024820152604401602060405180830381865afa1580156118a5573d6000803e3d6000fd5b505050506040513d601f19601f820116820180604052508101906118c99190613524565b905060006118d96008600a61420a565b856020015184815181106118ef576118ef6133d6565b60200260200101516040015167ffffffffffffffff16836119109190614219565b61191a9190614256565b90507f000000000000000000000000000000000000000000000000000000000000000073ffffffffffffffffffffffffffffffffffffffff1663f18d03cc8660200151858151811061196e5761196e6133d6565b6020026020010151600001513088602001518781518110611991576119916133d6565b60209081029190910181015101516040517fffffffff0000000000000000000000000000000000000000000000000000000060e086901b16815273ffffffffffffffffffffffffffffffffffffffff9384166004820152918316602483015291909116604482015260648101849052608401600060405180830381600087803b158015611a1d57600080fd5b505af1158015611a31573d6000803e3d6000fd5b5050505084602001518381518110611a4b57611a4b6133d6565b60200260200101516020015173ffffffffffffffffffffffffffffffffffffffff1663627dd56a86602001518581518110611a8857611a886133d6565b6020026020010151606001516040518263ffffffff1660e01b8152600401611ab091906140d7565b6020604051808303816000875af1158015611acf573d6000803e3d6000fd5b505050506040513d601f19601f82011682018060405250810190611af39190613524565b505050611b008160010190565b90506117ce565b505060408101515160005b81811015610f305760007f000000000000000000000000000000000000000000000000000000000000000073ffffffffffffffffffffffffffffffffffffffff1663f7888aec85604001518481518110611b6e57611b6e6133d6565b6020908102919091010151516040517fffffffff0000000000000000000000000000000000000000000000000000000060e084901b16815273ffffffffffffffffffffffffffffffffffffffff9091166004820152306024820152604401602060405180830381865afa158015611be9573d6000803e3d6000fd5b505050506040513d601f19601f82011682018060405250810190611c0d9190613524565b905083604001518281518110611c2557611c256133d6565b602002602001015160600151811015611c6a576040517fc9f52c7100000000000000000000000000000000000000000000000000000000815260040160405180910390fd5b7f000000000000000000000000000000000000000000000000000000000000000073ffffffffffffffffffffffffffffffffffffffff1663f18d03cc85604001518481518110611cbc57611cbc6133d6565b6020026020010151600001513087604001518681518110611cdf57611cdf6133d6565b60209081029190910181015101516040517fffffffff0000000000000000000000000000000000000000000000000000000060e086901b16815273ffffffffffffffffffffffffffffffffffffffff9384166004820152918316602483015291909116604482015260648101849052608401600060405180830381600087803b158015611d6b57600080fd5b505af1158015611d7f573d6000803e3d6000fd5b5050505050611d8e8160010190565b9050611b12565b6000846101000151848484604051602001611db39493929190614291565b60405160208183030381529060405290507f000000000000000000000000000000000000000000000000000000000000000073ffffffffffffffffffffffffffffffffffffffff16639fbf10fc47876000015188604001518960600151338b6080015160001415611eb75760208c01516040517f70a0823100000000000000000000000000000000000000000000000000000000815230600482015273ffffffffffffffffffffffffffffffffffffffff909116906370a0823190602401602060405180830381865afa158015611e8e573d6000803e3d6000fd5b505050506040513d601f19601f82011682018060405250810190611eb29190613524565b611ebd565b8b608001515b8c60a0015160405180606001604052808f610120015181526020018f60c0015181526020018f60e00151604051602001611f22919060609190911b7fffffffffffffffffffffffffffffffffffffffff00000000000000000000000016815260140190565b6040516020818303038152906040528152508e60e00151604051602001611f74919060609190911b7fffffffffffffffffffffffffffffffffffffffff00000000000000000000000016815260140190565b6040516020818303038152906040528b6040518b63ffffffff1660e01b8152600401611fa8999897969594939291906142e6565b6000604051808303818588803b158015610ed757600080fd5b80158061206157506040517fdd62ed3e00000000000000000000000000000000000000000000000000000000815230600482015273ffffffffffffffffffffffffffffffffffffffff838116602483015284169063dd62ed3e90604401602060405180830381865afa15801561203b573d6000803e3d6000fd5b505050506040513d601f19601f8201168201806040525081019061205f9190613524565b155b6120ed576040517f08c379a000000000000000000000000000000000000000000000000000000000815260206004820152603660248201527f5361666545524332303a20617070726f76652066726f6d206e6f6e2d7a65726f60448201527f20746f206e6f6e2d7a65726f20616c6c6f77616e6365000000000000000000006064820152608401610a5e565b60405173ffffffffffffffffffffffffffffffffffffffff8316602482015260448101829052610f309084907f095ea7b300000000000000000000000000000000000000000000000000000000906064015b604080517fffffffffffffffffffffffffffffffffffffffffffffffffffffffffffffffe08184030181529190526020810180517bffffffffffffffffffffffffffffffffffffffffffffffffffffffff167fffffffff0000000000000000000000000000000000000000000000000000000090931692909217909152612715565b60405173ffffffffffffffffffffffffffffffffffffffff8316602482015260448101829052610f309084907fa9059cbb000000000000000000000000000000000000000000000000000000009060640161213f565b6060600283511015612285576040517f08c379a000000000000000000000000000000000000000000000000000000000815260206004820152601e60248201527f556e697377617056324c6962726172793a20494e56414c49445f5041544800006044820152606401610a5e565b825167ffffffffffffffff81111561229f5761229f612f1b565b6040519080825280602002602001820160405280156122c8578160200160208202803683370190505b50905083816000815181106122df576122df6133d6565b60200260200101818152505060005b600184516122fc91906140c0565b8110156123b5576000806123508887858151811061231c5761231c6133d6565b6020026020010151888660016123329190614392565b81518110612342576123426133d6565b602002602001015188612821565b91509150612378848481518110612369576123696133d6565b60200260200101518383612922565b84612384856001614392565b81518110612394576123946133d6565b602002602001018181525050505080806123ad90613e75565b9150506122ee565b50949350505050565b60008060006123cd8686612a9c565b6040517fffffffffffffffffffffffffffffffffffffffff000000000000000000000000606084811b8216602084015283901b166034820152919350915087906048016040516020818303038152906040528051906020012085604051602001612497939291907fff00000000000000000000000000000000000000000000000000000000000000815260609390931b7fffffffffffffffffffffffffffffffffffffffff0000000000000000000000001660018401526015830191909152603582015260550190565b604080517fffffffffffffffffffffffffffffffffffffffffffffffffffffffffffffffe08184030181529190528051602090910120979650505050505050565b60005b600183516124e991906140c0565b8110156109bd57600080848381518110612505576125056133d6565b60200260200101518584600161251b9190614392565b8151811061252b5761252b6133d6565b60200260200101519150915060006125438383612a9c565b509050600087612554866001614392565b81518110612564576125646133d6565b602002602001015190506000808373ffffffffffffffffffffffffffffffffffffffff168673ffffffffffffffffffffffffffffffffffffffff16146125ac578260006125b0565b6000835b91509150600060028a516125c491906140c0565b88106125d05788612611565b6126117f0000000000000000000000000000000000000000000000000000000000000000878c6126018c6002614392565b815181106111ad576111ad6133d6565b905061265f7f000000000000000000000000000000000000000000000000000000000000000088887f00000000000000000000000000000000000000000000000000000000000000006123be565b73ffffffffffffffffffffffffffffffffffffffff1663022c0d9f84848460006040519080825280601f01601f1916602001820160405280156126a9576020820181803683370190505b506040518563ffffffff1660e01b81526004016126c994939291906143aa565b600060405180830381600087803b1580156126e357600080fd5b505af11580156126f7573d6000803e3d6000fd5b5050505050505050505050808061270d90613e75565b9150506124db565b6000612777826040518060400160405280602081526020017f5361666545524332303a206c6f772d6c6576656c2063616c6c206661696c65648152508573ffffffffffffffffffffffffffffffffffffffff16612c219092919063ffffffff16565b805190915015610f3057808060200190518101906127959190614081565b610f30576040517f08c379a000000000000000000000000000000000000000000000000000000000815260206004820152602a60248201527f5361666545524332303a204552433230206f7065726174696f6e20646964206e60448201527f6f742073756363656564000000000000000000000000000000000000000000006064820152608401610a5e565b60008060006128308686612a9c565b509050600080612842898989896123be565b73ffffffffffffffffffffffffffffffffffffffff16630902f1ac6040518163ffffffff1660e01b8152600401606060405180830381865afa15801561288c573d6000803e3d6000fd5b505050506040513d601f19601f820116820180604052508101906128b09190614403565b506dffffffffffffffffffffffffffff1691506dffffffffffffffffffffffffffff1691508273ffffffffffffffffffffffffffffffffffffffff168873ffffffffffffffffffffffffffffffffffffffff161461290f578082612912565b81815b909a909950975050505050505050565b60008084116129b3576040517f08c379a000000000000000000000000000000000000000000000000000000000815260206004820152602b60248201527f556e697377617056324c6962726172793a20494e53554646494349454e545f4960448201527f4e5055545f414d4f554e540000000000000000000000000000000000000000006064820152608401610a5e565b6000831180156129c35750600082115b612a4f576040517f08c379a000000000000000000000000000000000000000000000000000000000815260206004820152602860248201527f556e697377617056324c6962726172793a20494e53554646494349454e545f4c60448201527f49515549444954590000000000000000000000000000000000000000000000006064820152608401610a5e565b6000612a5d856103e5612c3a565b90506000612a6b8285612c3a565b90506000612a8583612a7f886103e8612c3a565b90612cca565b9050612a918183614256565b979650505050505050565b6000808273ffffffffffffffffffffffffffffffffffffffff168473ffffffffffffffffffffffffffffffffffffffff161415612b5b576040517f08c379a000000000000000000000000000000000000000000000000000000000815260206004820152602560248201527f556e697377617056324c6962726172793a204944454e544943414c5f4144445260448201527f45535345530000000000000000000000000000000000000000000000000000006064820152608401610a5e565b8273ffffffffffffffffffffffffffffffffffffffff168473ffffffffffffffffffffffffffffffffffffffff1610612b95578284612b98565b83835b909250905073ffffffffffffffffffffffffffffffffffffffff8216612c1a576040517f08c379a000000000000000000000000000000000000000000000000000000000815260206004820152601e60248201527f556e697377617056324c6962726172793a205a45524f5f4144445245535300006044820152606401610a5e565b9250929050565b6060612c308484600085612d42565b90505b9392505050565b6000811580612c5e57508282612c508183614219565b9250612c5c9083614256565b145b612cc4576040517f08c379a000000000000000000000000000000000000000000000000000000000815260206004820152601460248201527f64732d6d6174682d6d756c2d6f766572666c6f770000000000000000000000006044820152606401610a5e565b92915050565b600082612cd78382614392565b9150811015612cc4576040517f08c379a000000000000000000000000000000000000000000000000000000000815260206004820152601460248201527f64732d6d6174682d6164642d6f766572666c6f770000000000000000000000006044820152606401610a5e565b606082471015612dd4576040517f08c379a000000000000000000000000000000000000000000000000000000000815260206004820152602660248201527f416464726573733a20696e73756666696369656e742062616c616e636520666f60448201527f722063616c6c00000000000000000000000000000000000000000000000000006064820152608401610a5e565b73ffffffffffffffffffffffffffffffffffffffff85163b612e52576040517f08c379a000000000000000000000000000000000000000000000000000000000815260206004820152601d60248201527f416464726573733a2063616c6c20746f206e6f6e2d636f6e74726163740000006044820152606401610a5e565b6000808673ffffffffffffffffffffffffffffffffffffffff168587604051612e7b9190614453565b60006040518083038185875af1925050503d8060008114612eb8576040519150601f19603f3d011682016040523d82523d6000602084013e612ebd565b606091505b5091509150612a9182828660608315612ed7575081612c33565b825115612ee75782518084602001fd5b816040517f08c379a0000000000000000000000000000000000000000000000000000000008152600401610a5e91906140d7565b7f4e487b7100000000000000000000000000000000000000000000000000000000600052604160045260246000fd5b6040516080810167ffffffffffffffff81118282101715612f6d57612f6d612f1b565b60405290565b6040805190810167ffffffffffffffff81118282101715612f6d57612f6d612f1b565b6040516060810167ffffffffffffffff81118282101715612f6d57612f6d612f1b565b60405160a0810167ffffffffffffffff81118282101715612f6d57612f6d612f1b565b604051610140810167ffffffffffffffff81118282101715612f6d57612f6d612f1b565b604051601f82017fffffffffffffffffffffffffffffffffffffffffffffffffffffffffffffffe016810167ffffffffffffffff8111828210171561304757613047612f1b565b604052919050565b600067ffffffffffffffff82111561306957613069612f1b565b5060051b60200190565b60ff81168114610c7d57600080fd5b600082601f83011261309357600080fd5b813560206130a86130a38361304f565b613000565b82815260059290921b840181019181810190868411156130c757600080fd5b8286015b848110156130e257803583529183019183016130cb565b509695505050505050565b600067ffffffffffffffff82111561310757613107612f1b565b50601f017fffffffffffffffffffffffffffffffffffffffffffffffffffffffffffffffe01660200190565b600082601f83011261314457600080fd5b81356131526130a3826130ed565b81815284602083860101111561316757600080fd5b816020850160208301376000918101602001919091529392505050565b600082601f83011261319557600080fd5b813560206131a56130a38361304f565b82815260059290921b840181019181810190868411156131c457600080fd5b8286015b848110156130e257803567ffffffffffffffff8111156131e85760008081fd5b6131f68986838b0101613133565b8452509183019183016131c8565b60008060006060848603121561321957600080fd5b833567ffffffffffffffff8082111561323157600080fd5b818601915086601f83011261324557600080fd5b813560206132556130a38361304f565b82815260059290921b8401810191818101908a84111561327457600080fd5b948201945b8386101561329b57853561328c81613073565b82529482019490820190613279565b975050870135925050808211156132b157600080fd5b6132bd87838801613082565b935060408601359150808211156132d357600080fd5b506132e086828701613184565b9150509250925092565b61ffff81168114610c7d57600080fd5b73ffffffffffffffffffffffffffffffffffffffff81168114610c7d57600080fd5b60008060008060008060c0878903121561333557600080fd5b8635613340816132ea565b9550602087013567ffffffffffffffff8082111561335d57600080fd5b6133698a838b01613133565b96506040890135955060608901359150613382826132fa565b9093506080880135925060a0880135908082111561339f57600080fd5b506133ac89828a01613133565b9150509295509295509295565b6000602082840312156133cb57600080fd5b8135612c33816132fa565b7f4e487b7100000000000000000000000000000000000000000000000000000000600052603260045260246000fd5b8051613410816132fa565b919050565b8051801515811461341057600080fd5b600080600080600060a0868803121561343d57600080fd5b8551613448816132fa565b945061345660208701613415565b9350604086015161346681613073565b6060870151608090970151959894975095949392505050565b6000806000806080858703121561349557600080fd5b84516134a0816132fa565b60208601519094506134b1816132fa565b6040860151606090960151949790965092505050565b600080600080600060a086880312156134df57600080fd5b85516134ea816132fa565b60208701519095506134fb816132fa565b604087015160608801519195509350915061351860808701613415565b90509295509295909350565b60006020828403121561353657600080fd5b5051919050565b60008060006060848603121561355257600080fd5b835161355d816132fa565b602085015190935061356e816132fa565b80925050604084015190509250925092565b6000806040838503121561359357600080fd5b825161359e816132fa565b60208401519092506135af816132fa565b809150509250929050565b600080600080608085870312156135d057600080fd5b845193506020808601519350604086015167ffffffffffffffff8111156135f657600080fd5b8601601f8101881361360757600080fd5b80516136156130a38261304f565b81815260059190911b8201830190838101908a83111561363457600080fd5b928401925b8284101561365b57835161364c816132fa565b82529284019290840190613639565b809650505050505061366f60608601613405565b905092959194509250565b60005b8381101561369557818101518382015260200161367d565b838111156109bd5750506000910152565b600082601f8301126136b757600080fd5b81516136c56130a3826130ed565b8181528460208386010111156136da57600080fd5b6136eb82602083016020870161367a565b949350505050565b6000602080838503121561370657600080fd5b825167ffffffffffffffff8082111561371e57600080fd5b908401906080828703121561373257600080fd5b61373a612f4a565b8251613745816132fa565b815282840151848201526040808401518183015260608401518381111561376b57600080fd5b80850194505087601f85011261378057600080fd5b835161378e6130a38261304f565b81815260059190911b8501860190868101908a8311156137ad57600080fd5b8787015b83811015613847578051878111156137c95760008081fd5b8801808d037fffffffffffffffffffffffffffffffffffffffffffffffffffffffffffffffe0018613156137fd5760008081fd5b613805612f73565b8a820151613812816132fa565b815281870151898111156138265760008081fd5b6138348f8d838601016136a6565b828d0152508452509188019188016137b1565b506060850152509198975050505050505050565b600082601f83011261386c57600080fd5b8151602061387c6130a38361304f565b82815260059290921b8401810191818101908684111561389b57600080fd5b8286015b848110156130e257805167ffffffffffffffff808211156138c05760008081fd5b81890191506080807fffffffffffffffffffffffffffffffffffffffffffffffffffffffffffffffe0848d030112156138f95760008081fd5b613901612f4a565b8784015161390e816132fa565b815260408481015161391f816132fa565b828a015260608581015185811681146139385760008081fd5b8383015292850151928484111561395157600091508182fd5b61395f8e8b868901016136a6565b9083015250865250505091830191830161389f565b600082601f83011261398557600080fd5b815160206139956130a38361304f565b82815260079290921b840181019181810190868411156139b457600080fd5b8286015b848110156130e257608081890312156139d15760008081fd5b6139d9612f4a565b81516139e4816132fa565b8152818501516139f3816132fa565b818601526040613a04838201613415565b90820152606082810151908201528352918301916080016139b8565b60006020808385031215613a3357600080fd5b825167ffffffffffffffff80821115613a4b57600080fd5b9084019060608287031215613a5f57600080fd5b613a67612f96565b825182811115613a7657600080fd5b8301601f81018813613a8757600080fd5b8051613a956130a38261304f565b81815260059190911b8201860190868101908a831115613ab457600080fd5b8784015b83811015613b7c57805187811115613acf57600080fd5b850160a0818e037fffffffffffffffffffffffffffffffffffffffffffffffffffffffffffffffe0011215613b0357600080fd5b613b0b612fb9565b8a820151613b18816132fa565b81526040820151613b28816132fa565b818c0152613b3860608301613415565b60408201526080820151606082015260a082015189811115613b5a5760008081fd5b613b688f8d838601016136a6565b608083015250845250918801918801613ab8565b5084525050508284015182811115613b9357600080fd5b613b9f8882860161385b565b85830152506040830151935081841115613bb857600080fd5b613bc487858501613974565b60408201529695505050505050565b8051613410816132ea565b600082601f830112613bef57600080fd5b81516020613bff6130a38361304f565b82815260059290921b84018101918181019086841115613c1e57600080fd5b8286015b848110156130e2578051613c3581613073565b8352918301918301613c22565b600082601f830112613c5357600080fd5b81516020613c636130a38361304f565b82815260059290921b84018101918181019086841115613c8257600080fd5b8286015b848110156130e25780518352918301918301613c86565b600082601f830112613cae57600080fd5b81516020613cbe6130a38361304f565b82815260059290921b84018101918181019086841115613cdd57600080fd5b8286015b848110156130e257805167ffffffffffffffff811115613d015760008081fd5b613d0f8986838b01016136a6565b845250918301918301613ce1565b6000806000808486036101a0811215613d3557600080fd5b61014080821215613d4557600080fd5b613d4d612fdc565b9150613d5887613bd3565b8252613d6660208801613405565b602083015260408701516040830152606087015160608301526080870151608083015260a087015160a083015260c087015160c0830152613da960e08801613405565b60e0830152610100613dbc818901613405565b90830152610120878101519083015286015190945067ffffffffffffffff80821115613de757600080fd5b613df388838901613bde565b9450610160870151915080821115613e0a57600080fd5b613e1688838901613c42565b9350610180870151915080821115613e2d57600080fd5b50613e3a87828801613c9d565b91505092959194509250565b7f4e487b7100000000000000000000000000000000000000000000000000000000600052601160045260246000fd5b60007fffffffffffffffffffffffffffffffffffffffffffffffffffffffffffffffff821415613ea757613ea7613e46565b5060010190565b60008060008060808587031215613ec457600080fd5b8451613ecf816132fa565b602086015190945067ffffffffffffffff80821115613eed57600080fd5b613ef988838901613bde565b94506040870151915080821115613f0f57600080fd5b613f1b88838901613c42565b93506060870151915080821115613e2d57600080fd5b600081518084526020808501945080840160005b83811015613f6457815160ff1687529582019590820190600101613f45565b509495945050505050565b600081518084526020808501945080840160005b83811015613f6457815187529582019590820190600101613f83565b60008151808452613fb781602086016020860161367a565b601f017fffffffffffffffffffffffffffffffffffffffffffffffffffffffffffffffe0169290920160200192915050565b600081518084526020808501808196508360051b8101915082860160005b8581101561403157828403895261401f848351613f9f565b98850198935090840190600101614007565b5091979650505050505050565b6060815260006140516060830186613f31565b82810360208401526140638186613f6f565b905082810360408401526140778185613fe9565b9695505050505050565b60006020828403121561409357600080fd5b612c3382613415565b600080604083850312156140af57600080fd5b505080516020909101519092909150565b6000828210156140d2576140d2613e46565b500390565b602081526000612c336020830184613f9f565b600181815b8085111561414357817fffffffffffffffffffffffffffffffffffffffffffffffffffffffffffffffff0482111561412957614129613e46565b8085161561413657918102915b93841c93908002906140ef565b509250929050565b60008261415a57506001612cc4565b8161416757506000612cc4565b816001811461417d5760028114614187576141a3565b6001915050612cc4565b60ff84111561419857614198613e46565b50506001821b612cc4565b5060208310610133831016604e8410600b84101617156141c6575081810a612cc4565b6141d083836140ea565b807fffffffffffffffffffffffffffffffffffffffffffffffffffffffffffffffff0482111561420257614202613e46565b029392505050565b6000612c3360ff84168361414b565b6000817fffffffffffffffffffffffffffffffffffffffffffffffffffffffffffffffff048311821515161561425157614251613e46565b500290565b60008261428c577f4e487b7100000000000000000000000000000000000000000000000000000000600052601260045260246000fd5b500490565b73ffffffffffffffffffffffffffffffffffffffff851681526080602082015260006142c06080830186613f31565b82810360408401526142d28186613f6f565b90508281036060840152612a918185613fe9565b600061012061ffff8c1683528a602084015289604084015273ffffffffffffffffffffffffffffffffffffffff891660608401528760808401528660a08401528060c084015285518184015250602085015161014083015260408501516060610160840152614359610180840182613f9f565b905082810360e084015261436d8186613f9f565b90508281036101008401526143828185613f9f565b9c9b505050505050505050505050565b600082198211156143a5576143a5613e46565b500190565b84815283602082015273ffffffffffffffffffffffffffffffffffffffff831660408201526080606082015260006140776080830184613f9f565b80516dffffffffffffffffffffffffffff8116811461341057600080fd5b60008060006060848603121561441857600080fd5b614421846143e5565b925061442f602085016143e5565b9150604084015163ffffffff8116811461444857600080fd5b809150509250925092565b6000825161446581846020870161367a565b919091019291505056fea264697066735822122090bde50db035ddbcbca4175629f34bc9537a645253664267b4e8a602e839585264736f6c634300080b0033",
  "devdoc": {
    "kind": "dev",
    "methods": {},
    "version": 1
  },
  "userdoc": {
    "kind": "user",
    "methods": {},
    "version": 1
  },
  "storageLayout": {
    "storage": [],
    "types": null
  }
}