{
  "address": "0x2f686751b19a9d91cc3d57d90150bc767f050066",
  "abi": [
    {
      "inputs": [
        {
          "internalType": "address",
          "name": "_bentoBox",
          "type": "address"
        }
      ],
      "stateMutability": "nonpayable",
      "type": "constructor"
    },
    {
      "inputs": [],
      "name": "bentoBox",
      "outputs": [
        {
          "internalType": "contract IBentoBoxMinimal",
          "name": "",
          "type": "address"
        }
      ],
      "stateMutability": "view",
      "type": "function"
    },
    {
      "inputs": [
        {
          "internalType": "address",
          "name": "tokenIn",
          "type": "address"
        },
        {
          "internalType": "uint256",
          "name": "amountIn",
          "type": "uint256"
        },
        {
          "internalType": "address",
          "name": "tokenOut",
          "type": "address"
        },
        {
          "internalType": "uint256",
          "name": "amountOutMin",
          "type": "uint256"
        },
        {
          "internalType": "address",
          "name": "to",
          "type": "address"
        },
        {
          "internalType": "bytes",
          "name": "route",
          "type": "bytes"
        }
      ],
      "name": "processRoute",
      "outputs": [
        {
          "internalType": "uint256",
          "name": "amountOut",
          "type": "uint256"
        }
      ],
      "stateMutability": "payable",
      "type": "function"
    },
    {
      "inputs": [
        {
          "internalType": "address payable",
          "name": "transferValueTo",
          "type": "address"
        },
        {
          "internalType": "uint256",
          "name": "amountValueTransfer",
          "type": "uint256"
        },
        {
          "internalType": "address",
          "name": "tokenIn",
          "type": "address"
        },
        {
          "internalType": "uint256",
          "name": "amountIn",
          "type": "uint256"
        },
        {
          "internalType": "address",
          "name": "tokenOut",
          "type": "address"
        },
        {
          "internalType": "uint256",
          "name": "amountOutMin",
          "type": "uint256"
        },
        {
          "internalType": "address",
          "name": "to",
          "type": "address"
        },
        {
          "internalType": "bytes",
          "name": "route",
          "type": "bytes"
        }
      ],
      "name": "transferValueAndprocessRoute",
      "outputs": [
        {
          "internalType": "uint256",
          "name": "amountOut",
          "type": "uint256"
        }
      ],
      "stateMutability": "payable",
      "type": "function"
    },
    {
      "inputs": [
        {
          "internalType": "int256",
          "name": "amount0Delta",
          "type": "int256"
        },
        {
          "internalType": "int256",
          "name": "amount1Delta",
          "type": "int256"
        },
        {
          "internalType": "bytes",
          "name": "data",
          "type": "bytes"
        }
      ],
      "name": "tridentCLSwapCallback",
      "outputs": [],
      "stateMutability": "nonpayable",
      "type": "function"
    },
    {
      "inputs": [
        {
          "internalType": "int256",
          "name": "amount0Delta",
          "type": "int256"
        },
        {
          "internalType": "int256",
          "name": "amount1Delta",
          "type": "int256"
        },
        {
          "internalType": "bytes",
          "name": "data",
          "type": "bytes"
        }
      ],
      "name": "uniswapV3SwapCallback",
      "outputs": [],
      "stateMutability": "nonpayable",
      "type": "function"
    },
    {
      "stateMutability": "payable",
      "type": "receive"
    }
  ],
  "transactionHash": "0x9032604712302c5ea7483d8119dd2ee796a8f46abd440086999af71dd6a67466",
  "args": [
    "0x0000000000000000000000000000000000000000"
  ],
  "numDeployments": 1,
  "solcInputHash": "a7878085ab631ca62f2f6e42dc5adf9f",
  "bytecode": "0x60a0604052600180553480156200001557600080fd5b5060405162002f4c38038062002f4c83398101604081905262000038916200005d565b6001600160a01b0316608052600080546001600160a01b03191660011790556200008f565b6000602082840312156200007057600080fd5b81516001600160a01b03811681146200008857600080fd5b9392505050565b608051612e55620000f76000396000818160a201528181610f7301528181611b1701528181611b5e01528181611bc801528181611c8d01528181611d3a01528181611e1e01528181611f0f01528181611fbb0152818161208a01526121860152612e556000f3fe60806040526004361061005e5760003560e01c806393b3774c1161004357806393b3774c146100e9578063e2a7b501146100fc578063fa461e331461011e57600080fd5b80632646478b1461006a5780636b2ace871461009057600080fd5b3661006557005b600080fd5b61007d610078366004612793565b61013e565b6040519081526020015b60405180910390f35b34801561009c57600080fd5b506100c47f000000000000000000000000000000000000000000000000000000000000000081565b60405173ffffffffffffffffffffffffffffffffffffffff9091168152602001610087565b61007d6100f736600461281a565b6101d3565b34801561010857600080fd5b5061011c6101173660046128bf565b610325565b005b34801561012a57600080fd5b5061011c6101393660046128bf565b61051a565b60006001546001146101b1576040517f08c379a000000000000000000000000000000000000000000000000000000000815260206004820152601860248201527f526f75746550726f636573736f72206973206c6f636b6564000000000000000060448201526064015b60405180910390fd5b60026001556101c48787878787876106a0565b60018055979650505050505050565b6000600154600114610241576040517f08c379a000000000000000000000000000000000000000000000000000000000815260206004820152601860248201527f526f75746550726f636573736f72206973206c6f636b6564000000000000000060448201526064016101a8565b6002600155604051600090819073ffffffffffffffffffffffffffffffffffffffff8c16908b908381818185875af1925050503d80600081146102a0576040519150601f19603f3d011682016040523d82523d6000602084013e6102a5565b606091505b509150915081816040516020016102bc919061296b565b60405160208183030381529060405290610303576040517f08c379a00000000000000000000000000000000000000000000000000000000081526004016101a891906129d1565b506103128989898989896106a0565b600180559b9a5050505050505050505050565b60005473ffffffffffffffffffffffffffffffffffffffff1633146103cc576040517f08c379a000000000000000000000000000000000000000000000000000000000815260206004820152603e60248201527f526f75746550726f636573736f722e54726964656e74434c5377617043616c6c60448201527f6261636b3a2063616c6c2066726f6d20756e6b6e6f776e20736f75726365000060648201526084016101a8565b600080547fffffffffffffffffffffffff000000000000000000000000000000000000000016600117815580610404838501856129eb565b9150915060008087136104175785610419565b865b9050600081136104ab576040517f08c379a000000000000000000000000000000000000000000000000000000000815260206004820152603960248201527f526f75746550726f636573736f722e54726964656e74434c5377617043616c6c60448201527f6261636b3a206e6f7420706f73697469766520616d6f756e740000000000000060648201526084016101a8565b73ffffffffffffffffffffffffffffffffffffffff82163014156104ef576104ea73ffffffffffffffffffffffffffffffffffffffff84163383610c7c565b610511565b61051173ffffffffffffffffffffffffffffffffffffffff8416833384610d55565b50505050505050565b60005473ffffffffffffffffffffffffffffffffffffffff1633146105c1576040517f08c379a000000000000000000000000000000000000000000000000000000000815260206004820152603e60248201527f526f75746550726f636573736f722e756e697377617056335377617043616c6c60448201527f6261636b3a2063616c6c2066726f6d20756e6b6e6f776e20736f75726365000060648201526084016101a8565b600080547fffffffffffffffffffffffff0000000000000000000000000000000000000000166001178155806105f9838501856129eb565b91509150600080871361060c578561060e565b865b9050600081136104ab576040517f08c379a000000000000000000000000000000000000000000000000000000000815260206004820152603960248201527f526f75746550726f636573736f722e756e697377617056335377617043616c6c60448201527f6261636b3a206e6f7420706f73697469766520616d6f756e740000000000000060648201526084016101a8565b60008073ffffffffffffffffffffffffffffffffffffffff881673eeeeeeeeeeeeeeeeeeeeeeeeeeeeeeeeeeeeeeee14610767576040517f70a0823100000000000000000000000000000000000000000000000000000000815233600482015273ffffffffffffffffffffffffffffffffffffffff8916906370a0823190602401602060405180830381865afa15801561073e573d6000803e3d6000fd5b505050506040513d601f19601f820116820180604052508101906107629190612a24565b610769565b475b9050600073ffffffffffffffffffffffffffffffffffffffff871673eeeeeeeeeeeeeeeeeeeeeeeeeeeeeeeeeeeeeeee14610833576040517f70a0823100000000000000000000000000000000000000000000000000000000815273ffffffffffffffffffffffffffffffffffffffff86811660048301528816906370a0823190602401602060405180830381865afa15801561080a573d6000803e3d6000fd5b505050506040513d601f19601f8201168201806040525081019061082e9190612a24565b61084c565b8473ffffffffffffffffffffffffffffffffffffffff16315b604080518082019091528581528551860160208201529091505b8051602082015111156109835760006108858280516001018051915290565b90508060ff16600114156108a15761089c82610db9565b61097d565b8060ff16600214156108b75761089c828b610e96565b8060ff16600314156108cc5761089c82610eb6565b8060ff16600414156108e15761089c82610edb565b8060ff16600514156108f65761089c82610efc565b6040517f08c379a0000000000000000000000000000000000000000000000000000000008152602060048201526024808201527f526f75746550726f636573736f723a20556e6b6e6f776e20636f6d6d616e642060448201527f636f64650000000000000000000000000000000000000000000000000000000060648201526084016101a8565b50610866565b600073ffffffffffffffffffffffffffffffffffffffff8b1673eeeeeeeeeeeeeeeeeeeeeeeeeeeeeeeeeeeeeeee14610a49576040517f70a0823100000000000000000000000000000000000000000000000000000000815233600482015273ffffffffffffffffffffffffffffffffffffffff8c16906370a0823190602401602060405180830381865afa158015610a20573d6000803e3d6000fd5b505050506040513d601f19601f82011682018060405250810190610a449190612a24565b610a4b565b475b905083610a588b83612a6c565b1015610ae6576040517f08c379a000000000000000000000000000000000000000000000000000000000815260206004820152602f60248201527f526f75746550726f636573736f723a204d696e696d616c20696d70757420626160448201527f6c616e63652076696f6c6174696f6e000000000000000000000000000000000060648201526084016101a8565b600073ffffffffffffffffffffffffffffffffffffffff8a1673eeeeeeeeeeeeeeeeeeeeeeeeeeeeeeeeeeeeeeee14610bae576040517f70a0823100000000000000000000000000000000000000000000000000000000815273ffffffffffffffffffffffffffffffffffffffff89811660048301528b16906370a0823190602401602060405180830381865afa158015610b85573d6000803e3d6000fd5b505050506040513d601f19601f82011682018060405250810190610ba99190612a24565b610bc7565b8773ffffffffffffffffffffffffffffffffffffffff16315b9050610bd38985612a6c565b811015610c62576040517f08c379a000000000000000000000000000000000000000000000000000000000815260206004820152602f60248201527f526f75746550726f636573736f723a204d696e696d616c206f7570757420626160448201527f6c616e63652076696f6c6174696f6e000000000000000000000000000000000060648201526084016101a8565b610c6c8482612a84565b9c9b505050505050505050505050565b60405173ffffffffffffffffffffffffffffffffffffffff8316602482015260448101829052610d509084907fa9059cbb00000000000000000000000000000000000000000000000000000000906064015b604080517fffffffffffffffffffffffffffffffffffffffffffffffffffffffffffffffe08184030181529190526020810180517bffffffffffffffffffffffffffffffffffffffffffffffffffffffff167fffffffff0000000000000000000000000000000000000000000000000000000090931692909217909152611057565b505050565b60405173ffffffffffffffffffffffffffffffffffffffff80851660248301528316604482015260648101829052610db39085907f23b872dd0000000000000000000000000000000000000000000000000000000090608401610cce565b50505050565b6000610dcb8280516014018051915290565b6040517f70a0823100000000000000000000000000000000000000000000000000000000815230600482015290915060009073ffffffffffffffffffffffffffffffffffffffff8316906370a0823190602401602060405180830381865afa158015610e3b573d6000803e3d6000fd5b505050506040513d601f19601f82011682018060405250810190610e5f9190612a24565b90508015610e8a577fffffffffffffffffffffffffffffffffffffffffffffffffffffffffffffffff015b610d5083308484611163565b6000610ea88380516014018051915290565b9050610d5083338385611163565b47610ed7823073eeeeeeeeeeeeeeeeeeeeeeeeeeeeeeeeeeeeeeee84611163565b5050565b6000610eed8280516014018051915290565b9050610ed782308360006111c6565b6000610f0e8280516014018051915290565b90506000610f228380516001018051915290565b6040517ff7888aec00000000000000000000000000000000000000000000000000000000815273ffffffffffffffffffffffffffffffffffffffff84811660048301523060248301529192506000917f0000000000000000000000000000000000000000000000000000000000000000169063f7888aec90604401602060405180830381865afa158015610fba573d6000803e3d6000fd5b505050506040513d601f19601f82011682018060405250810190610fde9190612a24565b90508015611009577fffffffffffffffffffffffffffffffffffffffffffffffffffffffffffffffff015b60005b8260ff168110156110505760006110298680516002018051915290565b61ffff8082168502049384900393909150611046873088846111c6565b505060010161100c565b5050505050565b60006110b9826040518060400160405280602081526020017f5361666545524332303a206c6f772d6c6576656c2063616c6c206661696c65648152508573ffffffffffffffffffffffffffffffffffffffff166112f39092919063ffffffff16565b805190915015610d5057808060200190518101906110d79190612a9b565b610d50576040517f08c379a000000000000000000000000000000000000000000000000000000000815260206004820152602a60248201527f5361666545524332303a204552433230206f7065726174696f6e20646964206e60448201527f6f7420737563636565640000000000000000000000000000000000000000000060648201526084016101a8565b60006111758580516001018051915290565b905060005b8160ff168110156111be5760006111978780516002018051915290565b61ffff80821686020494859003949091506111b4888888846111c6565b505060010161117a565b505050505050565b60006111d88580516001018051915290565b905060ff81166111f3576111ee8585858561130a565b611050565b8060ff166001141561120b576111ee85858585611683565b8060ff1660021415611223576111ee858585856118a7565b8060ff166003141561123b576111ee85858585611aa6565b8060ff1660041415611253576111ee85858585612100565b8060ff166005141561126b576111ee85858585612278565b6040517f08c379a000000000000000000000000000000000000000000000000000000000815260206004820152602160248201527f526f75746550726f636573736f723a20556e6b6e6f776e20706f6f6c2074797060448201527f650000000000000000000000000000000000000000000000000000000000000060648201526084016101a8565b6060611302848460008561249f565b949350505050565b600061131c8580516014018051915290565b905060006113308680516001018051915290565b905060006113448780516014018051915290565b90506000808473ffffffffffffffffffffffffffffffffffffffff16630902f1ac6040518163ffffffff1660e01b8152600401606060405180830381865afa158015611394573d6000803e3d6000fd5b505050506040513d601f19601f820116820180604052508101906113b89190612ae0565b506dffffffffffffffffffffffffffff1691506dffffffffffffffffffffffffffff1691506000821180156113ed5750600081115b611453576040517f08c379a000000000000000000000000000000000000000000000000000000000815260206004820152601360248201527f57726f6e6720706f6f6c2072657365727665730000000000000000000000000060448201526064016101a8565b6000808560ff1660011461146857828461146b565b83835b91509150876000146114dd5773ffffffffffffffffffffffffffffffffffffffff8a163014156114bb576114b673ffffffffffffffffffffffffffffffffffffffff8a16888a610c7c565b61157d565b6114b673ffffffffffffffffffffffffffffffffffffffff8a168b898b610d55565b6040517f70a0823100000000000000000000000000000000000000000000000000000000815273ffffffffffffffffffffffffffffffffffffffff88811660048301528391908b16906370a0823190602401602060405180830381865afa15801561154c573d6000803e3d6000fd5b505050506040513d601f19601f820116820180604052508101906115709190612a24565b61157a9190612a84565b97505b600061158b896103e5612b30565b905060008161159c856103e8612b30565b6115a69190612a6c565b6115b08484612b30565b6115ba9190612b6d565b90506000808960ff166001146115d2578260006115d6565b6000835b604080516000815260208101918290527f022c0d9f00000000000000000000000000000000000000000000000000000000909152919350915073ffffffffffffffffffffffffffffffffffffffff8c169063022c0d9f9061164090859085908e9060248101612ba8565b600060405180830381600087803b15801561165a57600080fd5b505af115801561166e573d6000803e3d6000fd5b50505050505050505050505050505050505050565b60006116958580516014018051915290565b90506000806116aa8780516001018051915290565b60ff1611905060006116c28780516014018051915290565b600080547fffffffffffffffffffffffff00000000000000000000000000000000000000001673ffffffffffffffffffffffffffffffffffffffff861690811790915590915063128acb088284878161173957611734600173fffd8963efd1fc6a506488495d951d5263988d26612bed565b611749565b6117496401000276a36001612c22565b6040805173ffffffffffffffffffffffffffffffffffffffff8d811660208301528e168183015281518082038301815260608201928390527fffffffff0000000000000000000000000000000000000000000000000000000060e089901b169092526117bc959493929190606401612c5a565b60408051808303816000875af11580156117da573d6000803e3d6000fd5b505050506040513d601f19601f820116820180604052508101906117fe9190612ca1565b505060005473ffffffffffffffffffffffffffffffffffffffff16600114610511576040517f08c379a0000000000000000000000000000000000000000000000000000000008152602060048201526024808201527f526f75746550726f636573736f722e73776170556e6956333a20756e6578706560448201527f637465640000000000000000000000000000000000000000000000000000000060648201526084016101a8565b60006118b98580516001018051915290565b905060006118cd8680516014018051915290565b90506001808316141561199c5760006118ec8780516014018051915290565b905060028316611958578073ffffffffffffffffffffffffffffffffffffffff1663d0e30db0856040518263ffffffff1660e01b81526004016000604051808303818588803b15801561193e57600080fd5b505af1158015611952573d6000803e3d6000fd5b50505050505b73ffffffffffffffffffffffffffffffffffffffff821630146119965761199673ffffffffffffffffffffffffffffffffffffffff82168386610c7c565b506111be565b60028216611a645773ffffffffffffffffffffffffffffffffffffffff851630146119e3576119e373ffffffffffffffffffffffffffffffffffffffff8516863086610d55565b6040517f2e1a7d4d0000000000000000000000000000000000000000000000000000000081526004810184905273ffffffffffffffffffffffffffffffffffffffff851690632e1a7d4d90602401600060405180830381600087803b158015611a4b57600080fd5b505af1158015611a5f573d6000803e3d6000fd5b505050505b60405173ffffffffffffffffffffffffffffffffffffffff8216904780156108fc02916000818181858888f19350505050158015610511573d6000803e3d6000fd5b6000611ab88580516001018051915290565b90506000611acc8680516014018051915290565b905060ff821615611eaf578215611b835773ffffffffffffffffffffffffffffffffffffffff8516301415611b4157611b3c73ffffffffffffffffffffffffffffffffffffffff85167f000000000000000000000000000000000000000000000000000000000000000085610c7c565b611dd9565b611b3c73ffffffffffffffffffffffffffffffffffffffff8516867f000000000000000000000000000000000000000000000000000000000000000086610d55565b6040517f4ffe34db00000000000000000000000000000000000000000000000000000000815273ffffffffffffffffffffffffffffffffffffffff85811660048301527f00000000000000000000000000000000000000000000000000000000000000001690634ffe34db906024016040805180830381865afa158015611c0e573d6000803e3d6000fd5b505050506040513d601f19601f82011682018060405250810190611c329190612ce5565b516040517fdf23b45b00000000000000000000000000000000000000000000000000000000815273ffffffffffffffffffffffffffffffffffffffff86811660048301526fffffffffffffffffffffffffffffffff909216917f0000000000000000000000000000000000000000000000000000000000000000169063df23b45b90602401606060405180830381865afa158015611cd4573d6000803e3d6000fd5b505050506040513d601f19601f82011682018060405250810190611cf89190612d58565b60409081015190517f70a0823100000000000000000000000000000000000000000000000000000000815273ffffffffffffffffffffffffffffffffffffffff7f0000000000000000000000000000000000000000000000000000000000000000811660048301526fffffffffffffffffffffffffffffffff909216918716906370a0823190602401602060405180830381865afa158015611d9e573d6000803e3d6000fd5b505050506040513d601f19601f82011682018060405250810190611dc29190612a24565b611dcc9190612a6c565b611dd69190612a84565b92505b6040517f02b9446c00000000000000000000000000000000000000000000000000000000815273ffffffffffffffffffffffffffffffffffffffff85811660048301527f000000000000000000000000000000000000000000000000000000000000000081166024830181905290831660448301526064820185905260006084830152906302b9446c9060a40160408051808303816000875af1158015611e84573d6000803e3d6000fd5b505050506040513d601f19601f82011682018060405250810190611ea89190612ca1565b50506111be565b8215611f70576040517ff18d03cc00000000000000000000000000000000000000000000000000000000815273ffffffffffffffffffffffffffffffffffffffff85811660048301528681166024830152306044830152606482018590527f0000000000000000000000000000000000000000000000000000000000000000169063f18d03cc90608401600060405180830381600087803b158015611f5357600080fd5b505af1158015611f67573d6000803e3d6000fd5b50505050612029565b6040517ff7888aec00000000000000000000000000000000000000000000000000000000815273ffffffffffffffffffffffffffffffffffffffff85811660048301523060248301527f0000000000000000000000000000000000000000000000000000000000000000169063f7888aec90604401602060405180830381865afa158015612002573d6000803e3d6000fd5b505050506040513d601f19601f820116820180604052508101906120269190612a24565b92505b6040517f97da6d3000000000000000000000000000000000000000000000000000000000815273ffffffffffffffffffffffffffffffffffffffff8581166004830152306024830152828116604483015260006064830152608482018590527f000000000000000000000000000000000000000000000000000000000000000016906397da6d309060a40160408051808303816000875af11580156120d2573d6000803e3d6000fd5b505050506040513d601f19601f820116820180604052508101906120f69190612ca1565b5050505050505050565b60006121128580516014018051915290565b85516020808201805190920101875290915082156121e3576040517ff18d03cc00000000000000000000000000000000000000000000000000000000815273ffffffffffffffffffffffffffffffffffffffff858116600483015286811660248301528381166044830152606482018590527f0000000000000000000000000000000000000000000000000000000000000000169063f18d03cc90608401600060405180830381600087803b1580156121ca57600080fd5b505af11580156121de573d6000803e3d6000fd5b505050505b6040517f627dd56a00000000000000000000000000000000000000000000000000000000815273ffffffffffffffffffffffffffffffffffffffff83169063627dd56a906122359084906004016129d1565b6020604051808303816000875af1158015612254573d6000803e3d6000fd5b505050506040513d601f19601f820116820180604052508101906105119190612a24565b600061228a8580516014018051915290565b905060008061229f8780516001018051915290565b60ff1611905060006122b78780516014018051915290565b600080547fffffffffffffffffffffffff00000000000000000000000000000000000000001673ffffffffffffffffffffffffffffffffffffffff86169081179091559091506321a761188284878161232e57612329600173fffd8963efd1fc6a506488495d951d5263988d26612bed565b61233e565b61233e6401000276a36001612c22565b6040805173ffffffffffffffffffffffffffffffffffffffff8d811660208301528e168183015281518082038301815260608201928390527fffffffff0000000000000000000000000000000000000000000000000000000060e089901b169092526123b39594939291600091606401612dc4565b60408051808303816000875af11580156123d1573d6000803e3d6000fd5b505050506040513d601f19601f820116820180604052508101906123f59190612ca1565b505060005473ffffffffffffffffffffffffffffffffffffffff16600114610511576040517f08c379a000000000000000000000000000000000000000000000000000000000815260206004820152602860248201527f526f75746550726f636573736f722e7377617054726964656e74434c3a20756e60448201527f657870656374656400000000000000000000000000000000000000000000000060648201526084016101a8565b606082471015612531576040517f08c379a000000000000000000000000000000000000000000000000000000000815260206004820152602660248201527f416464726573733a20696e73756666696369656e742062616c616e636520666f60448201527f722063616c6c000000000000000000000000000000000000000000000000000060648201526084016101a8565b6000808673ffffffffffffffffffffffffffffffffffffffff16858760405161255a919061296b565b60006040518083038185875af1925050503d8060008114612597576040519150601f19603f3d011682016040523d82523d6000602084013e61259c565b606091505b50915091506125ad878383876125b8565b979650505050505050565b6060831561264b5782516126445773ffffffffffffffffffffffffffffffffffffffff85163b612644576040517f08c379a000000000000000000000000000000000000000000000000000000000815260206004820152601d60248201527f416464726573733a2063616c6c20746f206e6f6e2d636f6e747261637400000060448201526064016101a8565b5081611302565b61130283838151156126605781518083602001fd5b806040517f08c379a00000000000000000000000000000000000000000000000000000000081526004016101a891906129d1565b73ffffffffffffffffffffffffffffffffffffffff811681146126b657600080fd5b50565b7f4e487b7100000000000000000000000000000000000000000000000000000000600052604160045260246000fd5b600082601f8301126126f957600080fd5b813567ffffffffffffffff80821115612714576127146126b9565b604051601f83017fffffffffffffffffffffffffffffffffffffffffffffffffffffffffffffffe0908116603f0116810190828211818310171561275a5761275a6126b9565b8160405283815286602085880101111561277357600080fd5b836020870160208301376000602085830101528094505050505092915050565b60008060008060008060c087890312156127ac57600080fd5b86356127b781612694565b95506020870135945060408701356127ce81612694565b93506060870135925060808701356127e581612694565b915060a087013567ffffffffffffffff81111561280157600080fd5b61280d89828a016126e8565b9150509295509295509295565b600080600080600080600080610100898b03121561283757600080fd5b883561284281612694565b975060208901359650604089013561285981612694565b955060608901359450608089013561287081612694565b935060a0890135925060c089013561288781612694565b915060e089013567ffffffffffffffff8111156128a357600080fd5b6128af8b828c016126e8565b9150509295985092959890939650565b600080600080606085870312156128d557600080fd5b8435935060208501359250604085013567ffffffffffffffff808211156128fb57600080fd5b818701915087601f83011261290f57600080fd5b81358181111561291e57600080fd5b88602082850101111561293057600080fd5b95989497505060200194505050565b60005b8381101561295a578181015183820152602001612942565b83811115610db35750506000910152565b6000825161297d81846020870161293f565b9190910192915050565b6000815180845261299f81602086016020860161293f565b601f017fffffffffffffffffffffffffffffffffffffffffffffffffffffffffffffffe0169290920160200192915050565b6020815260006129e46020830184612987565b9392505050565b600080604083850312156129fe57600080fd5b8235612a0981612694565b91506020830135612a1981612694565b809150509250929050565b600060208284031215612a3657600080fd5b5051919050565b7f4e487b7100000000000000000000000000000000000000000000000000000000600052601160045260246000fd5b60008219821115612a7f57612a7f612a3d565b500190565b600082821015612a9657612a96612a3d565b500390565b600060208284031215612aad57600080fd5b815180151581146129e457600080fd5b80516dffffffffffffffffffffffffffff81168114612adb57600080fd5b919050565b600080600060608486031215612af557600080fd5b612afe84612abd565b9250612b0c60208501612abd565b9150604084015163ffffffff81168114612b2557600080fd5b809150509250925092565b6000817fffffffffffffffffffffffffffffffffffffffffffffffffffffffffffffffff0483118215151615612b6857612b68612a3d565b500290565b600082612ba3577f4e487b7100000000000000000000000000000000000000000000000000000000600052601260045260246000fd5b500490565b84815283602082015273ffffffffffffffffffffffffffffffffffffffff83166040820152608060608201526000612be36080830184612987565b9695505050505050565b600073ffffffffffffffffffffffffffffffffffffffff83811690831681811015612c1a57612c1a612a3d565b039392505050565b600073ffffffffffffffffffffffffffffffffffffffff808316818516808303821115612c5157612c51612a3d565b01949350505050565b600073ffffffffffffffffffffffffffffffffffffffff8088168352861515602084015285604084015280851660608401525060a060808301526125ad60a0830184612987565b60008060408385031215612cb457600080fd5b505080516020909101519092909150565b80516fffffffffffffffffffffffffffffffff81168114612adb57600080fd5b600060408284031215612cf757600080fd5b6040516040810181811067ffffffffffffffff82111715612d1a57612d1a6126b9565b604052612d2683612cc5565b8152612d3460208401612cc5565b60208201529392505050565b805167ffffffffffffffff81168114612adb57600080fd5b600060608284031215612d6a57600080fd5b6040516060810181811067ffffffffffffffff82111715612d8d57612d8d6126b9565b604052612d9983612d40565b8152612da760208401612d40565b6020820152612db860408401612cc5565b60408201529392505050565b600073ffffffffffffffffffffffffffffffffffffffff80891683528715156020840152866040840152808616606084015250831515608083015260c060a0830152612e1360c0830184612987565b9897505050505050505056fea264697066735822122016ad840b3326fd02dfb52d5175a403c2cc54031fedf056aef28d940ca6144f1164736f6c634300080a0033",
  "devdoc": {
    "author": "Ilya Lyalin",
    "kind": "dev",
    "methods": {
      "processRoute(address,uint256,address,uint256,address,bytes)": {
        "params": {
          "amountIn": "Amount of the input token",
          "amountOutMin": "Minimum amount of the output token",
          "tokenIn": "Address of the input token",
          "tokenOut": "Address of the output token"
        },
        "returns": {
          "amountOut": "Actual amount of the output token"
        }
      },
      "transferValueAndprocessRoute(address,uint256,address,uint256,address,uint256,address,bytes)": {
        "params": {
          "amountIn": "Amount of the input token",
          "amountOutMin": "Minimum amount of the output token",
          "amountValueTransfer": "How much value to transfer",
          "tokenIn": "Address of the input token",
          "tokenOut": "Address of the output token",
          "transferValueTo": "Address where the value should be transferred"
        },
        "returns": {
          "amountOut": "Actual amount of the output token"
        }
      },
      "tridentCLSwapCallback(int256,int256,bytes)": {
        "details": "In the implementation you must pay the pool tokens owed for the swap. The caller of this method must be checked to be a TridentCLPool deployed by the canonical TridentCLFactory. amount0Delta and amount1Delta can both be 0 if no tokens were swapped.",
        "params": {
          "amount0Delta": "The amount of token0 that was sent (negative) or must be received (positive) by the pool by the end of the swap. If positive, the callback must send that amount of token0 to the pool.",
          "amount1Delta": "The amount of token1 that was sent (negative) or must be received (positive) by the pool by the end of the swap. If positive, the callback must send that amount of token1 to the pool.",
          "data": "Any data passed through by the caller via the ITridentCLPoolActions#swap call"
        }
      },
      "uniswapV3SwapCallback(int256,int256,bytes)": {
        "details": "In the implementation you must pay the pool tokens owed for the swap. The caller of this method must be checked to be a UniswapV3Pool deployed by the canonical UniswapV3Factory. amount0Delta and amount1Delta can both be 0 if no tokens were swapped.",
        "params": {
          "amount0Delta": "The amount of token0 that was sent (negative) or must be received (positive) by the pool by the end of the swap. If positive, the callback must send that amount of token0 to the pool.",
          "amount1Delta": "The amount of token1 that was sent (negative) or must be received (positive) by the pool by the end of the swap. If positive, the callback must send that amount of token1 to the pool.",
          "data": "Any data passed through by the caller via the IUniswapV3PoolActions#swap call"
        }
      }
    },
    "title": "A route processor for the Sushi Aggregator",
    "version": 1
  },
  "userdoc": {
    "kind": "user",
    "methods": {
      "processRoute(address,uint256,address,uint256,address,bytes)": {
        "notice": "Processes the route generated off-chain. Has a lock"
      },
      "transferValueAndprocessRoute(address,uint256,address,uint256,address,uint256,address,bytes)": {
        "notice": "Transfers some value to <transferValueTo> and then processes the route"
      },
      "tridentCLSwapCallback(int256,int256,bytes)": {
        "notice": "Called to `msg.sender` after executing a swap via ITridentCLPool#swap."
      },
      "uniswapV3SwapCallback(int256,int256,bytes)": {
        "notice": "Called to `msg.sender` after executing a swap via IUniswapV3Pool#swap."
      }
    },
    "version": 1
  },
  "storageLayout": {
    "storage": [
      {
        "astId": 2025,
        "contract": "contracts/RouteProcessor2.sol:RouteProcessor2",
        "label": "lastCalledPool",
        "offset": 0,
        "slot": "0",
        "type": "t_address"
      },
      {
        "astId": 2028,
        "contract": "contracts/RouteProcessor2.sol:RouteProcessor2",
        "label": "unlocked",
        "offset": 0,
        "slot": "1",
        "type": "t_uint256"
      }
    ],
    "types": {
      "t_address": {
        "encoding": "inplace",
        "label": "address",
        "numberOfBytes": "20"
      },
      "t_uint256": {
        "encoding": "inplace",
        "label": "uint256",
        "numberOfBytes": "32"
      }
    }
  }
}