{
  "_format": "hh-sol-artifact-1",
  "contractName": "MaliciousMasterContractMock",
  "sourceName": "contracts/mocks/MaliciousMasterContractMock.sol",
  "abi": [
    {
      "inputs": [
        {
          "internalType": "contract BentoBox",
          "name": "bentoBox",
          "type": "address"
        }
      ],
      "name": "attack",
      "outputs": [],
      "stateMutability": "nonpayable",
      "type": "function"
    },
    {
      "inputs": [
        {
          "internalType": "bytes",
          "name": "",
          "type": "bytes"
        }
      ],
      "name": "init",
      "outputs": [],
      "stateMutability": "payable",
      "type": "function"
    }
  ],
  "bytecode": "0x608060405234801561001057600080fd5b50610190806100206000396000f3fe6080604052600436106100295760003560e01c80634ddf47d41461002e578063d018db3e146100a0575b600080fd5b61009e6004803603602081101561004457600080fd5b81019060208101813564010000000081111561005f57600080fd5b82018360208201111561007157600080fd5b8035906020019184600183028401116401000000008311171561009357600080fd5b5090925090506100d3565b005b3480156100ac57600080fd5b5061009e600480360360208110156100c357600080fd5b50356001600160a01b03166100d7565b5050565b6040805163c0a47c9360e01b815230600482018190526024820152600160448201526000606482018190526084820181905260a4820181905291516001600160a01b0384169263c0a47c939260c4808201939182900301818387803b15801561013f57600080fd5b505af1158015610153573d6000803e3d6000fd5b505050505056fea2646970667358221220d369794eb9707de9ec0a3277d081911040ef5b9da52d58f475a1e46459f40a7564736f6c634300060c0033",
  "linkReferences": {},
  "deployedLinkReferences": {}
}