{
  "_format": "hh-sol-artifact-1",
  "contractName": "SushiStrategy",
  "sourceName": "contracts/strategies/SushiStrategy.sol",
  "abi": [
    {
      "inputs": [
        {
          "internalType": "contract ISushiBar",
          "name": "bar_",
          "type": "address"
        },
        {
          "internalType": "contract IERC20",
          "name": "sushi_",
          "type": "address"
        }
      ],
      "stateMutability": "nonpayable",
      "type": "constructor"
    },
    {
      "anonymous": false,
      "inputs": [
        {
          "indexed": true,
          "internalType": "address",
          "name": "previousOwner",
          "type": "address"
        },
        {
          "indexed": true,
          "internalType": "address",
          "name": "newOwner",
          "type": "address"
        }
      ],
      "name": "OwnershipTransferred",
      "type": "event"
    },
    {
      "inputs": [],
      "name": "claimOwnership",
      "outputs": [],
      "stateMutability": "nonpayable",
      "type": "function"
    },
    {
      "inputs": [
        {
          "internalType": "uint256",
          "name": "balance",
          "type": "uint256"
        }
      ],
      "name": "exit",
      "outputs": [
        {
          "internalType": "int256",
          "name": "amountAdded",
          "type": "int256"
        }
      ],
      "stateMutability": "nonpayable",
      "type": "function"
    },
    {
      "inputs": [
        {
          "internalType": "uint256",
          "name": "balance",
          "type": "uint256"
        },
        {
          "internalType": "address",
          "name": "",
          "type": "address"
        }
      ],
      "name": "harvest",
      "outputs": [
        {
          "internalType": "int256",
          "name": "amountAdded",
          "type": "int256"
        }
      ],
      "stateMutability": "nonpayable",
      "type": "function"
    },
    {
      "inputs": [],
      "name": "owner",
      "outputs": [
        {
          "internalType": "address",
          "name": "",
          "type": "address"
        }
      ],
      "stateMutability": "view",
      "type": "function"
    },
    {
      "inputs": [],
      "name": "pendingOwner",
      "outputs": [
        {
          "internalType": "address",
          "name": "",
          "type": "address"
        }
      ],
      "stateMutability": "view",
      "type": "function"
    },
    {
      "inputs": [
        {
          "internalType": "uint256",
          "name": "amount",
          "type": "uint256"
        }
      ],
      "name": "skim",
      "outputs": [],
      "stateMutability": "nonpayable",
      "type": "function"
    },
    {
      "inputs": [
        {
          "internalType": "address",
          "name": "newOwner",
          "type": "address"
        },
        {
          "internalType": "bool",
          "name": "direct",
          "type": "bool"
        },
        {
          "internalType": "bool",
          "name": "renounce",
          "type": "bool"
        }
      ],
      "name": "transferOwnership",
      "outputs": [],
      "stateMutability": "nonpayable",
      "type": "function"
    },
    {
      "inputs": [
        {
          "internalType": "uint256",
          "name": "amount",
          "type": "uint256"
        }
      ],
      "name": "withdraw",
      "outputs": [
        {
          "internalType": "uint256",
          "name": "actualAmount",
          "type": "uint256"
        }
      ],
      "stateMutability": "nonpayable",
      "type": "function"
    }
  ],
  "bytecode": "0x60c060405234801561001057600080fd5b5060405161125b38038061125b8339818101604052604081101561003357600080fd5b508051602090910151600080546001600160a01b0319163390811782556040519091907f8be0079c531659141344cd1fd0a4f28419497f9722a3daafe3b4186f6b6457e0908290a36001600160601b0319606092831b811660a052911b1660805260805160601c60a05160601c61113f61011c6000398061033a52806103f1528061047b52806105495280610703528061079e528061086052806109075280610b4e5280610c015280610cc75280610d825250806104ab52806105e3528061066b52806107ce52806109a15280610a295280610b1f5280610de65280610e96525061113f6000f3fe608060405234801561001057600080fd5b50600436106100885760003560e01c80636939aaf51161005b5780636939aaf5146101285780637f8661a1146101455780638da5cb5b14610162578063e30c39781461018657610088565b8063078dfbe71461008d57806318fccc76146100c55780632e1a7d4d146101035780634e71e0c814610120575b600080fd5b6100c3600480360360608110156100a357600080fd5b506001600160a01b0381351690602081013515159060400135151561018e565b005b6100f1600480360360408110156100db57600080fd5b50803590602001356001600160a01b03166102d6565b60408051918252519081900360200190f35b6100f16004803603602081101561011957600080fd5b503561069f565b6100c3610a5b565b6100c36004803603602081101561013e57600080fd5b5035610b1d565b6100f16004803603602081101561015b57600080fd5b5035610c63565b61016a610ec6565b604080516001600160a01b039092168252519081900360200190f35b61016a610ed5565b6000546001600160a01b031633146101ed576040805162461bcd60e51b815260206004820181905260248201527f4f776e61626c653a2063616c6c6572206973206e6f7420746865206f776e6572604482015290519081900360640190fd5b81156102b5576001600160a01b0383161515806102075750805b610250576040805162461bcd60e51b81526020600482015260156024820152744f776e61626c653a207a65726f206164647265737360581b604482015290519081900360640190fd5b600080546040516001600160a01b03808716939216917f8be0079c531659141344cd1fd0a4f28419497f9722a3daafe3b4186f6b6457e091a3600080546001600160a01b0385166001600160a01b0319918216179091556001805490911690556102d1565b600180546001600160a01b0319166001600160a01b0385161790555b505050565b600080546001600160a01b03163314610336576040805162461bcd60e51b815260206004820181905260248201527f4f776e61626c653a2063616c6c6572206973206e6f7420746865206f776e6572604482015290519081900360640190fd5b60007f00000000000000000000000000000000000000000000000000000000000000006001600160a01b03166370a08231306040518263ffffffff1660e01b815260040180826001600160a01b0316815260200191505060206040518083038186803b1580156103a557600080fd5b505afa1580156103b9573d6000803e3d6000fd5b505050506040513d60208110156103cf57600080fd5b5051604080516318160ddd60e01b815290519192506000916001600160a01b037f000000000000000000000000000000000000000000000000000000000000000016916318160ddd916004808301926020929190829003018186803b15801561043757600080fd5b505afa15801561044b573d6000803e3d6000fd5b505050506040513d602081101561046157600080fd5b5051604080516370a0823160e01b81526001600160a01b037f00000000000000000000000000000000000000000000000000000000000000008116600483015291519293506000927f0000000000000000000000000000000000000000000000000000000000000000909216916370a0823191602480820192602092909190829003018186803b1580156104f457600080fd5b505afa158015610508573d6000803e3d6000fd5b505050506040513d602081101561051e57600080fd5b5051905060008161052f8885610ee4565b8161053657fe5b04905060006105458583610f56565b90507f00000000000000000000000000000000000000000000000000000000000000006001600160a01b03166367dfd4c9826040518263ffffffff1660e01b815260040180828152602001915050600060405180830381600087803b1580156105ad57600080fd5b505af11580156105c1573d6000803e3d6000fd5b5050604080516370a0823160e01b815230600482015290516001600160a01b037f00000000000000000000000000000000000000000000000000000000000000001693506370a0823192506024808301926020929190829003018186803b15801561062b57600080fd5b505afa15801561063f573d6000803e3d6000fd5b505050506040513d602081101561065557600080fd5b5051600054909650610694906001600160a01b037f00000000000000000000000000000000000000000000000000000000000000008116911688610fa6565b505050505092915050565b600080546001600160a01b031633146106ff576040805162461bcd60e51b815260206004820181905260248201527f4f776e61626c653a2063616c6c6572206973206e6f7420746865206f776e6572604482015290519081900360640190fd5b60007f00000000000000000000000000000000000000000000000000000000000000006001600160a01b03166318160ddd6040518163ffffffff1660e01b815260040160206040518083038186803b15801561075a57600080fd5b505afa15801561076e573d6000803e3d6000fd5b505050506040513d602081101561078457600080fd5b5051604080516370a0823160e01b81526001600160a01b037f00000000000000000000000000000000000000000000000000000000000000008116600483015291519293506000927f0000000000000000000000000000000000000000000000000000000000000000909216916370a0823191602480820192602092909190829003018186803b15801561081757600080fd5b505afa15801561082b573d6000803e3d6000fd5b505050506040513d602081101561084157600080fd5b505190506000816108528685610ee4565b8161085957fe5b04905060007f00000000000000000000000000000000000000000000000000000000000000006001600160a01b03166370a08231306040518263ffffffff1660e01b815260040180826001600160a01b0316815260200191505060206040518083038186803b1580156108cb57600080fd5b505afa1580156108df573d6000803e3d6000fd5b505050506040513d60208110156108f557600080fd5b5051905080821115610905578091505b7f00000000000000000000000000000000000000000000000000000000000000006001600160a01b03166367dfd4c9836040518263ffffffff1660e01b815260040180828152602001915050600060405180830381600087803b15801561096b57600080fd5b505af115801561097f573d6000803e3d6000fd5b5050604080516370a0823160e01b815230600482015290516001600160a01b037f00000000000000000000000000000000000000000000000000000000000000001693506370a0823192506024808301926020929190829003018186803b1580156109e957600080fd5b505afa1580156109fd573d6000803e3d6000fd5b505050506040513d6020811015610a1357600080fd5b5051600054909550610a52906001600160a01b037f00000000000000000000000000000000000000000000000000000000000000008116911687610fa6565b50505050919050565b6001546001600160a01b0316338114610abb576040805162461bcd60e51b815260206004820181905260248201527f4f776e61626c653a2063616c6c657220213d2070656e64696e67206f776e6572604482015290519081900360640190fd5b600080546040516001600160a01b03808516939216917f8be0079c531659141344cd1fd0a4f28419497f9722a3daafe3b4186f6b6457e091a3600080546001600160a01b039092166001600160a01b0319928316179055600180549091169055565b7f00000000000000000000000000000000000000000000000000000000000000006001600160a01b031663095ea7b37f0000000000000000000000000000000000000000000000000000000000000000836040518363ffffffff1660e01b815260040180836001600160a01b0316815260200182815260200192505050602060405180830381600087803b158015610bb457600080fd5b505af1158015610bc8573d6000803e3d6000fd5b505050506040513d6020811015610bde57600080fd5b505060408051632967cf8360e21b81526004810183905290516001600160a01b037f0000000000000000000000000000000000000000000000000000000000000000169163a59f3e0c91602480830192600092919082900301818387803b158015610c4857600080fd5b505af1158015610c5c573d6000803e3d6000fd5b5050505050565b600080546001600160a01b03163314610cc3576040805162461bcd60e51b815260206004820181905260248201527f4f776e61626c653a2063616c6c6572206973206e6f7420746865206f776e6572604482015290519081900360640190fd5b60007f00000000000000000000000000000000000000000000000000000000000000006001600160a01b03166370a08231306040518263ffffffff1660e01b815260040180826001600160a01b0316815260200191505060206040518083038186803b158015610d3257600080fd5b505afa158015610d46573d6000803e3d6000fd5b505050506040513d6020811015610d5c57600080fd5b5051604080516367dfd4c960e01b81526004810183905290519192506001600160a01b037f000000000000000000000000000000000000000000000000000000000000000016916367dfd4c99160248082019260009290919082900301818387803b158015610dca57600080fd5b505af1158015610dde573d6000803e3d6000fd5b5050505060007f00000000000000000000000000000000000000000000000000000000000000006001600160a01b03166370a08231306040518263ffffffff1660e01b815260040180826001600160a01b0316815260200191505060206040518083038186803b158015610e5157600080fd5b505afa158015610e65573d6000803e3d6000fd5b505050506040513d6020811015610e7b57600080fd5b50516000548582039450909150610ebf906001600160a01b037f00000000000000000000000000000000000000000000000000000000000000008116911683610fa6565b5050919050565b6000546001600160a01b031681565b6001546001600160a01b031681565b6000811580610eff57505080820282828281610efc57fe5b04145b610f50576040805162461bcd60e51b815260206004820152601860248201527f426f72696e674d6174683a204d756c204f766572666c6f770000000000000000604482015290519081900360640190fd5b92915050565b80820382811115610f50576040805162461bcd60e51b8152602060048201526015602482015274426f72696e674d6174683a20556e646572666c6f7760581b604482015290519081900360640190fd5b604080516001600160a01b038481166024830152604480830185905283518084039091018152606490920183526020820180516001600160e01b031663a9059cbb60e01b178152925182516000946060949389169392918291908083835b602083106110235780518252601f199092019160209182019101611004565b6001836020036101000a0380198251168184511680821785525050505050509050019150506000604051808303816000865af19150503d8060008114611085576040519150601f19603f3d011682016040523d82523d6000602084013e61108a565b606091505b50915091508180156110b85750805115806110b857508080602001905160208110156110b557600080fd5b50515b610c5c576040805162461bcd60e51b815260206004820152601c60248201527f426f72696e6745524332303a205472616e73666572206661696c656400000000604482015290519081900360640190fdfea26469706673582212207edf0bf2e97c6f086656a917961d672046a7c04f978d73be1a192b3ab9cfd5cc64736f6c634300060c0033",
  "linkReferences": {},
  "deployedLinkReferences": {}
}