{
  "address": "0x5629CE74DdCAD7Cc72b3Ea30444dA7172AD851D9",
  "abi": [
    {
      "inputs": [
        {
          "internalType": "contract IBentoBoxMinimal",
          "name": "_bentoBox",
          "type": "address"
        },
        {
          "internalType": "contract IStargateRouter",
          "name": "_stargateRouter",
          "type": "address"
        },
        {
          "internalType": "address",
          "name": "_factory",
          "type": "address"
        },
        {
          "internalType": "bytes32",
          "name": "_pairCodeHash",
          "type": "bytes32"
        }
      ],
      "stateMutability": "nonpayable",
      "type": "constructor"
    },
    {
      "inputs": [],
      "name": "NotStargateRouter",
      "type": "error"
    },
    {
      "inputs": [],
      "name": "TooLittleReceived",
      "type": "error"
    },
    {
      "inputs": [
        {
          "internalType": "contract IERC20",
          "name": "token",
          "type": "address"
        }
      ],
      "name": "approveToStargateRouter",
      "outputs": [],
      "stateMutability": "nonpayable",
      "type": "function"
    },
    {
      "inputs": [],
      "name": "bentoBox",
      "outputs": [
        {
          "internalType": "contract IBentoBoxMinimal",
          "name": "",
          "type": "address"
        }
      ],
      "stateMutability": "view",
      "type": "function"
    },
    {
      "inputs": [
        {
          "internalType": "uint8[]",
          "name": "actions",
          "type": "uint8[]"
        },
        {
          "internalType": "uint256[]",
          "name": "values",
          "type": "uint256[]"
        },
        {
          "internalType": "bytes[]",
          "name": "datas",
          "type": "bytes[]"
        }
      ],
      "name": "cook",
      "outputs": [],
      "stateMutability": "payable",
      "type": "function"
    },
    {
      "inputs": [],
      "name": "factory",
      "outputs": [
        {
          "internalType": "address",
          "name": "",
          "type": "address"
        }
      ],
      "stateMutability": "view",
      "type": "function"
    },
    {
      "inputs": [
        {
          "internalType": "uint16",
          "name": "_dstChainId",
          "type": "uint16"
        },
        {
          "internalType": "uint8",
          "name": "_functionType",
          "type": "uint8"
        },
        {
          "internalType": "address",
          "name": "_receiver",
          "type": "address"
        },
        {
          "internalType": "uint256",
          "name": "_gas",
          "type": "uint256"
        },
        {
          "internalType": "uint256",
          "name": "_dustAmount",
          "type": "uint256"
        },
        {
          "internalType": "bytes",
          "name": "_payload",
          "type": "bytes"
        }
      ],
      "name": "getFee",
      "outputs": [
        {
          "internalType": "uint256",
          "name": "a",
          "type": "uint256"
        },
        {
          "internalType": "uint256",
          "name": "b",
          "type": "uint256"
        }
      ],
      "stateMutability": "view",
      "type": "function"
    },
    {
      "inputs": [],
      "name": "pairCodeHash",
      "outputs": [
        {
          "internalType": "bytes32",
          "name": "",
          "type": "bytes32"
        }
      ],
      "stateMutability": "view",
      "type": "function"
    },
    {
      "inputs": [
        {
          "internalType": "uint16",
          "name": "",
          "type": "uint16"
        },
        {
          "internalType": "bytes",
          "name": "",
          "type": "bytes"
        },
        {
          "internalType": "uint256",
          "name": "",
          "type": "uint256"
        },
        {
          "internalType": "address",
          "name": "_token",
          "type": "address"
        },
        {
          "internalType": "uint256",
          "name": "amountLD",
          "type": "uint256"
        },
        {
          "internalType": "bytes",
          "name": "payload",
          "type": "bytes"
        }
      ],
      "name": "sgReceive",
      "outputs": [],
      "stateMutability": "nonpayable",
      "type": "function"
    },
    {
      "inputs": [],
      "name": "stargateRouter",
      "outputs": [
        {
          "internalType": "contract IStargateRouter",
          "name": "",
          "type": "address"
        }
      ],
      "stateMutability": "view",
      "type": "function"
    },
    {
      "stateMutability": "payable",
      "type": "receive"
    }
  ],
  "transactionHash": "0x741c32608aa2348a5ac26b1c88b065054be03a658e69294e3457c47bf92a463f",
  "args": [
    "0x0711B6026068f736bae6B213031fCE978D48E026",
    "0x45A01E4e04F14f7A4a6702c74187c5F6222033cd",
    "0xc35DADB65012eC5796536bD9864eD8773aBc74C4",
    "0xe18a34eb0e04b04f7a0ac29a6e80748dca96319b42c54d679cb821dca90c6303"
  ],
  "numDeployments": 1,
  "solcInputHash": "0047df5f856e4ad587efef43d51d3936",
  "bytecode": "0x6101006040523480156200001257600080fd5b5060405162004c0238038062004c028339810160408190526200003591620000ca565b6001600160a01b03808516608081905281851660a05290831660c05260e08290526040805163577268d960e11b8152905163aee4d1b29160048082019260009290919082900301818387803b1580156200008e57600080fd5b505af1158015620000a3573d6000803e3d6000fd5b505050505050505062000124565b6001600160a01b0381168114620000c757600080fd5b50565b60008060008060808587031215620000e157600080fd5b8451620000ee81620000b1565b60208601519094506200010181620000b1565b60408601519093506200011481620000b1565b6060959095015193969295505050565b60805160a05160c05160e0516149f66200020c600039600081816101450152818161135a0152818161147d0152612ab50152600081816101db015281816113370152818161142601528181612a4f0152612a9201526000818161018701528181610a4f01528181610be201528181610e0a01526121e201526000818160b20152818161030301528181610583015281816105ae01528181610eb501528181610f96015281816110620152818161112c015281816115b40152818161188901528181611aa001528181611be401528181611de401528181611f59015261209001526149f66000f3fe60806040526004361061007f5760003560e01c8063a9e56f3c1161004e578063a9e56f3c14610175578063ab8236f3146101a9578063c45a0155146101c9578063d1ac3535146101fd57600080fd5b8063656f3d641461008b5780636b2ace87146100a05780636ce4fe03146100fe5780639aab92481461013357600080fd5b3661008657005b600080fd5b61009e61009936600461367e565b61021d565b005b3480156100ac57600080fd5b506100d47f000000000000000000000000000000000000000000000000000000000000000081565b60405173ffffffffffffffffffffffffffffffffffffffff90911681526020015b60405180910390f35b34801561010a57600080fd5b5061011e610119366004613796565b610a4a565b604080519283526020830191909152016100f5565b34801561013f57600080fd5b506101677f000000000000000000000000000000000000000000000000000000000000000081565b6040519081526020016100f5565b34801561018157600080fd5b506100d47f000000000000000000000000000000000000000000000000000000000000000081565b3480156101b557600080fd5b5061009e6101c436600461381d565b610bca565b3480156101d557600080fd5b506100d47f000000000000000000000000000000000000000000000000000000000000000081565b34801561020957600080fd5b5061009e6102183660046138ad565b610dee565b825160005b81811015610a4357600085828151811061023e5761023e6138ca565b60200260200101519050600060ff168160ff16141561036b576000806000806000888781518110610271576102716138ca565b602002602001015180602001905181019061028c9190613919565b6040517fc0a47c9300000000000000000000000000000000000000000000000000000000815273ffffffffffffffffffffffffffffffffffffffff8681166004830152306024830152851515604483015260ff851660648301526084820184905260a48201839052959a50939850919650945092507f00000000000000000000000000000000000000000000000000000000000000009091169063c0a47c939060c401600060405180830381600087803b15801561034957600080fd5b505af115801561035d573d6000803e3d6000fd5b505050505050505050610a3a565b60ff8116600114156103e25760008060008087868151811061038f5761038f6138ca565b60200260200101518060200190518101906103aa9190613973565b93509350935093506103d984338585858e8c815181106103cc576103cc6138ca565b6020026020010151610e52565b50505050610a3a565b60ff811660021415610445576000806000806000888781518110610408576104086138ca565b602002602001015180602001905181019061042391906139bb565b9450945094509450945061043b853386868686610f2d565b5050505050610a3a565b60ff8116600b141561049c576000806000868581518110610468576104686138ca565b60200260200101518060200190518101906104839190613a18565b92509250925061049483838361118c565b505050610a3a565b60ff8116600314156105e2576000806000808786815181106104c0576104c06138ca565b60200260200101518060200190518101906104db9190613973565b9350935093509350816000141561057d576040517f70a0823100000000000000000000000000000000000000000000000000000000815230600482015273ffffffffffffffffffffffffffffffffffffffff8516906370a0823190602401602060405180830381865afa158015610556573d6000803e3d6000fd5b505050506040513d601f19601f8201168201806040525081019061057a9190613a5b565b91505b6105a8847f0000000000000000000000000000000000000000000000000000000000000000846111b3565b6103d9847f00000000000000000000000000000000000000000000000000000000000000008585858e8c815181106103cc576103cc6138ca565b60ff8116600414156106ee576000806000868581518110610605576106056138ca565b60200260200101518060200190518101906106209190613a18565b92509250925080600014156106e35773ffffffffffffffffffffffffffffffffffffffff8316156106e0576040517f70a0823100000000000000000000000000000000000000000000000000000000815230600482015273ffffffffffffffffffffffffffffffffffffffff8416906370a0823190602401602060405180830381865afa1580156106b5573d6000803e3d6000fd5b505050506040513d601f19601f820116820180604052508101906106d99190613a5b565b90506106e3565b50475b6104948383836111b3565b60ff8116600514156107e1576000806000806000888781518110610714576107146138ca565b602002602001015180602001905181019061072f91906139bb565b9450945094509450945082600014156107d3576040517f70a0823100000000000000000000000000000000000000000000000000000000815230600482015273ffffffffffffffffffffffffffffffffffffffff8616906370a0823190602401602060405180830381865afa1580156107ac573d6000803e3d6000fd5b505050506040513d601f19601f820116820180604052508101906107d09190613a5b565b92505b61043b853086868686610f2d565b60ff81166006141561083257600080858481518110610802576108026138ca565b602002602001015180602001905181019061081d9190613a74565b9150915061082b8282611239565b5050610a3a565b60ff81166007141561095057600080600080878681518110610856576108566138ca565b60200260200101518060200190518101906108719190613aae565b9350935093509350600084600014156109385782600081518110610897576108976138ca565b60209081029190910101516040517f70a0823100000000000000000000000000000000000000000000000000000000815230600482015273ffffffffffffffffffffffffffffffffffffffff909116906370a0823190602401602060405180830381865afa15801561090d573d6000803e3d6000fd5b505050506040513d601f19601f820116820180604052508101906109319190613a5b565b9450600190505b610945858585858561132f565b505050505050610a3a565b60ff811660081415610996576000848381518110610970576109706138ca565b602002602001015180602001905181019061098b9190613be7565b905061082b816115a3565b60ff8116600914156109e25760008483815181106109b6576109b66138ca565b60200260200101518060200190518101906109d19190613f14565b90506109dc81611879565b50610a3a565b60ff8116600a1415610a3a57600080600080878681518110610a0657610a066138ca565b6020026020010151806020019051810190610a219190614211565b9350935093509350610a35848484846121b1565b505050505b50600101610222565b5050505050565b6000807f000000000000000000000000000000000000000000000000000000000000000073ffffffffffffffffffffffffffffffffffffffff16630a512369898989604051602001610ac7919060609190911b7fffffffffffffffffffffffffffffffffffffffff00000000000000000000000016815260140190565b60405160208183030381529060405287604051602001610ae79190614384565b60405160208183030381529060405260405180606001604052808c81526020018b81526020018d604051602001610b49919060609190911b7fffffffffffffffffffffffffffffffffffffffff00000000000000000000000016815260140190565b6040516020818303038152906040528152506040518663ffffffff1660e01b8152600401610b7b9594939291906143c0565b6040805180830381865afa158015610b97573d6000803e3d6000fd5b505050506040513d601f19601f82011682018060405250810190610bbb9190614418565b90999098509650505050505050565b3373ffffffffffffffffffffffffffffffffffffffff7f00000000000000000000000000000000000000000000000000000000000000001614610c39576040517f8c66bf5600000000000000000000000000000000000000000000000000000000815260040160405180910390fd5b60008060008084806020019051810190610c53919061443c565b6040517f656f3d6400000000000000000000000000000000000000000000000000000000815293975091955093509150309063656f3d6490610c9d9086908690869060040161457f565b600060405180830381600087803b158015610cb757600080fd5b505af1925050508015610cc8575060015b610d98573d808015610cf6576040519150601f19603f3d011682016040523d82523d6000602084013e610cfb565b606091505b506040517fa9059cbb00000000000000000000000000000000000000000000000000000000815273ffffffffffffffffffffffffffffffffffffffff86811660048301526024820189905289169063a9059cbb906044016020604051808303816000875af1158015610d71573d6000803e3d6000fd5b505050506040513d601f19601f82011682018060405250810190610d9591906145c2565b50505b4715610de25760405173ffffffffffffffffffffffffffffffffffffffff8516904780156108fc02916000818181858888f19350505050158015610de0573d6000803e3d6000fd5b505b50505050505050505050565b610e4f73ffffffffffffffffffffffffffffffffffffffff82167f00000000000000000000000000000000000000000000000000000000000000007fffffffffffffffffffffffffffffffffffffffffffffffffffffffffffffffff6123dd565b50565b6040517f02b9446c00000000000000000000000000000000000000000000000000000000815273ffffffffffffffffffffffffffffffffffffffff87811660048301528681166024830152858116604483015260648201859052608482018490527f000000000000000000000000000000000000000000000000000000000000000016906302b9446c90839060a401604080518083038185885af1158015610efe573d6000803e3d6000fd5b50505050506040513d601f19601f82011682018060405250810190610f239190614418565b5050505050505050565b8015611009576040517f97da6d3000000000000000000000000000000000000000000000000000000000815273ffffffffffffffffffffffffffffffffffffffff87811660048301528681166024830152858116604483015260648201859052608482018490527f000000000000000000000000000000000000000000000000000000000000000016906397da6d309060a40160408051808303816000875af1158015610fde573d6000803e3d6000fd5b505050506040513d601f19601f820116820180604052508101906110029190614418565b5050611184565b82156110d0576040517fda5139ca00000000000000000000000000000000000000000000000000000000815273ffffffffffffffffffffffffffffffffffffffff878116600483015260248201859052600060448301527f0000000000000000000000000000000000000000000000000000000000000000169063da5139ca90606401602060405180830381865afa1580156110a9573d6000803e3d6000fd5b505050506040513d601f19601f820116820180604052508101906110cd9190613a5b565b91505b6040517ff18d03cc00000000000000000000000000000000000000000000000000000000815273ffffffffffffffffffffffffffffffffffffffff878116600483015286811660248301528581166044830152606482018490527f0000000000000000000000000000000000000000000000000000000000000000169063f18d03cc90608401600060405180830381600087803b15801561117057600080fd5b505af1158015610de2573d6000803e3d6000fd5b505050505050565b6111ae73ffffffffffffffffffffffffffffffffffffffff84163384846125dd565b505050565b73ffffffffffffffffffffffffffffffffffffffff8316156111f0576111ae73ffffffffffffffffffffffffffffffffffffffff8416838361263b565b60405173ffffffffffffffffffffffffffffffffffffffff83169082156108fc029083906000818181858888f19350505050158015611233573d6000803e3d6000fd5b50505050565b6040517f70a0823100000000000000000000000000000000000000000000000000000000815230600482015273ffffffffffffffffffffffffffffffffffffffff831690632e1a7d4d9082906370a0823190602401602060405180830381865afa1580156112ab573d6000803e3d6000fd5b505050506040513d601f19601f820116820180604052508101906112cf9190613a5b565b6040518263ffffffff1660e01b81526004016112ed91815260200190565b600060405180830381600087803b15801561130757600080fd5b505af115801561131b573d6000803e3d6000fd5b5050505061132b600082476111b3565b5050565b60008061137e7f000000000000000000000000000000000000000000000000000000000000000088877f0000000000000000000000000000000000000000000000000000000000000000612691565b9050806001825161138f919061460c565b8151811061139f5761139f6138ca565b6020026020010151915085821015611418576040517f08c379a000000000000000000000000000000000000000000000000000000000815260206004820152601760248201527f696e73756666696369656e742d616d6f756e742d6f757400000000000000000060448201526064015b60405180910390fd5b821561158e5761158e6114a17f000000000000000000000000000000000000000000000000000000000000000087600081518110611458576114586138ca565b602002602001015188600181518110611473576114736138ca565b60200260200101517f0000000000000000000000000000000000000000000000000000000000000000612838565b866000815181106114b4576114b46138ca565b60209081029190910101516040517f70a0823100000000000000000000000000000000000000000000000000000000815230600482015273ffffffffffffffffffffffffffffffffffffffff909116906370a0823190602401602060405180830381865afa15801561152a573d6000803e3d6000fd5b505050506040513d601f19601f8201168201806040525081019061154e9190613a5b565b87600081518110611561576115616138ca565b602002602001015173ffffffffffffffffffffffffffffffffffffffff1661263b9092919063ffffffff16565b611599818686612952565b5095945050505050565b600081602001516000141561175b577f000000000000000000000000000000000000000000000000000000000000000073ffffffffffffffffffffffffffffffffffffffff166302b9446c836000015130856060015160008151811061160b5761160b6138ca565b60209081029190910101515186516040517f70a0823100000000000000000000000000000000000000000000000000000000815230600482015273ffffffffffffffffffffffffffffffffffffffff909116906370a0823190602401602060405180830381865afa158015611684573d6000803e3d6000fd5b505050506040513d601f19601f820116820180604052508101906116a89190613a5b565b6040517fffffffff0000000000000000000000000000000000000000000000000000000060e087901b16815273ffffffffffffffffffffffffffffffffffffffff948516600482015292841660248401529216604482015260648101919091526000608482015260a40160408051808303816000875af1158015611730573d6000803e3d6000fd5b505050506040513d601f19601f820116820180604052508101906117549190614418565b6020840152505b60608201515160005b818110156118345783606001518181518110611782576117826138ca565b60200260200101516000015173ffffffffffffffffffffffffffffffffffffffff1663627dd56a856060015183815181106117bf576117bf6138ca565b6020026020010151602001516040518263ffffffff1660e01b81526004016117e79190614384565b6020604051808303816000875af1158015611806573d6000803e3d6000fd5b505050506040513d601f19601f8201168201806040525081019061182a9190613a5b565b9250600101611764565b508260400151821015611873576040517fc9f52c7100000000000000000000000000000000000000000000000000000000815260040160405180910390fd5b50919050565b80515160005b81811015611a89577f000000000000000000000000000000000000000000000000000000000000000073ffffffffffffffffffffffffffffffffffffffff1663f18d03cc846000015183815181106118d9576118d96138ca565b60200260200101516000015130866000015185815181106118fc576118fc6138ca565b6020026020010151602001518760000151868151811061191e5761191e6138ca565b6020908102919091010151606001516040517fffffffff0000000000000000000000000000000000000000000000000000000060e087901b16815273ffffffffffffffffffffffffffffffffffffffff94851660048201529284166024840152921660448201526064810191909152608401600060405180830381600087803b1580156119aa57600080fd5b505af11580156119be573d6000803e3d6000fd5b50505050826000015181815181106119d8576119d86138ca565b60200260200101516020015173ffffffffffffffffffffffffffffffffffffffff1663627dd56a84600001518381518110611a1557611a156138ca565b6020026020010151608001516040518263ffffffff1660e01b8152600401611a3d9190614384565b6020604051808303816000875af1158015611a5c573d6000803e3d6000fd5b505050506040513d601f19601f82011682018060405250810190611a809190613a5b565b5060010161187f565b505060208101515160005b81811015611dcd5760007f000000000000000000000000000000000000000000000000000000000000000073ffffffffffffffffffffffffffffffffffffffff1663f7888aec85602001518481518110611af057611af06138ca565b6020908102919091010151516040517fffffffff0000000000000000000000000000000000000000000000000000000060e084901b16815273ffffffffffffffffffffffffffffffffffffffff9091166004820152306024820152604401602060405180830381865afa158015611b6b573d6000803e3d6000fd5b505050506040513d601f19601f82011682018060405250810190611b8f9190613a5b565b90506000611b9f6008600a614743565b85602001518481518110611bb557611bb56138ca565b60200260200101516040015167ffffffffffffffff1683611bd69190614752565b611be0919061478f565b90507f000000000000000000000000000000000000000000000000000000000000000073ffffffffffffffffffffffffffffffffffffffff1663f18d03cc86602001518581518110611c3457611c346138ca565b6020026020010151600001513088602001518781518110611c5757611c576138ca565b60209081029190910181015101516040517fffffffff0000000000000000000000000000000000000000000000000000000060e086901b16815273ffffffffffffffffffffffffffffffffffffffff9384166004820152918316602483015291909116604482015260648101849052608401600060405180830381600087803b158015611ce357600080fd5b505af1158015611cf7573d6000803e3d6000fd5b5050505084602001518381518110611d1157611d116138ca565b60200260200101516020015173ffffffffffffffffffffffffffffffffffffffff1663627dd56a86602001518581518110611d4e57611d4e6138ca565b6020026020010151606001516040518263ffffffff1660e01b8152600401611d769190614384565b6020604051808303816000875af1158015611d95573d6000803e3d6000fd5b505050506040513d601f19601f82011682018060405250810190611db99190613a5b565b505050611dc68160010190565b9050611a94565b505060408101515160005b818110156111ae5760007f000000000000000000000000000000000000000000000000000000000000000073ffffffffffffffffffffffffffffffffffffffff1663f7888aec85604001518481518110611e3457611e346138ca565b6020908102919091010151516040517fffffffff0000000000000000000000000000000000000000000000000000000060e084901b16815273ffffffffffffffffffffffffffffffffffffffff9091166004820152306024820152604401602060405180830381865afa158015611eaf573d6000803e3d6000fd5b505050506040513d601f19601f82011682018060405250810190611ed39190613a5b565b905083604001518281518110611eeb57611eeb6138ca565b602002602001015160600151811015611f30576040517fc9f52c7100000000000000000000000000000000000000000000000000000000815260040160405180910390fd5b83604001518281518110611f4657611f466138ca565b6020026020010151604001511561208e577f000000000000000000000000000000000000000000000000000000000000000073ffffffffffffffffffffffffffffffffffffffff166397da6d3085604001518481518110611fa957611fa96138ca565b6020026020010151600001513087604001518681518110611fcc57611fcc6138ca565b60209081029190910181015101516040517fffffffff0000000000000000000000000000000000000000000000000000000060e086901b16815273ffffffffffffffffffffffffffffffffffffffff93841660048201529183166024830152919091166044820152600060648201526084810184905260a40160408051808303816000875af1158015612063573d6000803e3d6000fd5b505050506040513d601f19601f820116820180604052508101906120879190614418565b50506121a8565b7f000000000000000000000000000000000000000000000000000000000000000073ffffffffffffffffffffffffffffffffffffffff1663f18d03cc856040015184815181106120e0576120e06138ca565b6020026020010151600001513087604001518681518110612103576121036138ca565b60209081029190910181015101516040517fffffffff0000000000000000000000000000000000000000000000000000000060e086901b16815273ffffffffffffffffffffffffffffffffffffffff9384166004820152918316602483015291909116604482015260648101849052608401600060405180830381600087803b15801561218f57600080fd5b505af11580156121a3573d6000803e3d6000fd5b505050505b50600101611dd8565b60008461010001518484846040516020016121cf94939291906147ca565b60405160208183030381529060405290507f000000000000000000000000000000000000000000000000000000000000000073ffffffffffffffffffffffffffffffffffffffff16639fbf10fc47876000015188604001518960600151338b60800151600014156122d35760208c01516040517f70a0823100000000000000000000000000000000000000000000000000000000815230600482015273ffffffffffffffffffffffffffffffffffffffff909116906370a0823190602401602060405180830381865afa1580156122aa573d6000803e3d6000fd5b505050506040513d601f19601f820116820180604052508101906122ce9190613a5b565b6122d9565b8b608001515b8c60a0015160405180606001604052808f610120015181526020018f60c0015181526020018f60e0015160405160200161233e919060609190911b7fffffffffffffffffffffffffffffffffffffffff00000000000000000000000016815260140190565b6040516020818303038152906040528152508e60e00151604051602001612390919060609190911b7fffffffffffffffffffffffffffffffffffffffff00000000000000000000000016815260140190565b6040516020818303038152906040528b6040518b63ffffffff1660e01b81526004016123c49998979695949392919061481f565b6000604051808303818588803b15801561117057600080fd5b80158061247d57506040517fdd62ed3e00000000000000000000000000000000000000000000000000000000815230600482015273ffffffffffffffffffffffffffffffffffffffff838116602483015284169063dd62ed3e90604401602060405180830381865afa158015612457573d6000803e3d6000fd5b505050506040513d601f19601f8201168201806040525081019061247b9190613a5b565b155b612509576040517f08c379a000000000000000000000000000000000000000000000000000000000815260206004820152603660248201527f5361666545524332303a20617070726f76652066726f6d206e6f6e2d7a65726f60448201527f20746f206e6f6e2d7a65726f20616c6c6f77616e636500000000000000000000606482015260840161140f565b60405173ffffffffffffffffffffffffffffffffffffffff83166024820152604481018290526111ae9084907f095ea7b300000000000000000000000000000000000000000000000000000000906064015b604080517fffffffffffffffffffffffffffffffffffffffffffffffffffffffffffffffe08184030181529190526020810180517bffffffffffffffffffffffffffffffffffffffffffffffffffffffff167fffffffff0000000000000000000000000000000000000000000000000000000090931692909217909152612b8f565b60405173ffffffffffffffffffffffffffffffffffffffff808516602483015283166044820152606481018290526112339085907f23b872dd000000000000000000000000000000000000000000000000000000009060840161255b565b60405173ffffffffffffffffffffffffffffffffffffffff83166024820152604481018290526111ae9084907fa9059cbb000000000000000000000000000000000000000000000000000000009060640161255b565b60606002835110156126ff576040517f08c379a000000000000000000000000000000000000000000000000000000000815260206004820152601e60248201527f556e697377617056324c6962726172793a20494e56414c49445f504154480000604482015260640161140f565b825167ffffffffffffffff81111561271957612719613395565b604051908082528060200260200182016040528015612742578160200160208202803683370190505b5090508381600081518110612759576127596138ca565b60200260200101818152505060005b60018451612776919061460c565b81101561282f576000806127ca88878581518110612796576127966138ca565b6020026020010151888660016127ac91906148aa565b815181106127bc576127bc6138ca565b602002602001015188612c9b565b915091506127f28484815181106127e3576127e36138ca565b60200260200101518383612d9c565b846127fe8560016148aa565b8151811061280e5761280e6138ca565b60200260200101818152505050508080612827906148c2565b915050612768565b50949350505050565b60008060006128478686612f16565b6040517fffffffffffffffffffffffffffffffffffffffff000000000000000000000000606084811b8216602084015283901b166034820152919350915087906048016040516020818303038152906040528051906020012085604051602001612911939291907fff00000000000000000000000000000000000000000000000000000000000000815260609390931b7fffffffffffffffffffffffffffffffffffffffff0000000000000000000000001660018401526015830191909152603582015260550190565b604080517fffffffffffffffffffffffffffffffffffffffffffffffffffffffffffffffe08184030181529190528051602090910120979650505050505050565b60005b60018351612963919061460c565b8110156112335760008084838151811061297f5761297f6138ca565b60200260200101518584600161299591906148aa565b815181106129a5576129a56138ca565b60200260200101519150915060006129bd8383612f16565b5090506000876129ce8660016148aa565b815181106129de576129de6138ca565b602002602001015190506000808373ffffffffffffffffffffffffffffffffffffffff168673ffffffffffffffffffffffffffffffffffffffff1614612a2657826000612a2a565b6000835b91509150600060028a51612a3e919061460c565b8810612a4a5788612a8b565b612a8b7f0000000000000000000000000000000000000000000000000000000000000000878c612a7b8c60026148aa565b81518110611473576114736138ca565b9050612ad97f000000000000000000000000000000000000000000000000000000000000000088887f0000000000000000000000000000000000000000000000000000000000000000612838565b73ffffffffffffffffffffffffffffffffffffffff1663022c0d9f84848460006040519080825280601f01601f191660200182016040528015612b23576020820181803683370190505b506040518563ffffffff1660e01b8152600401612b4394939291906148fb565b600060405180830381600087803b158015612b5d57600080fd5b505af1158015612b71573d6000803e3d6000fd5b50505050505050505050508080612b87906148c2565b915050612955565b6000612bf1826040518060400160405280602081526020017f5361666545524332303a206c6f772d6c6576656c2063616c6c206661696c65648152508573ffffffffffffffffffffffffffffffffffffffff1661309b9092919063ffffffff16565b8051909150156111ae5780806020019051810190612c0f91906145c2565b6111ae576040517f08c379a000000000000000000000000000000000000000000000000000000000815260206004820152602a60248201527f5361666545524332303a204552433230206f7065726174696f6e20646964206e60448201527f6f74207375636365656400000000000000000000000000000000000000000000606482015260840161140f565b6000806000612caa8686612f16565b509050600080612cbc89898989612838565b73ffffffffffffffffffffffffffffffffffffffff16630902f1ac6040518163ffffffff1660e01b8152600401606060405180830381865afa158015612d06573d6000803e3d6000fd5b505050506040513d601f19601f82011682018060405250810190612d2a9190614954565b506dffffffffffffffffffffffffffff1691506dffffffffffffffffffffffffffff1691508273ffffffffffffffffffffffffffffffffffffffff168873ffffffffffffffffffffffffffffffffffffffff1614612d89578082612d8c565b81815b909a909950975050505050505050565b6000808411612e2d576040517f08c379a000000000000000000000000000000000000000000000000000000000815260206004820152602b60248201527f556e697377617056324c6962726172793a20494e53554646494349454e545f4960448201527f4e5055545f414d4f554e54000000000000000000000000000000000000000000606482015260840161140f565b600083118015612e3d5750600082115b612ec9576040517f08c379a000000000000000000000000000000000000000000000000000000000815260206004820152602860248201527f556e697377617056324c6962726172793a20494e53554646494349454e545f4c60448201527f4951554944495459000000000000000000000000000000000000000000000000606482015260840161140f565b6000612ed7856103e56130b4565b90506000612ee582856130b4565b90506000612eff83612ef9886103e86130b4565b90613144565b9050612f0b818361478f565b979650505050505050565b6000808273ffffffffffffffffffffffffffffffffffffffff168473ffffffffffffffffffffffffffffffffffffffff161415612fd5576040517f08c379a000000000000000000000000000000000000000000000000000000000815260206004820152602560248201527f556e697377617056324c6962726172793a204944454e544943414c5f4144445260448201527f4553534553000000000000000000000000000000000000000000000000000000606482015260840161140f565b8273ffffffffffffffffffffffffffffffffffffffff168473ffffffffffffffffffffffffffffffffffffffff161061300f578284613012565b83835b909250905073ffffffffffffffffffffffffffffffffffffffff8216613094576040517f08c379a000000000000000000000000000000000000000000000000000000000815260206004820152601e60248201527f556e697377617056324c6962726172793a205a45524f5f414444524553530000604482015260640161140f565b9250929050565b60606130aa84846000856131bc565b90505b9392505050565b60008115806130d8575082826130ca8183614752565b92506130d6908361478f565b145b61313e576040517f08c379a000000000000000000000000000000000000000000000000000000000815260206004820152601460248201527f64732d6d6174682d6d756c2d6f766572666c6f77000000000000000000000000604482015260640161140f565b92915050565b60008261315183826148aa565b915081101561313e576040517f08c379a000000000000000000000000000000000000000000000000000000000815260206004820152601460248201527f64732d6d6174682d6164642d6f766572666c6f77000000000000000000000000604482015260640161140f565b60608247101561324e576040517f08c379a000000000000000000000000000000000000000000000000000000000815260206004820152602660248201527f416464726573733a20696e73756666696369656e742062616c616e636520666f60448201527f722063616c6c0000000000000000000000000000000000000000000000000000606482015260840161140f565b73ffffffffffffffffffffffffffffffffffffffff85163b6132cc576040517f08c379a000000000000000000000000000000000000000000000000000000000815260206004820152601d60248201527f416464726573733a2063616c6c20746f206e6f6e2d636f6e7472616374000000604482015260640161140f565b6000808673ffffffffffffffffffffffffffffffffffffffff1685876040516132f591906149a4565b60006040518083038185875af1925050503d8060008114613332576040519150601f19603f3d011682016040523d82523d6000602084013e613337565b606091505b5091509150612f0b828286606083156133515750816130ad565b8251156133615782518084602001fd5b816040517f08c379a000000000000000000000000000000000000000000000000000000000815260040161140f9190614384565b7f4e487b7100000000000000000000000000000000000000000000000000000000600052604160045260246000fd5b6040516080810167ffffffffffffffff811182821017156133e7576133e7613395565b60405290565b6040805190810167ffffffffffffffff811182821017156133e7576133e7613395565b6040516060810167ffffffffffffffff811182821017156133e7576133e7613395565b60405160a0810167ffffffffffffffff811182821017156133e7576133e7613395565b604051610140810167ffffffffffffffff811182821017156133e7576133e7613395565b604051601f82017fffffffffffffffffffffffffffffffffffffffffffffffffffffffffffffffe016810167ffffffffffffffff811182821017156134c1576134c1613395565b604052919050565b600067ffffffffffffffff8211156134e3576134e3613395565b5060051b60200190565b60ff81168114610e4f57600080fd5b600082601f83011261350d57600080fd5b8135602061352261351d836134c9565b61347a565b82815260059290921b8401810191818101908684111561354157600080fd5b8286015b8481101561355c5780358352918301918301613545565b509695505050505050565b600067ffffffffffffffff82111561358157613581613395565b50601f017fffffffffffffffffffffffffffffffffffffffffffffffffffffffffffffffe01660200190565b600082601f8301126135be57600080fd5b81356135cc61351d82613567565b8181528460208386010111156135e157600080fd5b816020850160208301376000918101602001919091529392505050565b600082601f83011261360f57600080fd5b8135602061361f61351d836134c9565b82815260059290921b8401810191818101908684111561363e57600080fd5b8286015b8481101561355c57803567ffffffffffffffff8111156136625760008081fd5b6136708986838b01016135ad565b845250918301918301613642565b60008060006060848603121561369357600080fd5b833567ffffffffffffffff808211156136ab57600080fd5b818601915086601f8301126136bf57600080fd5b813560206136cf61351d836134c9565b82815260059290921b8401810191818101908a8411156136ee57600080fd5b948201945b83861015613715578535613706816134ed565b825294820194908201906136f3565b9750508701359250508082111561372b57600080fd5b613737878388016134fc565b9350604086013591508082111561374d57600080fd5b5061375a868287016135fe565b9150509250925092565b61ffff81168114610e4f57600080fd5b73ffffffffffffffffffffffffffffffffffffffff81168114610e4f57600080fd5b60008060008060008060c087890312156137af57600080fd5b86356137ba81613764565b955060208701356137ca816134ed565b945060408701356137da81613774565b9350606087013592506080870135915060a087013567ffffffffffffffff81111561380457600080fd5b61381089828a016135ad565b9150509295509295509295565b60008060008060008060c0878903121561383657600080fd5b863561384181613764565b9550602087013567ffffffffffffffff8082111561385e57600080fd5b61386a8a838b016135ad565b9650604089013595506060890135915061388382613774565b9093506080880135925060a088013590808211156138a057600080fd5b5061381089828a016135ad565b6000602082840312156138bf57600080fd5b81356130ad81613774565b7f4e487b7100000000000000000000000000000000000000000000000000000000600052603260045260246000fd5b805161390481613774565b919050565b8051801515811461390457600080fd5b600080600080600060a0868803121561393157600080fd5b855161393c81613774565b945061394a60208701613909565b9350604086015161395a816134ed565b6060870151608090970151959894975095949392505050565b6000806000806080858703121561398957600080fd5b845161399481613774565b60208601519094506139a581613774565b6040860151606090960151949790965092505050565b600080600080600060a086880312156139d357600080fd5b85516139de81613774565b60208701519095506139ef81613774565b6040870151606088015191955093509150613a0c60808701613909565b90509295509295909350565b600080600060608486031215613a2d57600080fd5b8351613a3881613774565b6020850151909350613a4981613774565b80925050604084015190509250925092565b600060208284031215613a6d57600080fd5b5051919050565b60008060408385031215613a8757600080fd5b8251613a9281613774565b6020840151909250613aa381613774565b809150509250929050565b60008060008060808587031215613ac457600080fd5b845193506020808601519350604086015167ffffffffffffffff811115613aea57600080fd5b8601601f81018813613afb57600080fd5b8051613b0961351d826134c9565b81815260059190911b8201830190838101908a831115613b2857600080fd5b928401925b82841015613b4f578351613b4081613774565b82529284019290840190613b2d565b8096505050505050613b63606086016138f9565b905092959194509250565b60005b83811015613b89578181015183820152602001613b71565b838111156112335750506000910152565b600082601f830112613bab57600080fd5b8151613bb961351d82613567565b818152846020838601011115613bce57600080fd5b613bdf826020830160208701613b6e565b949350505050565b60006020808385031215613bfa57600080fd5b825167ffffffffffffffff80821115613c1257600080fd5b9084019060808287031215613c2657600080fd5b613c2e6133c4565b8251613c3981613774565b8152828401518482015260408084015181830152606084015183811115613c5f57600080fd5b80850194505087601f850112613c7457600080fd5b8351613c8261351d826134c9565b81815260059190911b8501860190868101908a831115613ca157600080fd5b8787015b83811015613d3b57805187811115613cbd5760008081fd5b8801808d037fffffffffffffffffffffffffffffffffffffffffffffffffffffffffffffffe001861315613cf15760008081fd5b613cf96133ed565b8a820151613d0681613774565b81528187015189811115613d1a5760008081fd5b613d288f8d83860101613b9a565b828d015250845250918801918801613ca5565b506060850152509198975050505050505050565b600082601f830112613d6057600080fd5b81516020613d7061351d836134c9565b82815260059290921b84018101918181019086841115613d8f57600080fd5b8286015b8481101561355c57805167ffffffffffffffff80821115613db45760008081fd5b81890191506080807fffffffffffffffffffffffffffffffffffffffffffffffffffffffffffffffe0848d03011215613ded5760008081fd5b613df56133c4565b87840151613e0281613774565b8152604084810151613e1381613774565b828a01526060858101518581168114613e2c5760008081fd5b83830152928501519284841115613e4557600091508182fd5b613e538e8b86890101613b9a565b90830152508652505050918301918301613d93565b600082601f830112613e7957600080fd5b81516020613e8961351d836134c9565b82815260079290921b84018101918181019086841115613ea857600080fd5b8286015b8481101561355c5760808189031215613ec55760008081fd5b613ecd6133c4565b8151613ed881613774565b815281850151613ee781613774565b818601526040613ef8838201613909565b9082015260608281015190820152835291830191608001613eac565b60006020808385031215613f2757600080fd5b825167ffffffffffffffff80821115613f3f57600080fd5b9084019060608287031215613f5357600080fd5b613f5b613410565b825182811115613f6a57600080fd5b8301601f81018813613f7b57600080fd5b8051613f8961351d826134c9565b81815260059190911b8201860190868101908a831115613fa857600080fd5b8784015b8381101561407057805187811115613fc357600080fd5b850160a0818e037fffffffffffffffffffffffffffffffffffffffffffffffffffffffffffffffe0011215613ff757600080fd5b613fff613433565b8a82015161400c81613774565b8152604082015161401c81613774565b818c015261402c60608301613909565b60408201526080820151606082015260a08201518981111561404e5760008081fd5b61405c8f8d83860101613b9a565b608083015250845250918801918801613fac565b508452505050828401518281111561408757600080fd5b61409388828601613d4f565b858301525060408301519350818411156140ac57600080fd5b6140b887858501613e68565b60408201529695505050505050565b805161390481613764565b600082601f8301126140e357600080fd5b815160206140f361351d836134c9565b82815260059290921b8401810191818101908684111561411257600080fd5b8286015b8481101561355c578051614129816134ed565b8352918301918301614116565b600082601f83011261414757600080fd5b8151602061415761351d836134c9565b82815260059290921b8401810191818101908684111561417657600080fd5b8286015b8481101561355c578051835291830191830161417a565b600082601f8301126141a257600080fd5b815160206141b261351d836134c9565b82815260059290921b840181019181810190868411156141d157600080fd5b8286015b8481101561355c57805167ffffffffffffffff8111156141f55760008081fd5b6142038986838b0101613b9a565b8452509183019183016141d5565b6000806000808486036101a081121561422957600080fd5b6101408082121561423957600080fd5b614241613456565b915061424c876140c7565b825261425a602088016138f9565b602083015260408701516040830152606087015160608301526080870151608083015260a087015160a083015260c087015160c083015261429d60e088016138f9565b60e08301526101006142b08189016138f9565b90830152610120878101519083015286015190945067ffffffffffffffff808211156142db57600080fd5b6142e7888389016140d2565b94506101608701519150808211156142fe57600080fd5b61430a88838901614136565b935061018087015191508082111561432157600080fd5b5061432e87828801614191565b91505092959194509250565b60008151808452614352816020860160208601613b6e565b601f017fffffffffffffffffffffffffffffffffffffffffffffffffffffffffffffffe0169290920160200192915050565b6020815260006130ad602083018461433a565b80518252602081015160208301526000604082015160606040850152613bdf606085018261433a565b61ffff8616815260ff8516602082015260a0604082015260006143e660a083018661433a565b82810360608401526143f8818661433a565b9050828103608084015261440c8185614397565b98975050505050505050565b6000806040838503121561442b57600080fd5b505080516020909101519092909150565b6000806000806080858703121561445257600080fd5b845161445d81613774565b602086015190945067ffffffffffffffff8082111561447b57600080fd5b614487888389016140d2565b9450604087015191508082111561449d57600080fd5b6144a988838901614136565b9350606087015191508082111561432157600080fd5b600081518084526020808501945080840160005b838110156144f257815160ff16875295820195908201906001016144d3565b509495945050505050565b600081518084526020808501945080840160005b838110156144f257815187529582019590820190600101614511565b6000815180845260208085019450848260051b860182860160005b8581101561457257838303895261456083835161433a565b98850198925090840190600101614548565b5090979650505050505050565b60608152600061459260608301866144bf565b82810360208401526145a481866144fd565b905082810360408401526145b8818561452d565b9695505050505050565b6000602082840312156145d457600080fd5b6130ad82613909565b7f4e487b7100000000000000000000000000000000000000000000000000000000600052601160045260246000fd5b60008282101561461e5761461e6145dd565b500390565b600181815b8085111561467c57817fffffffffffffffffffffffffffffffffffffffffffffffffffffffffffffffff04821115614662576146626145dd565b8085161561466f57918102915b93841c9390800290614628565b509250929050565b6000826146935750600161313e565b816146a05750600061313e565b81600181146146b657600281146146c0576146dc565b600191505061313e565b60ff8411156146d1576146d16145dd565b50506001821b61313e565b5060208310610133831016604e8410600b84101617156146ff575081810a61313e565b6147098383614623565b807fffffffffffffffffffffffffffffffffffffffffffffffffffffffffffffffff0482111561473b5761473b6145dd565b029392505050565b60006130ad60ff841683614684565b6000817fffffffffffffffffffffffffffffffffffffffffffffffffffffffffffffffff048311821515161561478a5761478a6145dd565b500290565b6000826147c5577f4e487b7100000000000000000000000000000000000000000000000000000000600052601260045260246000fd5b500490565b73ffffffffffffffffffffffffffffffffffffffff851681526080602082015260006147f960808301866144bf565b828103604084015261480b81866144fd565b90508281036060840152612f0b818561452d565b600061012061ffff8c1683528a602084015289604084015273ffffffffffffffffffffffffffffffffffffffff891660608401528760808401528660a08401528060c084015261487181840187614397565b905082810360e0840152614885818661433a565b905082810361010084015261489a818561433a565b9c9b505050505050505050505050565b600082198211156148bd576148bd6145dd565b500190565b60007fffffffffffffffffffffffffffffffffffffffffffffffffffffffffffffffff8214156148f4576148f46145dd565b5060010190565b84815283602082015273ffffffffffffffffffffffffffffffffffffffff831660408201526080606082015260006145b8608083018461433a565b80516dffffffffffffffffffffffffffff8116811461390457600080fd5b60008060006060848603121561496957600080fd5b61497284614936565b925061498060208501614936565b9150604084015163ffffffff8116811461499957600080fd5b809150509250925092565b600082516149b6818460208701613b6e565b919091019291505056fea264697066735822122039a50691651eac28e7d3e4fd13d06abd5a919070cc3734a2f823bfceccdb067c64736f6c634300080b0033",
  "devdoc": {
    "details": "Supports both BentoBox and Wallet. Supports both Trident and Legacy AMM. Uses Stargate as bridge.",
    "kind": "dev",
    "methods": {
      "approveToStargateRouter(address)": {
        "params": {
          "token": "token to approve"
        }
      },
      "cook(uint8[],uint256[],bytes[])": {
        "details": "The function gets invoked both at the src and dst chain.",
        "params": {
          "actions": "An array with a sequence of actions to execute (see ACTION_ declarations).",
          "datas": "A one-to-one mapped array to `actions`. Contains abi encoded data of function arguments.",
          "values": "A one-to-one mapped array to `actions`. Native token amount to send along action."
        }
      },
      "getFee(uint16,uint8,address,uint256,uint256,bytes)": {
        "params": {
          "_dstChainId": "stargate dst chainId",
          "_dustAmount": "dust amount to be received at the dst chain",
          "_functionType": "stargate Function type 1 for swap. See more at https://stargateprotocol.gitbook.io/stargate/developers/function-types",
          "_gas": "extra gas being sent",
          "_payload": "payload being sent at the dst chain",
          "_receiver": "sushiXswap on the dst chain"
        }
      },
      "sgReceive(uint16,bytes,uint256,address,uint256,bytes)": {
        "params": {
          "_token": "bridge token received",
          "amountLD": "amount received",
          "payload": "ABI-Encoded data received from src chain"
        }
      }
    },
    "title": "SushiXSwap",
    "version": 1
  },
  "userdoc": {
    "kind": "user",
    "methods": {
      "approveToStargateRouter(address)": {
        "notice": "Approves token to the Stargate Router"
      },
      "bentoBox()": {
        "notice": "BentoBox token vault"
      },
      "cook(uint8[],uint256[],bytes[])": {
        "notice": "Executes a set of actions and allows composability (contract calls) to other contracts."
      },
      "factory()": {
        "notice": "Sushiswap Legacy AMM Factory"
      },
      "getFee(uint16,uint8,address,uint256,uint256,bytes)": {
        "notice": "Get the fees to be paid in native token for the swap"
      },
      "pairCodeHash()": {
        "notice": "Sushiswap Legacy AMM PairCodeHash"
      },
      "sgReceive(uint16,bytes,uint256,address,uint256,bytes)": {
        "notice": "Receiver function on dst chain"
      },
      "stargateRouter()": {
        "notice": "Stargate Router for cross chain interaction"
      }
    },
    "notice": "Enables cross chain swap for sushiswap.",
    "version": 1
  },
  "storageLayout": {
    "storage": [],
    "types": null
  }
}